{
	"16-data-locations.sol": {
		"DataLocations": {
			"abi": [
				{
					"inputs": [
						{
							"internalType": "uint256",
							"name": "",
							"type": "uint256"
						}
					],
					"name": "arr",
					"outputs": [
						{
							"internalType": "uint256",
							"name": "",
							"type": "uint256"
						}
					],
					"stateMutability": "view",
					"type": "function"
				},
				{
					"inputs": [],
					"name": "f",
					"outputs": [],
					"stateMutability": "nonpayable",
					"type": "function"
				},
				{
					"inputs": [
						{
							"internalType": "uint256[]",
							"name": "_arr",
							"type": "uint256[]"
						}
					],
					"name": "g",
					"outputs": [
						{
							"internalType": "uint256[]",
							"name": "",
							"type": "uint256[]"
						}
					],
					"stateMutability": "nonpayable",
					"type": "function"
				},
				{
					"inputs": [
						{
							"internalType": "uint256[]",
							"name": "_arr",
							"type": "uint256[]"
						}
					],
					"name": "h",
					"outputs": [],
					"stateMutability": "nonpayable",
					"type": "function"
				},
				{
					"inputs": [
						{
							"internalType": "uint256",
							"name": "",
							"type": "uint256"
						}
					],
					"name": "map",
					"outputs": [
						{
							"internalType": "address",
							"name": "",
							"type": "address"
						}
					],
					"stateMutability": "view",
					"type": "function"
				}
			],
			"devdoc": {
				"kind": "dev",
				"methods": {},
				"version": 1
			},
			"evm": {
				"assembly": "    /* \"16-data-locations.sol\":58:1257  contract DataLocations {... */\n  mstore(0x40, 0x80)\n  callvalue\n  dup1\n  iszero\n  tag_1\n  jumpi\n  0x00\n  dup1\n  revert\ntag_1:\n  pop\n  dataSize(sub_0)\n  dup1\n  dataOffset(sub_0)\n  0x00\n  codecopy\n  0x00\n  return\nstop\n\nsub_0: assembly {\n        /* \"16-data-locations.sol\":58:1257  contract DataLocations {... */\n      mstore(0x40, 0x80)\n      callvalue\n      dup1\n      iszero\n      tag_1\n      jumpi\n      0x00\n      dup1\n      revert\n    tag_1:\n      pop\n      jumpi(tag_2, lt(calldatasize, 0x04))\n      shr(0xe0, calldataload(0x00))\n      dup1\n      0x26121ff0\n      eq\n      tag_3\n      jumpi\n      dup1\n      0x40dcbb08\n      eq\n      tag_4\n      jumpi\n      dup1\n      0x71e5ee5f\n      eq\n      tag_5\n      jumpi\n      dup1\n      0xb8dda9c7\n      eq\n      tag_6\n      jumpi\n      dup1\n      0xbaf71609\n      eq\n      tag_7\n      jumpi\n    tag_2:\n      0x00\n      dup1\n      revert\n        /* \"16-data-locations.sol\":253:534  function f() public {... */\n    tag_3:\n      tag_8\n      tag_9\n      jump\t// in\n    tag_8:\n      stop\n        /* \"16-data-locations.sol\":1159:1255  function h(uint256[] calldata _arr) external {... */\n    tag_4:\n      tag_10\n      0x04\n      dup1\n      calldatasize\n      sub\n      dup2\n      add\n      swap1\n      tag_11\n      swap2\n      swap1\n      tag_12\n      jump\t// in\n    tag_11:\n      tag_13\n      jump\t// in\n    tag_10:\n      stop\n        /* \"16-data-locations.sol\":87:107  uint256[] public arr */\n    tag_5:\n      tag_14\n      0x04\n      dup1\n      calldatasize\n      sub\n      dup2\n      add\n      swap1\n      tag_15\n      swap2\n      swap1\n      tag_16\n      jump\t// in\n    tag_15:\n      tag_17\n      jump\t// in\n    tag_14:\n      mload(0x40)\n      tag_18\n      swap2\n      swap1\n      tag_19\n      jump\t// in\n    tag_18:\n      mload(0x40)\n      dup1\n      swap2\n      sub\n      swap1\n      return\n        /* \"16-data-locations.sol\":113:151  mapping(uint256 => address) public map */\n    tag_6:\n      tag_20\n      0x04\n      dup1\n      calldatasize\n      sub\n      dup2\n      add\n      swap1\n      tag_21\n      swap2\n      swap1\n      tag_16\n      jump\t// in\n    tag_21:\n      tag_22\n      jump\t// in\n    tag_20:\n      mload(0x40)\n      tag_23\n      swap2\n      swap1\n      tag_24\n      jump\t// in\n    tag_23:\n      mload(0x40)\n      dup1\n      swap2\n      sub\n      swap1\n      return\n        /* \"16-data-locations.sol\":1003:1153  function g(uint256[] memory _arr) public returns (uint256[] memory) {... */\n    tag_7:\n      tag_25\n      0x04\n      dup1\n      calldatasize\n      sub\n      dup2\n      add\n      swap1\n      tag_26\n      swap2\n      swap1\n      tag_27\n      jump\t// in\n    tag_26:\n      tag_28\n      jump\t// in\n    tag_25:\n      mload(0x40)\n      tag_29\n      swap2\n      swap1\n      tag_30\n      jump\t// in\n    tag_29:\n      mload(0x40)\n      dup1\n      swap2\n      sub\n      swap1\n      return\n        /* \"16-data-locations.sol\":253:534  function f() public {... */\n    tag_9:\n        /* \"16-data-locations.sol\":323:349  _f(arr, map, myStructs[1]) */\n      tag_32\n        /* \"16-data-locations.sol\":326:329  arr */\n      0x00\n        /* \"16-data-locations.sol\":331:334  map */\n      0x01\n        /* \"16-data-locations.sol\":336:345  myStructs */\n      0x02\n        /* \"16-data-locations.sol\":336:348  myStructs[1] */\n      0x00\n        /* \"16-data-locations.sol\":346:347  1 */\n      0x01\n        /* \"16-data-locations.sol\":336:348  myStructs[1] */\n      dup2\n      mstore\n      0x20\n      add\n      swap1\n      dup2\n      mstore\n      0x20\n      add\n      0x00\n      keccak256\n        /* \"16-data-locations.sol\":323:325  _f */\n      tag_33\n        /* \"16-data-locations.sol\":323:349  _f(arr, map, myStructs[1]) */\n      jump\t// in\n    tag_32:\n        /* \"16-data-locations.sol\":399:424  MyStruct storage myStruct */\n      0x00\n        /* \"16-data-locations.sol\":427:436  myStructs */\n      0x02\n        /* \"16-data-locations.sol\":427:439  myStructs[1] */\n      0x00\n        /* \"16-data-locations.sol\":437:438  1 */\n      0x01\n        /* \"16-data-locations.sol\":427:439  myStructs[1] */\n      dup2\n      mstore\n      0x20\n      add\n      swap1\n      dup2\n      mstore\n      0x20\n      add\n      0x00\n      keccak256\n        /* \"16-data-locations.sol\":399:439  MyStruct storage myStruct = myStructs[1] */\n      swap1\n      pop\n        /* \"16-data-locations.sol\":486:513  MyStruct memory myMemStruct */\n      0x00\n        /* \"16-data-locations.sol\":516:527  MyStruct(0) */\n      mload(0x40)\n      dup1\n      0x20\n      add\n      0x40\n      mstore\n      dup1\n        /* \"16-data-locations.sol\":525:526  0 */\n      0x00\n        /* \"16-data-locations.sol\":516:527  MyStruct(0) */\n      dup2\n      mstore\n      pop\n        /* \"16-data-locations.sol\":486:527  MyStruct memory myMemStruct = MyStruct(0) */\n      swap1\n      pop\n        /* \"16-data-locations.sol\":273:534  {... */\n      pop\n      pop\n        /* \"16-data-locations.sol\":253:534  function f() public {... */\n      jump\t// out\n        /* \"16-data-locations.sol\":1159:1255  function h(uint256[] calldata _arr) external {... */\n    tag_13:\n      pop\n      pop\n      jump\t// out\n        /* \"16-data-locations.sol\":87:107  uint256[] public arr */\n    tag_17:\n      0x00\n      dup2\n      dup2\n      sload\n      dup2\n      lt\n      tag_35\n      jumpi\n      0x00\n      dup1\n      revert\n    tag_35:\n      swap1\n      0x00\n      mstore\n      keccak256(0x00, 0x20)\n      add\n      0x00\n      swap2\n      pop\n      swap1\n      pop\n      sload\n      dup2\n      jump\t// out\n        /* \"16-data-locations.sol\":113:151  mapping(uint256 => address) public map */\n    tag_22:\n      mstore(0x20, 0x01)\n      dup1\n      0x00\n      mstore\n      keccak256(0x00, 0x40)\n      0x00\n      swap2\n      pop\n      sload\n      swap1\n      0x0100\n      exp\n      swap1\n      div\n      0xffffffffffffffffffffffffffffffffffffffff\n      and\n      dup2\n      jump\t// out\n        /* \"16-data-locations.sol\":1003:1153  function g(uint256[] memory _arr) public returns (uint256[] memory) {... */\n    tag_28:\n        /* \"16-data-locations.sol\":1053:1069  uint256[] memory */\n      0x60\n        /* \"16-data-locations.sol\":1003:1153  function g(uint256[] memory _arr) public returns (uint256[] memory) {... */\n      swap2\n      swap1\n      pop\n      jump\t// out\n        /* \"16-data-locations.sol\":540:958  function _f(... */\n    tag_33:\n        /* \"16-data-locations.sol\":752:794  0xAb8483F64d9C6d1EcF9b849Ae677dD3315835cb2 */\n      0xab8483f64d9c6d1ecf9b849ae677dd3315835cb2\n        /* \"16-data-locations.sol\":742:746  _map */\n      dup3\n        /* \"16-data-locations.sol\":742:749  _map[0] */\n      0x00\n        /* \"16-data-locations.sol\":747:748  0 */\n      dup1\n        /* \"16-data-locations.sol\":742:749  _map[0] */\n      dup2\n      mstore\n      0x20\n      add\n      swap1\n      dup2\n      mstore\n      0x20\n      add\n      0x00\n      keccak256\n      0x00\n        /* \"16-data-locations.sol\":742:794  _map[0] = 0xAb8483F64d9C6d1EcF9b849Ae677dD3315835cb2 */\n      0x0100\n      exp\n      dup2\n      sload\n      dup2\n      0xffffffffffffffffffffffffffffffffffffffff\n      mul\n      not\n      and\n      swap1\n      dup4\n      0xffffffffffffffffffffffffffffffffffffffff\n      and\n      mul\n      or\n      swap1\n      sstore\n      pop\n        /* \"16-data-locations.sol\":814:856  0x4B20993Bc481177ec7E8f571ceCaE8A9e22C02db */\n      0x4b20993bc481177ec7e8f571cecae8a9e22c02db\n        /* \"16-data-locations.sol\":804:808  _map */\n      dup3\n        /* \"16-data-locations.sol\":804:811  _map[1] */\n      0x00\n        /* \"16-data-locations.sol\":809:810  1 */\n      0x01\n        /* \"16-data-locations.sol\":804:811  _map[1] */\n      dup2\n      mstore\n      0x20\n      add\n      swap1\n      dup2\n      mstore\n      0x20\n      add\n      0x00\n      keccak256\n      0x00\n        /* \"16-data-locations.sol\":804:856  _map[1] = 0x4B20993Bc481177ec7E8f571ceCaE8A9e22C02db */\n      0x0100\n      exp\n      dup2\n      sload\n      dup2\n      0xffffffffffffffffffffffffffffffffffffffff\n      mul\n      not\n      and\n      swap1\n      dup4\n      0xffffffffffffffffffffffffffffffffffffffff\n      and\n      mul\n      or\n      swap1\n      sstore\n      pop\n        /* \"16-data-locations.sol\":866:870  _arr */\n      dup3\n        /* \"16-data-locations.sol\":876:877  1 */\n      0x01\n        /* \"16-data-locations.sol\":866:878  _arr.push(1) */\n      swap1\n      dup1\n      0x01\n      dup2\n      sload\n      add\n      dup1\n      dup3\n      sstore\n      dup1\n      swap2\n      pop\n      pop\n      0x01\n      swap1\n      sub\n      swap1\n      0x00\n      mstore\n      keccak256(0x00, 0x20)\n      add\n      0x00\n      swap1\n      swap2\n      swap1\n      swap2\n      swap1\n      swap2\n      pop\n      sstore\n        /* \"16-data-locations.sol\":888:892  _arr */\n      dup3\n        /* \"16-data-locations.sol\":898:899  2 */\n      0x02\n        /* \"16-data-locations.sol\":888:900  _arr.push(2) */\n      swap1\n      dup1\n      0x01\n      dup2\n      sload\n      add\n      dup1\n      dup3\n      sstore\n      dup1\n      swap2\n      pop\n      pop\n      0x01\n      swap1\n      sub\n      swap1\n      0x00\n      mstore\n      keccak256(0x00, 0x20)\n      add\n      0x00\n      swap1\n      swap2\n      swap1\n      swap2\n      swap1\n      swap2\n      pop\n      sstore\n        /* \"16-data-locations.sol\":910:914  _arr */\n      dup3\n        /* \"16-data-locations.sol\":920:921  3 */\n      0x03\n        /* \"16-data-locations.sol\":910:922  _arr.push(3) */\n      swap1\n      dup1\n      0x01\n      dup2\n      sload\n      add\n      dup1\n      dup3\n      sstore\n      dup1\n      swap2\n      pop\n      pop\n      0x01\n      swap1\n      sub\n      swap1\n      0x00\n      mstore\n      keccak256(0x00, 0x20)\n      add\n      0x00\n      swap1\n      swap2\n      swap1\n      swap2\n      swap1\n      swap2\n      pop\n      sstore\n        /* \"16-data-locations.sol\":948:951  123 */\n      0x7b\n        /* \"16-data-locations.sol\":932:941  _myStruct */\n      dup2\n        /* \"16-data-locations.sol\":932:945  _myStruct.foo */\n      0x00\n      add\n        /* \"16-data-locations.sol\":932:951  _myStruct.foo = 123 */\n      dup2\n      swap1\n      sstore\n      pop\n        /* \"16-data-locations.sol\":540:958  function _f(... */\n      pop\n      pop\n      pop\n      jump\t// out\n        /* \"#utility.yul\":7:82   */\n    tag_42:\n        /* \"#utility.yul\":40:46   */\n      0x00\n        /* \"#utility.yul\":73:75   */\n      0x40\n        /* \"#utility.yul\":67:76   */\n      mload\n        /* \"#utility.yul\":57:76   */\n      swap1\n      pop\n        /* \"#utility.yul\":7:82   */\n      swap1\n      jump\t// out\n        /* \"#utility.yul\":88:205   */\n    tag_43:\n        /* \"#utility.yul\":197:198   */\n      0x00\n        /* \"#utility.yul\":194:195   */\n      dup1\n        /* \"#utility.yul\":187:199   */\n      revert\n        /* \"#utility.yul\":211:328   */\n    tag_44:\n        /* \"#utility.yul\":320:321   */\n      0x00\n        /* \"#utility.yul\":317:318   */\n      dup1\n        /* \"#utility.yul\":310:322   */\n      revert\n        /* \"#utility.yul\":334:451   */\n    tag_45:\n        /* \"#utility.yul\":443:444   */\n      0x00\n        /* \"#utility.yul\":440:441   */\n      dup1\n        /* \"#utility.yul\":433:445   */\n      revert\n        /* \"#utility.yul\":457:574   */\n    tag_46:\n        /* \"#utility.yul\":566:567   */\n      0x00\n        /* \"#utility.yul\":563:564   */\n      dup1\n        /* \"#utility.yul\":556:568   */\n      revert\n        /* \"#utility.yul\":580:697   */\n    tag_47:\n        /* \"#utility.yul\":689:690   */\n      0x00\n        /* \"#utility.yul\":686:687   */\n      dup1\n        /* \"#utility.yul\":679:691   */\n      revert\n        /* \"#utility.yul\":720:1288   */\n    tag_48:\n        /* \"#utility.yul\":793:801   */\n      0x00\n        /* \"#utility.yul\":803:809   */\n      dup1\n        /* \"#utility.yul\":853:856   */\n      dup4\n        /* \"#utility.yul\":846:850   */\n      0x1f\n        /* \"#utility.yul\":838:844   */\n      dup5\n        /* \"#utility.yul\":834:851   */\n      add\n        /* \"#utility.yul\":830:857   */\n      slt\n        /* \"#utility.yul\":820:942   */\n      tag_78\n      jumpi\n        /* \"#utility.yul\":861:940   */\n      tag_79\n      tag_45\n      jump\t// in\n    tag_79:\n        /* \"#utility.yul\":820:942   */\n    tag_78:\n        /* \"#utility.yul\":974:980   */\n      dup3\n        /* \"#utility.yul\":961:981   */\n      calldataload\n        /* \"#utility.yul\":951:981   */\n      swap1\n      pop\n        /* \"#utility.yul\":1004:1022   */\n      0xffffffffffffffff\n        /* \"#utility.yul\":996:1002   */\n      dup2\n        /* \"#utility.yul\":993:1023   */\n      gt\n        /* \"#utility.yul\":990:1107   */\n      iszero\n      tag_80\n      jumpi\n        /* \"#utility.yul\":1026:1105   */\n      tag_81\n      tag_46\n      jump\t// in\n    tag_81:\n        /* \"#utility.yul\":990:1107   */\n    tag_80:\n        /* \"#utility.yul\":1140:1144   */\n      0x20\n        /* \"#utility.yul\":1132:1138   */\n      dup4\n        /* \"#utility.yul\":1128:1145   */\n      add\n        /* \"#utility.yul\":1116:1145   */\n      swap2\n      pop\n        /* \"#utility.yul\":1194:1197   */\n      dup4\n        /* \"#utility.yul\":1186:1190   */\n      0x20\n        /* \"#utility.yul\":1178:1184   */\n      dup3\n        /* \"#utility.yul\":1174:1191   */\n      mul\n        /* \"#utility.yul\":1164:1172   */\n      dup4\n        /* \"#utility.yul\":1160:1192   */\n      add\n        /* \"#utility.yul\":1157:1198   */\n      gt\n        /* \"#utility.yul\":1154:1282   */\n      iszero\n      tag_82\n      jumpi\n        /* \"#utility.yul\":1201:1280   */\n      tag_83\n      tag_47\n      jump\t// in\n    tag_83:\n        /* \"#utility.yul\":1154:1282   */\n    tag_82:\n        /* \"#utility.yul\":720:1288   */\n      swap3\n      pop\n      swap3\n      swap1\n      pop\n      jump\t// out\n        /* \"#utility.yul\":1294:1853   */\n    tag_12:\n        /* \"#utility.yul\":1380:1386   */\n      0x00\n        /* \"#utility.yul\":1388:1394   */\n      dup1\n        /* \"#utility.yul\":1437:1439   */\n      0x20\n        /* \"#utility.yul\":1425:1434   */\n      dup4\n        /* \"#utility.yul\":1416:1423   */\n      dup6\n        /* \"#utility.yul\":1412:1435   */\n      sub\n        /* \"#utility.yul\":1408:1440   */\n      slt\n        /* \"#utility.yul\":1405:1524   */\n      iszero\n      tag_85\n      jumpi\n        /* \"#utility.yul\":1443:1522   */\n      tag_86\n      tag_43\n      jump\t// in\n    tag_86:\n        /* \"#utility.yul\":1405:1524   */\n    tag_85:\n        /* \"#utility.yul\":1591:1592   */\n      0x00\n        /* \"#utility.yul\":1580:1589   */\n      dup4\n        /* \"#utility.yul\":1576:1593   */\n      add\n        /* \"#utility.yul\":1563:1594   */\n      calldataload\n        /* \"#utility.yul\":1621:1639   */\n      0xffffffffffffffff\n        /* \"#utility.yul\":1613:1619   */\n      dup2\n        /* \"#utility.yul\":1610:1640   */\n      gt\n        /* \"#utility.yul\":1607:1724   */\n      iszero\n      tag_87\n      jumpi\n        /* \"#utility.yul\":1643:1722   */\n      tag_88\n      tag_44\n      jump\t// in\n    tag_88:\n        /* \"#utility.yul\":1607:1724   */\n    tag_87:\n        /* \"#utility.yul\":1756:1836   */\n      tag_89\n        /* \"#utility.yul\":1828:1835   */\n      dup6\n        /* \"#utility.yul\":1819:1825   */\n      dup3\n        /* \"#utility.yul\":1808:1817   */\n      dup7\n        /* \"#utility.yul\":1804:1826   */\n      add\n        /* \"#utility.yul\":1756:1836   */\n      tag_48\n      jump\t// in\n    tag_89:\n        /* \"#utility.yul\":1738:1836   */\n      swap3\n      pop\n      swap3\n      pop\n        /* \"#utility.yul\":1534:1846   */\n      pop\n        /* \"#utility.yul\":1294:1853   */\n      swap3\n      pop\n      swap3\n      swap1\n      pop\n      jump\t// out\n        /* \"#utility.yul\":1859:1936   */\n    tag_49:\n        /* \"#utility.yul\":1896:1903   */\n      0x00\n        /* \"#utility.yul\":1925:1930   */\n      dup2\n        /* \"#utility.yul\":1914:1930   */\n      swap1\n      pop\n        /* \"#utility.yul\":1859:1936   */\n      swap2\n      swap1\n      pop\n      jump\t// out\n        /* \"#utility.yul\":1942:2064   */\n    tag_50:\n        /* \"#utility.yul\":2015:2039   */\n      tag_92\n        /* \"#utility.yul\":2033:2038   */\n      dup2\n        /* \"#utility.yul\":2015:2039   */\n      tag_49\n      jump\t// in\n    tag_92:\n        /* \"#utility.yul\":2008:2013   */\n      dup2\n        /* \"#utility.yul\":2005:2040   */\n      eq\n        /* \"#utility.yul\":1995:2058   */\n      tag_93\n      jumpi\n        /* \"#utility.yul\":2054:2055   */\n      0x00\n        /* \"#utility.yul\":2051:2052   */\n      dup1\n        /* \"#utility.yul\":2044:2056   */\n      revert\n        /* \"#utility.yul\":1995:2058   */\n    tag_93:\n        /* \"#utility.yul\":1942:2064   */\n      pop\n      jump\t// out\n        /* \"#utility.yul\":2070:2209   */\n    tag_51:\n        /* \"#utility.yul\":2116:2121   */\n      0x00\n        /* \"#utility.yul\":2154:2160   */\n      dup2\n        /* \"#utility.yul\":2141:2161   */\n      calldataload\n        /* \"#utility.yul\":2132:2161   */\n      swap1\n      pop\n        /* \"#utility.yul\":2170:2203   */\n      tag_95\n        /* \"#utility.yul\":2197:2202   */\n      dup2\n        /* \"#utility.yul\":2170:2203   */\n      tag_50\n      jump\t// in\n    tag_95:\n        /* \"#utility.yul\":2070:2209   */\n      swap3\n      swap2\n      pop\n      pop\n      jump\t// out\n        /* \"#utility.yul\":2215:2544   */\n    tag_16:\n        /* \"#utility.yul\":2274:2280   */\n      0x00\n        /* \"#utility.yul\":2323:2325   */\n      0x20\n        /* \"#utility.yul\":2311:2320   */\n      dup3\n        /* \"#utility.yul\":2302:2309   */\n      dup5\n        /* \"#utility.yul\":2298:2321   */\n      sub\n        /* \"#utility.yul\":2294:2326   */\n      slt\n        /* \"#utility.yul\":2291:2410   */\n      iszero\n      tag_97\n      jumpi\n        /* \"#utility.yul\":2329:2408   */\n      tag_98\n      tag_43\n      jump\t// in\n    tag_98:\n        /* \"#utility.yul\":2291:2410   */\n    tag_97:\n        /* \"#utility.yul\":2449:2450   */\n      0x00\n        /* \"#utility.yul\":2474:2527   */\n      tag_99\n        /* \"#utility.yul\":2519:2526   */\n      dup5\n        /* \"#utility.yul\":2510:2516   */\n      dup3\n        /* \"#utility.yul\":2499:2508   */\n      dup6\n        /* \"#utility.yul\":2495:2517   */\n      add\n        /* \"#utility.yul\":2474:2527   */\n      tag_51\n      jump\t// in\n    tag_99:\n        /* \"#utility.yul\":2464:2527   */\n      swap2\n      pop\n        /* \"#utility.yul\":2420:2537   */\n      pop\n        /* \"#utility.yul\":2215:2544   */\n      swap3\n      swap2\n      pop\n      pop\n      jump\t// out\n        /* \"#utility.yul\":2550:2668   */\n    tag_52:\n        /* \"#utility.yul\":2637:2661   */\n      tag_101\n        /* \"#utility.yul\":2655:2660   */\n      dup2\n        /* \"#utility.yul\":2637:2661   */\n      tag_49\n      jump\t// in\n    tag_101:\n        /* \"#utility.yul\":2632:2635   */\n      dup3\n        /* \"#utility.yul\":2625:2662   */\n      mstore\n        /* \"#utility.yul\":2550:2668   */\n      pop\n      pop\n      jump\t// out\n        /* \"#utility.yul\":2674:2896   */\n    tag_19:\n        /* \"#utility.yul\":2767:2771   */\n      0x00\n        /* \"#utility.yul\":2805:2807   */\n      0x20\n        /* \"#utility.yul\":2794:2803   */\n      dup3\n        /* \"#utility.yul\":2790:2808   */\n      add\n        /* \"#utility.yul\":2782:2808   */\n      swap1\n      pop\n        /* \"#utility.yul\":2818:2889   */\n      tag_103\n        /* \"#utility.yul\":2886:2887   */\n      0x00\n        /* \"#utility.yul\":2875:2884   */\n      dup4\n        /* \"#utility.yul\":2871:2888   */\n      add\n        /* \"#utility.yul\":2862:2868   */\n      dup5\n        /* \"#utility.yul\":2818:2889   */\n      tag_52\n      jump\t// in\n    tag_103:\n        /* \"#utility.yul\":2674:2896   */\n      swap3\n      swap2\n      pop\n      pop\n      jump\t// out\n        /* \"#utility.yul\":2902:3028   */\n    tag_53:\n        /* \"#utility.yul\":2939:2946   */\n      0x00\n        /* \"#utility.yul\":2979:3021   */\n      0xffffffffffffffffffffffffffffffffffffffff\n        /* \"#utility.yul\":2972:2977   */\n      dup3\n        /* \"#utility.yul\":2968:3022   */\n      and\n        /* \"#utility.yul\":2957:3022   */\n      swap1\n      pop\n        /* \"#utility.yul\":2902:3028   */\n      swap2\n      swap1\n      pop\n      jump\t// out\n        /* \"#utility.yul\":3034:3130   */\n    tag_54:\n        /* \"#utility.yul\":3071:3078   */\n      0x00\n        /* \"#utility.yul\":3100:3124   */\n      tag_106\n        /* \"#utility.yul\":3118:3123   */\n      dup3\n        /* \"#utility.yul\":3100:3124   */\n      tag_53\n      jump\t// in\n    tag_106:\n        /* \"#utility.yul\":3089:3124   */\n      swap1\n      pop\n        /* \"#utility.yul\":3034:3130   */\n      swap2\n      swap1\n      pop\n      jump\t// out\n        /* \"#utility.yul\":3136:3254   */\n    tag_55:\n        /* \"#utility.yul\":3223:3247   */\n      tag_108\n        /* \"#utility.yul\":3241:3246   */\n      dup2\n        /* \"#utility.yul\":3223:3247   */\n      tag_54\n      jump\t// in\n    tag_108:\n        /* \"#utility.yul\":3218:3221   */\n      dup3\n        /* \"#utility.yul\":3211:3248   */\n      mstore\n        /* \"#utility.yul\":3136:3254   */\n      pop\n      pop\n      jump\t// out\n        /* \"#utility.yul\":3260:3482   */\n    tag_24:\n        /* \"#utility.yul\":3353:3357   */\n      0x00\n        /* \"#utility.yul\":3391:3393   */\n      0x20\n        /* \"#utility.yul\":3380:3389   */\n      dup3\n        /* \"#utility.yul\":3376:3394   */\n      add\n        /* \"#utility.yul\":3368:3394   */\n      swap1\n      pop\n        /* \"#utility.yul\":3404:3475   */\n      tag_110\n        /* \"#utility.yul\":3472:3473   */\n      0x00\n        /* \"#utility.yul\":3461:3470   */\n      dup4\n        /* \"#utility.yul\":3457:3474   */\n      add\n        /* \"#utility.yul\":3448:3454   */\n      dup5\n        /* \"#utility.yul\":3404:3475   */\n      tag_55\n      jump\t// in\n    tag_110:\n        /* \"#utility.yul\":3260:3482   */\n      swap3\n      swap2\n      pop\n      pop\n      jump\t// out\n        /* \"#utility.yul\":3488:3590   */\n    tag_56:\n        /* \"#utility.yul\":3529:3535   */\n      0x00\n        /* \"#utility.yul\":3580:3582   */\n      0x1f\n        /* \"#utility.yul\":3576:3583   */\n      not\n        /* \"#utility.yul\":3571:3573   */\n      0x1f\n        /* \"#utility.yul\":3564:3569   */\n      dup4\n        /* \"#utility.yul\":3560:3574   */\n      add\n        /* \"#utility.yul\":3556:3584   */\n      and\n        /* \"#utility.yul\":3546:3584   */\n      swap1\n      pop\n        /* \"#utility.yul\":3488:3590   */\n      swap2\n      swap1\n      pop\n      jump\t// out\n        /* \"#utility.yul\":3596:3776   */\n    tag_57:\n        /* \"#utility.yul\":3644:3721   */\n      0x4e487b7100000000000000000000000000000000000000000000000000000000\n        /* \"#utility.yul\":3641:3642   */\n      0x00\n        /* \"#utility.yul\":3634:3722   */\n      mstore\n        /* \"#utility.yul\":3741:3745   */\n      0x41\n        /* \"#utility.yul\":3738:3739   */\n      0x04\n        /* \"#utility.yul\":3731:3746   */\n      mstore\n        /* \"#utility.yul\":3765:3769   */\n      0x24\n        /* \"#utility.yul\":3762:3763   */\n      0x00\n        /* \"#utility.yul\":3755:3770   */\n      revert\n        /* \"#utility.yul\":3782:4063   */\n    tag_58:\n        /* \"#utility.yul\":3865:3892   */\n      tag_114\n        /* \"#utility.yul\":3887:3891   */\n      dup3\n        /* \"#utility.yul\":3865:3892   */\n      tag_56\n      jump\t// in\n    tag_114:\n        /* \"#utility.yul\":3857:3863   */\n      dup2\n        /* \"#utility.yul\":3853:3893   */\n      add\n        /* \"#utility.yul\":3995:4001   */\n      dup2\n        /* \"#utility.yul\":3983:3993   */\n      dup2\n        /* \"#utility.yul\":3980:4002   */\n      lt\n        /* \"#utility.yul\":3959:3977   */\n      0xffffffffffffffff\n        /* \"#utility.yul\":3947:3957   */\n      dup3\n        /* \"#utility.yul\":3944:3978   */\n      gt\n        /* \"#utility.yul\":3941:4003   */\n      or\n        /* \"#utility.yul\":3938:4026   */\n      iszero\n      tag_115\n      jumpi\n        /* \"#utility.yul\":4006:4024   */\n      tag_116\n      tag_57\n      jump\t// in\n    tag_116:\n        /* \"#utility.yul\":3938:4026   */\n    tag_115:\n        /* \"#utility.yul\":4046:4056   */\n      dup1\n        /* \"#utility.yul\":4042:4044   */\n      0x40\n        /* \"#utility.yul\":4035:4057   */\n      mstore\n        /* \"#utility.yul\":3825:4063   */\n      pop\n        /* \"#utility.yul\":3782:4063   */\n      pop\n      pop\n      jump\t// out\n        /* \"#utility.yul\":4069:4198   */\n    tag_59:\n        /* \"#utility.yul\":4103:4109   */\n      0x00\n        /* \"#utility.yul\":4130:4150   */\n      tag_118\n      tag_42\n      jump\t// in\n    tag_118:\n        /* \"#utility.yul\":4120:4150   */\n      swap1\n      pop\n        /* \"#utility.yul\":4159:4192   */\n      tag_119\n        /* \"#utility.yul\":4187:4191   */\n      dup3\n        /* \"#utility.yul\":4179:4185   */\n      dup3\n        /* \"#utility.yul\":4159:4192   */\n      tag_58\n      jump\t// in\n    tag_119:\n        /* \"#utility.yul\":4069:4198   */\n      swap2\n      swap1\n      pop\n      jump\t// out\n        /* \"#utility.yul\":4204:4515   */\n    tag_60:\n        /* \"#utility.yul\":4281:4285   */\n      0x00\n        /* \"#utility.yul\":4371:4389   */\n      0xffffffffffffffff\n        /* \"#utility.yul\":4363:4369   */\n      dup3\n        /* \"#utility.yul\":4360:4390   */\n      gt\n        /* \"#utility.yul\":4357:4413   */\n      iszero\n      tag_121\n      jumpi\n        /* \"#utility.yul\":4393:4411   */\n      tag_122\n      tag_57\n      jump\t// in\n    tag_122:\n        /* \"#utility.yul\":4357:4413   */\n    tag_121:\n        /* \"#utility.yul\":4443:4447   */\n      0x20\n        /* \"#utility.yul\":4435:4441   */\n      dup3\n        /* \"#utility.yul\":4431:4448   */\n      mul\n        /* \"#utility.yul\":4423:4448   */\n      swap1\n      pop\n        /* \"#utility.yul\":4503:4507   */\n      0x20\n        /* \"#utility.yul\":4497:4501   */\n      dup2\n        /* \"#utility.yul\":4493:4508   */\n      add\n        /* \"#utility.yul\":4485:4508   */\n      swap1\n      pop\n        /* \"#utility.yul\":4204:4515   */\n      swap2\n      swap1\n      pop\n      jump\t// out\n        /* \"#utility.yul\":4538:5248   */\n    tag_61:\n        /* \"#utility.yul\":4634:4639   */\n      0x00\n        /* \"#utility.yul\":4659:4740   */\n      tag_124\n        /* \"#utility.yul\":4675:4739   */\n      tag_125\n        /* \"#utility.yul\":4732:4738   */\n      dup5\n        /* \"#utility.yul\":4675:4739   */\n      tag_60\n      jump\t// in\n    tag_125:\n        /* \"#utility.yul\":4659:4740   */\n      tag_59\n      jump\t// in\n    tag_124:\n        /* \"#utility.yul\":4650:4740   */\n      swap1\n      pop\n        /* \"#utility.yul\":4760:4765   */\n      dup1\n        /* \"#utility.yul\":4789:4795   */\n      dup4\n        /* \"#utility.yul\":4782:4787   */\n      dup3\n        /* \"#utility.yul\":4775:4796   */\n      mstore\n        /* \"#utility.yul\":4823:4827   */\n      0x20\n        /* \"#utility.yul\":4816:4821   */\n      dup3\n        /* \"#utility.yul\":4812:4828   */\n      add\n        /* \"#utility.yul\":4805:4828   */\n      swap1\n      pop\n        /* \"#utility.yul\":4876:4880   */\n      0x20\n        /* \"#utility.yul\":4868:4874   */\n      dup5\n        /* \"#utility.yul\":4864:4881   */\n      mul\n        /* \"#utility.yul\":4856:4862   */\n      dup4\n        /* \"#utility.yul\":4852:4882   */\n      add\n        /* \"#utility.yul\":4905:4908   */\n      dup6\n        /* \"#utility.yul\":4897:4903   */\n      dup2\n        /* \"#utility.yul\":4894:4909   */\n      gt\n        /* \"#utility.yul\":4891:5013   */\n      iszero\n      tag_126\n      jumpi\n        /* \"#utility.yul\":4924:5003   */\n      tag_127\n      tag_47\n      jump\t// in\n    tag_127:\n        /* \"#utility.yul\":4891:5013   */\n    tag_126:\n        /* \"#utility.yul\":5039:5045   */\n      dup4\n        /* \"#utility.yul\":5022:5242   */\n    tag_128:\n        /* \"#utility.yul\":5056:5062   */\n      dup2\n        /* \"#utility.yul\":5051:5054   */\n      dup2\n        /* \"#utility.yul\":5048:5063   */\n      lt\n        /* \"#utility.yul\":5022:5242   */\n      iszero\n      tag_130\n      jumpi\n        /* \"#utility.yul\":5131:5134   */\n      dup1\n        /* \"#utility.yul\":5160:5197   */\n      tag_131\n        /* \"#utility.yul\":5193:5196   */\n      dup9\n        /* \"#utility.yul\":5181:5191   */\n      dup3\n        /* \"#utility.yul\":5160:5197   */\n      tag_51\n      jump\t// in\n    tag_131:\n        /* \"#utility.yul\":5155:5158   */\n      dup5\n        /* \"#utility.yul\":5148:5198   */\n      mstore\n        /* \"#utility.yul\":5227:5231   */\n      0x20\n        /* \"#utility.yul\":5222:5225   */\n      dup5\n        /* \"#utility.yul\":5218:5232   */\n      add\n        /* \"#utility.yul\":5211:5232   */\n      swap4\n      pop\n        /* \"#utility.yul\":5098:5242   */\n      pop\n        /* \"#utility.yul\":5082:5086   */\n      0x20\n        /* \"#utility.yul\":5077:5080   */\n      dup2\n        /* \"#utility.yul\":5073:5087   */\n      add\n        /* \"#utility.yul\":5066:5087   */\n      swap1\n      pop\n        /* \"#utility.yul\":5022:5242   */\n      jump(tag_128)\n    tag_130:\n        /* \"#utility.yul\":5026:5047   */\n      pop\n        /* \"#utility.yul\":4640:5248   */\n      pop\n      pop\n        /* \"#utility.yul\":4538:5248   */\n      swap4\n      swap3\n      pop\n      pop\n      pop\n      jump\t// out\n        /* \"#utility.yul\":5271:5641   */\n    tag_62:\n        /* \"#utility.yul\":5342:5347   */\n      0x00\n        /* \"#utility.yul\":5391:5394   */\n      dup3\n        /* \"#utility.yul\":5384:5388   */\n      0x1f\n        /* \"#utility.yul\":5376:5382   */\n      dup4\n        /* \"#utility.yul\":5372:5389   */\n      add\n        /* \"#utility.yul\":5368:5395   */\n      slt\n        /* \"#utility.yul\":5358:5480   */\n      tag_133\n      jumpi\n        /* \"#utility.yul\":5399:5478   */\n      tag_134\n      tag_45\n      jump\t// in\n    tag_134:\n        /* \"#utility.yul\":5358:5480   */\n    tag_133:\n        /* \"#utility.yul\":5516:5522   */\n      dup2\n        /* \"#utility.yul\":5503:5523   */\n      calldataload\n        /* \"#utility.yul\":5541:5635   */\n      tag_135\n        /* \"#utility.yul\":5631:5634   */\n      dup5\n        /* \"#utility.yul\":5623:5629   */\n      dup3\n        /* \"#utility.yul\":5616:5620   */\n      0x20\n        /* \"#utility.yul\":5608:5614   */\n      dup7\n        /* \"#utility.yul\":5604:5621   */\n      add\n        /* \"#utility.yul\":5541:5635   */\n      tag_61\n      jump\t// in\n    tag_135:\n        /* \"#utility.yul\":5532:5635   */\n      swap2\n      pop\n        /* \"#utility.yul\":5348:5641   */\n      pop\n        /* \"#utility.yul\":5271:5641   */\n      swap3\n      swap2\n      pop\n      pop\n      jump\t// out\n        /* \"#utility.yul\":5647:6186   */\n    tag_27:\n        /* \"#utility.yul\":5731:5737   */\n      0x00\n        /* \"#utility.yul\":5780:5782   */\n      0x20\n        /* \"#utility.yul\":5768:5777   */\n      dup3\n        /* \"#utility.yul\":5759:5766   */\n      dup5\n        /* \"#utility.yul\":5755:5778   */\n      sub\n        /* \"#utility.yul\":5751:5783   */\n      slt\n        /* \"#utility.yul\":5748:5867   */\n      iszero\n      tag_137\n      jumpi\n        /* \"#utility.yul\":5786:5865   */\n      tag_138\n      tag_43\n      jump\t// in\n    tag_138:\n        /* \"#utility.yul\":5748:5867   */\n    tag_137:\n        /* \"#utility.yul\":5934:5935   */\n      0x00\n        /* \"#utility.yul\":5923:5932   */\n      dup3\n        /* \"#utility.yul\":5919:5936   */\n      add\n        /* \"#utility.yul\":5906:5937   */\n      calldataload\n        /* \"#utility.yul\":5964:5982   */\n      0xffffffffffffffff\n        /* \"#utility.yul\":5956:5962   */\n      dup2\n        /* \"#utility.yul\":5953:5983   */\n      gt\n        /* \"#utility.yul\":5950:6067   */\n      iszero\n      tag_139\n      jumpi\n        /* \"#utility.yul\":5986:6065   */\n      tag_140\n      tag_44\n      jump\t// in\n    tag_140:\n        /* \"#utility.yul\":5950:6067   */\n    tag_139:\n        /* \"#utility.yul\":6091:6169   */\n      tag_141\n        /* \"#utility.yul\":6161:6168   */\n      dup5\n        /* \"#utility.yul\":6152:6158   */\n      dup3\n        /* \"#utility.yul\":6141:6150   */\n      dup6\n        /* \"#utility.yul\":6137:6159   */\n      add\n        /* \"#utility.yul\":6091:6169   */\n      tag_62\n      jump\t// in\n    tag_141:\n        /* \"#utility.yul\":6081:6169   */\n      swap2\n      pop\n        /* \"#utility.yul\":5877:6179   */\n      pop\n        /* \"#utility.yul\":5647:6186   */\n      swap3\n      swap2\n      pop\n      pop\n      jump\t// out\n        /* \"#utility.yul\":6192:6306   */\n    tag_63:\n        /* \"#utility.yul\":6259:6265   */\n      0x00\n        /* \"#utility.yul\":6293:6298   */\n      dup2\n        /* \"#utility.yul\":6287:6299   */\n      mload\n        /* \"#utility.yul\":6277:6299   */\n      swap1\n      pop\n        /* \"#utility.yul\":6192:6306   */\n      swap2\n      swap1\n      pop\n      jump\t// out\n        /* \"#utility.yul\":6312:6496   */\n    tag_64:\n        /* \"#utility.yul\":6411:6422   */\n      0x00\n        /* \"#utility.yul\":6445:6451   */\n      dup3\n        /* \"#utility.yul\":6440:6443   */\n      dup3\n        /* \"#utility.yul\":6433:6452   */\n      mstore\n        /* \"#utility.yul\":6485:6489   */\n      0x20\n        /* \"#utility.yul\":6480:6483   */\n      dup3\n        /* \"#utility.yul\":6476:6490   */\n      add\n        /* \"#utility.yul\":6461:6490   */\n      swap1\n      pop\n        /* \"#utility.yul\":6312:6496   */\n      swap3\n      swap2\n      pop\n      pop\n      jump\t// out\n        /* \"#utility.yul\":6502:6634   */\n    tag_65:\n        /* \"#utility.yul\":6569:6573   */\n      0x00\n        /* \"#utility.yul\":6592:6595   */\n      dup2\n        /* \"#utility.yul\":6584:6595   */\n      swap1\n      pop\n        /* \"#utility.yul\":6622:6626   */\n      0x20\n        /* \"#utility.yul\":6617:6620   */\n      dup3\n        /* \"#utility.yul\":6613:6627   */\n      add\n        /* \"#utility.yul\":6605:6627   */\n      swap1\n      pop\n        /* \"#utility.yul\":6502:6634   */\n      swap2\n      swap1\n      pop\n      jump\t// out\n        /* \"#utility.yul\":6640:6748   */\n    tag_66:\n        /* \"#utility.yul\":6717:6741   */\n      tag_146\n        /* \"#utility.yul\":6735:6740   */\n      dup2\n        /* \"#utility.yul\":6717:6741   */\n      tag_49\n      jump\t// in\n    tag_146:\n        /* \"#utility.yul\":6712:6715   */\n      dup3\n        /* \"#utility.yul\":6705:6742   */\n      mstore\n        /* \"#utility.yul\":6640:6748   */\n      pop\n      pop\n      jump\t// out\n        /* \"#utility.yul\":6754:6933   */\n    tag_67:\n        /* \"#utility.yul\":6823:6833   */\n      0x00\n        /* \"#utility.yul\":6844:6890   */\n      tag_148\n        /* \"#utility.yul\":6886:6889   */\n      dup4\n        /* \"#utility.yul\":6878:6884   */\n      dup4\n        /* \"#utility.yul\":6844:6890   */\n      tag_66\n      jump\t// in\n    tag_148:\n        /* \"#utility.yul\":6922:6926   */\n      0x20\n        /* \"#utility.yul\":6917:6920   */\n      dup4\n        /* \"#utility.yul\":6913:6927   */\n      add\n        /* \"#utility.yul\":6899:6927   */\n      swap1\n      pop\n        /* \"#utility.yul\":6754:6933   */\n      swap3\n      swap2\n      pop\n      pop\n      jump\t// out\n        /* \"#utility.yul\":6939:7052   */\n    tag_68:\n        /* \"#utility.yul\":7009:7013   */\n      0x00\n        /* \"#utility.yul\":7041:7045   */\n      0x20\n        /* \"#utility.yul\":7036:7039   */\n      dup3\n        /* \"#utility.yul\":7032:7046   */\n      add\n        /* \"#utility.yul\":7024:7046   */\n      swap1\n      pop\n        /* \"#utility.yul\":6939:7052   */\n      swap2\n      swap1\n      pop\n      jump\t// out\n        /* \"#utility.yul\":7088:7820   */\n    tag_69:\n        /* \"#utility.yul\":7207:7210   */\n      0x00\n        /* \"#utility.yul\":7236:7290   */\n      tag_151\n        /* \"#utility.yul\":7284:7289   */\n      dup3\n        /* \"#utility.yul\":7236:7290   */\n      tag_63\n      jump\t// in\n    tag_151:\n        /* \"#utility.yul\":7306:7392   */\n      tag_152\n        /* \"#utility.yul\":7385:7391   */\n      dup2\n        /* \"#utility.yul\":7380:7383   */\n      dup6\n        /* \"#utility.yul\":7306:7392   */\n      tag_64\n      jump\t// in\n    tag_152:\n        /* \"#utility.yul\":7299:7392   */\n      swap4\n      pop\n        /* \"#utility.yul\":7416:7472   */\n      tag_153\n        /* \"#utility.yul\":7466:7471   */\n      dup4\n        /* \"#utility.yul\":7416:7472   */\n      tag_65\n      jump\t// in\n    tag_153:\n        /* \"#utility.yul\":7495:7502   */\n      dup1\n        /* \"#utility.yul\":7526:7527   */\n      0x00\n        /* \"#utility.yul\":7511:7795   */\n    tag_154:\n        /* \"#utility.yul\":7536:7542   */\n      dup4\n        /* \"#utility.yul\":7533:7534   */\n      dup2\n        /* \"#utility.yul\":7530:7543   */\n      lt\n        /* \"#utility.yul\":7511:7795   */\n      iszero\n      tag_156\n      jumpi\n        /* \"#utility.yul\":7612:7618   */\n      dup2\n        /* \"#utility.yul\":7606:7619   */\n      mload\n        /* \"#utility.yul\":7639:7702   */\n      tag_157\n        /* \"#utility.yul\":7698:7701   */\n      dup9\n        /* \"#utility.yul\":7683:7696   */\n      dup3\n        /* \"#utility.yul\":7639:7702   */\n      tag_67\n      jump\t// in\n    tag_157:\n        /* \"#utility.yul\":7632:7702   */\n      swap8\n      pop\n        /* \"#utility.yul\":7725:7785   */\n      tag_158\n        /* \"#utility.yul\":7778:7784   */\n      dup4\n        /* \"#utility.yul\":7725:7785   */\n      tag_68\n      jump\t// in\n    tag_158:\n        /* \"#utility.yul\":7715:7785   */\n      swap3\n      pop\n        /* \"#utility.yul\":7571:7795   */\n      pop\n        /* \"#utility.yul\":7558:7559   */\n      0x01\n        /* \"#utility.yul\":7555:7556   */\n      dup2\n        /* \"#utility.yul\":7551:7560   */\n      add\n        /* \"#utility.yul\":7546:7560   */\n      swap1\n      pop\n        /* \"#utility.yul\":7511:7795   */\n      jump(tag_154)\n    tag_156:\n        /* \"#utility.yul\":7515:7529   */\n      pop\n        /* \"#utility.yul\":7811:7814   */\n      dup6\n        /* \"#utility.yul\":7804:7814   */\n      swap4\n      pop\n        /* \"#utility.yul\":7212:7820   */\n      pop\n      pop\n      pop\n        /* \"#utility.yul\":7088:7820   */\n      swap3\n      swap2\n      pop\n      pop\n      jump\t// out\n        /* \"#utility.yul\":7826:8199   */\n    tag_30:\n        /* \"#utility.yul\":7969:7973   */\n      0x00\n        /* \"#utility.yul\":8007:8009   */\n      0x20\n        /* \"#utility.yul\":7996:8005   */\n      dup3\n        /* \"#utility.yul\":7992:8010   */\n      add\n        /* \"#utility.yul\":7984:8010   */\n      swap1\n      pop\n        /* \"#utility.yul\":8056:8065   */\n      dup2\n        /* \"#utility.yul\":8050:8054   */\n      dup2\n        /* \"#utility.yul\":8046:8066   */\n      sub\n        /* \"#utility.yul\":8042:8043   */\n      0x00\n        /* \"#utility.yul\":8031:8040   */\n      dup4\n        /* \"#utility.yul\":8027:8044   */\n      add\n        /* \"#utility.yul\":8020:8067   */\n      mstore\n        /* \"#utility.yul\":8084:8192   */\n      tag_160\n        /* \"#utility.yul\":8187:8191   */\n      dup2\n        /* \"#utility.yul\":8178:8184   */\n      dup5\n        /* \"#utility.yul\":8084:8192   */\n      tag_69\n      jump\t// in\n    tag_160:\n        /* \"#utility.yul\":8076:8192   */\n      swap1\n      pop\n        /* \"#utility.yul\":7826:8199   */\n      swap3\n      swap2\n      pop\n      pop\n      jump\t// out\n\n    auxdata: 0xa264697066735822122091ac2ba2474aa7080aaed2f88ff1dd80ace9a0ceaee39031c807556ec89d755864736f6c634300081a0033\n}\n",
				"bytecode": {
					"linkReferences": {},
					"object": "6080604052348015600e575f80fd5b5061072d8061001c5f395ff3fe608060405234801561000f575f80fd5b5060043610610055575f3560e01c806326121ff01461005957806340dcbb081461006357806371e5ee5f1461007f578063b8dda9c7146100af578063baf71609146100df575b5f80fd5b61006161010f565b005b61007d60048036038101906100789190610368565b610157565b005b610099600480360381019061009491906103e6565b61015b565b6040516100a69190610420565b60405180910390f35b6100c960048036038101906100c491906103e6565b61017a565b6040516100d69190610478565b60405180910390f35b6100f960048036038101906100f491906105d9565b6101aa565b60405161010691906106d7565b60405180910390f35b61012c5f600160025f600181526020019081526020015f206101b1565b5f60025f600181526020019081526020015f2090505f60405180602001604052805f81525090505050565b5050565b5f8181548110610169575f80fd5b905f5260205f20015f915090505481565b6001602052805f5260405f205f915054906101000a900473ffffffffffffffffffffffffffffffffffffffff1681565b6060919050565b73ab8483f64d9c6d1ecf9b849ae677dd3315835cb2825f8081526020019081526020015f205f6101000a81548173ffffffffffffffffffffffffffffffffffffffff021916908373ffffffffffffffffffffffffffffffffffffffff160217905550734b20993bc481177ec7e8f571cecae8a9e22c02db825f600181526020019081526020015f205f6101000a81548173ffffffffffffffffffffffffffffffffffffffff021916908373ffffffffffffffffffffffffffffffffffffffff160217905550826001908060018154018082558091505060019003905f5260205f20015f9091909190915055826002908060018154018082558091505060019003905f5260205f20015f9091909190915055826003908060018154018082558091505060019003905f5260205f20015f9091909190915055607b815f0181905550505050565b5f604051905090565b5f80fd5b5f80fd5b5f80fd5b5f80fd5b5f80fd5b5f8083601f84011261032857610327610307565b5b8235905067ffffffffffffffff8111156103455761034461030b565b5b6020830191508360208202830111156103615761036061030f565b5b9250929050565b5f806020838503121561037e5761037d6102ff565b5b5f83013567ffffffffffffffff81111561039b5761039a610303565b5b6103a785828601610313565b92509250509250929050565b5f819050919050565b6103c5816103b3565b81146103cf575f80fd5b50565b5f813590506103e0816103bc565b92915050565b5f602082840312156103fb576103fa6102ff565b5b5f610408848285016103d2565b91505092915050565b61041a816103b3565b82525050565b5f6020820190506104335f830184610411565b92915050565b5f73ffffffffffffffffffffffffffffffffffffffff82169050919050565b5f61046282610439565b9050919050565b61047281610458565b82525050565b5f60208201905061048b5f830184610469565b92915050565b5f601f19601f8301169050919050565b7f4e487b71000000000000000000000000000000000000000000000000000000005f52604160045260245ffd5b6104d782610491565b810181811067ffffffffffffffff821117156104f6576104f56104a1565b5b80604052505050565b5f6105086102f6565b905061051482826104ce565b919050565b5f67ffffffffffffffff821115610533576105326104a1565b5b602082029050602081019050919050565b5f61055661055184610519565b6104ff565b905080838252602082019050602084028301858111156105795761057861030f565b5b835b818110156105a2578061058e88826103d2565b84526020840193505060208101905061057b565b5050509392505050565b5f82601f8301126105c0576105bf610307565b5b81356105d0848260208601610544565b91505092915050565b5f602082840312156105ee576105ed6102ff565b5b5f82013567ffffffffffffffff81111561060b5761060a610303565b5b610617848285016105ac565b91505092915050565b5f81519050919050565b5f82825260208201905092915050565b5f819050602082019050919050565b610652816103b3565b82525050565b5f6106638383610649565b60208301905092915050565b5f602082019050919050565b5f61068582610620565b61068f818561062a565b935061069a8361063a565b805f5b838110156106ca5781516106b18882610658565b97506106bc8361066f565b92505060018101905061069d565b5085935050505092915050565b5f6020820190508181035f8301526106ef818461067b565b90509291505056fea264697066735822122091ac2ba2474aa7080aaed2f88ff1dd80ace9a0ceaee39031c807556ec89d755864736f6c634300081a0033",
					"opcodes": "PUSH1 0x80 PUSH1 0x40 MSTORE CALLVALUE DUP1 ISZERO PUSH1 0xE JUMPI PUSH0 DUP1 REVERT JUMPDEST POP PUSH2 0x72D DUP1 PUSH2 0x1C PUSH0 CODECOPY PUSH0 RETURN INVALID PUSH1 0x80 PUSH1 0x40 MSTORE CALLVALUE DUP1 ISZERO PUSH2 0xF JUMPI PUSH0 DUP1 REVERT JUMPDEST POP PUSH1 0x4 CALLDATASIZE LT PUSH2 0x55 JUMPI PUSH0 CALLDATALOAD PUSH1 0xE0 SHR DUP1 PUSH4 0x26121FF0 EQ PUSH2 0x59 JUMPI DUP1 PUSH4 0x40DCBB08 EQ PUSH2 0x63 JUMPI DUP1 PUSH4 0x71E5EE5F EQ PUSH2 0x7F JUMPI DUP1 PUSH4 0xB8DDA9C7 EQ PUSH2 0xAF JUMPI DUP1 PUSH4 0xBAF71609 EQ PUSH2 0xDF JUMPI JUMPDEST PUSH0 DUP1 REVERT JUMPDEST PUSH2 0x61 PUSH2 0x10F JUMP JUMPDEST STOP JUMPDEST PUSH2 0x7D PUSH1 0x4 DUP1 CALLDATASIZE SUB DUP2 ADD SWAP1 PUSH2 0x78 SWAP2 SWAP1 PUSH2 0x368 JUMP JUMPDEST PUSH2 0x157 JUMP JUMPDEST STOP JUMPDEST PUSH2 0x99 PUSH1 0x4 DUP1 CALLDATASIZE SUB DUP2 ADD SWAP1 PUSH2 0x94 SWAP2 SWAP1 PUSH2 0x3E6 JUMP JUMPDEST PUSH2 0x15B JUMP JUMPDEST PUSH1 0x40 MLOAD PUSH2 0xA6 SWAP2 SWAP1 PUSH2 0x420 JUMP JUMPDEST PUSH1 0x40 MLOAD DUP1 SWAP2 SUB SWAP1 RETURN JUMPDEST PUSH2 0xC9 PUSH1 0x4 DUP1 CALLDATASIZE SUB DUP2 ADD SWAP1 PUSH2 0xC4 SWAP2 SWAP1 PUSH2 0x3E6 JUMP JUMPDEST PUSH2 0x17A JUMP JUMPDEST PUSH1 0x40 MLOAD PUSH2 0xD6 SWAP2 SWAP1 PUSH2 0x478 JUMP JUMPDEST PUSH1 0x40 MLOAD DUP1 SWAP2 SUB SWAP1 RETURN JUMPDEST PUSH2 0xF9 PUSH1 0x4 DUP1 CALLDATASIZE SUB DUP2 ADD SWAP1 PUSH2 0xF4 SWAP2 SWAP1 PUSH2 0x5D9 JUMP JUMPDEST PUSH2 0x1AA JUMP JUMPDEST PUSH1 0x40 MLOAD PUSH2 0x106 SWAP2 SWAP1 PUSH2 0x6D7 JUMP JUMPDEST PUSH1 0x40 MLOAD DUP1 SWAP2 SUB SWAP1 RETURN JUMPDEST PUSH2 0x12C PUSH0 PUSH1 0x1 PUSH1 0x2 PUSH0 PUSH1 0x1 DUP2 MSTORE PUSH1 0x20 ADD SWAP1 DUP2 MSTORE PUSH1 0x20 ADD PUSH0 KECCAK256 PUSH2 0x1B1 JUMP JUMPDEST PUSH0 PUSH1 0x2 PUSH0 PUSH1 0x1 DUP2 MSTORE PUSH1 0x20 ADD SWAP1 DUP2 MSTORE PUSH1 0x20 ADD PUSH0 KECCAK256 SWAP1 POP PUSH0 PUSH1 0x40 MLOAD DUP1 PUSH1 0x20 ADD PUSH1 0x40 MSTORE DUP1 PUSH0 DUP2 MSTORE POP SWAP1 POP POP POP JUMP JUMPDEST POP POP JUMP JUMPDEST PUSH0 DUP2 DUP2 SLOAD DUP2 LT PUSH2 0x169 JUMPI PUSH0 DUP1 REVERT JUMPDEST SWAP1 PUSH0 MSTORE PUSH1 0x20 PUSH0 KECCAK256 ADD PUSH0 SWAP2 POP SWAP1 POP SLOAD DUP2 JUMP JUMPDEST PUSH1 0x1 PUSH1 0x20 MSTORE DUP1 PUSH0 MSTORE PUSH1 0x40 PUSH0 KECCAK256 PUSH0 SWAP2 POP SLOAD SWAP1 PUSH2 0x100 EXP SWAP1 DIV PUSH20 0xFFFFFFFFFFFFFFFFFFFFFFFFFFFFFFFFFFFFFFFF AND DUP2 JUMP JUMPDEST PUSH1 0x60 SWAP2 SWAP1 POP JUMP JUMPDEST PUSH20 0xAB8483F64D9C6D1ECF9B849AE677DD3315835CB2 DUP3 PUSH0 DUP1 DUP2 MSTORE PUSH1 0x20 ADD SWAP1 DUP2 MSTORE PUSH1 0x20 ADD PUSH0 KECCAK256 PUSH0 PUSH2 0x100 EXP DUP2 SLOAD DUP2 PUSH20 0xFFFFFFFFFFFFFFFFFFFFFFFFFFFFFFFFFFFFFFFF MUL NOT AND SWAP1 DUP4 PUSH20 0xFFFFFFFFFFFFFFFFFFFFFFFFFFFFFFFFFFFFFFFF AND MUL OR SWAP1 SSTORE POP PUSH20 0x4B20993BC481177EC7E8F571CECAE8A9E22C02DB DUP3 PUSH0 PUSH1 0x1 DUP2 MSTORE PUSH1 0x20 ADD SWAP1 DUP2 MSTORE PUSH1 0x20 ADD PUSH0 KECCAK256 PUSH0 PUSH2 0x100 EXP DUP2 SLOAD DUP2 PUSH20 0xFFFFFFFFFFFFFFFFFFFFFFFFFFFFFFFFFFFFFFFF MUL NOT AND SWAP1 DUP4 PUSH20 0xFFFFFFFFFFFFFFFFFFFFFFFFFFFFFFFFFFFFFFFF AND MUL OR SWAP1 SSTORE POP DUP3 PUSH1 0x1 SWAP1 DUP1 PUSH1 0x1 DUP2 SLOAD ADD DUP1 DUP3 SSTORE DUP1 SWAP2 POP POP PUSH1 0x1 SWAP1 SUB SWAP1 PUSH0 MSTORE PUSH1 0x20 PUSH0 KECCAK256 ADD PUSH0 SWAP1 SWAP2 SWAP1 SWAP2 SWAP1 SWAP2 POP SSTORE DUP3 PUSH1 0x2 SWAP1 DUP1 PUSH1 0x1 DUP2 SLOAD ADD DUP1 DUP3 SSTORE DUP1 SWAP2 POP POP PUSH1 0x1 SWAP1 SUB SWAP1 PUSH0 MSTORE PUSH1 0x20 PUSH0 KECCAK256 ADD PUSH0 SWAP1 SWAP2 SWAP1 SWAP2 SWAP1 SWAP2 POP SSTORE DUP3 PUSH1 0x3 SWAP1 DUP1 PUSH1 0x1 DUP2 SLOAD ADD DUP1 DUP3 SSTORE DUP1 SWAP2 POP POP PUSH1 0x1 SWAP1 SUB SWAP1 PUSH0 MSTORE PUSH1 0x20 PUSH0 KECCAK256 ADD PUSH0 SWAP1 SWAP2 SWAP1 SWAP2 SWAP1 SWAP2 POP SSTORE PUSH1 0x7B DUP2 PUSH0 ADD DUP2 SWAP1 SSTORE POP POP POP POP JUMP JUMPDEST PUSH0 PUSH1 0x40 MLOAD SWAP1 POP SWAP1 JUMP JUMPDEST PUSH0 DUP1 REVERT JUMPDEST PUSH0 DUP1 REVERT JUMPDEST PUSH0 DUP1 REVERT JUMPDEST PUSH0 DUP1 REVERT JUMPDEST PUSH0 DUP1 REVERT JUMPDEST PUSH0 DUP1 DUP4 PUSH1 0x1F DUP5 ADD SLT PUSH2 0x328 JUMPI PUSH2 0x327 PUSH2 0x307 JUMP JUMPDEST JUMPDEST DUP3 CALLDATALOAD SWAP1 POP PUSH8 0xFFFFFFFFFFFFFFFF DUP2 GT ISZERO PUSH2 0x345 JUMPI PUSH2 0x344 PUSH2 0x30B JUMP JUMPDEST JUMPDEST PUSH1 0x20 DUP4 ADD SWAP2 POP DUP4 PUSH1 0x20 DUP3 MUL DUP4 ADD GT ISZERO PUSH2 0x361 JUMPI PUSH2 0x360 PUSH2 0x30F JUMP JUMPDEST JUMPDEST SWAP3 POP SWAP3 SWAP1 POP JUMP JUMPDEST PUSH0 DUP1 PUSH1 0x20 DUP4 DUP6 SUB SLT ISZERO PUSH2 0x37E JUMPI PUSH2 0x37D PUSH2 0x2FF JUMP JUMPDEST JUMPDEST PUSH0 DUP4 ADD CALLDATALOAD PUSH8 0xFFFFFFFFFFFFFFFF DUP2 GT ISZERO PUSH2 0x39B JUMPI PUSH2 0x39A PUSH2 0x303 JUMP JUMPDEST JUMPDEST PUSH2 0x3A7 DUP6 DUP3 DUP7 ADD PUSH2 0x313 JUMP JUMPDEST SWAP3 POP SWAP3 POP POP SWAP3 POP SWAP3 SWAP1 POP JUMP JUMPDEST PUSH0 DUP2 SWAP1 POP SWAP2 SWAP1 POP JUMP JUMPDEST PUSH2 0x3C5 DUP2 PUSH2 0x3B3 JUMP JUMPDEST DUP2 EQ PUSH2 0x3CF JUMPI PUSH0 DUP1 REVERT JUMPDEST POP JUMP JUMPDEST PUSH0 DUP2 CALLDATALOAD SWAP1 POP PUSH2 0x3E0 DUP2 PUSH2 0x3BC JUMP JUMPDEST SWAP3 SWAP2 POP POP JUMP JUMPDEST PUSH0 PUSH1 0x20 DUP3 DUP5 SUB SLT ISZERO PUSH2 0x3FB JUMPI PUSH2 0x3FA PUSH2 0x2FF JUMP JUMPDEST JUMPDEST PUSH0 PUSH2 0x408 DUP5 DUP3 DUP6 ADD PUSH2 0x3D2 JUMP JUMPDEST SWAP2 POP POP SWAP3 SWAP2 POP POP JUMP JUMPDEST PUSH2 0x41A DUP2 PUSH2 0x3B3 JUMP JUMPDEST DUP3 MSTORE POP POP JUMP JUMPDEST PUSH0 PUSH1 0x20 DUP3 ADD SWAP1 POP PUSH2 0x433 PUSH0 DUP4 ADD DUP5 PUSH2 0x411 JUMP JUMPDEST SWAP3 SWAP2 POP POP JUMP JUMPDEST PUSH0 PUSH20 0xFFFFFFFFFFFFFFFFFFFFFFFFFFFFFFFFFFFFFFFF DUP3 AND SWAP1 POP SWAP2 SWAP1 POP JUMP JUMPDEST PUSH0 PUSH2 0x462 DUP3 PUSH2 0x439 JUMP JUMPDEST SWAP1 POP SWAP2 SWAP1 POP JUMP JUMPDEST PUSH2 0x472 DUP2 PUSH2 0x458 JUMP JUMPDEST DUP3 MSTORE POP POP JUMP JUMPDEST PUSH0 PUSH1 0x20 DUP3 ADD SWAP1 POP PUSH2 0x48B PUSH0 DUP4 ADD DUP5 PUSH2 0x469 JUMP JUMPDEST SWAP3 SWAP2 POP POP JUMP JUMPDEST PUSH0 PUSH1 0x1F NOT PUSH1 0x1F DUP4 ADD AND SWAP1 POP SWAP2 SWAP1 POP JUMP JUMPDEST PUSH32 0x4E487B7100000000000000000000000000000000000000000000000000000000 PUSH0 MSTORE PUSH1 0x41 PUSH1 0x4 MSTORE PUSH1 0x24 PUSH0 REVERT JUMPDEST PUSH2 0x4D7 DUP3 PUSH2 0x491 JUMP JUMPDEST DUP2 ADD DUP2 DUP2 LT PUSH8 0xFFFFFFFFFFFFFFFF DUP3 GT OR ISZERO PUSH2 0x4F6 JUMPI PUSH2 0x4F5 PUSH2 0x4A1 JUMP JUMPDEST JUMPDEST DUP1 PUSH1 0x40 MSTORE POP POP POP JUMP JUMPDEST PUSH0 PUSH2 0x508 PUSH2 0x2F6 JUMP JUMPDEST SWAP1 POP PUSH2 0x514 DUP3 DUP3 PUSH2 0x4CE JUMP JUMPDEST SWAP2 SWAP1 POP JUMP JUMPDEST PUSH0 PUSH8 0xFFFFFFFFFFFFFFFF DUP3 GT ISZERO PUSH2 0x533 JUMPI PUSH2 0x532 PUSH2 0x4A1 JUMP JUMPDEST JUMPDEST PUSH1 0x20 DUP3 MUL SWAP1 POP PUSH1 0x20 DUP2 ADD SWAP1 POP SWAP2 SWAP1 POP JUMP JUMPDEST PUSH0 PUSH2 0x556 PUSH2 0x551 DUP5 PUSH2 0x519 JUMP JUMPDEST PUSH2 0x4FF JUMP JUMPDEST SWAP1 POP DUP1 DUP4 DUP3 MSTORE PUSH1 0x20 DUP3 ADD SWAP1 POP PUSH1 0x20 DUP5 MUL DUP4 ADD DUP6 DUP2 GT ISZERO PUSH2 0x579 JUMPI PUSH2 0x578 PUSH2 0x30F JUMP JUMPDEST JUMPDEST DUP4 JUMPDEST DUP2 DUP2 LT ISZERO PUSH2 0x5A2 JUMPI DUP1 PUSH2 0x58E DUP9 DUP3 PUSH2 0x3D2 JUMP JUMPDEST DUP5 MSTORE PUSH1 0x20 DUP5 ADD SWAP4 POP POP PUSH1 0x20 DUP2 ADD SWAP1 POP PUSH2 0x57B JUMP JUMPDEST POP POP POP SWAP4 SWAP3 POP POP POP JUMP JUMPDEST PUSH0 DUP3 PUSH1 0x1F DUP4 ADD SLT PUSH2 0x5C0 JUMPI PUSH2 0x5BF PUSH2 0x307 JUMP JUMPDEST JUMPDEST DUP2 CALLDATALOAD PUSH2 0x5D0 DUP5 DUP3 PUSH1 0x20 DUP7 ADD PUSH2 0x544 JUMP JUMPDEST SWAP2 POP POP SWAP3 SWAP2 POP POP JUMP JUMPDEST PUSH0 PUSH1 0x20 DUP3 DUP5 SUB SLT ISZERO PUSH2 0x5EE JUMPI PUSH2 0x5ED PUSH2 0x2FF JUMP JUMPDEST JUMPDEST PUSH0 DUP3 ADD CALLDATALOAD PUSH8 0xFFFFFFFFFFFFFFFF DUP2 GT ISZERO PUSH2 0x60B JUMPI PUSH2 0x60A PUSH2 0x303 JUMP JUMPDEST JUMPDEST PUSH2 0x617 DUP5 DUP3 DUP6 ADD PUSH2 0x5AC JUMP JUMPDEST SWAP2 POP POP SWAP3 SWAP2 POP POP JUMP JUMPDEST PUSH0 DUP2 MLOAD SWAP1 POP SWAP2 SWAP1 POP JUMP JUMPDEST PUSH0 DUP3 DUP3 MSTORE PUSH1 0x20 DUP3 ADD SWAP1 POP SWAP3 SWAP2 POP POP JUMP JUMPDEST PUSH0 DUP2 SWAP1 POP PUSH1 0x20 DUP3 ADD SWAP1 POP SWAP2 SWAP1 POP JUMP JUMPDEST PUSH2 0x652 DUP2 PUSH2 0x3B3 JUMP JUMPDEST DUP3 MSTORE POP POP JUMP JUMPDEST PUSH0 PUSH2 0x663 DUP4 DUP4 PUSH2 0x649 JUMP JUMPDEST PUSH1 0x20 DUP4 ADD SWAP1 POP SWAP3 SWAP2 POP POP JUMP JUMPDEST PUSH0 PUSH1 0x20 DUP3 ADD SWAP1 POP SWAP2 SWAP1 POP JUMP JUMPDEST PUSH0 PUSH2 0x685 DUP3 PUSH2 0x620 JUMP JUMPDEST PUSH2 0x68F DUP2 DUP6 PUSH2 0x62A JUMP JUMPDEST SWAP4 POP PUSH2 0x69A DUP4 PUSH2 0x63A JUMP JUMPDEST DUP1 PUSH0 JUMPDEST DUP4 DUP2 LT ISZERO PUSH2 0x6CA JUMPI DUP2 MLOAD PUSH2 0x6B1 DUP9 DUP3 PUSH2 0x658 JUMP JUMPDEST SWAP8 POP PUSH2 0x6BC DUP4 PUSH2 0x66F JUMP JUMPDEST SWAP3 POP POP PUSH1 0x1 DUP2 ADD SWAP1 POP PUSH2 0x69D JUMP JUMPDEST POP DUP6 SWAP4 POP POP POP POP SWAP3 SWAP2 POP POP JUMP JUMPDEST PUSH0 PUSH1 0x20 DUP3 ADD SWAP1 POP DUP2 DUP2 SUB PUSH0 DUP4 ADD MSTORE PUSH2 0x6EF DUP2 DUP5 PUSH2 0x67B JUMP JUMPDEST SWAP1 POP SWAP3 SWAP2 POP POP JUMP INVALID LOG2 PUSH5 0x6970667358 0x22 SLT KECCAK256 SWAP2 0xAC 0x2B LOG2 SELFBALANCE BLOBBASEFEE 0xA7 ADDMOD EXP 0xAE 0xD2 0xF8 DUP16 CALL 0xDD DUP1 0xAC 0xE9 LOG0 0xCE 0xAE 0xE3 SWAP1 BALANCE 0xC8 SMOD SSTORE PUSH15 0xC89D755864736F6C634300081A0033 "
				},
				"gasEstimates": {
					"creation": {
						"codeDepositCost": "367400",
						"executionCost": "403",
						"totalCost": "367803"
					},
					"external": {
						"arr(uint256)": "infinite",
						"f()": "210435",
						"g(uint256[])": "infinite",
						"h(uint256[])": "470",
						"map(uint256)": "2871"
					},
					"internal": {
						"_f(uint256[] storage pointer,mapping(uint256 => address),struct DataLocations.MyStruct storage pointer)": "210084"
					}
				},
				"methodIdentifiers": {
					"arr(uint256)": "71e5ee5f",
					"f()": "26121ff0",
					"g(uint256[])": "baf71609",
					"h(uint256[])": "40dcbb08",
					"map(uint256)": "b8dda9c7"
				}
			},
			"storageLayout": {
				"storage": [
					{
						"astId": 4,
						"contract": "16-data-locations.sol:DataLocations",
						"label": "arr",
						"offset": 0,
						"slot": "0",
						"type": "t_array(t_uint256)dyn_storage"
					},
					{
						"astId": 8,
						"contract": "16-data-locations.sol:DataLocations",
						"label": "map",
						"offset": 0,
						"slot": "1",
						"type": "t_mapping(t_uint256,t_address)"
					},
					{
						"astId": 16,
						"contract": "16-data-locations.sol:DataLocations",
						"label": "myStructs",
						"offset": 0,
						"slot": "2",
						"type": "t_mapping(t_uint256,t_struct(MyStruct)11_storage)"
					}
				],
				"types": {
					"t_address": {
						"encoding": "inplace",
						"label": "address",
						"numberOfBytes": "20"
					},
					"t_array(t_uint256)dyn_storage": {
						"base": "t_uint256",
						"encoding": "dynamic_array",
						"label": "uint256[]",
						"numberOfBytes": "32"
					},
					"t_mapping(t_uint256,t_address)": {
						"encoding": "mapping",
						"key": "t_uint256",
						"label": "mapping(uint256 => address)",
						"numberOfBytes": "32",
						"value": "t_address"
					},
					"t_mapping(t_uint256,t_struct(MyStruct)11_storage)": {
						"encoding": "mapping",
						"key": "t_uint256",
						"label": "mapping(uint256 => struct DataLocations.MyStruct)",
						"numberOfBytes": "32",
						"value": "t_struct(MyStruct)11_storage"
					},
					"t_struct(MyStruct)11_storage": {
						"encoding": "inplace",
						"label": "struct DataLocations.MyStruct",
						"members": [
							{
								"astId": 10,
								"contract": "16-data-locations.sol:DataLocations",
								"label": "foo",
								"offset": 0,
								"slot": "0",
								"type": "t_uint256"
							}
						],
						"numberOfBytes": "32"
					},
					"t_uint256": {
						"encoding": "inplace",
						"label": "uint256",
						"numberOfBytes": "32"
					}
				}
			},
			"userdoc": {
				"kind": "user",
				"methods": {},
				"version": 1
			}
		}
	}
}