{
	"l1-5-homework/todo.sol": {
		"TODOList": {
			"abi": [
				{
					"inputs": [
						{
							"internalType": "string",
							"name": "_name",
							"type": "string"
						}
					],
					"name": "create",
					"outputs": [],
					"stateMutability": "nonpayable",
					"type": "function"
				},
				{
					"inputs": [
						{
							"internalType": "uint256",
							"name": "_index",
							"type": "uint256"
						}
					],
					"name": "get1",
					"outputs": [
						{
							"internalType": "string",
							"name": "_name",
							"type": "string"
						},
						{
							"internalType": "bool",
							"name": "_status",
							"type": "bool"
						}
					],
					"stateMutability": "view",
					"type": "function"
				},
				{
					"inputs": [
						{
							"internalType": "uint256",
							"name": "_index",
							"type": "uint256"
						}
					],
					"name": "get2",
					"outputs": [
						{
							"internalType": "string",
							"name": "_name",
							"type": "string"
						},
						{
							"internalType": "bool",
							"name": "_status",
							"type": "bool"
						}
					],
					"stateMutability": "view",
					"type": "function"
				},
				{
					"inputs": [
						{
							"internalType": "uint256",
							"name": "",
							"type": "uint256"
						}
					],
					"name": "list",
					"outputs": [
						{
							"internalType": "string",
							"name": "name",
							"type": "string"
						},
						{
							"internalType": "bool",
							"name": "isFinished",
							"type": "bool"
						}
					],
					"stateMutability": "view",
					"type": "function"
				},
				{
					"inputs": [
						{
							"internalType": "uint256",
							"name": "_index",
							"type": "uint256"
						},
						{
							"internalType": "string",
							"name": "_name",
							"type": "string"
						}
					],
					"name": "modifyName",
					"outputs": [],
					"stateMutability": "nonpayable",
					"type": "function"
				},
				{
					"inputs": [
						{
							"internalType": "uint256",
							"name": "_index",
							"type": "uint256"
						},
						{
							"internalType": "string",
							"name": "_name",
							"type": "string"
						}
					],
					"name": "modifyName2",
					"outputs": [],
					"stateMutability": "nonpayable",
					"type": "function"
				},
				{
					"inputs": [
						{
							"internalType": "uint256",
							"name": "_index",
							"type": "uint256"
						},
						{
							"internalType": "bool",
							"name": "_status",
							"type": "bool"
						}
					],
					"name": "modifyStatus1",
					"outputs": [],
					"stateMutability": "nonpayable",
					"type": "function"
				},
				{
					"inputs": [
						{
							"internalType": "uint256",
							"name": "_index",
							"type": "uint256"
						}
					],
					"name": "modifyStatus2",
					"outputs": [],
					"stateMutability": "nonpayable",
					"type": "function"
				}
			],
			"devdoc": {
				"kind": "dev",
				"methods": {},
				"version": 1
			},
			"evm": {
				"assembly": "    /* \"l1-5-homework/todo.sol\":58:1233  contract TODOList {... */\n  mstore(0x40, 0x80)\n  callvalue\n  dup1\n  iszero\n  tag_1\n  jumpi\n  0x00\n  dup1\n  revert\ntag_1:\n  pop\n  dataSize(sub_0)\n  dup1\n  dataOffset(sub_0)\n  0x00\n  codecopy\n  0x00\n  return\nstop\n\nsub_0: assembly {\n        /* \"l1-5-homework/todo.sol\":58:1233  contract TODOList {... */\n      mstore(0x40, 0x80)\n      callvalue\n      dup1\n      iszero\n      tag_1\n      jumpi\n      0x00\n      dup1\n      revert\n    tag_1:\n      pop\n      jumpi(tag_2, lt(calldatasize, 0x04))\n      shr(0xe0, calldataload(0x00))\n      dup1\n      0xb6a46b3b\n      gt\n      tag_11\n      jumpi\n      dup1\n      0xb6a46b3b\n      eq\n      tag_7\n      jumpi\n      dup1\n      0xc8b1d205\n      eq\n      tag_8\n      jumpi\n      dup1\n      0xcbab6b19\n      eq\n      tag_9\n      jumpi\n      dup1\n      0xf93968b6\n      eq\n      tag_10\n      jumpi\n      jump(tag_2)\n    tag_11:\n      dup1\n      0x31184dc3\n      eq\n      tag_3\n      jumpi\n      dup1\n      0x80c9419e\n      eq\n      tag_4\n      jumpi\n      dup1\n      0x9c117f0f\n      eq\n      tag_5\n      jumpi\n      dup1\n      0xb0abe599\n      eq\n      tag_6\n      jumpi\n    tag_2:\n      0x00\n      dup1\n      revert\n        /* \"l1-5-homework/todo.sol\":1050:1231  function get2(uint256 _index) external view returns(string memory _name, bool _status) {... */\n    tag_3:\n      tag_12\n      0x04\n      dup1\n      calldatasize\n      sub\n      dup2\n      add\n      swap1\n      tag_13\n      swap2\n      swap1\n      tag_14\n      jump\t// in\n    tag_13:\n      tag_15\n      jump\t// in\n    tag_12:\n      mload(0x40)\n      tag_16\n      swap3\n      swap2\n      swap1\n      tag_17\n      jump\t// in\n    tag_16:\n      mload(0x40)\n      dup1\n      swap2\n      sub\n      swap1\n      return\n        /* \"l1-5-homework/todo.sol\":152:170  Todo[] public list */\n    tag_4:\n      tag_18\n      0x04\n      dup1\n      calldatasize\n      sub\n      dup2\n      add\n      swap1\n      tag_19\n      swap2\n      swap1\n      tag_14\n      jump\t// in\n    tag_19:\n      tag_20\n      jump\t// in\n    tag_18:\n      mload(0x40)\n      tag_21\n      swap3\n      swap2\n      swap1\n      tag_17\n      jump\t// in\n    tag_21:\n      mload(0x40)\n      dup1\n      swap2\n      sub\n      swap1\n      return\n        /* \"l1-5-homework/todo.sol\":864:1044  function get1(uint256 _index) external view returns(string memory _name, bool _status) {... */\n    tag_5:\n      tag_22\n      0x04\n      dup1\n      calldatasize\n      sub\n      dup2\n      add\n      swap1\n      tag_23\n      swap2\n      swap1\n      tag_14\n      jump\t// in\n    tag_23:\n      tag_24\n      jump\t// in\n    tag_22:\n      mload(0x40)\n      tag_25\n      swap3\n      swap2\n      swap1\n      tag_17\n      jump\t// in\n    tag_25:\n      mload(0x40)\n      dup1\n      swap2\n      sub\n      swap1\n      return\n        /* \"l1-5-homework/todo.sol\":477:620  function modifyName2(uint256 _index, string memory _name) external {... */\n    tag_6:\n      tag_26\n      0x04\n      dup1\n      calldatasize\n      sub\n      dup2\n      add\n      swap1\n      tag_27\n      swap2\n      swap1\n      tag_28\n      jump\t// in\n    tag_27:\n      tag_29\n      jump\t// in\n    tag_26:\n      stop\n        /* \"l1-5-homework/todo.sol\":177:357  function create(string memory _name) external {... */\n    tag_7:\n      tag_30\n      0x04\n      dup1\n      calldatasize\n      sub\n      dup2\n      add\n      swap1\n      tag_31\n      swap2\n      swap1\n      tag_32\n      jump\t// in\n    tag_31:\n      tag_33\n      jump\t// in\n    tag_30:\n      stop\n        /* \"l1-5-homework/todo.sol\":743:858  function modifyStatus2(uint256 _index) external {... */\n    tag_8:\n      tag_34\n      0x04\n      dup1\n      calldatasize\n      sub\n      dup2\n      add\n      swap1\n      tag_35\n      swap2\n      swap1\n      tag_14\n      jump\t// in\n    tag_35:\n      tag_36\n      jump\t// in\n    tag_34:\n      stop\n        /* \"l1-5-homework/todo.sol\":626:738  function modifyStatus1(uint256 _index, bool _status) external {... */\n    tag_9:\n      tag_37\n      0x04\n      dup1\n      calldatasize\n      sub\n      dup2\n      add\n      swap1\n      tag_38\n      swap2\n      swap1\n      tag_39\n      jump\t// in\n    tag_38:\n      tag_40\n      jump\t// in\n    tag_37:\n      stop\n        /* \"l1-5-homework/todo.sol\":363:471  function modifyName(uint256 _index, string memory _name) external {... */\n    tag_10:\n      tag_41\n      0x04\n      dup1\n      calldatasize\n      sub\n      dup2\n      add\n      swap1\n      tag_42\n      swap2\n      swap1\n      tag_28\n      jump\t// in\n    tag_42:\n      tag_43\n      jump\t// in\n    tag_41:\n      stop\n        /* \"l1-5-homework/todo.sol\":1050:1231  function get2(uint256 _index) external view returns(string memory _name, bool _status) {... */\n    tag_15:\n        /* \"l1-5-homework/todo.sol\":1102:1121  string memory _name */\n      0x60\n        /* \"l1-5-homework/todo.sol\":1123:1135  bool _status */\n      0x00\n        /* \"l1-5-homework/todo.sol\":1147:1164  Todo storage temp */\n      dup1\n        /* \"l1-5-homework/todo.sol\":1167:1171  list */\n      0x00\n        /* \"l1-5-homework/todo.sol\":1172:1178  _index */\n      dup5\n        /* \"l1-5-homework/todo.sol\":1167:1179  list[_index] */\n      dup2\n      sload\n      dup2\n      lt\n      tag_45\n      jumpi\n      tag_46\n      tag_47\n      jump\t// in\n    tag_46:\n    tag_45:\n      swap1\n      0x00\n      mstore\n      keccak256(0x00, 0x20)\n      swap1\n      0x02\n      mul\n      add\n        /* \"l1-5-homework/todo.sol\":1147:1179  Todo storage temp = list[_index] */\n      swap1\n      pop\n        /* \"l1-5-homework/todo.sol\":1197:1201  temp */\n      dup1\n        /* \"l1-5-homework/todo.sol\":1197:1206  temp.name */\n      0x00\n      add\n        /* \"l1-5-homework/todo.sol\":1208:1212  temp */\n      dup2\n        /* \"l1-5-homework/todo.sol\":1208:1223  temp.isFinished */\n      0x01\n      add\n      0x00\n      swap1\n      sload\n      swap1\n      0x0100\n      exp\n      swap1\n      div\n      0xff\n      and\n        /* \"l1-5-homework/todo.sol\":1189:1224  return (temp.name, temp.isFinished) */\n      dup2\n      dup1\n      sload\n      tag_49\n      swap1\n      tag_50\n      jump\t// in\n    tag_49:\n      dup1\n      0x1f\n      add\n      0x20\n      dup1\n      swap2\n      div\n      mul\n      0x20\n      add\n      mload(0x40)\n      swap1\n      dup2\n      add\n      0x40\n      mstore\n      dup1\n      swap3\n      swap2\n      swap1\n      dup2\n      dup2\n      mstore\n      0x20\n      add\n      dup3\n      dup1\n      sload\n      tag_51\n      swap1\n      tag_50\n      jump\t// in\n    tag_51:\n      dup1\n      iszero\n      tag_52\n      jumpi\n      dup1\n      0x1f\n      lt\n      tag_53\n      jumpi\n      0x0100\n      dup1\n      dup4\n      sload\n      div\n      mul\n      dup4\n      mstore\n      swap2\n      0x20\n      add\n      swap2\n      jump(tag_52)\n    tag_53:\n      dup3\n      add\n      swap2\n      swap1\n      0x00\n      mstore\n      keccak256(0x00, 0x20)\n      swap1\n    tag_54:\n      dup2\n      sload\n      dup2\n      mstore\n      swap1\n      0x01\n      add\n      swap1\n      0x20\n      add\n      dup1\n      dup4\n      gt\n      tag_54\n      jumpi\n      dup3\n      swap1\n      sub\n      0x1f\n      and\n      dup3\n      add\n      swap2\n    tag_52:\n      pop\n      pop\n      pop\n      pop\n      pop\n      swap2\n      pop\n      swap3\n      pop\n      swap3\n      pop\n      pop\n        /* \"l1-5-homework/todo.sol\":1050:1231  function get2(uint256 _index) external view returns(string memory _name, bool _status) {... */\n      swap2\n      pop\n      swap2\n      jump\t// out\n        /* \"l1-5-homework/todo.sol\":152:170  Todo[] public list */\n    tag_20:\n      0x00\n      dup2\n      dup2\n      sload\n      dup2\n      lt\n      tag_55\n      jumpi\n      0x00\n      dup1\n      revert\n    tag_55:\n      swap1\n      0x00\n      mstore\n      keccak256(0x00, 0x20)\n      swap1\n      0x02\n      mul\n      add\n      0x00\n      swap2\n      pop\n      swap1\n      pop\n      dup1\n      0x00\n      add\n      dup1\n      sload\n      tag_57\n      swap1\n      tag_50\n      jump\t// in\n    tag_57:\n      dup1\n      0x1f\n      add\n      0x20\n      dup1\n      swap2\n      div\n      mul\n      0x20\n      add\n      mload(0x40)\n      swap1\n      dup2\n      add\n      0x40\n      mstore\n      dup1\n      swap3\n      swap2\n      swap1\n      dup2\n      dup2\n      mstore\n      0x20\n      add\n      dup3\n      dup1\n      sload\n      tag_58\n      swap1\n      tag_50\n      jump\t// in\n    tag_58:\n      dup1\n      iszero\n      tag_59\n      jumpi\n      dup1\n      0x1f\n      lt\n      tag_60\n      jumpi\n      0x0100\n      dup1\n      dup4\n      sload\n      div\n      mul\n      dup4\n      mstore\n      swap2\n      0x20\n      add\n      swap2\n      jump(tag_59)\n    tag_60:\n      dup3\n      add\n      swap2\n      swap1\n      0x00\n      mstore\n      keccak256(0x00, 0x20)\n      swap1\n    tag_61:\n      dup2\n      sload\n      dup2\n      mstore\n      swap1\n      0x01\n      add\n      swap1\n      0x20\n      add\n      dup1\n      dup4\n      gt\n      tag_61\n      jumpi\n      dup3\n      swap1\n      sub\n      0x1f\n      and\n      dup3\n      add\n      swap2\n    tag_59:\n      pop\n      pop\n      pop\n      pop\n      pop\n      swap1\n      dup1\n      0x01\n      add\n      0x00\n      swap1\n      sload\n      swap1\n      0x0100\n      exp\n      swap1\n      div\n      0xff\n      and\n      swap1\n      pop\n      dup3\n      jump\t// out\n        /* \"l1-5-homework/todo.sol\":864:1044  function get1(uint256 _index) external view returns(string memory _name, bool _status) {... */\n    tag_24:\n        /* \"l1-5-homework/todo.sol\":916:935  string memory _name */\n      0x60\n        /* \"l1-5-homework/todo.sol\":937:949  bool _status */\n      0x00\n        /* \"l1-5-homework/todo.sol\":961:977  Todo memory temp */\n      dup1\n        /* \"l1-5-homework/todo.sol\":980:984  list */\n      0x00\n        /* \"l1-5-homework/todo.sol\":985:991  _index */\n      dup5\n        /* \"l1-5-homework/todo.sol\":980:992  list[_index] */\n      dup2\n      sload\n      dup2\n      lt\n      tag_63\n      jumpi\n      tag_64\n      tag_47\n      jump\t// in\n    tag_64:\n    tag_63:\n      swap1\n      0x00\n      mstore\n      keccak256(0x00, 0x20)\n      swap1\n      0x02\n      mul\n      add\n        /* \"l1-5-homework/todo.sol\":961:992  Todo memory temp = list[_index] */\n      mload(0x40)\n      dup1\n      0x40\n      add\n      0x40\n      mstore\n      swap1\n      dup2\n      0x00\n      dup3\n      add\n      dup1\n      sload\n      tag_66\n      swap1\n      tag_50\n      jump\t// in\n    tag_66:\n      dup1\n      0x1f\n      add\n      0x20\n      dup1\n      swap2\n      div\n      mul\n      0x20\n      add\n      mload(0x40)\n      swap1\n      dup2\n      add\n      0x40\n      mstore\n      dup1\n      swap3\n      swap2\n      swap1\n      dup2\n      dup2\n      mstore\n      0x20\n      add\n      dup3\n      dup1\n      sload\n      tag_67\n      swap1\n      tag_50\n      jump\t// in\n    tag_67:\n      dup1\n      iszero\n      tag_68\n      jumpi\n      dup1\n      0x1f\n      lt\n      tag_69\n      jumpi\n      0x0100\n      dup1\n      dup4\n      sload\n      div\n      mul\n      dup4\n      mstore\n      swap2\n      0x20\n      add\n      swap2\n      jump(tag_68)\n    tag_69:\n      dup3\n      add\n      swap2\n      swap1\n      0x00\n      mstore\n      keccak256(0x00, 0x20)\n      swap1\n    tag_70:\n      dup2\n      sload\n      dup2\n      mstore\n      swap1\n      0x01\n      add\n      swap1\n      0x20\n      add\n      dup1\n      dup4\n      gt\n      tag_70\n      jumpi\n      dup3\n      swap1\n      sub\n      0x1f\n      and\n      dup3\n      add\n      swap2\n    tag_68:\n      pop\n      pop\n      pop\n      pop\n      pop\n      dup2\n      mstore\n      0x20\n      add\n      0x01\n      dup3\n      add\n      0x00\n      swap1\n      sload\n      swap1\n      0x0100\n      exp\n      swap1\n      div\n      0xff\n      and\n      iszero\n      iszero\n      iszero\n      iszero\n      dup2\n      mstore\n      pop\n      pop\n      swap1\n      pop\n        /* \"l1-5-homework/todo.sol\":1010:1014  temp */\n      dup1\n        /* \"l1-5-homework/todo.sol\":1010:1019  temp.name */\n      0x00\n      add\n      mload\n        /* \"l1-5-homework/todo.sol\":1021:1025  temp */\n      dup2\n        /* \"l1-5-homework/todo.sol\":1021:1036  temp.isFinished */\n      0x20\n      add\n      mload\n        /* \"l1-5-homework/todo.sol\":1002:1037  return (temp.name, temp.isFinished) */\n      swap3\n      pop\n      swap3\n      pop\n      pop\n        /* \"l1-5-homework/todo.sol\":864:1044  function get1(uint256 _index) external view returns(string memory _name, bool _status) {... */\n      swap2\n      pop\n      swap2\n      jump\t// out\n        /* \"l1-5-homework/todo.sol\":477:620  function modifyName2(uint256 _index, string memory _name) external {... */\n    tag_29:\n        /* \"l1-5-homework/todo.sol\":554:571  Todo storage temp */\n      0x00\n        /* \"l1-5-homework/todo.sol\":574:578  list */\n      dup1\n        /* \"l1-5-homework/todo.sol\":579:585  _index */\n      dup4\n        /* \"l1-5-homework/todo.sol\":574:586  list[_index] */\n      dup2\n      sload\n      dup2\n      lt\n      tag_72\n      jumpi\n      tag_73\n      tag_47\n      jump\t// in\n    tag_73:\n    tag_72:\n      swap1\n      0x00\n      mstore\n      keccak256(0x00, 0x20)\n      swap1\n      0x02\n      mul\n      add\n        /* \"l1-5-homework/todo.sol\":554:586  Todo storage temp = list[_index] */\n      swap1\n      pop\n        /* \"l1-5-homework/todo.sol\":608:613  _name */\n      dup2\n        /* \"l1-5-homework/todo.sol\":596:600  temp */\n      dup2\n        /* \"l1-5-homework/todo.sol\":596:605  temp.name */\n      0x00\n      add\n        /* \"l1-5-homework/todo.sol\":596:613  temp.name = _name */\n      swap1\n      dup2\n      tag_75\n      swap2\n      swap1\n      tag_76\n      jump\t// in\n    tag_75:\n      pop\n        /* \"l1-5-homework/todo.sol\":544:620  {... */\n      pop\n        /* \"l1-5-homework/todo.sol\":477:620  function modifyName2(uint256 _index, string memory _name) external {... */\n      pop\n      pop\n      jump\t// out\n        /* \"l1-5-homework/todo.sol\":177:357  function create(string memory _name) external {... */\n    tag_33:\n        /* \"l1-5-homework/todo.sol\":233:237  list */\n      0x00\n        /* \"l1-5-homework/todo.sol\":256:340  Todo({... */\n      mload(0x40)\n      dup1\n      0x40\n      add\n      0x40\n      mstore\n      dup1\n        /* \"l1-5-homework/todo.sol\":285:290  _name */\n      dup4\n        /* \"l1-5-homework/todo.sol\":256:340  Todo({... */\n      dup2\n      mstore\n      0x20\n      add\n        /* \"l1-5-homework/todo.sol\":320:325  false */\n      0x00\n        /* \"l1-5-homework/todo.sol\":256:340  Todo({... */\n      iszero\n      iszero\n      dup2\n      mstore\n      pop\n        /* \"l1-5-homework/todo.sol\":233:350  list.push(... */\n      swap1\n      dup1\n      0x01\n      dup2\n      sload\n      add\n      dup1\n      dup3\n      sstore\n      dup1\n      swap2\n      pop\n      pop\n      0x01\n      swap1\n      sub\n      swap1\n      0x00\n      mstore\n      keccak256(0x00, 0x20)\n      swap1\n      0x02\n      mul\n      add\n      0x00\n      swap1\n      swap2\n      swap1\n      swap2\n      swap1\n      swap2\n      pop\n      0x00\n      dup3\n      add\n      mload\n      dup2\n      0x00\n      add\n      swap1\n      dup2\n      tag_79\n      swap2\n      swap1\n      tag_76\n      jump\t// in\n    tag_79:\n      pop\n      0x20\n      dup3\n      add\n      mload\n      dup2\n      0x01\n      add\n      exp(0x0100, 0x00)\n      dup2\n      sload\n      dup2\n      0xff\n      mul\n      not\n      and\n      swap1\n      dup4\n      iszero\n      iszero\n      mul\n      or\n      swap1\n      sstore\n      pop\n      pop\n      pop\n        /* \"l1-5-homework/todo.sol\":177:357  function create(string memory _name) external {... */\n      pop\n      jump\t// out\n        /* \"l1-5-homework/todo.sol\":743:858  function modifyStatus2(uint256 _index) external {... */\n    tag_36:\n        /* \"l1-5-homework/todo.sol\":828:832  list */\n      0x00\n        /* \"l1-5-homework/todo.sol\":833:839  _index */\n      dup2\n        /* \"l1-5-homework/todo.sol\":828:840  list[_index] */\n      dup2\n      sload\n      dup2\n      lt\n      tag_81\n      jumpi\n      tag_82\n      tag_47\n      jump\t// in\n    tag_82:\n    tag_81:\n      swap1\n      0x00\n      mstore\n      keccak256(0x00, 0x20)\n      swap1\n      0x02\n      mul\n      add\n        /* \"l1-5-homework/todo.sol\":828:851  list[_index].isFinished */\n      0x01\n      add\n      0x00\n      swap1\n      sload\n      swap1\n      0x0100\n      exp\n      swap1\n      div\n      0xff\n      and\n        /* \"l1-5-homework/todo.sol\":827:851  !list[_index].isFinished */\n      iszero\n        /* \"l1-5-homework/todo.sol\":801:805  list */\n      0x00\n        /* \"l1-5-homework/todo.sol\":806:812  _index */\n      dup3\n        /* \"l1-5-homework/todo.sol\":801:813  list[_index] */\n      dup2\n      sload\n      dup2\n      lt\n      tag_84\n      jumpi\n      tag_85\n      tag_47\n      jump\t// in\n    tag_85:\n    tag_84:\n      swap1\n      0x00\n      mstore\n      keccak256(0x00, 0x20)\n      swap1\n      0x02\n      mul\n      add\n        /* \"l1-5-homework/todo.sol\":801:824  list[_index].isFinished */\n      0x01\n      add\n      0x00\n        /* \"l1-5-homework/todo.sol\":801:851  list[_index].isFinished = !list[_index].isFinished */\n      0x0100\n      exp\n      dup2\n      sload\n      dup2\n      0xff\n      mul\n      not\n      and\n      swap1\n      dup4\n      iszero\n      iszero\n      mul\n      or\n      swap1\n      sstore\n      pop\n        /* \"l1-5-homework/todo.sol\":743:858  function modifyStatus2(uint256 _index) external {... */\n      pop\n      jump\t// out\n        /* \"l1-5-homework/todo.sol\":626:738  function modifyStatus1(uint256 _index, bool _status) external {... */\n    tag_40:\n        /* \"l1-5-homework/todo.sol\":724:731  _status */\n      dup1\n        /* \"l1-5-homework/todo.sol\":698:702  list */\n      0x00\n        /* \"l1-5-homework/todo.sol\":703:709  _index */\n      dup4\n        /* \"l1-5-homework/todo.sol\":698:710  list[_index] */\n      dup2\n      sload\n      dup2\n      lt\n      tag_88\n      jumpi\n      tag_89\n      tag_47\n      jump\t// in\n    tag_89:\n    tag_88:\n      swap1\n      0x00\n      mstore\n      keccak256(0x00, 0x20)\n      swap1\n      0x02\n      mul\n      add\n        /* \"l1-5-homework/todo.sol\":698:721  list[_index].isFinished */\n      0x01\n      add\n      0x00\n        /* \"l1-5-homework/todo.sol\":698:731  list[_index].isFinished = _status */\n      0x0100\n      exp\n      dup2\n      sload\n      dup2\n      0xff\n      mul\n      not\n      and\n      swap1\n      dup4\n      iszero\n      iszero\n      mul\n      or\n      swap1\n      sstore\n      pop\n        /* \"l1-5-homework/todo.sol\":626:738  function modifyStatus1(uint256 _index, bool _status) external {... */\n      pop\n      pop\n      jump\t// out\n        /* \"l1-5-homework/todo.sol\":363:471  function modifyName(uint256 _index, string memory _name) external {... */\n    tag_43:\n        /* \"l1-5-homework/todo.sol\":459:464  _name */\n      dup1\n        /* \"l1-5-homework/todo.sol\":439:443  list */\n      0x00\n        /* \"l1-5-homework/todo.sol\":444:450  _index */\n      dup4\n        /* \"l1-5-homework/todo.sol\":439:451  list[_index] */\n      dup2\n      sload\n      dup2\n      lt\n      tag_92\n      jumpi\n      tag_93\n      tag_47\n      jump\t// in\n    tag_93:\n    tag_92:\n      swap1\n      0x00\n      mstore\n      keccak256(0x00, 0x20)\n      swap1\n      0x02\n      mul\n      add\n        /* \"l1-5-homework/todo.sol\":439:456  list[_index].name */\n      0x00\n      add\n        /* \"l1-5-homework/todo.sol\":439:464  list[_index].name = _name */\n      swap1\n      dup2\n      tag_95\n      swap2\n      swap1\n      tag_76\n      jump\t// in\n    tag_95:\n      pop\n        /* \"l1-5-homework/todo.sol\":363:471  function modifyName(uint256 _index, string memory _name) external {... */\n      pop\n      pop\n      jump\t// out\n        /* \"#utility.yul\":7:82   */\n    tag_96:\n        /* \"#utility.yul\":40:46   */\n      0x00\n        /* \"#utility.yul\":73:75   */\n      0x40\n        /* \"#utility.yul\":67:76   */\n      mload\n        /* \"#utility.yul\":57:76   */\n      swap1\n      pop\n        /* \"#utility.yul\":7:82   */\n      swap1\n      jump\t// out\n        /* \"#utility.yul\":88:205   */\n    tag_97:\n        /* \"#utility.yul\":197:198   */\n      0x00\n        /* \"#utility.yul\":194:195   */\n      dup1\n        /* \"#utility.yul\":187:199   */\n      revert\n        /* \"#utility.yul\":211:328   */\n    tag_98:\n        /* \"#utility.yul\":320:321   */\n      0x00\n        /* \"#utility.yul\":317:318   */\n      dup1\n        /* \"#utility.yul\":310:322   */\n      revert\n        /* \"#utility.yul\":334:411   */\n    tag_99:\n        /* \"#utility.yul\":371:378   */\n      0x00\n        /* \"#utility.yul\":400:405   */\n      dup2\n        /* \"#utility.yul\":389:405   */\n      swap1\n      pop\n        /* \"#utility.yul\":334:411   */\n      swap2\n      swap1\n      pop\n      jump\t// out\n        /* \"#utility.yul\":417:539   */\n    tag_100:\n        /* \"#utility.yul\":490:514   */\n      tag_142\n        /* \"#utility.yul\":508:513   */\n      dup2\n        /* \"#utility.yul\":490:514   */\n      tag_99\n      jump\t// in\n    tag_142:\n        /* \"#utility.yul\":483:488   */\n      dup2\n        /* \"#utility.yul\":480:515   */\n      eq\n        /* \"#utility.yul\":470:533   */\n      tag_143\n      jumpi\n        /* \"#utility.yul\":529:530   */\n      0x00\n        /* \"#utility.yul\":526:527   */\n      dup1\n        /* \"#utility.yul\":519:531   */\n      revert\n        /* \"#utility.yul\":470:533   */\n    tag_143:\n        /* \"#utility.yul\":417:539   */\n      pop\n      jump\t// out\n        /* \"#utility.yul\":545:684   */\n    tag_101:\n        /* \"#utility.yul\":591:596   */\n      0x00\n        /* \"#utility.yul\":629:635   */\n      dup2\n        /* \"#utility.yul\":616:636   */\n      calldataload\n        /* \"#utility.yul\":607:636   */\n      swap1\n      pop\n        /* \"#utility.yul\":645:678   */\n      tag_145\n        /* \"#utility.yul\":672:677   */\n      dup2\n        /* \"#utility.yul\":645:678   */\n      tag_100\n      jump\t// in\n    tag_145:\n        /* \"#utility.yul\":545:684   */\n      swap3\n      swap2\n      pop\n      pop\n      jump\t// out\n        /* \"#utility.yul\":690:1019   */\n    tag_14:\n        /* \"#utility.yul\":749:755   */\n      0x00\n        /* \"#utility.yul\":798:800   */\n      0x20\n        /* \"#utility.yul\":786:795   */\n      dup3\n        /* \"#utility.yul\":777:784   */\n      dup5\n        /* \"#utility.yul\":773:796   */\n      sub\n        /* \"#utility.yul\":769:801   */\n      slt\n        /* \"#utility.yul\":766:885   */\n      iszero\n      tag_147\n      jumpi\n        /* \"#utility.yul\":804:883   */\n      tag_148\n      tag_97\n      jump\t// in\n    tag_148:\n        /* \"#utility.yul\":766:885   */\n    tag_147:\n        /* \"#utility.yul\":924:925   */\n      0x00\n        /* \"#utility.yul\":949:1002   */\n      tag_149\n        /* \"#utility.yul\":994:1001   */\n      dup5\n        /* \"#utility.yul\":985:991   */\n      dup3\n        /* \"#utility.yul\":974:983   */\n      dup6\n        /* \"#utility.yul\":970:992   */\n      add\n        /* \"#utility.yul\":949:1002   */\n      tag_101\n      jump\t// in\n    tag_149:\n        /* \"#utility.yul\":939:1002   */\n      swap2\n      pop\n        /* \"#utility.yul\":895:1012   */\n      pop\n        /* \"#utility.yul\":690:1019   */\n      swap3\n      swap2\n      pop\n      pop\n      jump\t// out\n        /* \"#utility.yul\":1025:1124   */\n    tag_102:\n        /* \"#utility.yul\":1077:1083   */\n      0x00\n        /* \"#utility.yul\":1111:1116   */\n      dup2\n        /* \"#utility.yul\":1105:1117   */\n      mload\n        /* \"#utility.yul\":1095:1117   */\n      swap1\n      pop\n        /* \"#utility.yul\":1025:1124   */\n      swap2\n      swap1\n      pop\n      jump\t// out\n        /* \"#utility.yul\":1130:1299   */\n    tag_103:\n        /* \"#utility.yul\":1214:1225   */\n      0x00\n        /* \"#utility.yul\":1248:1254   */\n      dup3\n        /* \"#utility.yul\":1243:1246   */\n      dup3\n        /* \"#utility.yul\":1236:1255   */\n      mstore\n        /* \"#utility.yul\":1288:1292   */\n      0x20\n        /* \"#utility.yul\":1283:1286   */\n      dup3\n        /* \"#utility.yul\":1279:1293   */\n      add\n        /* \"#utility.yul\":1264:1293   */\n      swap1\n      pop\n        /* \"#utility.yul\":1130:1299   */\n      swap3\n      swap2\n      pop\n      pop\n      jump\t// out\n        /* \"#utility.yul\":1305:1444   */\n    tag_104:\n        /* \"#utility.yul\":1394:1400   */\n      dup3\n        /* \"#utility.yul\":1389:1392   */\n      dup2\n        /* \"#utility.yul\":1384:1387   */\n      dup4\n        /* \"#utility.yul\":1378:1401   */\n      mcopy\n        /* \"#utility.yul\":1435:1436   */\n      0x00\n        /* \"#utility.yul\":1426:1432   */\n      dup4\n        /* \"#utility.yul\":1421:1424   */\n      dup4\n        /* \"#utility.yul\":1417:1433   */\n      add\n        /* \"#utility.yul\":1410:1437   */\n      mstore\n        /* \"#utility.yul\":1305:1444   */\n      pop\n      pop\n      pop\n      jump\t// out\n        /* \"#utility.yul\":1450:1552   */\n    tag_105:\n        /* \"#utility.yul\":1491:1497   */\n      0x00\n        /* \"#utility.yul\":1542:1544   */\n      0x1f\n        /* \"#utility.yul\":1538:1545   */\n      not\n        /* \"#utility.yul\":1533:1535   */\n      0x1f\n        /* \"#utility.yul\":1526:1531   */\n      dup4\n        /* \"#utility.yul\":1522:1536   */\n      add\n        /* \"#utility.yul\":1518:1546   */\n      and\n        /* \"#utility.yul\":1508:1546   */\n      swap1\n      pop\n        /* \"#utility.yul\":1450:1552   */\n      swap2\n      swap1\n      pop\n      jump\t// out\n        /* \"#utility.yul\":1558:1935   */\n    tag_106:\n        /* \"#utility.yul\":1646:1649   */\n      0x00\n        /* \"#utility.yul\":1674:1713   */\n      tag_155\n        /* \"#utility.yul\":1707:1712   */\n      dup3\n        /* \"#utility.yul\":1674:1713   */\n      tag_102\n      jump\t// in\n    tag_155:\n        /* \"#utility.yul\":1729:1800   */\n      tag_156\n        /* \"#utility.yul\":1793:1799   */\n      dup2\n        /* \"#utility.yul\":1788:1791   */\n      dup6\n        /* \"#utility.yul\":1729:1800   */\n      tag_103\n      jump\t// in\n    tag_156:\n        /* \"#utility.yul\":1722:1800   */\n      swap4\n      pop\n        /* \"#utility.yul\":1809:1874   */\n      tag_157\n        /* \"#utility.yul\":1867:1873   */\n      dup2\n        /* \"#utility.yul\":1862:1865   */\n      dup6\n        /* \"#utility.yul\":1855:1859   */\n      0x20\n        /* \"#utility.yul\":1848:1853   */\n      dup7\n        /* \"#utility.yul\":1844:1860   */\n      add\n        /* \"#utility.yul\":1809:1874   */\n      tag_104\n      jump\t// in\n    tag_157:\n        /* \"#utility.yul\":1899:1928   */\n      tag_158\n        /* \"#utility.yul\":1921:1927   */\n      dup2\n        /* \"#utility.yul\":1899:1928   */\n      tag_105\n      jump\t// in\n    tag_158:\n        /* \"#utility.yul\":1894:1897   */\n      dup5\n        /* \"#utility.yul\":1890:1929   */\n      add\n        /* \"#utility.yul\":1883:1929   */\n      swap2\n      pop\n        /* \"#utility.yul\":1650:1935   */\n      pop\n        /* \"#utility.yul\":1558:1935   */\n      swap3\n      swap2\n      pop\n      pop\n      jump\t// out\n        /* \"#utility.yul\":1941:2031   */\n    tag_107:\n        /* \"#utility.yul\":1975:1982   */\n      0x00\n        /* \"#utility.yul\":2018:2023   */\n      dup2\n        /* \"#utility.yul\":2011:2024   */\n      iszero\n        /* \"#utility.yul\":2004:2025   */\n      iszero\n        /* \"#utility.yul\":1993:2025   */\n      swap1\n      pop\n        /* \"#utility.yul\":1941:2031   */\n      swap2\n      swap1\n      pop\n      jump\t// out\n        /* \"#utility.yul\":2037:2146   */\n    tag_108:\n        /* \"#utility.yul\":2118:2139   */\n      tag_161\n        /* \"#utility.yul\":2133:2138   */\n      dup2\n        /* \"#utility.yul\":2118:2139   */\n      tag_107\n      jump\t// in\n    tag_161:\n        /* \"#utility.yul\":2113:2116   */\n      dup3\n        /* \"#utility.yul\":2106:2140   */\n      mstore\n        /* \"#utility.yul\":2037:2146   */\n      pop\n      pop\n      jump\t// out\n        /* \"#utility.yul\":2152:2563   */\n    tag_17:\n        /* \"#utility.yul\":2287:2291   */\n      0x00\n        /* \"#utility.yul\":2325:2327   */\n      0x40\n        /* \"#utility.yul\":2314:2323   */\n      dup3\n        /* \"#utility.yul\":2310:2328   */\n      add\n        /* \"#utility.yul\":2302:2328   */\n      swap1\n      pop\n        /* \"#utility.yul\":2374:2383   */\n      dup2\n        /* \"#utility.yul\":2368:2372   */\n      dup2\n        /* \"#utility.yul\":2364:2384   */\n      sub\n        /* \"#utility.yul\":2360:2361   */\n      0x00\n        /* \"#utility.yul\":2349:2358   */\n      dup4\n        /* \"#utility.yul\":2345:2362   */\n      add\n        /* \"#utility.yul\":2338:2385   */\n      mstore\n        /* \"#utility.yul\":2402:2480   */\n      tag_163\n        /* \"#utility.yul\":2475:2479   */\n      dup2\n        /* \"#utility.yul\":2466:2472   */\n      dup6\n        /* \"#utility.yul\":2402:2480   */\n      tag_106\n      jump\t// in\n    tag_163:\n        /* \"#utility.yul\":2394:2480   */\n      swap1\n      pop\n        /* \"#utility.yul\":2490:2556   */\n      tag_164\n        /* \"#utility.yul\":2552:2554   */\n      0x20\n        /* \"#utility.yul\":2541:2550   */\n      dup4\n        /* \"#utility.yul\":2537:2555   */\n      add\n        /* \"#utility.yul\":2528:2534   */\n      dup5\n        /* \"#utility.yul\":2490:2556   */\n      tag_108\n      jump\t// in\n    tag_164:\n        /* \"#utility.yul\":2152:2563   */\n      swap4\n      swap3\n      pop\n      pop\n      pop\n      jump\t// out\n        /* \"#utility.yul\":2569:2686   */\n    tag_109:\n        /* \"#utility.yul\":2678:2679   */\n      0x00\n        /* \"#utility.yul\":2675:2676   */\n      dup1\n        /* \"#utility.yul\":2668:2680   */\n      revert\n        /* \"#utility.yul\":2692:2809   */\n    tag_110:\n        /* \"#utility.yul\":2801:2802   */\n      0x00\n        /* \"#utility.yul\":2798:2799   */\n      dup1\n        /* \"#utility.yul\":2791:2803   */\n      revert\n        /* \"#utility.yul\":2815:2995   */\n    tag_111:\n        /* \"#utility.yul\":2863:2940   */\n      0x4e487b7100000000000000000000000000000000000000000000000000000000\n        /* \"#utility.yul\":2860:2861   */\n      0x00\n        /* \"#utility.yul\":2853:2941   */\n      mstore\n        /* \"#utility.yul\":2960:2964   */\n      0x41\n        /* \"#utility.yul\":2957:2958   */\n      0x04\n        /* \"#utility.yul\":2950:2965   */\n      mstore\n        /* \"#utility.yul\":2984:2988   */\n      0x24\n        /* \"#utility.yul\":2981:2982   */\n      0x00\n        /* \"#utility.yul\":2974:2989   */\n      revert\n        /* \"#utility.yul\":3001:3282   */\n    tag_112:\n        /* \"#utility.yul\":3084:3111   */\n      tag_169\n        /* \"#utility.yul\":3106:3110   */\n      dup3\n        /* \"#utility.yul\":3084:3111   */\n      tag_105\n      jump\t// in\n    tag_169:\n        /* \"#utility.yul\":3076:3082   */\n      dup2\n        /* \"#utility.yul\":3072:3112   */\n      add\n        /* \"#utility.yul\":3214:3220   */\n      dup2\n        /* \"#utility.yul\":3202:3212   */\n      dup2\n        /* \"#utility.yul\":3199:3221   */\n      lt\n        /* \"#utility.yul\":3178:3196   */\n      0xffffffffffffffff\n        /* \"#utility.yul\":3166:3176   */\n      dup3\n        /* \"#utility.yul\":3163:3197   */\n      gt\n        /* \"#utility.yul\":3160:3222   */\n      or\n        /* \"#utility.yul\":3157:3245   */\n      iszero\n      tag_170\n      jumpi\n        /* \"#utility.yul\":3225:3243   */\n      tag_171\n      tag_111\n      jump\t// in\n    tag_171:\n        /* \"#utility.yul\":3157:3245   */\n    tag_170:\n        /* \"#utility.yul\":3265:3275   */\n      dup1\n        /* \"#utility.yul\":3261:3263   */\n      0x40\n        /* \"#utility.yul\":3254:3276   */\n      mstore\n        /* \"#utility.yul\":3044:3282   */\n      pop\n        /* \"#utility.yul\":3001:3282   */\n      pop\n      pop\n      jump\t// out\n        /* \"#utility.yul\":3288:3417   */\n    tag_113:\n        /* \"#utility.yul\":3322:3328   */\n      0x00\n        /* \"#utility.yul\":3349:3369   */\n      tag_173\n      tag_96\n      jump\t// in\n    tag_173:\n        /* \"#utility.yul\":3339:3369   */\n      swap1\n      pop\n        /* \"#utility.yul\":3378:3411   */\n      tag_174\n        /* \"#utility.yul\":3406:3410   */\n      dup3\n        /* \"#utility.yul\":3398:3404   */\n      dup3\n        /* \"#utility.yul\":3378:3411   */\n      tag_112\n      jump\t// in\n    tag_174:\n        /* \"#utility.yul\":3288:3417   */\n      swap2\n      swap1\n      pop\n      jump\t// out\n        /* \"#utility.yul\":3423:3731   */\n    tag_114:\n        /* \"#utility.yul\":3485:3489   */\n      0x00\n        /* \"#utility.yul\":3575:3593   */\n      0xffffffffffffffff\n        /* \"#utility.yul\":3567:3573   */\n      dup3\n        /* \"#utility.yul\":3564:3594   */\n      gt\n        /* \"#utility.yul\":3561:3617   */\n      iszero\n      tag_176\n      jumpi\n        /* \"#utility.yul\":3597:3615   */\n      tag_177\n      tag_111\n      jump\t// in\n    tag_177:\n        /* \"#utility.yul\":3561:3617   */\n    tag_176:\n        /* \"#utility.yul\":3635:3664   */\n      tag_178\n        /* \"#utility.yul\":3657:3663   */\n      dup3\n        /* \"#utility.yul\":3635:3664   */\n      tag_105\n      jump\t// in\n    tag_178:\n        /* \"#utility.yul\":3627:3664   */\n      swap1\n      pop\n        /* \"#utility.yul\":3719:3723   */\n      0x20\n        /* \"#utility.yul\":3713:3717   */\n      dup2\n        /* \"#utility.yul\":3709:3724   */\n      add\n        /* \"#utility.yul\":3701:3724   */\n      swap1\n      pop\n        /* \"#utility.yul\":3423:3731   */\n      swap2\n      swap1\n      pop\n      jump\t// out\n        /* \"#utility.yul\":3737:3885   */\n    tag_115:\n        /* \"#utility.yul\":3835:3841   */\n      dup3\n        /* \"#utility.yul\":3830:3833   */\n      dup2\n        /* \"#utility.yul\":3825:3828   */\n      dup4\n        /* \"#utility.yul\":3812:3842   */\n      calldatacopy\n        /* \"#utility.yul\":3876:3877   */\n      0x00\n        /* \"#utility.yul\":3867:3873   */\n      dup4\n        /* \"#utility.yul\":3862:3865   */\n      dup4\n        /* \"#utility.yul\":3858:3874   */\n      add\n        /* \"#utility.yul\":3851:3878   */\n      mstore\n        /* \"#utility.yul\":3737:3885   */\n      pop\n      pop\n      pop\n      jump\t// out\n        /* \"#utility.yul\":3891:4316   */\n    tag_116:\n        /* \"#utility.yul\":3969:3974   */\n      0x00\n        /* \"#utility.yul\":3994:4060   */\n      tag_181\n        /* \"#utility.yul\":4010:4059   */\n      tag_182\n        /* \"#utility.yul\":4052:4058   */\n      dup5\n        /* \"#utility.yul\":4010:4059   */\n      tag_114\n      jump\t// in\n    tag_182:\n        /* \"#utility.yul\":3994:4060   */\n      tag_113\n      jump\t// in\n    tag_181:\n        /* \"#utility.yul\":3985:4060   */\n      swap1\n      pop\n        /* \"#utility.yul\":4083:4089   */\n      dup3\n        /* \"#utility.yul\":4076:4081   */\n      dup2\n        /* \"#utility.yul\":4069:4090   */\n      mstore\n        /* \"#utility.yul\":4121:4125   */\n      0x20\n        /* \"#utility.yul\":4114:4119   */\n      dup2\n        /* \"#utility.yul\":4110:4126   */\n      add\n        /* \"#utility.yul\":4159:4162   */\n      dup5\n        /* \"#utility.yul\":4150:4156   */\n      dup5\n        /* \"#utility.yul\":4145:4148   */\n      dup5\n        /* \"#utility.yul\":4141:4157   */\n      add\n        /* \"#utility.yul\":4138:4163   */\n      gt\n        /* \"#utility.yul\":4135:4247   */\n      iszero\n      tag_183\n      jumpi\n        /* \"#utility.yul\":4166:4245   */\n      tag_184\n      tag_110\n      jump\t// in\n    tag_184:\n        /* \"#utility.yul\":4135:4247   */\n    tag_183:\n        /* \"#utility.yul\":4256:4310   */\n      tag_185\n        /* \"#utility.yul\":4303:4309   */\n      dup5\n        /* \"#utility.yul\":4298:4301   */\n      dup3\n        /* \"#utility.yul\":4293:4296   */\n      dup6\n        /* \"#utility.yul\":4256:4310   */\n      tag_115\n      jump\t// in\n    tag_185:\n        /* \"#utility.yul\":3975:4316   */\n      pop\n        /* \"#utility.yul\":3891:4316   */\n      swap4\n      swap3\n      pop\n      pop\n      pop\n      jump\t// out\n        /* \"#utility.yul\":4336:4676   */\n    tag_117:\n        /* \"#utility.yul\":4392:4397   */\n      0x00\n        /* \"#utility.yul\":4441:4444   */\n      dup3\n        /* \"#utility.yul\":4434:4438   */\n      0x1f\n        /* \"#utility.yul\":4426:4432   */\n      dup4\n        /* \"#utility.yul\":4422:4439   */\n      add\n        /* \"#utility.yul\":4418:4445   */\n      slt\n        /* \"#utility.yul\":4408:4530   */\n      tag_187\n      jumpi\n        /* \"#utility.yul\":4449:4528   */\n      tag_188\n      tag_109\n      jump\t// in\n    tag_188:\n        /* \"#utility.yul\":4408:4530   */\n    tag_187:\n        /* \"#utility.yul\":4566:4572   */\n      dup2\n        /* \"#utility.yul\":4553:4573   */\n      calldataload\n        /* \"#utility.yul\":4591:4670   */\n      tag_189\n        /* \"#utility.yul\":4666:4669   */\n      dup5\n        /* \"#utility.yul\":4658:4664   */\n      dup3\n        /* \"#utility.yul\":4651:4655   */\n      0x20\n        /* \"#utility.yul\":4643:4649   */\n      dup7\n        /* \"#utility.yul\":4639:4656   */\n      add\n        /* \"#utility.yul\":4591:4670   */\n      tag_116\n      jump\t// in\n    tag_189:\n        /* \"#utility.yul\":4582:4670   */\n      swap2\n      pop\n        /* \"#utility.yul\":4398:4676   */\n      pop\n        /* \"#utility.yul\":4336:4676   */\n      swap3\n      swap2\n      pop\n      pop\n      jump\t// out\n        /* \"#utility.yul\":4682:5336   */\n    tag_28:\n        /* \"#utility.yul\":4760:4766   */\n      0x00\n        /* \"#utility.yul\":4768:4774   */\n      dup1\n        /* \"#utility.yul\":4817:4819   */\n      0x40\n        /* \"#utility.yul\":4805:4814   */\n      dup4\n        /* \"#utility.yul\":4796:4803   */\n      dup6\n        /* \"#utility.yul\":4792:4815   */\n      sub\n        /* \"#utility.yul\":4788:4820   */\n      slt\n        /* \"#utility.yul\":4785:4904   */\n      iszero\n      tag_191\n      jumpi\n        /* \"#utility.yul\":4823:4902   */\n      tag_192\n      tag_97\n      jump\t// in\n    tag_192:\n        /* \"#utility.yul\":4785:4904   */\n    tag_191:\n        /* \"#utility.yul\":4943:4944   */\n      0x00\n        /* \"#utility.yul\":4968:5021   */\n      tag_193\n        /* \"#utility.yul\":5013:5020   */\n      dup6\n        /* \"#utility.yul\":5004:5010   */\n      dup3\n        /* \"#utility.yul\":4993:5002   */\n      dup7\n        /* \"#utility.yul\":4989:5011   */\n      add\n        /* \"#utility.yul\":4968:5021   */\n      tag_101\n      jump\t// in\n    tag_193:\n        /* \"#utility.yul\":4958:5021   */\n      swap3\n      pop\n        /* \"#utility.yul\":4914:5031   */\n      pop\n        /* \"#utility.yul\":5098:5100   */\n      0x20\n        /* \"#utility.yul\":5087:5096   */\n      dup4\n        /* \"#utility.yul\":5083:5101   */\n      add\n        /* \"#utility.yul\":5070:5102   */\n      calldataload\n        /* \"#utility.yul\":5129:5147   */\n      0xffffffffffffffff\n        /* \"#utility.yul\":5121:5127   */\n      dup2\n        /* \"#utility.yul\":5118:5148   */\n      gt\n        /* \"#utility.yul\":5115:5232   */\n      iszero\n      tag_194\n      jumpi\n        /* \"#utility.yul\":5151:5230   */\n      tag_195\n      tag_98\n      jump\t// in\n    tag_195:\n        /* \"#utility.yul\":5115:5232   */\n    tag_194:\n        /* \"#utility.yul\":5256:5319   */\n      tag_196\n        /* \"#utility.yul\":5311:5318   */\n      dup6\n        /* \"#utility.yul\":5302:5308   */\n      dup3\n        /* \"#utility.yul\":5291:5300   */\n      dup7\n        /* \"#utility.yul\":5287:5309   */\n      add\n        /* \"#utility.yul\":5256:5319   */\n      tag_117\n      jump\t// in\n    tag_196:\n        /* \"#utility.yul\":5246:5319   */\n      swap2\n      pop\n        /* \"#utility.yul\":5041:5329   */\n      pop\n        /* \"#utility.yul\":4682:5336   */\n      swap3\n      pop\n      swap3\n      swap1\n      pop\n      jump\t// out\n        /* \"#utility.yul\":5342:5851   */\n    tag_32:\n        /* \"#utility.yul\":5411:5417   */\n      0x00\n        /* \"#utility.yul\":5460:5462   */\n      0x20\n        /* \"#utility.yul\":5448:5457   */\n      dup3\n        /* \"#utility.yul\":5439:5446   */\n      dup5\n        /* \"#utility.yul\":5435:5458   */\n      sub\n        /* \"#utility.yul\":5431:5463   */\n      slt\n        /* \"#utility.yul\":5428:5547   */\n      iszero\n      tag_198\n      jumpi\n        /* \"#utility.yul\":5466:5545   */\n      tag_199\n      tag_97\n      jump\t// in\n    tag_199:\n        /* \"#utility.yul\":5428:5547   */\n    tag_198:\n        /* \"#utility.yul\":5614:5615   */\n      0x00\n        /* \"#utility.yul\":5603:5612   */\n      dup3\n        /* \"#utility.yul\":5599:5616   */\n      add\n        /* \"#utility.yul\":5586:5617   */\n      calldataload\n        /* \"#utility.yul\":5644:5662   */\n      0xffffffffffffffff\n        /* \"#utility.yul\":5636:5642   */\n      dup2\n        /* \"#utility.yul\":5633:5663   */\n      gt\n        /* \"#utility.yul\":5630:5747   */\n      iszero\n      tag_200\n      jumpi\n        /* \"#utility.yul\":5666:5745   */\n      tag_201\n      tag_98\n      jump\t// in\n    tag_201:\n        /* \"#utility.yul\":5630:5747   */\n    tag_200:\n        /* \"#utility.yul\":5771:5834   */\n      tag_202\n        /* \"#utility.yul\":5826:5833   */\n      dup5\n        /* \"#utility.yul\":5817:5823   */\n      dup3\n        /* \"#utility.yul\":5806:5815   */\n      dup6\n        /* \"#utility.yul\":5802:5824   */\n      add\n        /* \"#utility.yul\":5771:5834   */\n      tag_117\n      jump\t// in\n    tag_202:\n        /* \"#utility.yul\":5761:5834   */\n      swap2\n      pop\n        /* \"#utility.yul\":5557:5844   */\n      pop\n        /* \"#utility.yul\":5342:5851   */\n      swap3\n      swap2\n      pop\n      pop\n      jump\t// out\n        /* \"#utility.yul\":5857:5973   */\n    tag_118:\n        /* \"#utility.yul\":5927:5948   */\n      tag_204\n        /* \"#utility.yul\":5942:5947   */\n      dup2\n        /* \"#utility.yul\":5927:5948   */\n      tag_107\n      jump\t// in\n    tag_204:\n        /* \"#utility.yul\":5920:5925   */\n      dup2\n        /* \"#utility.yul\":5917:5949   */\n      eq\n        /* \"#utility.yul\":5907:5967   */\n      tag_205\n      jumpi\n        /* \"#utility.yul\":5963:5964   */\n      0x00\n        /* \"#utility.yul\":5960:5961   */\n      dup1\n        /* \"#utility.yul\":5953:5965   */\n      revert\n        /* \"#utility.yul\":5907:5967   */\n    tag_205:\n        /* \"#utility.yul\":5857:5973   */\n      pop\n      jump\t// out\n        /* \"#utility.yul\":5979:6112   */\n    tag_119:\n        /* \"#utility.yul\":6022:6027   */\n      0x00\n        /* \"#utility.yul\":6060:6066   */\n      dup2\n        /* \"#utility.yul\":6047:6067   */\n      calldataload\n        /* \"#utility.yul\":6038:6067   */\n      swap1\n      pop\n        /* \"#utility.yul\":6076:6106   */\n      tag_207\n        /* \"#utility.yul\":6100:6105   */\n      dup2\n        /* \"#utility.yul\":6076:6106   */\n      tag_118\n      jump\t// in\n    tag_207:\n        /* \"#utility.yul\":5979:6112   */\n      swap3\n      swap2\n      pop\n      pop\n      jump\t// out\n        /* \"#utility.yul\":6118:6586   */\n    tag_39:\n        /* \"#utility.yul\":6183:6189   */\n      0x00\n        /* \"#utility.yul\":6191:6197   */\n      dup1\n        /* \"#utility.yul\":6240:6242   */\n      0x40\n        /* \"#utility.yul\":6228:6237   */\n      dup4\n        /* \"#utility.yul\":6219:6226   */\n      dup6\n        /* \"#utility.yul\":6215:6238   */\n      sub\n        /* \"#utility.yul\":6211:6243   */\n      slt\n        /* \"#utility.yul\":6208:6327   */\n      iszero\n      tag_209\n      jumpi\n        /* \"#utility.yul\":6246:6325   */\n      tag_210\n      tag_97\n      jump\t// in\n    tag_210:\n        /* \"#utility.yul\":6208:6327   */\n    tag_209:\n        /* \"#utility.yul\":6366:6367   */\n      0x00\n        /* \"#utility.yul\":6391:6444   */\n      tag_211\n        /* \"#utility.yul\":6436:6443   */\n      dup6\n        /* \"#utility.yul\":6427:6433   */\n      dup3\n        /* \"#utility.yul\":6416:6425   */\n      dup7\n        /* \"#utility.yul\":6412:6434   */\n      add\n        /* \"#utility.yul\":6391:6444   */\n      tag_101\n      jump\t// in\n    tag_211:\n        /* \"#utility.yul\":6381:6444   */\n      swap3\n      pop\n        /* \"#utility.yul\":6337:6454   */\n      pop\n        /* \"#utility.yul\":6493:6495   */\n      0x20\n        /* \"#utility.yul\":6519:6569   */\n      tag_212\n        /* \"#utility.yul\":6561:6568   */\n      dup6\n        /* \"#utility.yul\":6552:6558   */\n      dup3\n        /* \"#utility.yul\":6541:6550   */\n      dup7\n        /* \"#utility.yul\":6537:6559   */\n      add\n        /* \"#utility.yul\":6519:6569   */\n      tag_119\n      jump\t// in\n    tag_212:\n        /* \"#utility.yul\":6509:6569   */\n      swap2\n      pop\n        /* \"#utility.yul\":6464:6579   */\n      pop\n        /* \"#utility.yul\":6118:6586   */\n      swap3\n      pop\n      swap3\n      swap1\n      pop\n      jump\t// out\n        /* \"#utility.yul\":6592:6772   */\n    tag_47:\n        /* \"#utility.yul\":6640:6717   */\n      0x4e487b7100000000000000000000000000000000000000000000000000000000\n        /* \"#utility.yul\":6637:6638   */\n      0x00\n        /* \"#utility.yul\":6630:6718   */\n      mstore\n        /* \"#utility.yul\":6737:6741   */\n      0x32\n        /* \"#utility.yul\":6734:6735   */\n      0x04\n        /* \"#utility.yul\":6727:6742   */\n      mstore\n        /* \"#utility.yul\":6761:6765   */\n      0x24\n        /* \"#utility.yul\":6758:6759   */\n      0x00\n        /* \"#utility.yul\":6751:6766   */\n      revert\n        /* \"#utility.yul\":6778:6958   */\n    tag_120:\n        /* \"#utility.yul\":6826:6903   */\n      0x4e487b7100000000000000000000000000000000000000000000000000000000\n        /* \"#utility.yul\":6823:6824   */\n      0x00\n        /* \"#utility.yul\":6816:6904   */\n      mstore\n        /* \"#utility.yul\":6923:6927   */\n      0x22\n        /* \"#utility.yul\":6920:6921   */\n      0x04\n        /* \"#utility.yul\":6913:6928   */\n      mstore\n        /* \"#utility.yul\":6947:6951   */\n      0x24\n        /* \"#utility.yul\":6944:6945   */\n      0x00\n        /* \"#utility.yul\":6937:6952   */\n      revert\n        /* \"#utility.yul\":6964:7284   */\n    tag_50:\n        /* \"#utility.yul\":7008:7014   */\n      0x00\n        /* \"#utility.yul\":7045:7046   */\n      0x02\n        /* \"#utility.yul\":7039:7043   */\n      dup3\n        /* \"#utility.yul\":7035:7047   */\n      div\n        /* \"#utility.yul\":7025:7047   */\n      swap1\n      pop\n        /* \"#utility.yul\":7092:7093   */\n      0x01\n        /* \"#utility.yul\":7086:7090   */\n      dup3\n        /* \"#utility.yul\":7082:7094   */\n      and\n        /* \"#utility.yul\":7113:7131   */\n      dup1\n        /* \"#utility.yul\":7103:7184   */\n      tag_216\n      jumpi\n        /* \"#utility.yul\":7169:7173   */\n      0x7f\n        /* \"#utility.yul\":7161:7167   */\n      dup3\n        /* \"#utility.yul\":7157:7174   */\n      and\n        /* \"#utility.yul\":7147:7174   */\n      swap2\n      pop\n        /* \"#utility.yul\":7103:7184   */\n    tag_216:\n        /* \"#utility.yul\":7231:7233   */\n      0x20\n        /* \"#utility.yul\":7223:7229   */\n      dup3\n        /* \"#utility.yul\":7220:7234   */\n      lt\n        /* \"#utility.yul\":7200:7218   */\n      dup2\n        /* \"#utility.yul\":7197:7235   */\n      sub\n        /* \"#utility.yul\":7194:7278   */\n      tag_217\n      jumpi\n        /* \"#utility.yul\":7250:7268   */\n      tag_218\n      tag_120\n      jump\t// in\n    tag_218:\n        /* \"#utility.yul\":7194:7278   */\n    tag_217:\n        /* \"#utility.yul\":7015:7284   */\n      pop\n        /* \"#utility.yul\":6964:7284   */\n      swap2\n      swap1\n      pop\n      jump\t// out\n        /* \"#utility.yul\":7290:7431   */\n    tag_121:\n        /* \"#utility.yul\":7339:7343   */\n      0x00\n        /* \"#utility.yul\":7362:7365   */\n      dup2\n        /* \"#utility.yul\":7354:7365   */\n      swap1\n      pop\n        /* \"#utility.yul\":7385:7388   */\n      dup2\n        /* \"#utility.yul\":7382:7383   */\n      0x00\n        /* \"#utility.yul\":7375:7389   */\n      mstore\n        /* \"#utility.yul\":7419:7423   */\n      0x20\n        /* \"#utility.yul\":7416:7417   */\n      0x00\n        /* \"#utility.yul\":7406:7424   */\n      keccak256\n        /* \"#utility.yul\":7398:7424   */\n      swap1\n      pop\n        /* \"#utility.yul\":7290:7431   */\n      swap2\n      swap1\n      pop\n      jump\t// out\n        /* \"#utility.yul\":7437:7530   */\n    tag_122:\n        /* \"#utility.yul\":7474:7480   */\n      0x00\n        /* \"#utility.yul\":7521:7523   */\n      0x20\n        /* \"#utility.yul\":7516:7518   */\n      0x1f\n        /* \"#utility.yul\":7509:7514   */\n      dup4\n        /* \"#utility.yul\":7505:7519   */\n      add\n        /* \"#utility.yul\":7501:7524   */\n      div\n        /* \"#utility.yul\":7491:7524   */\n      swap1\n      pop\n        /* \"#utility.yul\":7437:7530   */\n      swap2\n      swap1\n      pop\n      jump\t// out\n        /* \"#utility.yul\":7536:7643   */\n    tag_123:\n        /* \"#utility.yul\":7580:7588   */\n      0x00\n        /* \"#utility.yul\":7630:7635   */\n      dup3\n        /* \"#utility.yul\":7624:7628   */\n      dup3\n        /* \"#utility.yul\":7620:7636   */\n      shl\n        /* \"#utility.yul\":7599:7636   */\n      swap1\n      pop\n        /* \"#utility.yul\":7536:7643   */\n      swap3\n      swap2\n      pop\n      pop\n      jump\t// out\n        /* \"#utility.yul\":7649:8042   */\n    tag_124:\n        /* \"#utility.yul\":7718:7724   */\n      0x00\n        /* \"#utility.yul\":7768:7769   */\n      0x08\n        /* \"#utility.yul\":7756:7766   */\n      dup4\n        /* \"#utility.yul\":7752:7770   */\n      mul\n        /* \"#utility.yul\":7791:7888   */\n      tag_223\n        /* \"#utility.yul\":7821:7887   */\n      0xffffffffffffffffffffffffffffffffffffffffffffffffffffffffffffffff\n        /* \"#utility.yul\":7810:7819   */\n      dup3\n        /* \"#utility.yul\":7791:7888   */\n      tag_123\n      jump\t// in\n    tag_223:\n        /* \"#utility.yul\":7909:7948   */\n      tag_224\n        /* \"#utility.yul\":7939:7947   */\n      dup7\n        /* \"#utility.yul\":7928:7937   */\n      dup4\n        /* \"#utility.yul\":7909:7948   */\n      tag_123\n      jump\t// in\n    tag_224:\n        /* \"#utility.yul\":7897:7948   */\n      swap6\n      pop\n        /* \"#utility.yul\":7981:7985   */\n      dup1\n        /* \"#utility.yul\":7977:7986   */\n      not\n        /* \"#utility.yul\":7970:7975   */\n      dup5\n        /* \"#utility.yul\":7966:7987   */\n      and\n        /* \"#utility.yul\":7957:7987   */\n      swap4\n      pop\n        /* \"#utility.yul\":8030:8034   */\n      dup1\n        /* \"#utility.yul\":8020:8028   */\n      dup7\n        /* \"#utility.yul\":8016:8035   */\n      and\n        /* \"#utility.yul\":8009:8014   */\n      dup5\n        /* \"#utility.yul\":8006:8036   */\n      or\n        /* \"#utility.yul\":7996:8036   */\n      swap3\n      pop\n        /* \"#utility.yul\":7725:8042   */\n      pop\n      pop\n        /* \"#utility.yul\":7649:8042   */\n      swap4\n      swap3\n      pop\n      pop\n      pop\n      jump\t// out\n        /* \"#utility.yul\":8048:8108   */\n    tag_125:\n        /* \"#utility.yul\":8076:8079   */\n      0x00\n        /* \"#utility.yul\":8097:8102   */\n      dup2\n        /* \"#utility.yul\":8090:8102   */\n      swap1\n      pop\n        /* \"#utility.yul\":8048:8108   */\n      swap2\n      swap1\n      pop\n      jump\t// out\n        /* \"#utility.yul\":8114:8256   */\n    tag_126:\n        /* \"#utility.yul\":8164:8173   */\n      0x00\n        /* \"#utility.yul\":8197:8250   */\n      tag_227\n        /* \"#utility.yul\":8215:8249   */\n      tag_228\n        /* \"#utility.yul\":8224:8248   */\n      tag_229\n        /* \"#utility.yul\":8242:8247   */\n      dup5\n        /* \"#utility.yul\":8224:8248   */\n      tag_99\n      jump\t// in\n    tag_229:\n        /* \"#utility.yul\":8215:8249   */\n      tag_125\n      jump\t// in\n    tag_228:\n        /* \"#utility.yul\":8197:8250   */\n      tag_99\n      jump\t// in\n    tag_227:\n        /* \"#utility.yul\":8184:8250   */\n      swap1\n      pop\n        /* \"#utility.yul\":8114:8256   */\n      swap2\n      swap1\n      pop\n      jump\t// out\n        /* \"#utility.yul\":8262:8337   */\n    tag_127:\n        /* \"#utility.yul\":8305:8308   */\n      0x00\n        /* \"#utility.yul\":8326:8331   */\n      dup2\n        /* \"#utility.yul\":8319:8331   */\n      swap1\n      pop\n        /* \"#utility.yul\":8262:8337   */\n      swap2\n      swap1\n      pop\n      jump\t// out\n        /* \"#utility.yul\":8343:8612   */\n    tag_128:\n        /* \"#utility.yul\":8453:8492   */\n      tag_232\n        /* \"#utility.yul\":8484:8491   */\n      dup4\n        /* \"#utility.yul\":8453:8492   */\n      tag_126\n      jump\t// in\n    tag_232:\n        /* \"#utility.yul\":8514:8605   */\n      tag_233\n        /* \"#utility.yul\":8563:8604   */\n      tag_234\n        /* \"#utility.yul\":8587:8603   */\n      dup3\n        /* \"#utility.yul\":8563:8604   */\n      tag_127\n      jump\t// in\n    tag_234:\n        /* \"#utility.yul\":8555:8561   */\n      dup5\n        /* \"#utility.yul\":8548:8552   */\n      dup5\n        /* \"#utility.yul\":8542:8553   */\n      sload\n        /* \"#utility.yul\":8514:8605   */\n      tag_124\n      jump\t// in\n    tag_233:\n        /* \"#utility.yul\":8508:8512   */\n      dup3\n        /* \"#utility.yul\":8501:8606   */\n      sstore\n        /* \"#utility.yul\":8419:8612   */\n      pop\n        /* \"#utility.yul\":8343:8612   */\n      pop\n      pop\n      pop\n      jump\t// out\n        /* \"#utility.yul\":8618:8691   */\n    tag_129:\n        /* \"#utility.yul\":8663:8666   */\n      0x00\n        /* \"#utility.yul\":8618:8691   */\n      swap1\n      jump\t// out\n        /* \"#utility.yul\":8697:8886   */\n    tag_130:\n        /* \"#utility.yul\":8774:8806   */\n      tag_237\n      tag_129\n      jump\t// in\n    tag_237:\n        /* \"#utility.yul\":8815:8880   */\n      tag_238\n        /* \"#utility.yul\":8873:8879   */\n      dup2\n        /* \"#utility.yul\":8865:8871   */\n      dup5\n        /* \"#utility.yul\":8859:8863   */\n      dup5\n        /* \"#utility.yul\":8815:8880   */\n      tag_128\n      jump\t// in\n    tag_238:\n        /* \"#utility.yul\":8750:8886   */\n      pop\n        /* \"#utility.yul\":8697:8886   */\n      pop\n      pop\n      jump\t// out\n        /* \"#utility.yul\":8892:9078   */\n    tag_131:\n        /* \"#utility.yul\":8952:9072   */\n    tag_240:\n        /* \"#utility.yul\":8969:8972   */\n      dup2\n        /* \"#utility.yul\":8962:8967   */\n      dup2\n        /* \"#utility.yul\":8959:8973   */\n      lt\n        /* \"#utility.yul\":8952:9072   */\n      iszero\n      tag_242\n      jumpi\n        /* \"#utility.yul\":9023:9062   */\n      tag_243\n        /* \"#utility.yul\":9060:9061   */\n      0x00\n        /* \"#utility.yul\":9053:9058   */\n      dup3\n        /* \"#utility.yul\":9023:9062   */\n      tag_130\n      jump\t// in\n    tag_243:\n        /* \"#utility.yul\":8996:8997   */\n      0x01\n        /* \"#utility.yul\":8989:8994   */\n      dup2\n        /* \"#utility.yul\":8985:8998   */\n      add\n        /* \"#utility.yul\":8976:8998   */\n      swap1\n      pop\n        /* \"#utility.yul\":8952:9072   */\n      jump(tag_240)\n    tag_242:\n        /* \"#utility.yul\":8892:9078   */\n      pop\n      pop\n      jump\t// out\n        /* \"#utility.yul\":9084:9627   */\n    tag_132:\n        /* \"#utility.yul\":9185:9187   */\n      0x1f\n        /* \"#utility.yul\":9180:9183   */\n      dup3\n        /* \"#utility.yul\":9177:9188   */\n      gt\n        /* \"#utility.yul\":9174:9620   */\n      iszero\n      tag_245\n      jumpi\n        /* \"#utility.yul\":9219:9257   */\n      tag_246\n        /* \"#utility.yul\":9251:9256   */\n      dup2\n        /* \"#utility.yul\":9219:9257   */\n      tag_121\n      jump\t// in\n    tag_246:\n        /* \"#utility.yul\":9303:9332   */\n      tag_247\n        /* \"#utility.yul\":9321:9331   */\n      dup5\n        /* \"#utility.yul\":9303:9332   */\n      tag_122\n      jump\t// in\n    tag_247:\n        /* \"#utility.yul\":9293:9301   */\n      dup2\n        /* \"#utility.yul\":9289:9333   */\n      add\n        /* \"#utility.yul\":9486:9488   */\n      0x20\n        /* \"#utility.yul\":9474:9484   */\n      dup6\n        /* \"#utility.yul\":9471:9489   */\n      lt\n        /* \"#utility.yul\":9468:9517   */\n      iszero\n      tag_248\n      jumpi\n        /* \"#utility.yul\":9507:9515   */\n      dup2\n        /* \"#utility.yul\":9492:9515   */\n      swap1\n      pop\n        /* \"#utility.yul\":9468:9517   */\n    tag_248:\n        /* \"#utility.yul\":9530:9610   */\n      tag_249\n        /* \"#utility.yul\":9586:9608   */\n      tag_250\n        /* \"#utility.yul\":9604:9607   */\n      dup6\n        /* \"#utility.yul\":9586:9608   */\n      tag_122\n      jump\t// in\n    tag_250:\n        /* \"#utility.yul\":9576:9584   */\n      dup4\n        /* \"#utility.yul\":9572:9609   */\n      add\n        /* \"#utility.yul\":9559:9570   */\n      dup3\n        /* \"#utility.yul\":9530:9610   */\n      tag_131\n      jump\t// in\n    tag_249:\n        /* \"#utility.yul\":9189:9620   */\n      pop\n      pop\n        /* \"#utility.yul\":9174:9620   */\n    tag_245:\n        /* \"#utility.yul\":9084:9627   */\n      pop\n      pop\n      pop\n      jump\t// out\n        /* \"#utility.yul\":9633:9750   */\n    tag_133:\n        /* \"#utility.yul\":9687:9695   */\n      0x00\n        /* \"#utility.yul\":9737:9742   */\n      dup3\n        /* \"#utility.yul\":9731:9735   */\n      dup3\n        /* \"#utility.yul\":9727:9743   */\n      shr\n        /* \"#utility.yul\":9706:9743   */\n      swap1\n      pop\n        /* \"#utility.yul\":9633:9750   */\n      swap3\n      swap2\n      pop\n      pop\n      jump\t// out\n        /* \"#utility.yul\":9756:9925   */\n    tag_134:\n        /* \"#utility.yul\":9800:9806   */\n      0x00\n        /* \"#utility.yul\":9833:9884   */\n      tag_253\n        /* \"#utility.yul\":9881:9882   */\n      0x00\n        /* \"#utility.yul\":9877:9883   */\n      not\n        /* \"#utility.yul\":9869:9874   */\n      dup5\n        /* \"#utility.yul\":9866:9867   */\n      0x08\n        /* \"#utility.yul\":9862:9875   */\n      mul\n        /* \"#utility.yul\":9833:9884   */\n      tag_133\n      jump\t// in\n    tag_253:\n        /* \"#utility.yul\":9829:9885   */\n      not\n        /* \"#utility.yul\":9914:9918   */\n      dup1\n        /* \"#utility.yul\":9908:9912   */\n      dup4\n        /* \"#utility.yul\":9904:9919   */\n      and\n        /* \"#utility.yul\":9894:9919   */\n      swap2\n      pop\n        /* \"#utility.yul\":9807:9925   */\n      pop\n        /* \"#utility.yul\":9756:9925   */\n      swap3\n      swap2\n      pop\n      pop\n      jump\t// out\n        /* \"#utility.yul\":9930:10225   */\n    tag_135:\n        /* \"#utility.yul\":10006:10010   */\n      0x00\n        /* \"#utility.yul\":10152:10181   */\n      tag_255\n        /* \"#utility.yul\":10177:10180   */\n      dup4\n        /* \"#utility.yul\":10171:10175   */\n      dup4\n        /* \"#utility.yul\":10152:10181   */\n      tag_134\n      jump\t// in\n    tag_255:\n        /* \"#utility.yul\":10144:10181   */\n      swap2\n      pop\n        /* \"#utility.yul\":10214:10217   */\n      dup3\n        /* \"#utility.yul\":10211:10212   */\n      0x02\n        /* \"#utility.yul\":10207:10218   */\n      mul\n        /* \"#utility.yul\":10201:10205   */\n      dup3\n        /* \"#utility.yul\":10198:10219   */\n      or\n        /* \"#utility.yul\":10190:10219   */\n      swap1\n      pop\n        /* \"#utility.yul\":9930:10225   */\n      swap3\n      swap2\n      pop\n      pop\n      jump\t// out\n        /* \"#utility.yul\":10230:11625   */\n    tag_76:\n        /* \"#utility.yul\":10347:10384   */\n      tag_257\n        /* \"#utility.yul\":10380:10383   */\n      dup3\n        /* \"#utility.yul\":10347:10384   */\n      tag_102\n      jump\t// in\n    tag_257:\n        /* \"#utility.yul\":10449:10467   */\n      0xffffffffffffffff\n        /* \"#utility.yul\":10441:10447   */\n      dup2\n        /* \"#utility.yul\":10438:10468   */\n      gt\n        /* \"#utility.yul\":10435:10491   */\n      iszero\n      tag_258\n      jumpi\n        /* \"#utility.yul\":10471:10489   */\n      tag_259\n      tag_111\n      jump\t// in\n    tag_259:\n        /* \"#utility.yul\":10435:10491   */\n    tag_258:\n        /* \"#utility.yul\":10515:10553   */\n      tag_260\n        /* \"#utility.yul\":10547:10551   */\n      dup3\n        /* \"#utility.yul\":10541:10552   */\n      sload\n        /* \"#utility.yul\":10515:10553   */\n      tag_50\n      jump\t// in\n    tag_260:\n        /* \"#utility.yul\":10600:10667   */\n      tag_261\n        /* \"#utility.yul\":10660:10666   */\n      dup3\n        /* \"#utility.yul\":10652:10658   */\n      dup3\n        /* \"#utility.yul\":10646:10650   */\n      dup6\n        /* \"#utility.yul\":10600:10667   */\n      tag_132\n      jump\t// in\n    tag_261:\n        /* \"#utility.yul\":10694:10695   */\n      0x00\n        /* \"#utility.yul\":10718:10722   */\n      0x20\n        /* \"#utility.yul\":10705:10722   */\n      swap1\n      pop\n        /* \"#utility.yul\":10750:10752   */\n      0x1f\n        /* \"#utility.yul\":10742:10748   */\n      dup4\n        /* \"#utility.yul\":10739:10753   */\n      gt\n        /* \"#utility.yul\":10767:10768   */\n      0x01\n        /* \"#utility.yul\":10762:11380   */\n      dup2\n      eq\n      tag_263\n      jumpi\n        /* \"#utility.yul\":11424:11425   */\n      0x00\n        /* \"#utility.yul\":11441:11447   */\n      dup5\n        /* \"#utility.yul\":11438:11515   */\n      iszero\n      tag_264\n      jumpi\n        /* \"#utility.yul\":11490:11499   */\n      dup3\n        /* \"#utility.yul\":11485:11488   */\n      dup8\n        /* \"#utility.yul\":11481:11500   */\n      add\n        /* \"#utility.yul\":11475:11501   */\n      mload\n        /* \"#utility.yul\":11466:11501   */\n      swap1\n      pop\n        /* \"#utility.yul\":11438:11515   */\n    tag_264:\n        /* \"#utility.yul\":11541:11608   */\n      tag_265\n        /* \"#utility.yul\":11601:11607   */\n      dup6\n        /* \"#utility.yul\":11594:11599   */\n      dup3\n        /* \"#utility.yul\":11541:11608   */\n      tag_135\n      jump\t// in\n    tag_265:\n        /* \"#utility.yul\":11535:11539   */\n      dup7\n        /* \"#utility.yul\":11528:11609   */\n      sstore\n        /* \"#utility.yul\":11397:11619   */\n      pop\n        /* \"#utility.yul\":10732:11619   */\n      jump(tag_262)\n        /* \"#utility.yul\":10762:11380   */\n    tag_263:\n        /* \"#utility.yul\":10814:10818   */\n      0x1f\n        /* \"#utility.yul\":10810:10819   */\n      not\n        /* \"#utility.yul\":10802:10808   */\n      dup5\n        /* \"#utility.yul\":10798:10820   */\n      and\n        /* \"#utility.yul\":10848:10885   */\n      tag_266\n        /* \"#utility.yul\":10880:10884   */\n      dup7\n        /* \"#utility.yul\":10848:10885   */\n      tag_121\n      jump\t// in\n    tag_266:\n        /* \"#utility.yul\":10907:10908   */\n      0x00\n        /* \"#utility.yul\":10921:11129   */\n    tag_267:\n        /* \"#utility.yul\":10935:10942   */\n      dup3\n        /* \"#utility.yul\":10932:10933   */\n      dup2\n        /* \"#utility.yul\":10929:10943   */\n      lt\n        /* \"#utility.yul\":10921:11129   */\n      iszero\n      tag_269\n      jumpi\n        /* \"#utility.yul\":11014:11023   */\n      dup5\n        /* \"#utility.yul\":11009:11012   */\n      dup10\n        /* \"#utility.yul\":11005:11024   */\n      add\n        /* \"#utility.yul\":10999:11025   */\n      mload\n        /* \"#utility.yul\":10991:10997   */\n      dup3\n        /* \"#utility.yul\":10984:11026   */\n      sstore\n        /* \"#utility.yul\":11065:11066   */\n      0x01\n        /* \"#utility.yul\":11057:11063   */\n      dup3\n        /* \"#utility.yul\":11053:11067   */\n      add\n        /* \"#utility.yul\":11043:11067   */\n      swap2\n      pop\n        /* \"#utility.yul\":11112:11114   */\n      0x20\n        /* \"#utility.yul\":11101:11110   */\n      dup6\n        /* \"#utility.yul\":11097:11115   */\n      add\n        /* \"#utility.yul\":11084:11115   */\n      swap5\n      pop\n        /* \"#utility.yul\":10958:10962   */\n      0x20\n        /* \"#utility.yul\":10955:10956   */\n      dup2\n        /* \"#utility.yul\":10951:10963   */\n      add\n        /* \"#utility.yul\":10946:10963   */\n      swap1\n      pop\n        /* \"#utility.yul\":10921:11129   */\n      jump(tag_267)\n    tag_269:\n        /* \"#utility.yul\":11157:11163   */\n      dup7\n        /* \"#utility.yul\":11148:11155   */\n      dup4\n        /* \"#utility.yul\":11145:11164   */\n      lt\n        /* \"#utility.yul\":11142:11321   */\n      iszero\n      tag_270\n      jumpi\n        /* \"#utility.yul\":11215:11224   */\n      dup5\n        /* \"#utility.yul\":11210:11213   */\n      dup10\n        /* \"#utility.yul\":11206:11225   */\n      add\n        /* \"#utility.yul\":11200:11226   */\n      mload\n        /* \"#utility.yul\":11258:11306   */\n      tag_271\n        /* \"#utility.yul\":11300:11304   */\n      0x1f\n        /* \"#utility.yul\":11292:11298   */\n      dup10\n        /* \"#utility.yul\":11288:11305   */\n      and\n        /* \"#utility.yul\":11277:11286   */\n      dup3\n        /* \"#utility.yul\":11258:11306   */\n      tag_134\n      jump\t// in\n    tag_271:\n        /* \"#utility.yul\":11250:11256   */\n      dup4\n        /* \"#utility.yul\":11243:11307   */\n      sstore\n        /* \"#utility.yul\":11165:11321   */\n      pop\n        /* \"#utility.yul\":11142:11321   */\n    tag_270:\n        /* \"#utility.yul\":11367:11368   */\n      0x01\n        /* \"#utility.yul\":11363:11364   */\n      0x02\n        /* \"#utility.yul\":11355:11361   */\n      dup9\n        /* \"#utility.yul\":11351:11365   */\n      mul\n        /* \"#utility.yul\":11347:11369   */\n      add\n        /* \"#utility.yul\":11341:11345   */\n      dup9\n        /* \"#utility.yul\":11334:11370   */\n      sstore\n        /* \"#utility.yul\":10769:11380   */\n      pop\n      pop\n      pop\n        /* \"#utility.yul\":10732:11619   */\n    tag_262:\n      pop\n        /* \"#utility.yul\":10322:11625   */\n      pop\n      pop\n      pop\n        /* \"#utility.yul\":10230:11625   */\n      pop\n      pop\n      jump\t// out\n\n    auxdata: 0xa264697066735822122065d1bab228f984187627426f66c6230662c28faf42c2a2daa7433fee5b9b124664736f6c634300081a0033\n}\n",
				"bytecode": {
					"linkReferences": {},
					"object": "6080604052348015600e575f80fd5b50610c338061001c5f395ff3fe608060405234801561000f575f80fd5b5060043610610086575f3560e01c8063b6a46b3b11610059578063b6a46b3b14610139578063c8b1d20514610155578063cbab6b1914610171578063f93968b61461018d57610086565b806331184dc31461008a57806380c9419e146100bb5780639c117f0f146100ec578063b0abe5991461011d575b5f80fd5b6100a4600480360381019061009f91906105ef565b6101a9565b6040516100b29291906106a4565b60405180910390f35b6100d560048036038101906100d091906105ef565b610276565b6040516100e39291906106a4565b60405180910390f35b610106600480360381019061010191906105ef565b610336565b6040516101149291906106a4565b60405180910390f35b610137600480360381019061013291906107fe565b610422565b005b610153600480360381019061014e9190610858565b61045a565b005b61016f600480360381019061016a91906105ef565b6104d0565b005b61018b600480360381019061018691906108c9565b61053b565b005b6101a760048036038101906101a291906107fe565b610578565b005b60605f805f84815481106101c0576101bf610907565b5b905f5260205f2090600202019050805f01816001015f9054906101000a900460ff168180546101ee90610961565b80601f016020809104026020016040519081016040528092919081815260200182805461021a90610961565b80156102655780601f1061023c57610100808354040283529160200191610265565b820191905f5260205f20905b81548152906001019060200180831161024857829003601f168201915b505050505091509250925050915091565b5f8181548110610284575f80fd5b905f5260205f2090600202015f91509050805f0180546102a390610961565b80601f01602080910402602001604051908101604052809291908181526020018280546102cf90610961565b801561031a5780601f106102f15761010080835404028352916020019161031a565b820191905f5260205f20905b8154815290600101906020018083116102fd57829003601f168201915b505050505090806001015f9054906101000a900460ff16905082565b60605f805f848154811061034d5761034c610907565b5b905f5260205f2090600202016040518060400160405290815f8201805461037390610961565b80601f016020809104026020016040519081016040528092919081815260200182805461039f90610961565b80156103ea5780601f106103c1576101008083540402835291602001916103ea565b820191905f5260205f20905b8154815290600101906020018083116103cd57829003601f168201915b50505050508152602001600182015f9054906101000a900460ff1615151515815250509050805f015181602001519250925050915091565b5f80838154811061043657610435610907565b5b905f5260205f209060020201905081815f0190816104549190610b2e565b50505050565b5f60405180604001604052808381526020015f1515815250908060018154018082558091505060019003905f5260205f2090600202015f909190919091505f820151815f0190816104ab9190610b2e565b506020820151816001015f6101000a81548160ff021916908315150217905550505050565b5f81815481106104e3576104e2610907565b5b905f5260205f2090600202016001015f9054906101000a900460ff16155f828154811061051357610512610907565b5b905f5260205f2090600202016001015f6101000a81548160ff02191690831515021790555050565b805f838154811061054f5761054e610907565b5b905f5260205f2090600202016001015f6101000a81548160ff0219169083151502179055505050565b805f838154811061058c5761058b610907565b5b905f5260205f2090600202015f0190816105a69190610b2e565b505050565b5f604051905090565b5f80fd5b5f80fd5b5f819050919050565b6105ce816105bc565b81146105d8575f80fd5b50565b5f813590506105e9816105c5565b92915050565b5f60208284031215610604576106036105b4565b5b5f610611848285016105db565b91505092915050565b5f81519050919050565b5f82825260208201905092915050565b8281835e5f83830152505050565b5f601f19601f8301169050919050565b5f61065c8261061a565b6106668185610624565b9350610676818560208601610634565b61067f81610642565b840191505092915050565b5f8115159050919050565b61069e8161068a565b82525050565b5f6040820190508181035f8301526106bc8185610652565b90506106cb6020830184610695565b9392505050565b5f80fd5b5f80fd5b7f4e487b71000000000000000000000000000000000000000000000000000000005f52604160045260245ffd5b61071082610642565b810181811067ffffffffffffffff8211171561072f5761072e6106da565b5b80604052505050565b5f6107416105ab565b905061074d8282610707565b919050565b5f67ffffffffffffffff82111561076c5761076b6106da565b5b61077582610642565b9050602081019050919050565b828183375f83830152505050565b5f6107a261079d84610752565b610738565b9050828152602081018484840111156107be576107bd6106d6565b5b6107c9848285610782565b509392505050565b5f82601f8301126107e5576107e46106d2565b5b81356107f5848260208601610790565b91505092915050565b5f8060408385031215610814576108136105b4565b5b5f610821858286016105db565b925050602083013567ffffffffffffffff811115610842576108416105b8565b5b61084e858286016107d1565b9150509250929050565b5f6020828403121561086d5761086c6105b4565b5b5f82013567ffffffffffffffff81111561088a576108896105b8565b5b610896848285016107d1565b91505092915050565b6108a88161068a565b81146108b2575f80fd5b50565b5f813590506108c38161089f565b92915050565b5f80604083850312156108df576108de6105b4565b5b5f6108ec858286016105db565b92505060206108fd858286016108b5565b9150509250929050565b7f4e487b71000000000000000000000000000000000000000000000000000000005f52603260045260245ffd5b7f4e487b71000000000000000000000000000000000000000000000000000000005f52602260045260245ffd5b5f600282049050600182168061097857607f821691505b60208210810361098b5761098a610934565b5b50919050565b5f819050815f5260205f209050919050565b5f6020601f8301049050919050565b5f82821b905092915050565b5f600883026109ed7fffffffffffffffffffffffffffffffffffffffffffffffffffffffffffffffff826109b2565b6109f786836109b2565b95508019841693508086168417925050509392505050565b5f819050919050565b5f610a32610a2d610a28846105bc565b610a0f565b6105bc565b9050919050565b5f819050919050565b610a4b83610a18565b610a5f610a5782610a39565b8484546109be565b825550505050565b5f90565b610a73610a67565b610a7e818484610a42565b505050565b5b81811015610aa157610a965f82610a6b565b600181019050610a84565b5050565b601f821115610ae657610ab781610991565b610ac0846109a3565b81016020851015610acf578190505b610ae3610adb856109a3565b830182610a83565b50505b505050565b5f82821c905092915050565b5f610b065f1984600802610aeb565b1980831691505092915050565b5f610b1e8383610af7565b9150826002028217905092915050565b610b378261061a565b67ffffffffffffffff811115610b5057610b4f6106da565b5b610b5a8254610961565b610b65828285610aa5565b5f60209050601f831160018114610b96575f8415610b84578287015190505b610b8e8582610b13565b865550610bf5565b601f198416610ba486610991565b5f5b82811015610bcb57848901518255600182019150602085019450602081019050610ba6565b86831015610be85784890151610be4601f891682610af7565b8355505b6001600288020188555050505b50505050505056fea264697066735822122065d1bab228f984187627426f66c6230662c28faf42c2a2daa7433fee5b9b124664736f6c634300081a0033",
					"opcodes": "PUSH1 0x80 PUSH1 0x40 MSTORE CALLVALUE DUP1 ISZERO PUSH1 0xE JUMPI PUSH0 DUP1 REVERT JUMPDEST POP PUSH2 0xC33 DUP1 PUSH2 0x1C PUSH0 CODECOPY PUSH0 RETURN INVALID PUSH1 0x80 PUSH1 0x40 MSTORE CALLVALUE DUP1 ISZERO PUSH2 0xF JUMPI PUSH0 DUP1 REVERT JUMPDEST POP PUSH1 0x4 CALLDATASIZE LT PUSH2 0x86 JUMPI PUSH0 CALLDATALOAD PUSH1 0xE0 SHR DUP1 PUSH4 0xB6A46B3B GT PUSH2 0x59 JUMPI DUP1 PUSH4 0xB6A46B3B EQ PUSH2 0x139 JUMPI DUP1 PUSH4 0xC8B1D205 EQ PUSH2 0x155 JUMPI DUP1 PUSH4 0xCBAB6B19 EQ PUSH2 0x171 JUMPI DUP1 PUSH4 0xF93968B6 EQ PUSH2 0x18D JUMPI PUSH2 0x86 JUMP JUMPDEST DUP1 PUSH4 0x31184DC3 EQ PUSH2 0x8A JUMPI DUP1 PUSH4 0x80C9419E EQ PUSH2 0xBB JUMPI DUP1 PUSH4 0x9C117F0F EQ PUSH2 0xEC JUMPI DUP1 PUSH4 0xB0ABE599 EQ PUSH2 0x11D JUMPI JUMPDEST PUSH0 DUP1 REVERT JUMPDEST PUSH2 0xA4 PUSH1 0x4 DUP1 CALLDATASIZE SUB DUP2 ADD SWAP1 PUSH2 0x9F SWAP2 SWAP1 PUSH2 0x5EF JUMP JUMPDEST PUSH2 0x1A9 JUMP JUMPDEST PUSH1 0x40 MLOAD PUSH2 0xB2 SWAP3 SWAP2 SWAP1 PUSH2 0x6A4 JUMP JUMPDEST PUSH1 0x40 MLOAD DUP1 SWAP2 SUB SWAP1 RETURN JUMPDEST PUSH2 0xD5 PUSH1 0x4 DUP1 CALLDATASIZE SUB DUP2 ADD SWAP1 PUSH2 0xD0 SWAP2 SWAP1 PUSH2 0x5EF JUMP JUMPDEST PUSH2 0x276 JUMP JUMPDEST PUSH1 0x40 MLOAD PUSH2 0xE3 SWAP3 SWAP2 SWAP1 PUSH2 0x6A4 JUMP JUMPDEST PUSH1 0x40 MLOAD DUP1 SWAP2 SUB SWAP1 RETURN JUMPDEST PUSH2 0x106 PUSH1 0x4 DUP1 CALLDATASIZE SUB DUP2 ADD SWAP1 PUSH2 0x101 SWAP2 SWAP1 PUSH2 0x5EF JUMP JUMPDEST PUSH2 0x336 JUMP JUMPDEST PUSH1 0x40 MLOAD PUSH2 0x114 SWAP3 SWAP2 SWAP1 PUSH2 0x6A4 JUMP JUMPDEST PUSH1 0x40 MLOAD DUP1 SWAP2 SUB SWAP1 RETURN JUMPDEST PUSH2 0x137 PUSH1 0x4 DUP1 CALLDATASIZE SUB DUP2 ADD SWAP1 PUSH2 0x132 SWAP2 SWAP1 PUSH2 0x7FE JUMP JUMPDEST PUSH2 0x422 JUMP JUMPDEST STOP JUMPDEST PUSH2 0x153 PUSH1 0x4 DUP1 CALLDATASIZE SUB DUP2 ADD SWAP1 PUSH2 0x14E SWAP2 SWAP1 PUSH2 0x858 JUMP JUMPDEST PUSH2 0x45A JUMP JUMPDEST STOP JUMPDEST PUSH2 0x16F PUSH1 0x4 DUP1 CALLDATASIZE SUB DUP2 ADD SWAP1 PUSH2 0x16A SWAP2 SWAP1 PUSH2 0x5EF JUMP JUMPDEST PUSH2 0x4D0 JUMP JUMPDEST STOP JUMPDEST PUSH2 0x18B PUSH1 0x4 DUP1 CALLDATASIZE SUB DUP2 ADD SWAP1 PUSH2 0x186 SWAP2 SWAP1 PUSH2 0x8C9 JUMP JUMPDEST PUSH2 0x53B JUMP JUMPDEST STOP JUMPDEST PUSH2 0x1A7 PUSH1 0x4 DUP1 CALLDATASIZE SUB DUP2 ADD SWAP1 PUSH2 0x1A2 SWAP2 SWAP1 PUSH2 0x7FE JUMP JUMPDEST PUSH2 0x578 JUMP JUMPDEST STOP JUMPDEST PUSH1 0x60 PUSH0 DUP1 PUSH0 DUP5 DUP2 SLOAD DUP2 LT PUSH2 0x1C0 JUMPI PUSH2 0x1BF PUSH2 0x907 JUMP JUMPDEST JUMPDEST SWAP1 PUSH0 MSTORE PUSH1 0x20 PUSH0 KECCAK256 SWAP1 PUSH1 0x2 MUL ADD SWAP1 POP DUP1 PUSH0 ADD DUP2 PUSH1 0x1 ADD PUSH0 SWAP1 SLOAD SWAP1 PUSH2 0x100 EXP SWAP1 DIV PUSH1 0xFF AND DUP2 DUP1 SLOAD PUSH2 0x1EE SWAP1 PUSH2 0x961 JUMP JUMPDEST DUP1 PUSH1 0x1F ADD PUSH1 0x20 DUP1 SWAP2 DIV MUL PUSH1 0x20 ADD PUSH1 0x40 MLOAD SWAP1 DUP2 ADD PUSH1 0x40 MSTORE DUP1 SWAP3 SWAP2 SWAP1 DUP2 DUP2 MSTORE PUSH1 0x20 ADD DUP3 DUP1 SLOAD PUSH2 0x21A SWAP1 PUSH2 0x961 JUMP JUMPDEST DUP1 ISZERO PUSH2 0x265 JUMPI DUP1 PUSH1 0x1F LT PUSH2 0x23C JUMPI PUSH2 0x100 DUP1 DUP4 SLOAD DIV MUL DUP4 MSTORE SWAP2 PUSH1 0x20 ADD SWAP2 PUSH2 0x265 JUMP JUMPDEST DUP3 ADD SWAP2 SWAP1 PUSH0 MSTORE PUSH1 0x20 PUSH0 KECCAK256 SWAP1 JUMPDEST DUP2 SLOAD DUP2 MSTORE SWAP1 PUSH1 0x1 ADD SWAP1 PUSH1 0x20 ADD DUP1 DUP4 GT PUSH2 0x248 JUMPI DUP3 SWAP1 SUB PUSH1 0x1F AND DUP3 ADD SWAP2 JUMPDEST POP POP POP POP POP SWAP2 POP SWAP3 POP SWAP3 POP POP SWAP2 POP SWAP2 JUMP JUMPDEST PUSH0 DUP2 DUP2 SLOAD DUP2 LT PUSH2 0x284 JUMPI PUSH0 DUP1 REVERT JUMPDEST SWAP1 PUSH0 MSTORE PUSH1 0x20 PUSH0 KECCAK256 SWAP1 PUSH1 0x2 MUL ADD PUSH0 SWAP2 POP SWAP1 POP DUP1 PUSH0 ADD DUP1 SLOAD PUSH2 0x2A3 SWAP1 PUSH2 0x961 JUMP JUMPDEST DUP1 PUSH1 0x1F ADD PUSH1 0x20 DUP1 SWAP2 DIV MUL PUSH1 0x20 ADD PUSH1 0x40 MLOAD SWAP1 DUP2 ADD PUSH1 0x40 MSTORE DUP1 SWAP3 SWAP2 SWAP1 DUP2 DUP2 MSTORE PUSH1 0x20 ADD DUP3 DUP1 SLOAD PUSH2 0x2CF SWAP1 PUSH2 0x961 JUMP JUMPDEST DUP1 ISZERO PUSH2 0x31A JUMPI DUP1 PUSH1 0x1F LT PUSH2 0x2F1 JUMPI PUSH2 0x100 DUP1 DUP4 SLOAD DIV MUL DUP4 MSTORE SWAP2 PUSH1 0x20 ADD SWAP2 PUSH2 0x31A JUMP JUMPDEST DUP3 ADD SWAP2 SWAP1 PUSH0 MSTORE PUSH1 0x20 PUSH0 KECCAK256 SWAP1 JUMPDEST DUP2 SLOAD DUP2 MSTORE SWAP1 PUSH1 0x1 ADD SWAP1 PUSH1 0x20 ADD DUP1 DUP4 GT PUSH2 0x2FD JUMPI DUP3 SWAP1 SUB PUSH1 0x1F AND DUP3 ADD SWAP2 JUMPDEST POP POP POP POP POP SWAP1 DUP1 PUSH1 0x1 ADD PUSH0 SWAP1 SLOAD SWAP1 PUSH2 0x100 EXP SWAP1 DIV PUSH1 0xFF AND SWAP1 POP DUP3 JUMP JUMPDEST PUSH1 0x60 PUSH0 DUP1 PUSH0 DUP5 DUP2 SLOAD DUP2 LT PUSH2 0x34D JUMPI PUSH2 0x34C PUSH2 0x907 JUMP JUMPDEST JUMPDEST SWAP1 PUSH0 MSTORE PUSH1 0x20 PUSH0 KECCAK256 SWAP1 PUSH1 0x2 MUL ADD PUSH1 0x40 MLOAD DUP1 PUSH1 0x40 ADD PUSH1 0x40 MSTORE SWAP1 DUP2 PUSH0 DUP3 ADD DUP1 SLOAD PUSH2 0x373 SWAP1 PUSH2 0x961 JUMP JUMPDEST DUP1 PUSH1 0x1F ADD PUSH1 0x20 DUP1 SWAP2 DIV MUL PUSH1 0x20 ADD PUSH1 0x40 MLOAD SWAP1 DUP2 ADD PUSH1 0x40 MSTORE DUP1 SWAP3 SWAP2 SWAP1 DUP2 DUP2 MSTORE PUSH1 0x20 ADD DUP3 DUP1 SLOAD PUSH2 0x39F SWAP1 PUSH2 0x961 JUMP JUMPDEST DUP1 ISZERO PUSH2 0x3EA JUMPI DUP1 PUSH1 0x1F LT PUSH2 0x3C1 JUMPI PUSH2 0x100 DUP1 DUP4 SLOAD DIV MUL DUP4 MSTORE SWAP2 PUSH1 0x20 ADD SWAP2 PUSH2 0x3EA JUMP JUMPDEST DUP3 ADD SWAP2 SWAP1 PUSH0 MSTORE PUSH1 0x20 PUSH0 KECCAK256 SWAP1 JUMPDEST DUP2 SLOAD DUP2 MSTORE SWAP1 PUSH1 0x1 ADD SWAP1 PUSH1 0x20 ADD DUP1 DUP4 GT PUSH2 0x3CD JUMPI DUP3 SWAP1 SUB PUSH1 0x1F AND DUP3 ADD SWAP2 JUMPDEST POP POP POP POP POP DUP2 MSTORE PUSH1 0x20 ADD PUSH1 0x1 DUP3 ADD PUSH0 SWAP1 SLOAD SWAP1 PUSH2 0x100 EXP SWAP1 DIV PUSH1 0xFF AND ISZERO ISZERO ISZERO ISZERO DUP2 MSTORE POP POP SWAP1 POP DUP1 PUSH0 ADD MLOAD DUP2 PUSH1 0x20 ADD MLOAD SWAP3 POP SWAP3 POP POP SWAP2 POP SWAP2 JUMP JUMPDEST PUSH0 DUP1 DUP4 DUP2 SLOAD DUP2 LT PUSH2 0x436 JUMPI PUSH2 0x435 PUSH2 0x907 JUMP JUMPDEST JUMPDEST SWAP1 PUSH0 MSTORE PUSH1 0x20 PUSH0 KECCAK256 SWAP1 PUSH1 0x2 MUL ADD SWAP1 POP DUP2 DUP2 PUSH0 ADD SWAP1 DUP2 PUSH2 0x454 SWAP2 SWAP1 PUSH2 0xB2E JUMP JUMPDEST POP POP POP POP JUMP JUMPDEST PUSH0 PUSH1 0x40 MLOAD DUP1 PUSH1 0x40 ADD PUSH1 0x40 MSTORE DUP1 DUP4 DUP2 MSTORE PUSH1 0x20 ADD PUSH0 ISZERO ISZERO DUP2 MSTORE POP SWAP1 DUP1 PUSH1 0x1 DUP2 SLOAD ADD DUP1 DUP3 SSTORE DUP1 SWAP2 POP POP PUSH1 0x1 SWAP1 SUB SWAP1 PUSH0 MSTORE PUSH1 0x20 PUSH0 KECCAK256 SWAP1 PUSH1 0x2 MUL ADD PUSH0 SWAP1 SWAP2 SWAP1 SWAP2 SWAP1 SWAP2 POP PUSH0 DUP3 ADD MLOAD DUP2 PUSH0 ADD SWAP1 DUP2 PUSH2 0x4AB SWAP2 SWAP1 PUSH2 0xB2E JUMP JUMPDEST POP PUSH1 0x20 DUP3 ADD MLOAD DUP2 PUSH1 0x1 ADD PUSH0 PUSH2 0x100 EXP DUP2 SLOAD DUP2 PUSH1 0xFF MUL NOT AND SWAP1 DUP4 ISZERO ISZERO MUL OR SWAP1 SSTORE POP POP POP POP JUMP JUMPDEST PUSH0 DUP2 DUP2 SLOAD DUP2 LT PUSH2 0x4E3 JUMPI PUSH2 0x4E2 PUSH2 0x907 JUMP JUMPDEST JUMPDEST SWAP1 PUSH0 MSTORE PUSH1 0x20 PUSH0 KECCAK256 SWAP1 PUSH1 0x2 MUL ADD PUSH1 0x1 ADD PUSH0 SWAP1 SLOAD SWAP1 PUSH2 0x100 EXP SWAP1 DIV PUSH1 0xFF AND ISZERO PUSH0 DUP3 DUP2 SLOAD DUP2 LT PUSH2 0x513 JUMPI PUSH2 0x512 PUSH2 0x907 JUMP JUMPDEST JUMPDEST SWAP1 PUSH0 MSTORE PUSH1 0x20 PUSH0 KECCAK256 SWAP1 PUSH1 0x2 MUL ADD PUSH1 0x1 ADD PUSH0 PUSH2 0x100 EXP DUP2 SLOAD DUP2 PUSH1 0xFF MUL NOT AND SWAP1 DUP4 ISZERO ISZERO MUL OR SWAP1 SSTORE POP POP JUMP JUMPDEST DUP1 PUSH0 DUP4 DUP2 SLOAD DUP2 LT PUSH2 0x54F JUMPI PUSH2 0x54E PUSH2 0x907 JUMP JUMPDEST JUMPDEST SWAP1 PUSH0 MSTORE PUSH1 0x20 PUSH0 KECCAK256 SWAP1 PUSH1 0x2 MUL ADD PUSH1 0x1 ADD PUSH0 PUSH2 0x100 EXP DUP2 SLOAD DUP2 PUSH1 0xFF MUL NOT AND SWAP1 DUP4 ISZERO ISZERO MUL OR SWAP1 SSTORE POP POP POP JUMP JUMPDEST DUP1 PUSH0 DUP4 DUP2 SLOAD DUP2 LT PUSH2 0x58C JUMPI PUSH2 0x58B PUSH2 0x907 JUMP JUMPDEST JUMPDEST SWAP1 PUSH0 MSTORE PUSH1 0x20 PUSH0 KECCAK256 SWAP1 PUSH1 0x2 MUL ADD PUSH0 ADD SWAP1 DUP2 PUSH2 0x5A6 SWAP2 SWAP1 PUSH2 0xB2E JUMP JUMPDEST POP POP POP JUMP JUMPDEST PUSH0 PUSH1 0x40 MLOAD SWAP1 POP SWAP1 JUMP JUMPDEST PUSH0 DUP1 REVERT JUMPDEST PUSH0 DUP1 REVERT JUMPDEST PUSH0 DUP2 SWAP1 POP SWAP2 SWAP1 POP JUMP JUMPDEST PUSH2 0x5CE DUP2 PUSH2 0x5BC JUMP JUMPDEST DUP2 EQ PUSH2 0x5D8 JUMPI PUSH0 DUP1 REVERT JUMPDEST POP JUMP JUMPDEST PUSH0 DUP2 CALLDATALOAD SWAP1 POP PUSH2 0x5E9 DUP2 PUSH2 0x5C5 JUMP JUMPDEST SWAP3 SWAP2 POP POP JUMP JUMPDEST PUSH0 PUSH1 0x20 DUP3 DUP5 SUB SLT ISZERO PUSH2 0x604 JUMPI PUSH2 0x603 PUSH2 0x5B4 JUMP JUMPDEST JUMPDEST PUSH0 PUSH2 0x611 DUP5 DUP3 DUP6 ADD PUSH2 0x5DB JUMP JUMPDEST SWAP2 POP POP SWAP3 SWAP2 POP POP JUMP JUMPDEST PUSH0 DUP2 MLOAD SWAP1 POP SWAP2 SWAP1 POP JUMP JUMPDEST PUSH0 DUP3 DUP3 MSTORE PUSH1 0x20 DUP3 ADD SWAP1 POP SWAP3 SWAP2 POP POP JUMP JUMPDEST DUP3 DUP2 DUP4 MCOPY PUSH0 DUP4 DUP4 ADD MSTORE POP POP POP JUMP JUMPDEST PUSH0 PUSH1 0x1F NOT PUSH1 0x1F DUP4 ADD AND SWAP1 POP SWAP2 SWAP1 POP JUMP JUMPDEST PUSH0 PUSH2 0x65C DUP3 PUSH2 0x61A JUMP JUMPDEST PUSH2 0x666 DUP2 DUP6 PUSH2 0x624 JUMP JUMPDEST SWAP4 POP PUSH2 0x676 DUP2 DUP6 PUSH1 0x20 DUP7 ADD PUSH2 0x634 JUMP JUMPDEST PUSH2 0x67F DUP2 PUSH2 0x642 JUMP JUMPDEST DUP5 ADD SWAP2 POP POP SWAP3 SWAP2 POP POP JUMP JUMPDEST PUSH0 DUP2 ISZERO ISZERO SWAP1 POP SWAP2 SWAP1 POP JUMP JUMPDEST PUSH2 0x69E DUP2 PUSH2 0x68A JUMP JUMPDEST DUP3 MSTORE POP POP JUMP JUMPDEST PUSH0 PUSH1 0x40 DUP3 ADD SWAP1 POP DUP2 DUP2 SUB PUSH0 DUP4 ADD MSTORE PUSH2 0x6BC DUP2 DUP6 PUSH2 0x652 JUMP JUMPDEST SWAP1 POP PUSH2 0x6CB PUSH1 0x20 DUP4 ADD DUP5 PUSH2 0x695 JUMP JUMPDEST SWAP4 SWAP3 POP POP POP JUMP JUMPDEST PUSH0 DUP1 REVERT JUMPDEST PUSH0 DUP1 REVERT JUMPDEST PUSH32 0x4E487B7100000000000000000000000000000000000000000000000000000000 PUSH0 MSTORE PUSH1 0x41 PUSH1 0x4 MSTORE PUSH1 0x24 PUSH0 REVERT JUMPDEST PUSH2 0x710 DUP3 PUSH2 0x642 JUMP JUMPDEST DUP2 ADD DUP2 DUP2 LT PUSH8 0xFFFFFFFFFFFFFFFF DUP3 GT OR ISZERO PUSH2 0x72F JUMPI PUSH2 0x72E PUSH2 0x6DA JUMP JUMPDEST JUMPDEST DUP1 PUSH1 0x40 MSTORE POP POP POP JUMP JUMPDEST PUSH0 PUSH2 0x741 PUSH2 0x5AB JUMP JUMPDEST SWAP1 POP PUSH2 0x74D DUP3 DUP3 PUSH2 0x707 JUMP JUMPDEST SWAP2 SWAP1 POP JUMP JUMPDEST PUSH0 PUSH8 0xFFFFFFFFFFFFFFFF DUP3 GT ISZERO PUSH2 0x76C JUMPI PUSH2 0x76B PUSH2 0x6DA JUMP JUMPDEST JUMPDEST PUSH2 0x775 DUP3 PUSH2 0x642 JUMP JUMPDEST SWAP1 POP PUSH1 0x20 DUP2 ADD SWAP1 POP SWAP2 SWAP1 POP JUMP JUMPDEST DUP3 DUP2 DUP4 CALLDATACOPY PUSH0 DUP4 DUP4 ADD MSTORE POP POP POP JUMP JUMPDEST PUSH0 PUSH2 0x7A2 PUSH2 0x79D DUP5 PUSH2 0x752 JUMP JUMPDEST PUSH2 0x738 JUMP JUMPDEST SWAP1 POP DUP3 DUP2 MSTORE PUSH1 0x20 DUP2 ADD DUP5 DUP5 DUP5 ADD GT ISZERO PUSH2 0x7BE JUMPI PUSH2 0x7BD PUSH2 0x6D6 JUMP JUMPDEST JUMPDEST PUSH2 0x7C9 DUP5 DUP3 DUP6 PUSH2 0x782 JUMP JUMPDEST POP SWAP4 SWAP3 POP POP POP JUMP JUMPDEST PUSH0 DUP3 PUSH1 0x1F DUP4 ADD SLT PUSH2 0x7E5 JUMPI PUSH2 0x7E4 PUSH2 0x6D2 JUMP JUMPDEST JUMPDEST DUP2 CALLDATALOAD PUSH2 0x7F5 DUP5 DUP3 PUSH1 0x20 DUP7 ADD PUSH2 0x790 JUMP JUMPDEST SWAP2 POP POP SWAP3 SWAP2 POP POP JUMP JUMPDEST PUSH0 DUP1 PUSH1 0x40 DUP4 DUP6 SUB SLT ISZERO PUSH2 0x814 JUMPI PUSH2 0x813 PUSH2 0x5B4 JUMP JUMPDEST JUMPDEST PUSH0 PUSH2 0x821 DUP6 DUP3 DUP7 ADD PUSH2 0x5DB JUMP JUMPDEST SWAP3 POP POP PUSH1 0x20 DUP4 ADD CALLDATALOAD PUSH8 0xFFFFFFFFFFFFFFFF DUP2 GT ISZERO PUSH2 0x842 JUMPI PUSH2 0x841 PUSH2 0x5B8 JUMP JUMPDEST JUMPDEST PUSH2 0x84E DUP6 DUP3 DUP7 ADD PUSH2 0x7D1 JUMP JUMPDEST SWAP2 POP POP SWAP3 POP SWAP3 SWAP1 POP JUMP JUMPDEST PUSH0 PUSH1 0x20 DUP3 DUP5 SUB SLT ISZERO PUSH2 0x86D JUMPI PUSH2 0x86C PUSH2 0x5B4 JUMP JUMPDEST JUMPDEST PUSH0 DUP3 ADD CALLDATALOAD PUSH8 0xFFFFFFFFFFFFFFFF DUP2 GT ISZERO PUSH2 0x88A JUMPI PUSH2 0x889 PUSH2 0x5B8 JUMP JUMPDEST JUMPDEST PUSH2 0x896 DUP5 DUP3 DUP6 ADD PUSH2 0x7D1 JUMP JUMPDEST SWAP2 POP POP SWAP3 SWAP2 POP POP JUMP JUMPDEST PUSH2 0x8A8 DUP2 PUSH2 0x68A JUMP JUMPDEST DUP2 EQ PUSH2 0x8B2 JUMPI PUSH0 DUP1 REVERT JUMPDEST POP JUMP JUMPDEST PUSH0 DUP2 CALLDATALOAD SWAP1 POP PUSH2 0x8C3 DUP2 PUSH2 0x89F JUMP JUMPDEST SWAP3 SWAP2 POP POP JUMP JUMPDEST PUSH0 DUP1 PUSH1 0x40 DUP4 DUP6 SUB SLT ISZERO PUSH2 0x8DF JUMPI PUSH2 0x8DE PUSH2 0x5B4 JUMP JUMPDEST JUMPDEST PUSH0 PUSH2 0x8EC DUP6 DUP3 DUP7 ADD PUSH2 0x5DB JUMP JUMPDEST SWAP3 POP POP PUSH1 0x20 PUSH2 0x8FD DUP6 DUP3 DUP7 ADD PUSH2 0x8B5 JUMP JUMPDEST SWAP2 POP POP SWAP3 POP SWAP3 SWAP1 POP JUMP JUMPDEST PUSH32 0x4E487B7100000000000000000000000000000000000000000000000000000000 PUSH0 MSTORE PUSH1 0x32 PUSH1 0x4 MSTORE PUSH1 0x24 PUSH0 REVERT JUMPDEST PUSH32 0x4E487B7100000000000000000000000000000000000000000000000000000000 PUSH0 MSTORE PUSH1 0x22 PUSH1 0x4 MSTORE PUSH1 0x24 PUSH0 REVERT JUMPDEST PUSH0 PUSH1 0x2 DUP3 DIV SWAP1 POP PUSH1 0x1 DUP3 AND DUP1 PUSH2 0x978 JUMPI PUSH1 0x7F DUP3 AND SWAP2 POP JUMPDEST PUSH1 0x20 DUP3 LT DUP2 SUB PUSH2 0x98B JUMPI PUSH2 0x98A PUSH2 0x934 JUMP JUMPDEST JUMPDEST POP SWAP2 SWAP1 POP JUMP JUMPDEST PUSH0 DUP2 SWAP1 POP DUP2 PUSH0 MSTORE PUSH1 0x20 PUSH0 KECCAK256 SWAP1 POP SWAP2 SWAP1 POP JUMP JUMPDEST PUSH0 PUSH1 0x20 PUSH1 0x1F DUP4 ADD DIV SWAP1 POP SWAP2 SWAP1 POP JUMP JUMPDEST PUSH0 DUP3 DUP3 SHL SWAP1 POP SWAP3 SWAP2 POP POP JUMP JUMPDEST PUSH0 PUSH1 0x8 DUP4 MUL PUSH2 0x9ED PUSH32 0xFFFFFFFFFFFFFFFFFFFFFFFFFFFFFFFFFFFFFFFFFFFFFFFFFFFFFFFFFFFFFFFF DUP3 PUSH2 0x9B2 JUMP JUMPDEST PUSH2 0x9F7 DUP7 DUP4 PUSH2 0x9B2 JUMP JUMPDEST SWAP6 POP DUP1 NOT DUP5 AND SWAP4 POP DUP1 DUP7 AND DUP5 OR SWAP3 POP POP POP SWAP4 SWAP3 POP POP POP JUMP JUMPDEST PUSH0 DUP2 SWAP1 POP SWAP2 SWAP1 POP JUMP JUMPDEST PUSH0 PUSH2 0xA32 PUSH2 0xA2D PUSH2 0xA28 DUP5 PUSH2 0x5BC JUMP JUMPDEST PUSH2 0xA0F JUMP JUMPDEST PUSH2 0x5BC JUMP JUMPDEST SWAP1 POP SWAP2 SWAP1 POP JUMP JUMPDEST PUSH0 DUP2 SWAP1 POP SWAP2 SWAP1 POP JUMP JUMPDEST PUSH2 0xA4B DUP4 PUSH2 0xA18 JUMP JUMPDEST PUSH2 0xA5F PUSH2 0xA57 DUP3 PUSH2 0xA39 JUMP JUMPDEST DUP5 DUP5 SLOAD PUSH2 0x9BE JUMP JUMPDEST DUP3 SSTORE POP POP POP POP JUMP JUMPDEST PUSH0 SWAP1 JUMP JUMPDEST PUSH2 0xA73 PUSH2 0xA67 JUMP JUMPDEST PUSH2 0xA7E DUP2 DUP5 DUP5 PUSH2 0xA42 JUMP JUMPDEST POP POP POP JUMP JUMPDEST JUMPDEST DUP2 DUP2 LT ISZERO PUSH2 0xAA1 JUMPI PUSH2 0xA96 PUSH0 DUP3 PUSH2 0xA6B JUMP JUMPDEST PUSH1 0x1 DUP2 ADD SWAP1 POP PUSH2 0xA84 JUMP JUMPDEST POP POP JUMP JUMPDEST PUSH1 0x1F DUP3 GT ISZERO PUSH2 0xAE6 JUMPI PUSH2 0xAB7 DUP2 PUSH2 0x991 JUMP JUMPDEST PUSH2 0xAC0 DUP5 PUSH2 0x9A3 JUMP JUMPDEST DUP2 ADD PUSH1 0x20 DUP6 LT ISZERO PUSH2 0xACF JUMPI DUP2 SWAP1 POP JUMPDEST PUSH2 0xAE3 PUSH2 0xADB DUP6 PUSH2 0x9A3 JUMP JUMPDEST DUP4 ADD DUP3 PUSH2 0xA83 JUMP JUMPDEST POP POP JUMPDEST POP POP POP JUMP JUMPDEST PUSH0 DUP3 DUP3 SHR SWAP1 POP SWAP3 SWAP2 POP POP JUMP JUMPDEST PUSH0 PUSH2 0xB06 PUSH0 NOT DUP5 PUSH1 0x8 MUL PUSH2 0xAEB JUMP JUMPDEST NOT DUP1 DUP4 AND SWAP2 POP POP SWAP3 SWAP2 POP POP JUMP JUMPDEST PUSH0 PUSH2 0xB1E DUP4 DUP4 PUSH2 0xAF7 JUMP JUMPDEST SWAP2 POP DUP3 PUSH1 0x2 MUL DUP3 OR SWAP1 POP SWAP3 SWAP2 POP POP JUMP JUMPDEST PUSH2 0xB37 DUP3 PUSH2 0x61A JUMP JUMPDEST PUSH8 0xFFFFFFFFFFFFFFFF DUP2 GT ISZERO PUSH2 0xB50 JUMPI PUSH2 0xB4F PUSH2 0x6DA JUMP JUMPDEST JUMPDEST PUSH2 0xB5A DUP3 SLOAD PUSH2 0x961 JUMP JUMPDEST PUSH2 0xB65 DUP3 DUP3 DUP6 PUSH2 0xAA5 JUMP JUMPDEST PUSH0 PUSH1 0x20 SWAP1 POP PUSH1 0x1F DUP4 GT PUSH1 0x1 DUP2 EQ PUSH2 0xB96 JUMPI PUSH0 DUP5 ISZERO PUSH2 0xB84 JUMPI DUP3 DUP8 ADD MLOAD SWAP1 POP JUMPDEST PUSH2 0xB8E DUP6 DUP3 PUSH2 0xB13 JUMP JUMPDEST DUP7 SSTORE POP PUSH2 0xBF5 JUMP JUMPDEST PUSH1 0x1F NOT DUP5 AND PUSH2 0xBA4 DUP7 PUSH2 0x991 JUMP JUMPDEST PUSH0 JUMPDEST DUP3 DUP2 LT ISZERO PUSH2 0xBCB JUMPI DUP5 DUP10 ADD MLOAD DUP3 SSTORE PUSH1 0x1 DUP3 ADD SWAP2 POP PUSH1 0x20 DUP6 ADD SWAP5 POP PUSH1 0x20 DUP2 ADD SWAP1 POP PUSH2 0xBA6 JUMP JUMPDEST DUP7 DUP4 LT ISZERO PUSH2 0xBE8 JUMPI DUP5 DUP10 ADD MLOAD PUSH2 0xBE4 PUSH1 0x1F DUP10 AND DUP3 PUSH2 0xAF7 JUMP JUMPDEST DUP4 SSTORE POP JUMPDEST PUSH1 0x1 PUSH1 0x2 DUP9 MUL ADD DUP9 SSTORE POP POP POP JUMPDEST POP POP POP POP POP POP JUMP INVALID LOG2 PUSH5 0x6970667358 0x22 SLT KECCAK256 PUSH6 0xD1BAB228F984 XOR PUSH23 0x27426F66C6230662C28FAF42C2A2DAA7433FEE5B9B1246 PUSH5 0x736F6C6343 STOP ADDMOD BYTE STOP CALLER "
				},
				"gasEstimates": {
					"creation": {
						"codeDepositCost": "624600",
						"executionCost": "655",
						"totalCost": "625255"
					},
					"external": {
						"create(string)": "infinite",
						"get1(uint256)": "infinite",
						"get2(uint256)": "infinite",
						"list(uint256)": "infinite",
						"modifyName(uint256,string)": "infinite",
						"modifyName2(uint256,string)": "infinite",
						"modifyStatus1(uint256,bool)": "27082",
						"modifyStatus2(uint256)": "31215"
					}
				},
				"methodIdentifiers": {
					"create(string)": "b6a46b3b",
					"get1(uint256)": "9c117f0f",
					"get2(uint256)": "31184dc3",
					"list(uint256)": "80c9419e",
					"modifyName(uint256,string)": "f93968b6",
					"modifyName2(uint256,string)": "b0abe599",
					"modifyStatus1(uint256,bool)": "cbab6b19",
					"modifyStatus2(uint256)": "c8b1d205"
				}
			},
			"storageLayout": {
				"storage": [
					{
						"astId": 10,
						"contract": "l1-5-homework/todo.sol:TODOList",
						"label": "list",
						"offset": 0,
						"slot": "0",
						"type": "t_array(t_struct(Todo)6_storage)dyn_storage"
					}
				],
				"types": {
					"t_array(t_struct(Todo)6_storage)dyn_storage": {
						"base": "t_struct(Todo)6_storage",
						"encoding": "dynamic_array",
						"label": "struct TODOList.Todo[]",
						"numberOfBytes": "32"
					},
					"t_bool": {
						"encoding": "inplace",
						"label": "bool",
						"numberOfBytes": "1"
					},
					"t_string_storage": {
						"encoding": "bytes",
						"label": "string",
						"numberOfBytes": "32"
					},
					"t_struct(Todo)6_storage": {
						"encoding": "inplace",
						"label": "struct TODOList.Todo",
						"members": [
							{
								"astId": 3,
								"contract": "l1-5-homework/todo.sol:TODOList",
								"label": "name",
								"offset": 0,
								"slot": "0",
								"type": "t_string_storage"
							},
							{
								"astId": 5,
								"contract": "l1-5-homework/todo.sol:TODOList",
								"label": "isFinished",
								"offset": 0,
								"slot": "1",
								"type": "t_bool"
							}
						],
						"numberOfBytes": "64"
					}
				}
			},
			"userdoc": {
				"kind": "user",
				"methods": {},
				"version": 1
			}
		}
	}
}