{
	"l1-5-homework/mulSigWallet.sol": {
		"MultiSigWallet": {
			"abi": [
				{
					"inputs": [
						{
							"internalType": "address[]",
							"name": "owners_",
							"type": "address[]"
						},
						{
							"internalType": "uint256",
							"name": "requiredNum_",
							"type": "uint256"
						}
					],
					"stateMutability": "nonpayable",
					"type": "constructor"
				},
				{
					"anonymous": false,
					"inputs": [
						{
							"indexed": true,
							"internalType": "address",
							"name": "owner",
							"type": "address"
						},
						{
							"indexed": true,
							"internalType": "uint256",
							"name": "txId",
							"type": "uint256"
						}
					],
					"name": "Approve",
					"type": "event"
				},
				{
					"anonymous": false,
					"inputs": [
						{
							"indexed": true,
							"internalType": "address",
							"name": "sender",
							"type": "address"
						},
						{
							"indexed": false,
							"internalType": "uint256",
							"name": "amount",
							"type": "uint256"
						}
					],
					"name": "Deposit",
					"type": "event"
				},
				{
					"anonymous": false,
					"inputs": [
						{
							"indexed": true,
							"internalType": "uint256",
							"name": "txId",
							"type": "uint256"
						}
					],
					"name": "Execute",
					"type": "event"
				},
				{
					"anonymous": false,
					"inputs": [
						{
							"indexed": true,
							"internalType": "address",
							"name": "owner",
							"type": "address"
						},
						{
							"indexed": true,
							"internalType": "uint256",
							"name": "txId",
							"type": "uint256"
						}
					],
					"name": "Revoke",
					"type": "event"
				},
				{
					"anonymous": false,
					"inputs": [
						{
							"indexed": true,
							"internalType": "uint256",
							"name": "txId",
							"type": "uint256"
						}
					],
					"name": "Submit",
					"type": "event"
				},
				{
					"inputs": [
						{
							"internalType": "uint256",
							"name": "txId_",
							"type": "uint256"
						}
					],
					"name": "approve",
					"outputs": [],
					"stateMutability": "nonpayable",
					"type": "function"
				},
				{
					"inputs": [
						{
							"internalType": "uint256",
							"name": "",
							"type": "uint256"
						},
						{
							"internalType": "address",
							"name": "",
							"type": "address"
						}
					],
					"name": "approved",
					"outputs": [
						{
							"internalType": "bool",
							"name": "",
							"type": "bool"
						}
					],
					"stateMutability": "view",
					"type": "function"
				},
				{
					"inputs": [
						{
							"internalType": "uint256",
							"name": "txId_",
							"type": "uint256"
						}
					],
					"name": "execute",
					"outputs": [],
					"stateMutability": "nonpayable",
					"type": "function"
				},
				{
					"inputs": [
						{
							"internalType": "uint256",
							"name": "txId_",
							"type": "uint256"
						}
					],
					"name": "getApprovalCount",
					"outputs": [
						{
							"internalType": "uint256",
							"name": "count",
							"type": "uint256"
						}
					],
					"stateMutability": "view",
					"type": "function"
				},
				{
					"inputs": [],
					"name": "getBalance",
					"outputs": [
						{
							"internalType": "uint256",
							"name": "",
							"type": "uint256"
						}
					],
					"stateMutability": "view",
					"type": "function"
				},
				{
					"inputs": [
						{
							"internalType": "address",
							"name": "",
							"type": "address"
						}
					],
					"name": "isOwner",
					"outputs": [
						{
							"internalType": "bool",
							"name": "",
							"type": "bool"
						}
					],
					"stateMutability": "view",
					"type": "function"
				},
				{
					"inputs": [
						{
							"internalType": "uint256",
							"name": "",
							"type": "uint256"
						}
					],
					"name": "owners",
					"outputs": [
						{
							"internalType": "address",
							"name": "",
							"type": "address"
						}
					],
					"stateMutability": "view",
					"type": "function"
				},
				{
					"inputs": [],
					"name": "requiredNum",
					"outputs": [
						{
							"internalType": "uint256",
							"name": "",
							"type": "uint256"
						}
					],
					"stateMutability": "view",
					"type": "function"
				},
				{
					"inputs": [
						{
							"internalType": "uint256",
							"name": "txId_",
							"type": "uint256"
						}
					],
					"name": "revoke",
					"outputs": [],
					"stateMutability": "nonpayable",
					"type": "function"
				},
				{
					"inputs": [
						{
							"internalType": "address",
							"name": "to_",
							"type": "address"
						},
						{
							"internalType": "uint256",
							"name": "value_",
							"type": "uint256"
						},
						{
							"internalType": "bytes",
							"name": "data_",
							"type": "bytes"
						}
					],
					"name": "submit",
					"outputs": [
						{
							"internalType": "uint256",
							"name": "",
							"type": "uint256"
						}
					],
					"stateMutability": "nonpayable",
					"type": "function"
				},
				{
					"inputs": [
						{
							"internalType": "uint256",
							"name": "",
							"type": "uint256"
						}
					],
					"name": "transacations",
					"outputs": [
						{
							"internalType": "address",
							"name": "to",
							"type": "address"
						},
						{
							"internalType": "uint256",
							"name": "value",
							"type": "uint256"
						},
						{
							"internalType": "bytes",
							"name": "data",
							"type": "bytes"
						},
						{
							"internalType": "bool",
							"name": "exected",
							"type": "bool"
						}
					],
					"stateMutability": "view",
					"type": "function"
				},
				{
					"stateMutability": "payable",
					"type": "receive"
				}
			],
			"devdoc": {
				"kind": "dev",
				"methods": {},
				"version": 1
			},
			"evm": {
				"assembly": "    /* \"l1-5-homework/mulSigWallet.sol\":58:3485  contract MultiSigWallet {... */\n  mstore(0x40, 0x80)\n    /* \"l1-5-homework/mulSigWallet.sol\":1250:1839  constructor(address[] memory owners_, uint256 requiredNum_) {... */\n  callvalue\n  dup1\n  iszero\n  tag_1\n  jumpi\n  0x00\n  dup1\n  revert\ntag_1:\n  pop\n  mload(0x40)\n  sub(codesize, bytecodeSize)\n  dup1\n  bytecodeSize\n  dup4\n  codecopy\n  dup2\n  dup2\n  add\n  0x40\n  mstore\n  dup2\n  add\n  swap1\n  tag_2\n  swap2\n  swap1\n  tag_3\n  jump\t// in\ntag_2:\n    /* \"l1-5-homework/mulSigWallet.sol\":1345:1346  0 */\n  0x00\n    /* \"l1-5-homework/mulSigWallet.sol\":1328:1335  owners_ */\n  dup3\n    /* \"l1-5-homework/mulSigWallet.sol\":1328:1342  owners_.length */\n  mload\n    /* \"l1-5-homework/mulSigWallet.sol\":1328:1346  owners_.length > 0 */\n  gt\n    /* \"l1-5-homework/mulSigWallet.sol\":1320:1368  require(owners_.length > 0, \"owner is required\") */\n  tag_6\n  jumpi\n  mload(0x40)\n  0x08c379a000000000000000000000000000000000000000000000000000000000\n  dup2\n  mstore\n  0x04\n  add\n  tag_7\n  swap1\n  tag_8\n  jump\t// in\ntag_7:\n  mload(0x40)\n  dup1\n  swap2\n  sub\n  swap1\n  revert\ntag_6:\n    /* \"l1-5-homework/mulSigWallet.sol\":1401:1402  0 */\n  0x00\n    /* \"l1-5-homework/mulSigWallet.sol\":1386:1398  requiredNum_ */\n  dup2\n    /* \"l1-5-homework/mulSigWallet.sol\":1386:1402  requiredNum_ > 0 */\n  gt\n    /* \"l1-5-homework/mulSigWallet.sol\":1386:1435  requiredNum_ > 0 && requiredNum_ <= owners.length */\n  dup1\n  iszero\n  tag_9\n  jumpi\n  pop\n    /* \"l1-5-homework/mulSigWallet.sol\":1422:1428  owners */\n  0x00\n    /* \"l1-5-homework/mulSigWallet.sol\":1422:1435  owners.length */\n  dup1\n  sload\n  swap1\n  pop\n    /* \"l1-5-homework/mulSigWallet.sol\":1406:1418  requiredNum_ */\n  dup2\n    /* \"l1-5-homework/mulSigWallet.sol\":1406:1435  requiredNum_ <= owners.length */\n  gt\n  iszero\n    /* \"l1-5-homework/mulSigWallet.sol\":1386:1435  requiredNum_ > 0 && requiredNum_ <= owners.length */\ntag_9:\n    /* \"l1-5-homework/mulSigWallet.sol\":1378:1472  require(requiredNum_ > 0 && requiredNum_ <= owners.length, \"invalid required number of owner\") */\n  tag_10\n  jumpi\n  mload(0x40)\n  0x08c379a000000000000000000000000000000000000000000000000000000000\n  dup2\n  mstore\n  0x04\n  add\n  tag_11\n  swap1\n  tag_12\n  jump\t// in\ntag_11:\n  mload(0x40)\n  dup1\n  swap2\n  sub\n  swap1\n  revert\ntag_10:\n    /* \"l1-5-homework/mulSigWallet.sol\":1487:1496  uint256 i */\n  0x00\n    /* \"l1-5-homework/mulSigWallet.sol\":1483:1797  for(uint256 i = 0; i < owners_.length; i++) {... */\ntag_13:\n    /* \"l1-5-homework/mulSigWallet.sol\":1506:1513  owners_ */\n  dup3\n    /* \"l1-5-homework/mulSigWallet.sol\":1506:1520  owners_.length */\n  mload\n    /* \"l1-5-homework/mulSigWallet.sol\":1502:1503  i */\n  dup2\n    /* \"l1-5-homework/mulSigWallet.sol\":1502:1520  i < owners_.length */\n  lt\n    /* \"l1-5-homework/mulSigWallet.sol\":1483:1797  for(uint256 i = 0; i < owners_.length; i++) {... */\n  iszero\n  tag_14\n  jumpi\n    /* \"l1-5-homework/mulSigWallet.sol\":1541:1554  address owner */\n  0x00\n    /* \"l1-5-homework/mulSigWallet.sol\":1557:1564  owners_ */\n  dup4\n    /* \"l1-5-homework/mulSigWallet.sol\":1565:1566  i */\n  dup3\n    /* \"l1-5-homework/mulSigWallet.sol\":1557:1567  owners_[i] */\n  dup2\n  mload\n  dup2\n  lt\n  tag_16\n  jumpi\n  tag_17\n  tag_18\n  jump\t// in\ntag_17:\ntag_16:\n  0x20\n  mul\n  0x20\n  add\n  add\n  mload\n    /* \"l1-5-homework/mulSigWallet.sol\":1541:1567  address owner = owners_[i] */\n  swap1\n  pop\n    /* \"l1-5-homework/mulSigWallet.sol\":1606:1607  0 */\n  0x00\n    /* \"l1-5-homework/mulSigWallet.sol\":1589:1608  owner != address(0) */\n  0xffffffffffffffffffffffffffffffffffffffff\n  and\n    /* \"l1-5-homework/mulSigWallet.sol\":1589:1594  owner */\n  dup2\n    /* \"l1-5-homework/mulSigWallet.sol\":1589:1608  owner != address(0) */\n  0xffffffffffffffffffffffffffffffffffffffff\n  and\n  sub\n    /* \"l1-5-homework/mulSigWallet.sol\":1581:1626  require(owner != address(0), \"invalid owner\") */\n  tag_19\n  jumpi\n  mload(0x40)\n  0x08c379a000000000000000000000000000000000000000000000000000000000\n  dup2\n  mstore\n  0x04\n  add\n  tag_20\n  swap1\n  tag_21\n  jump\t// in\ntag_20:\n  mload(0x40)\n  dup1\n  swap2\n  sub\n  swap1\n  revert\ntag_19:\n    /* \"l1-5-homework/mulSigWallet.sol\":1649:1656  isOwner */\n  0x01\n    /* \"l1-5-homework/mulSigWallet.sol\":1649:1663  isOwner[owner] */\n  0x00\n    /* \"l1-5-homework/mulSigWallet.sol\":1657:1662  owner */\n  dup3\n    /* \"l1-5-homework/mulSigWallet.sol\":1649:1663  isOwner[owner] */\n  0xffffffffffffffffffffffffffffffffffffffff\n  and\n  0xffffffffffffffffffffffffffffffffffffffff\n  and\n  dup2\n  mstore\n  0x20\n  add\n  swap1\n  dup2\n  mstore\n  0x20\n  add\n  0x00\n  keccak256\n  0x00\n  swap1\n  sload\n  swap1\n  0x0100\n  exp\n  swap1\n  div\n  0xff\n  and\n    /* \"l1-5-homework/mulSigWallet.sol\":1648:1663  !isOwner[owner] */\n  iszero\n    /* \"l1-5-homework/mulSigWallet.sol\":1640:1687  require(!isOwner[owner], \"owner is not unique\") */\n  tag_22\n  jumpi\n  mload(0x40)\n  0x08c379a000000000000000000000000000000000000000000000000000000000\n  dup2\n  mstore\n  0x04\n  add\n  tag_23\n  swap1\n  tag_24\n  jump\t// in\ntag_23:\n  mload(0x40)\n  dup1\n  swap2\n  sub\n  swap1\n  revert\ntag_22:\n    /* \"l1-5-homework/mulSigWallet.sol\":1750:1754  true */\n  0x01\n    /* \"l1-5-homework/mulSigWallet.sol\":1733:1740  isOwner */\n  dup1\n    /* \"l1-5-homework/mulSigWallet.sol\":1733:1747  isOwner[owner] */\n  0x00\n    /* \"l1-5-homework/mulSigWallet.sol\":1741:1746  owner */\n  dup4\n    /* \"l1-5-homework/mulSigWallet.sol\":1733:1747  isOwner[owner] */\n  0xffffffffffffffffffffffffffffffffffffffff\n  and\n  0xffffffffffffffffffffffffffffffffffffffff\n  and\n  dup2\n  mstore\n  0x20\n  add\n  swap1\n  dup2\n  mstore\n  0x20\n  add\n  0x00\n  keccak256\n  0x00\n    /* \"l1-5-homework/mulSigWallet.sol\":1733:1754  isOwner[owner] = true */\n  0x0100\n  exp\n  dup2\n  sload\n  dup2\n  0xff\n  mul\n  not\n  and\n  swap1\n  dup4\n  iszero\n  iszero\n  mul\n  or\n  swap1\n  sstore\n  pop\n    /* \"l1-5-homework/mulSigWallet.sol\":1768:1774  owners */\n  0x00\n    /* \"l1-5-homework/mulSigWallet.sol\":1780:1785  owner */\n  dup2\n    /* \"l1-5-homework/mulSigWallet.sol\":1768:1786  owners.push(owner) */\n  swap1\n  dup1\n  0x01\n  dup2\n  sload\n  add\n  dup1\n  dup3\n  sstore\n  dup1\n  swap2\n  pop\n  pop\n  0x01\n  swap1\n  sub\n  swap1\n  0x00\n  mstore\n  keccak256(0x00, 0x20)\n  add\n  0x00\n  swap1\n  swap2\n  swap1\n  swap2\n  swap1\n  swap2\n  0x0100\n  exp\n  dup2\n  sload\n  dup2\n  0xffffffffffffffffffffffffffffffffffffffff\n  mul\n  not\n  and\n  swap1\n  dup4\n  0xffffffffffffffffffffffffffffffffffffffff\n  and\n  mul\n  or\n  swap1\n  sstore\n  pop\n    /* \"l1-5-homework/mulSigWallet.sol\":1527:1797  {... */\n  pop\n    /* \"l1-5-homework/mulSigWallet.sol\":1522:1525  i++ */\n  dup1\n  dup1\n  0x01\n  add\n  swap2\n  pop\n  pop\n    /* \"l1-5-homework/mulSigWallet.sol\":1483:1797  for(uint256 i = 0; i < owners_.length; i++) {... */\n  jump(tag_13)\ntag_14:\n  pop\n    /* \"l1-5-homework/mulSigWallet.sol\":1820:1832  requiredNum_ */\n  dup1\n    /* \"l1-5-homework/mulSigWallet.sol\":1806:1817  requiredNum */\n  0x02\n    /* \"l1-5-homework/mulSigWallet.sol\":1806:1832  requiredNum = requiredNum_ */\n  dup2\n  swap1\n  sstore\n  pop\n    /* \"l1-5-homework/mulSigWallet.sol\":1250:1839  constructor(address[] memory owners_, uint256 requiredNum_) {... */\n  pop\n  pop\n    /* \"l1-5-homework/mulSigWallet.sol\":58:3485  contract MultiSigWallet {... */\n  jump(tag_26)\n    /* \"#utility.yul\":7:82   */\ntag_27:\n    /* \"#utility.yul\":40:46   */\n  0x00\n    /* \"#utility.yul\":73:75   */\n  0x40\n    /* \"#utility.yul\":67:76   */\n  mload\n    /* \"#utility.yul\":57:76   */\n  swap1\n  pop\n    /* \"#utility.yul\":7:82   */\n  swap1\n  jump\t// out\n    /* \"#utility.yul\":88:205   */\ntag_28:\n    /* \"#utility.yul\":197:198   */\n  0x00\n    /* \"#utility.yul\":194:195   */\n  dup1\n    /* \"#utility.yul\":187:199   */\n  revert\n    /* \"#utility.yul\":211:328   */\ntag_29:\n    /* \"#utility.yul\":320:321   */\n  0x00\n    /* \"#utility.yul\":317:318   */\n  dup1\n    /* \"#utility.yul\":310:322   */\n  revert\n    /* \"#utility.yul\":334:451   */\ntag_30:\n    /* \"#utility.yul\":443:444   */\n  0x00\n    /* \"#utility.yul\":440:441   */\n  dup1\n    /* \"#utility.yul\":433:445   */\n  revert\n    /* \"#utility.yul\":457:559   */\ntag_31:\n    /* \"#utility.yul\":498:504   */\n  0x00\n    /* \"#utility.yul\":549:551   */\n  0x1f\n    /* \"#utility.yul\":545:552   */\n  not\n    /* \"#utility.yul\":540:542   */\n  0x1f\n    /* \"#utility.yul\":533:538   */\n  dup4\n    /* \"#utility.yul\":529:543   */\n  add\n    /* \"#utility.yul\":525:553   */\n  and\n    /* \"#utility.yul\":515:553   */\n  swap1\n  pop\n    /* \"#utility.yul\":457:559   */\n  swap2\n  swap1\n  pop\n  jump\t// out\n    /* \"#utility.yul\":565:745   */\ntag_32:\n    /* \"#utility.yul\":613:690   */\n  0x4e487b7100000000000000000000000000000000000000000000000000000000\n    /* \"#utility.yul\":610:611   */\n  0x00\n    /* \"#utility.yul\":603:691   */\n  mstore\n    /* \"#utility.yul\":710:714   */\n  0x41\n    /* \"#utility.yul\":707:708   */\n  0x04\n    /* \"#utility.yul\":700:715   */\n  mstore\n    /* \"#utility.yul\":734:738   */\n  0x24\n    /* \"#utility.yul\":731:732   */\n  0x00\n    /* \"#utility.yul\":724:739   */\n  revert\n    /* \"#utility.yul\":751:1032   */\ntag_33:\n    /* \"#utility.yul\":834:861   */\n  tag_63\n    /* \"#utility.yul\":856:860   */\n  dup3\n    /* \"#utility.yul\":834:861   */\n  tag_31\n  jump\t// in\ntag_63:\n    /* \"#utility.yul\":826:832   */\n  dup2\n    /* \"#utility.yul\":822:862   */\n  add\n    /* \"#utility.yul\":964:970   */\n  dup2\n    /* \"#utility.yul\":952:962   */\n  dup2\n    /* \"#utility.yul\":949:971   */\n  lt\n    /* \"#utility.yul\":928:946   */\n  0xffffffffffffffff\n    /* \"#utility.yul\":916:926   */\n  dup3\n    /* \"#utility.yul\":913:947   */\n  gt\n    /* \"#utility.yul\":910:972   */\n  or\n    /* \"#utility.yul\":907:995   */\n  iszero\n  tag_64\n  jumpi\n    /* \"#utility.yul\":975:993   */\n  tag_65\n  tag_32\n  jump\t// in\ntag_65:\n    /* \"#utility.yul\":907:995   */\ntag_64:\n    /* \"#utility.yul\":1015:1025   */\n  dup1\n    /* \"#utility.yul\":1011:1013   */\n  0x40\n    /* \"#utility.yul\":1004:1026   */\n  mstore\n    /* \"#utility.yul\":794:1032   */\n  pop\n    /* \"#utility.yul\":751:1032   */\n  pop\n  pop\n  jump\t// out\n    /* \"#utility.yul\":1038:1167   */\ntag_34:\n    /* \"#utility.yul\":1072:1078   */\n  0x00\n    /* \"#utility.yul\":1099:1119   */\n  tag_67\n  tag_27\n  jump\t// in\ntag_67:\n    /* \"#utility.yul\":1089:1119   */\n  swap1\n  pop\n    /* \"#utility.yul\":1128:1161   */\n  tag_68\n    /* \"#utility.yul\":1156:1160   */\n  dup3\n    /* \"#utility.yul\":1148:1154   */\n  dup3\n    /* \"#utility.yul\":1128:1161   */\n  tag_33\n  jump\t// in\ntag_68:\n    /* \"#utility.yul\":1038:1167   */\n  swap2\n  swap1\n  pop\n  jump\t// out\n    /* \"#utility.yul\":1173:1484   */\ntag_35:\n    /* \"#utility.yul\":1250:1254   */\n  0x00\n    /* \"#utility.yul\":1340:1358   */\n  0xffffffffffffffff\n    /* \"#utility.yul\":1332:1338   */\n  dup3\n    /* \"#utility.yul\":1329:1359   */\n  gt\n    /* \"#utility.yul\":1326:1382   */\n  iszero\n  tag_70\n  jumpi\n    /* \"#utility.yul\":1362:1380   */\n  tag_71\n  tag_32\n  jump\t// in\ntag_71:\n    /* \"#utility.yul\":1326:1382   */\ntag_70:\n    /* \"#utility.yul\":1412:1416   */\n  0x20\n    /* \"#utility.yul\":1404:1410   */\n  dup3\n    /* \"#utility.yul\":1400:1417   */\n  mul\n    /* \"#utility.yul\":1392:1417   */\n  swap1\n  pop\n    /* \"#utility.yul\":1472:1476   */\n  0x20\n    /* \"#utility.yul\":1466:1470   */\n  dup2\n    /* \"#utility.yul\":1462:1477   */\n  add\n    /* \"#utility.yul\":1454:1477   */\n  swap1\n  pop\n    /* \"#utility.yul\":1173:1484   */\n  swap2\n  swap1\n  pop\n  jump\t// out\n    /* \"#utility.yul\":1490:1607   */\ntag_36:\n    /* \"#utility.yul\":1599:1600   */\n  0x00\n    /* \"#utility.yul\":1596:1597   */\n  dup1\n    /* \"#utility.yul\":1589:1601   */\n  revert\n    /* \"#utility.yul\":1613:1739   */\ntag_37:\n    /* \"#utility.yul\":1650:1657   */\n  0x00\n    /* \"#utility.yul\":1690:1732   */\n  0xffffffffffffffffffffffffffffffffffffffff\n    /* \"#utility.yul\":1683:1688   */\n  dup3\n    /* \"#utility.yul\":1679:1733   */\n  and\n    /* \"#utility.yul\":1668:1733   */\n  swap1\n  pop\n    /* \"#utility.yul\":1613:1739   */\n  swap2\n  swap1\n  pop\n  jump\t// out\n    /* \"#utility.yul\":1745:1841   */\ntag_38:\n    /* \"#utility.yul\":1782:1789   */\n  0x00\n    /* \"#utility.yul\":1811:1835   */\n  tag_75\n    /* \"#utility.yul\":1829:1834   */\n  dup3\n    /* \"#utility.yul\":1811:1835   */\n  tag_37\n  jump\t// in\ntag_75:\n    /* \"#utility.yul\":1800:1835   */\n  swap1\n  pop\n    /* \"#utility.yul\":1745:1841   */\n  swap2\n  swap1\n  pop\n  jump\t// out\n    /* \"#utility.yul\":1847:1969   */\ntag_39:\n    /* \"#utility.yul\":1920:1944   */\n  tag_77\n    /* \"#utility.yul\":1938:1943   */\n  dup2\n    /* \"#utility.yul\":1920:1944   */\n  tag_38\n  jump\t// in\ntag_77:\n    /* \"#utility.yul\":1913:1918   */\n  dup2\n    /* \"#utility.yul\":1910:1945   */\n  eq\n    /* \"#utility.yul\":1900:1963   */\n  tag_78\n  jumpi\n    /* \"#utility.yul\":1959:1960   */\n  0x00\n    /* \"#utility.yul\":1956:1957   */\n  dup1\n    /* \"#utility.yul\":1949:1961   */\n  revert\n    /* \"#utility.yul\":1900:1963   */\ntag_78:\n    /* \"#utility.yul\":1847:1969   */\n  pop\n  jump\t// out\n    /* \"#utility.yul\":1975:2118   */\ntag_40:\n    /* \"#utility.yul\":2032:2037   */\n  0x00\n    /* \"#utility.yul\":2063:2069   */\n  dup2\n    /* \"#utility.yul\":2057:2070   */\n  mload\n    /* \"#utility.yul\":2048:2070   */\n  swap1\n  pop\n    /* \"#utility.yul\":2079:2112   */\n  tag_80\n    /* \"#utility.yul\":2106:2111   */\n  dup2\n    /* \"#utility.yul\":2079:2112   */\n  tag_39\n  jump\t// in\ntag_80:\n    /* \"#utility.yul\":1975:2118   */\n  swap3\n  swap2\n  pop\n  pop\n  jump\t// out\n    /* \"#utility.yul\":2141:2873   */\ntag_41:\n    /* \"#utility.yul\":2248:2253   */\n  0x00\n    /* \"#utility.yul\":2273:2354   */\n  tag_82\n    /* \"#utility.yul\":2289:2353   */\n  tag_83\n    /* \"#utility.yul\":2346:2352   */\n  dup5\n    /* \"#utility.yul\":2289:2353   */\n  tag_35\n  jump\t// in\ntag_83:\n    /* \"#utility.yul\":2273:2354   */\n  tag_34\n  jump\t// in\ntag_82:\n    /* \"#utility.yul\":2264:2354   */\n  swap1\n  pop\n    /* \"#utility.yul\":2374:2379   */\n  dup1\n    /* \"#utility.yul\":2403:2409   */\n  dup4\n    /* \"#utility.yul\":2396:2401   */\n  dup3\n    /* \"#utility.yul\":2389:2410   */\n  mstore\n    /* \"#utility.yul\":2437:2441   */\n  0x20\n    /* \"#utility.yul\":2430:2435   */\n  dup3\n    /* \"#utility.yul\":2426:2442   */\n  add\n    /* \"#utility.yul\":2419:2442   */\n  swap1\n  pop\n    /* \"#utility.yul\":2490:2494   */\n  0x20\n    /* \"#utility.yul\":2482:2488   */\n  dup5\n    /* \"#utility.yul\":2478:2495   */\n  mul\n    /* \"#utility.yul\":2470:2476   */\n  dup4\n    /* \"#utility.yul\":2466:2496   */\n  add\n    /* \"#utility.yul\":2519:2522   */\n  dup6\n    /* \"#utility.yul\":2511:2517   */\n  dup2\n    /* \"#utility.yul\":2508:2523   */\n  gt\n    /* \"#utility.yul\":2505:2627   */\n  iszero\n  tag_84\n  jumpi\n    /* \"#utility.yul\":2538:2617   */\n  tag_85\n  tag_36\n  jump\t// in\ntag_85:\n    /* \"#utility.yul\":2505:2627   */\ntag_84:\n    /* \"#utility.yul\":2653:2659   */\n  dup4\n    /* \"#utility.yul\":2636:2867   */\ntag_86:\n    /* \"#utility.yul\":2670:2676   */\n  dup2\n    /* \"#utility.yul\":2665:2668   */\n  dup2\n    /* \"#utility.yul\":2662:2677   */\n  lt\n    /* \"#utility.yul\":2636:2867   */\n  iszero\n  tag_88\n  jumpi\n    /* \"#utility.yul\":2745:2748   */\n  dup1\n    /* \"#utility.yul\":2774:2822   */\n  tag_89\n    /* \"#utility.yul\":2818:2821   */\n  dup9\n    /* \"#utility.yul\":2806:2816   */\n  dup3\n    /* \"#utility.yul\":2774:2822   */\n  tag_40\n  jump\t// in\ntag_89:\n    /* \"#utility.yul\":2769:2772   */\n  dup5\n    /* \"#utility.yul\":2762:2823   */\n  mstore\n    /* \"#utility.yul\":2852:2856   */\n  0x20\n    /* \"#utility.yul\":2847:2850   */\n  dup5\n    /* \"#utility.yul\":2843:2857   */\n  add\n    /* \"#utility.yul\":2836:2857   */\n  swap4\n  pop\n    /* \"#utility.yul\":2712:2867   */\n  pop\n    /* \"#utility.yul\":2696:2700   */\n  0x20\n    /* \"#utility.yul\":2691:2694   */\n  dup2\n    /* \"#utility.yul\":2687:2701   */\n  add\n    /* \"#utility.yul\":2680:2701   */\n  swap1\n  pop\n    /* \"#utility.yul\":2636:2867   */\n  jump(tag_86)\ntag_88:\n    /* \"#utility.yul\":2640:2661   */\n  pop\n    /* \"#utility.yul\":2254:2873   */\n  pop\n  pop\n    /* \"#utility.yul\":2141:2873   */\n  swap4\n  swap3\n  pop\n  pop\n  pop\n  jump\t// out\n    /* \"#utility.yul\":2896:3281   */\ntag_42:\n    /* \"#utility.yul\":2978:2983   */\n  0x00\n    /* \"#utility.yul\":3027:3030   */\n  dup3\n    /* \"#utility.yul\":3020:3024   */\n  0x1f\n    /* \"#utility.yul\":3012:3018   */\n  dup4\n    /* \"#utility.yul\":3008:3025   */\n  add\n    /* \"#utility.yul\":3004:3031   */\n  slt\n    /* \"#utility.yul\":2994:3116   */\n  tag_91\n  jumpi\n    /* \"#utility.yul\":3035:3114   */\n  tag_92\n  tag_30\n  jump\t// in\ntag_92:\n    /* \"#utility.yul\":2994:3116   */\ntag_91:\n    /* \"#utility.yul\":3145:3151   */\n  dup2\n    /* \"#utility.yul\":3139:3152   */\n  mload\n    /* \"#utility.yul\":3170:3275   */\n  tag_93\n    /* \"#utility.yul\":3271:3274   */\n  dup5\n    /* \"#utility.yul\":3263:3269   */\n  dup3\n    /* \"#utility.yul\":3256:3260   */\n  0x20\n    /* \"#utility.yul\":3248:3254   */\n  dup7\n    /* \"#utility.yul\":3244:3261   */\n  add\n    /* \"#utility.yul\":3170:3275   */\n  tag_41\n  jump\t// in\ntag_93:\n    /* \"#utility.yul\":3161:3275   */\n  swap2\n  pop\n    /* \"#utility.yul\":2984:3281   */\n  pop\n    /* \"#utility.yul\":2896:3281   */\n  swap3\n  swap2\n  pop\n  pop\n  jump\t// out\n    /* \"#utility.yul\":3287:3364   */\ntag_43:\n    /* \"#utility.yul\":3324:3331   */\n  0x00\n    /* \"#utility.yul\":3353:3358   */\n  dup2\n    /* \"#utility.yul\":3342:3358   */\n  swap1\n  pop\n    /* \"#utility.yul\":3287:3364   */\n  swap2\n  swap1\n  pop\n  jump\t// out\n    /* \"#utility.yul\":3370:3492   */\ntag_44:\n    /* \"#utility.yul\":3443:3467   */\n  tag_96\n    /* \"#utility.yul\":3461:3466   */\n  dup2\n    /* \"#utility.yul\":3443:3467   */\n  tag_43\n  jump\t// in\ntag_96:\n    /* \"#utility.yul\":3436:3441   */\n  dup2\n    /* \"#utility.yul\":3433:3468   */\n  eq\n    /* \"#utility.yul\":3423:3486   */\n  tag_97\n  jumpi\n    /* \"#utility.yul\":3482:3483   */\n  0x00\n    /* \"#utility.yul\":3479:3480   */\n  dup1\n    /* \"#utility.yul\":3472:3484   */\n  revert\n    /* \"#utility.yul\":3423:3486   */\ntag_97:\n    /* \"#utility.yul\":3370:3492   */\n  pop\n  jump\t// out\n    /* \"#utility.yul\":3498:3641   */\ntag_45:\n    /* \"#utility.yul\":3555:3560   */\n  0x00\n    /* \"#utility.yul\":3586:3592   */\n  dup2\n    /* \"#utility.yul\":3580:3593   */\n  mload\n    /* \"#utility.yul\":3571:3593   */\n  swap1\n  pop\n    /* \"#utility.yul\":3602:3635   */\n  tag_99\n    /* \"#utility.yul\":3629:3634   */\n  dup2\n    /* \"#utility.yul\":3602:3635   */\n  tag_44\n  jump\t// in\ntag_99:\n    /* \"#utility.yul\":3498:3641   */\n  swap3\n  swap2\n  pop\n  pop\n  jump\t// out\n    /* \"#utility.yul\":3647:4357   */\ntag_3:\n    /* \"#utility.yul\":3751:3757   */\n  0x00\n    /* \"#utility.yul\":3759:3765   */\n  dup1\n    /* \"#utility.yul\":3808:3810   */\n  0x40\n    /* \"#utility.yul\":3796:3805   */\n  dup4\n    /* \"#utility.yul\":3787:3794   */\n  dup6\n    /* \"#utility.yul\":3783:3806   */\n  sub\n    /* \"#utility.yul\":3779:3811   */\n  slt\n    /* \"#utility.yul\":3776:3895   */\n  iszero\n  tag_101\n  jumpi\n    /* \"#utility.yul\":3814:3893   */\n  tag_102\n  tag_28\n  jump\t// in\ntag_102:\n    /* \"#utility.yul\":3776:3895   */\ntag_101:\n    /* \"#utility.yul\":3955:3956   */\n  0x00\n    /* \"#utility.yul\":3944:3953   */\n  dup4\n    /* \"#utility.yul\":3940:3957   */\n  add\n    /* \"#utility.yul\":3934:3958   */\n  mload\n    /* \"#utility.yul\":3985:4003   */\n  0xffffffffffffffff\n    /* \"#utility.yul\":3977:3983   */\n  dup2\n    /* \"#utility.yul\":3974:4004   */\n  gt\n    /* \"#utility.yul\":3971:4088   */\n  iszero\n  tag_103\n  jumpi\n    /* \"#utility.yul\":4007:4086   */\n  tag_104\n  tag_29\n  jump\t// in\ntag_104:\n    /* \"#utility.yul\":3971:4088   */\ntag_103:\n    /* \"#utility.yul\":4112:4201   */\n  tag_105\n    /* \"#utility.yul\":4193:4200   */\n  dup6\n    /* \"#utility.yul\":4184:4190   */\n  dup3\n    /* \"#utility.yul\":4173:4182   */\n  dup7\n    /* \"#utility.yul\":4169:4191   */\n  add\n    /* \"#utility.yul\":4112:4201   */\n  tag_42\n  jump\t// in\ntag_105:\n    /* \"#utility.yul\":4102:4201   */\n  swap3\n  pop\n    /* \"#utility.yul\":3905:4211   */\n  pop\n    /* \"#utility.yul\":4250:4252   */\n  0x20\n    /* \"#utility.yul\":4276:4340   */\n  tag_106\n    /* \"#utility.yul\":4332:4339   */\n  dup6\n    /* \"#utility.yul\":4323:4329   */\n  dup3\n    /* \"#utility.yul\":4312:4321   */\n  dup7\n    /* \"#utility.yul\":4308:4330   */\n  add\n    /* \"#utility.yul\":4276:4340   */\n  tag_45\n  jump\t// in\ntag_106:\n    /* \"#utility.yul\":4266:4340   */\n  swap2\n  pop\n    /* \"#utility.yul\":4221:4350   */\n  pop\n    /* \"#utility.yul\":3647:4357   */\n  swap3\n  pop\n  swap3\n  swap1\n  pop\n  jump\t// out\n    /* \"#utility.yul\":4363:4532   */\ntag_46:\n    /* \"#utility.yul\":4447:4458   */\n  0x00\n    /* \"#utility.yul\":4481:4487   */\n  dup3\n    /* \"#utility.yul\":4476:4479   */\n  dup3\n    /* \"#utility.yul\":4469:4488   */\n  mstore\n    /* \"#utility.yul\":4521:4525   */\n  0x20\n    /* \"#utility.yul\":4516:4519   */\n  dup3\n    /* \"#utility.yul\":4512:4526   */\n  add\n    /* \"#utility.yul\":4497:4526   */\n  swap1\n  pop\n    /* \"#utility.yul\":4363:4532   */\n  swap3\n  swap2\n  pop\n  pop\n  jump\t// out\n    /* \"#utility.yul\":4538:4705   */\ntag_47:\n    /* \"#utility.yul\":4678:4697   */\n  0x6f776e6572206973207265717569726564000000000000000000000000000000\n    /* \"#utility.yul\":4674:4675   */\n  0x00\n    /* \"#utility.yul\":4666:4672   */\n  dup3\n    /* \"#utility.yul\":4662:4676   */\n  add\n    /* \"#utility.yul\":4655:4698   */\n  mstore\n    /* \"#utility.yul\":4538:4705   */\n  pop\n  jump\t// out\n    /* \"#utility.yul\":4711:5077   */\ntag_48:\n    /* \"#utility.yul\":4853:4856   */\n  0x00\n    /* \"#utility.yul\":4874:4941   */\n  tag_110\n    /* \"#utility.yul\":4938:4940   */\n  0x11\n    /* \"#utility.yul\":4933:4936   */\n  dup4\n    /* \"#utility.yul\":4874:4941   */\n  tag_46\n  jump\t// in\ntag_110:\n    /* \"#utility.yul\":4867:4941   */\n  swap2\n  pop\n    /* \"#utility.yul\":4950:5043   */\n  tag_111\n    /* \"#utility.yul\":5039:5042   */\n  dup3\n    /* \"#utility.yul\":4950:5043   */\n  tag_47\n  jump\t// in\ntag_111:\n    /* \"#utility.yul\":5068:5070   */\n  0x20\n    /* \"#utility.yul\":5063:5066   */\n  dup3\n    /* \"#utility.yul\":5059:5071   */\n  add\n    /* \"#utility.yul\":5052:5071   */\n  swap1\n  pop\n    /* \"#utility.yul\":4711:5077   */\n  swap2\n  swap1\n  pop\n  jump\t// out\n    /* \"#utility.yul\":5083:5502   */\ntag_8:\n    /* \"#utility.yul\":5249:5253   */\n  0x00\n    /* \"#utility.yul\":5287:5289   */\n  0x20\n    /* \"#utility.yul\":5276:5285   */\n  dup3\n    /* \"#utility.yul\":5272:5290   */\n  add\n    /* \"#utility.yul\":5264:5290   */\n  swap1\n  pop\n    /* \"#utility.yul\":5336:5345   */\n  dup2\n    /* \"#utility.yul\":5330:5334   */\n  dup2\n    /* \"#utility.yul\":5326:5346   */\n  sub\n    /* \"#utility.yul\":5322:5323   */\n  0x00\n    /* \"#utility.yul\":5311:5320   */\n  dup4\n    /* \"#utility.yul\":5307:5324   */\n  add\n    /* \"#utility.yul\":5300:5347   */\n  mstore\n    /* \"#utility.yul\":5364:5495   */\n  tag_113\n    /* \"#utility.yul\":5490:5494   */\n  dup2\n    /* \"#utility.yul\":5364:5495   */\n  tag_48\n  jump\t// in\ntag_113:\n    /* \"#utility.yul\":5356:5495   */\n  swap1\n  pop\n    /* \"#utility.yul\":5083:5502   */\n  swap2\n  swap1\n  pop\n  jump\t// out\n    /* \"#utility.yul\":5508:5690   */\ntag_49:\n    /* \"#utility.yul\":5648:5682   */\n  0x696e76616c6964207265717569726564206e756d626572206f66206f776e6572\n    /* \"#utility.yul\":5644:5645   */\n  0x00\n    /* \"#utility.yul\":5636:5642   */\n  dup3\n    /* \"#utility.yul\":5632:5646   */\n  add\n    /* \"#utility.yul\":5625:5683   */\n  mstore\n    /* \"#utility.yul\":5508:5690   */\n  pop\n  jump\t// out\n    /* \"#utility.yul\":5696:6062   */\ntag_50:\n    /* \"#utility.yul\":5838:5841   */\n  0x00\n    /* \"#utility.yul\":5859:5926   */\n  tag_116\n    /* \"#utility.yul\":5923:5925   */\n  0x20\n    /* \"#utility.yul\":5918:5921   */\n  dup4\n    /* \"#utility.yul\":5859:5926   */\n  tag_46\n  jump\t// in\ntag_116:\n    /* \"#utility.yul\":5852:5926   */\n  swap2\n  pop\n    /* \"#utility.yul\":5935:6028   */\n  tag_117\n    /* \"#utility.yul\":6024:6027   */\n  dup3\n    /* \"#utility.yul\":5935:6028   */\n  tag_49\n  jump\t// in\ntag_117:\n    /* \"#utility.yul\":6053:6055   */\n  0x20\n    /* \"#utility.yul\":6048:6051   */\n  dup3\n    /* \"#utility.yul\":6044:6056   */\n  add\n    /* \"#utility.yul\":6037:6056   */\n  swap1\n  pop\n    /* \"#utility.yul\":5696:6062   */\n  swap2\n  swap1\n  pop\n  jump\t// out\n    /* \"#utility.yul\":6068:6487   */\ntag_12:\n    /* \"#utility.yul\":6234:6238   */\n  0x00\n    /* \"#utility.yul\":6272:6274   */\n  0x20\n    /* \"#utility.yul\":6261:6270   */\n  dup3\n    /* \"#utility.yul\":6257:6275   */\n  add\n    /* \"#utility.yul\":6249:6275   */\n  swap1\n  pop\n    /* \"#utility.yul\":6321:6330   */\n  dup2\n    /* \"#utility.yul\":6315:6319   */\n  dup2\n    /* \"#utility.yul\":6311:6331   */\n  sub\n    /* \"#utility.yul\":6307:6308   */\n  0x00\n    /* \"#utility.yul\":6296:6305   */\n  dup4\n    /* \"#utility.yul\":6292:6309   */\n  add\n    /* \"#utility.yul\":6285:6332   */\n  mstore\n    /* \"#utility.yul\":6349:6480   */\n  tag_119\n    /* \"#utility.yul\":6475:6479   */\n  dup2\n    /* \"#utility.yul\":6349:6480   */\n  tag_50\n  jump\t// in\ntag_119:\n    /* \"#utility.yul\":6341:6480   */\n  swap1\n  pop\n    /* \"#utility.yul\":6068:6487   */\n  swap2\n  swap1\n  pop\n  jump\t// out\n    /* \"#utility.yul\":6493:6673   */\ntag_18:\n    /* \"#utility.yul\":6541:6618   */\n  0x4e487b7100000000000000000000000000000000000000000000000000000000\n    /* \"#utility.yul\":6538:6539   */\n  0x00\n    /* \"#utility.yul\":6531:6619   */\n  mstore\n    /* \"#utility.yul\":6638:6642   */\n  0x32\n    /* \"#utility.yul\":6635:6636   */\n  0x04\n    /* \"#utility.yul\":6628:6643   */\n  mstore\n    /* \"#utility.yul\":6662:6666   */\n  0x24\n    /* \"#utility.yul\":6659:6660   */\n  0x00\n    /* \"#utility.yul\":6652:6667   */\n  revert\n    /* \"#utility.yul\":6679:6842   */\ntag_51:\n    /* \"#utility.yul\":6819:6834   */\n  0x696e76616c6964206f776e657200000000000000000000000000000000000000\n    /* \"#utility.yul\":6815:6816   */\n  0x00\n    /* \"#utility.yul\":6807:6813   */\n  dup3\n    /* \"#utility.yul\":6803:6817   */\n  add\n    /* \"#utility.yul\":6796:6835   */\n  mstore\n    /* \"#utility.yul\":6679:6842   */\n  pop\n  jump\t// out\n    /* \"#utility.yul\":6848:7214   */\ntag_52:\n    /* \"#utility.yul\":6990:6993   */\n  0x00\n    /* \"#utility.yul\":7011:7078   */\n  tag_123\n    /* \"#utility.yul\":7075:7077   */\n  0x0d\n    /* \"#utility.yul\":7070:7073   */\n  dup4\n    /* \"#utility.yul\":7011:7078   */\n  tag_46\n  jump\t// in\ntag_123:\n    /* \"#utility.yul\":7004:7078   */\n  swap2\n  pop\n    /* \"#utility.yul\":7087:7180   */\n  tag_124\n    /* \"#utility.yul\":7176:7179   */\n  dup3\n    /* \"#utility.yul\":7087:7180   */\n  tag_51\n  jump\t// in\ntag_124:\n    /* \"#utility.yul\":7205:7207   */\n  0x20\n    /* \"#utility.yul\":7200:7203   */\n  dup3\n    /* \"#utility.yul\":7196:7208   */\n  add\n    /* \"#utility.yul\":7189:7208   */\n  swap1\n  pop\n    /* \"#utility.yul\":6848:7214   */\n  swap2\n  swap1\n  pop\n  jump\t// out\n    /* \"#utility.yul\":7220:7639   */\ntag_21:\n    /* \"#utility.yul\":7386:7390   */\n  0x00\n    /* \"#utility.yul\":7424:7426   */\n  0x20\n    /* \"#utility.yul\":7413:7422   */\n  dup3\n    /* \"#utility.yul\":7409:7427   */\n  add\n    /* \"#utility.yul\":7401:7427   */\n  swap1\n  pop\n    /* \"#utility.yul\":7473:7482   */\n  dup2\n    /* \"#utility.yul\":7467:7471   */\n  dup2\n    /* \"#utility.yul\":7463:7483   */\n  sub\n    /* \"#utility.yul\":7459:7460   */\n  0x00\n    /* \"#utility.yul\":7448:7457   */\n  dup4\n    /* \"#utility.yul\":7444:7461   */\n  add\n    /* \"#utility.yul\":7437:7484   */\n  mstore\n    /* \"#utility.yul\":7501:7632   */\n  tag_126\n    /* \"#utility.yul\":7627:7631   */\n  dup2\n    /* \"#utility.yul\":7501:7632   */\n  tag_52\n  jump\t// in\ntag_126:\n    /* \"#utility.yul\":7493:7632   */\n  swap1\n  pop\n    /* \"#utility.yul\":7220:7639   */\n  swap2\n  swap1\n  pop\n  jump\t// out\n    /* \"#utility.yul\":7645:7814   */\ntag_53:\n    /* \"#utility.yul\":7785:7806   */\n  0x6f776e6572206973206e6f7420756e6971756500000000000000000000000000\n    /* \"#utility.yul\":7781:7782   */\n  0x00\n    /* \"#utility.yul\":7773:7779   */\n  dup3\n    /* \"#utility.yul\":7769:7783   */\n  add\n    /* \"#utility.yul\":7762:7807   */\n  mstore\n    /* \"#utility.yul\":7645:7814   */\n  pop\n  jump\t// out\n    /* \"#utility.yul\":7820:8186   */\ntag_54:\n    /* \"#utility.yul\":7962:7965   */\n  0x00\n    /* \"#utility.yul\":7983:8050   */\n  tag_129\n    /* \"#utility.yul\":8047:8049   */\n  0x13\n    /* \"#utility.yul\":8042:8045   */\n  dup4\n    /* \"#utility.yul\":7983:8050   */\n  tag_46\n  jump\t// in\ntag_129:\n    /* \"#utility.yul\":7976:8050   */\n  swap2\n  pop\n    /* \"#utility.yul\":8059:8152   */\n  tag_130\n    /* \"#utility.yul\":8148:8151   */\n  dup3\n    /* \"#utility.yul\":8059:8152   */\n  tag_53\n  jump\t// in\ntag_130:\n    /* \"#utility.yul\":8177:8179   */\n  0x20\n    /* \"#utility.yul\":8172:8175   */\n  dup3\n    /* \"#utility.yul\":8168:8180   */\n  add\n    /* \"#utility.yul\":8161:8180   */\n  swap1\n  pop\n    /* \"#utility.yul\":7820:8186   */\n  swap2\n  swap1\n  pop\n  jump\t// out\n    /* \"#utility.yul\":8192:8611   */\ntag_24:\n    /* \"#utility.yul\":8358:8362   */\n  0x00\n    /* \"#utility.yul\":8396:8398   */\n  0x20\n    /* \"#utility.yul\":8385:8394   */\n  dup3\n    /* \"#utility.yul\":8381:8399   */\n  add\n    /* \"#utility.yul\":8373:8399   */\n  swap1\n  pop\n    /* \"#utility.yul\":8445:8454   */\n  dup2\n    /* \"#utility.yul\":8439:8443   */\n  dup2\n    /* \"#utility.yul\":8435:8455   */\n  sub\n    /* \"#utility.yul\":8431:8432   */\n  0x00\n    /* \"#utility.yul\":8420:8429   */\n  dup4\n    /* \"#utility.yul\":8416:8433   */\n  add\n    /* \"#utility.yul\":8409:8456   */\n  mstore\n    /* \"#utility.yul\":8473:8604   */\n  tag_132\n    /* \"#utility.yul\":8599:8603   */\n  dup2\n    /* \"#utility.yul\":8473:8604   */\n  tag_54\n  jump\t// in\ntag_132:\n    /* \"#utility.yul\":8465:8604   */\n  swap1\n  pop\n    /* \"#utility.yul\":8192:8611   */\n  swap2\n  swap1\n  pop\n  jump\t// out\n    /* \"l1-5-homework/mulSigWallet.sol\":58:3485  contract MultiSigWallet {... */\ntag_26:\n  dataSize(sub_0)\n  dup1\n  dataOffset(sub_0)\n  0x00\n  codecopy\n  0x00\n  return\nstop\n\nsub_0: assembly {\n        /* \"l1-5-homework/mulSigWallet.sol\":58:3485  contract MultiSigWallet {... */\n      mstore(0x40, 0x80)\n      jumpi(tag_1, lt(calldatasize, 0x04))\n      shr(0xe0, calldataload(0x00))\n      dup1\n      0x6231a8ce\n      gt\n      tag_14\n      jumpi\n      dup1\n      0x6231a8ce\n      eq\n      tag_8\n      jumpi\n      dup1\n      0x8253951a\n      eq\n      tag_9\n      jumpi\n      dup1\n      0xb759f954\n      eq\n      tag_10\n      jumpi\n      dup1\n      0xba7e7cab\n      eq\n      tag_11\n      jumpi\n      dup1\n      0xd5d0f21e\n      eq\n      tag_12\n      jumpi\n      dup1\n      0xfe0d94c1\n      eq\n      tag_13\n      jumpi\n      jump(tag_2)\n    tag_14:\n      dup1\n      0x025e7c27\n      eq\n      tag_3\n      jumpi\n      dup1\n      0x12065fe0\n      eq\n      tag_4\n      jumpi\n      dup1\n      0x14de327f\n      eq\n      tag_5\n      jumpi\n      dup1\n      0x20c5429b\n      eq\n      tag_6\n      jumpi\n      dup1\n      0x2f54bf6e\n      eq\n      tag_7\n      jumpi\n      jump(tag_2)\n    tag_1:\n      jumpi(tag_2, calldatasize)\n        /* \"l1-5-homework/mulSigWallet.sol\":742:752  msg.sender */\n      caller\n        /* \"l1-5-homework/mulSigWallet.sol\":734:764  Deposit(msg.sender, msg.value) */\n      0xffffffffffffffffffffffffffffffffffffffff\n      and\n      0xe1fffcc4923d04b559f4d29a8bfc6cda04eb5b0d3c460751c2402c5c5cc9109c\n        /* \"l1-5-homework/mulSigWallet.sol\":754:763  msg.value */\n      callvalue\n        /* \"l1-5-homework/mulSigWallet.sol\":734:764  Deposit(msg.sender, msg.value) */\n      mload(0x40)\n      tag_17\n      swap2\n      swap1\n      tag_18\n      jump\t// in\n    tag_17:\n      mload(0x40)\n      dup1\n      swap2\n      sub\n      swap1\n      log2\n        /* \"l1-5-homework/mulSigWallet.sol\":58:3485  contract MultiSigWallet {... */\n      stop\n    tag_2:\n      0x00\n      dup1\n      revert\n        /* \"l1-5-homework/mulSigWallet.sol\":88:111  address[] public owners */\n    tag_3:\n      callvalue\n      dup1\n      iszero\n      tag_19\n      jumpi\n      0x00\n      dup1\n      revert\n    tag_19:\n      pop\n      tag_20\n      0x04\n      dup1\n      calldatasize\n      sub\n      dup2\n      add\n      swap1\n      tag_21\n      swap2\n      swap1\n      tag_22\n      jump\t// in\n    tag_21:\n      tag_23\n      jump\t// in\n    tag_20:\n      mload(0x40)\n      tag_24\n      swap2\n      swap1\n      tag_25\n      jump\t// in\n    tag_24:\n      mload(0x40)\n      dup1\n      swap2\n      sub\n      swap1\n      return\n        /* \"l1-5-homework/mulSigWallet.sol\":1845:1944  function getBalance() external view returns (uint256) {... */\n    tag_4:\n      callvalue\n      dup1\n      iszero\n      tag_26\n      jumpi\n      0x00\n      dup1\n      revert\n    tag_26:\n      pop\n      tag_27\n      tag_28\n      jump\t// in\n    tag_27:\n      mload(0x40)\n      tag_29\n      swap2\n      swap1\n      tag_18\n      jump\t// in\n    tag_29:\n      mload(0x40)\n      dup1\n      swap2\n      sub\n      swap1\n      return\n        /* \"l1-5-homework/mulSigWallet.sol\":1949:2374  function submit(... */\n    tag_5:\n      callvalue\n      dup1\n      iszero\n      tag_30\n      jumpi\n      0x00\n      dup1\n      revert\n    tag_30:\n      pop\n      tag_31\n      0x04\n      dup1\n      calldatasize\n      sub\n      dup2\n      add\n      swap1\n      tag_32\n      swap2\n      swap1\n      tag_33\n      jump\t// in\n    tag_32:\n      tag_34\n      jump\t// in\n    tag_31:\n      mload(0x40)\n      tag_35\n      swap2\n      swap1\n      tag_18\n      jump\t// in\n    tag_35:\n      mload(0x40)\n      dup1\n      swap2\n      sub\n      swap1\n      return\n        /* \"l1-5-homework/mulSigWallet.sol\":3241:3483  function revoke(uint256 txId_) external onlyOwner txExists(txId_) notExecuted(txId_) {... */\n    tag_6:\n      callvalue\n      dup1\n      iszero\n      tag_36\n      jumpi\n      0x00\n      dup1\n      revert\n    tag_36:\n      pop\n      tag_37\n      0x04\n      dup1\n      calldatasize\n      sub\n      dup2\n      add\n      swap1\n      tag_38\n      swap2\n      swap1\n      tag_22\n      jump\t// in\n    tag_38:\n      tag_39\n      jump\t// in\n    tag_37:\n      stop\n        /* \"l1-5-homework/mulSigWallet.sol\":117:156  mapping(address => bool) public isOwner */\n    tag_7:\n      callvalue\n      dup1\n      iszero\n      tag_40\n      jumpi\n      0x00\n      dup1\n      revert\n    tag_40:\n      pop\n      tag_41\n      0x04\n      dup1\n      calldatasize\n      sub\n      dup2\n      add\n      swap1\n      tag_42\n      swap2\n      swap1\n      tag_43\n      jump\t// in\n    tag_42:\n      tag_44\n      jump\t// in\n    tag_41:\n      mload(0x40)\n      tag_45\n      swap2\n      swap1\n      tag_46\n      jump\t// in\n    tag_45:\n      mload(0x40)\n      dup1\n      swap2\n      sub\n      swap1\n      return\n        /* \"l1-5-homework/mulSigWallet.sol\":316:351  Transacation[] public transacations */\n    tag_8:\n      callvalue\n      dup1\n      iszero\n      tag_47\n      jumpi\n      0x00\n      dup1\n      revert\n    tag_47:\n      pop\n      tag_48\n      0x04\n      dup1\n      calldatasize\n      sub\n      dup2\n      add\n      swap1\n      tag_49\n      swap2\n      swap1\n      tag_22\n      jump\t// in\n    tag_49:\n      tag_50\n      jump\t// in\n    tag_48:\n      mload(0x40)\n      tag_51\n      swap5\n      swap4\n      swap3\n      swap2\n      swap1\n      tag_52\n      jump\t// in\n    tag_51:\n      mload(0x40)\n      dup1\n      swap2\n      sub\n      swap1\n      return\n        /* \"l1-5-homework/mulSigWallet.sol\":357:417  mapping(uint256 => mapping(address => bool)) public approved */\n    tag_9:\n      callvalue\n      dup1\n      iszero\n      tag_53\n      jumpi\n      0x00\n      dup1\n      revert\n    tag_53:\n      pop\n      tag_54\n      0x04\n      dup1\n      calldatasize\n      sub\n      dup2\n      add\n      swap1\n      tag_55\n      swap2\n      swap1\n      tag_56\n      jump\t// in\n    tag_55:\n      tag_57\n      jump\t// in\n    tag_54:\n      mload(0x40)\n      tag_58\n      swap2\n      swap1\n      tag_46\n      jump\t// in\n    tag_58:\n      mload(0x40)\n      dup1\n      swap2\n      sub\n      swap1\n      return\n        /* \"l1-5-homework/mulSigWallet.sol\":2379:2576  function approve(uint256 txId_) external onlyOwner txExists(txId_) notApproved(txId_) notExecuted(txId_) {... */\n    tag_10:\n      callvalue\n      dup1\n      iszero\n      tag_59\n      jumpi\n      0x00\n      dup1\n      revert\n    tag_59:\n      pop\n      tag_60\n      0x04\n      dup1\n      calldatasize\n      sub\n      dup2\n      add\n      swap1\n      tag_61\n      swap2\n      swap1\n      tag_22\n      jump\t// in\n    tag_61:\n      tag_62\n      jump\t// in\n    tag_60:\n      stop\n        /* \"l1-5-homework/mulSigWallet.sol\":2995:3236  function getApprovalCount(uint256 txId_) public view returns(uint256 count) {... */\n    tag_11:\n      callvalue\n      dup1\n      iszero\n      tag_63\n      jumpi\n      0x00\n      dup1\n      revert\n    tag_63:\n      pop\n      tag_64\n      0x04\n      dup1\n      calldatasize\n      sub\n      dup2\n      add\n      swap1\n      tag_65\n      swap2\n      swap1\n      tag_22\n      jump\t// in\n    tag_65:\n      tag_66\n      jump\t// in\n    tag_64:\n      mload(0x40)\n      tag_67\n      swap2\n      swap1\n      tag_18\n      jump\t// in\n    tag_67:\n      mload(0x40)\n      dup1\n      swap2\n      sub\n      swap1\n      return\n        /* \"l1-5-homework/mulSigWallet.sol\":162:188  uint256 public requiredNum */\n    tag_12:\n      callvalue\n      dup1\n      iszero\n      tag_68\n      jumpi\n      0x00\n      dup1\n      revert\n    tag_68:\n      pop\n      tag_69\n      tag_70\n      jump\t// in\n    tag_69:\n      mload(0x40)\n      tag_71\n      swap2\n      swap1\n      tag_18\n      jump\t// in\n    tag_71:\n      mload(0x40)\n      dup1\n      swap2\n      sub\n      swap1\n      return\n        /* \"l1-5-homework/mulSigWallet.sol\":2581:2990  function execute(uint256 txId_) external onlyOwner txExists(txId_) notApproved(txId_) notExecuted(txId_) {... */\n    tag_13:\n      callvalue\n      dup1\n      iszero\n      tag_72\n      jumpi\n      0x00\n      dup1\n      revert\n    tag_72:\n      pop\n      tag_73\n      0x04\n      dup1\n      calldatasize\n      sub\n      dup2\n      add\n      swap1\n      tag_74\n      swap2\n      swap1\n      tag_22\n      jump\t// in\n    tag_74:\n      tag_75\n      jump\t// in\n    tag_73:\n      stop\n        /* \"l1-5-homework/mulSigWallet.sol\":88:111  address[] public owners */\n    tag_23:\n      0x00\n      dup2\n      dup2\n      sload\n      dup2\n      lt\n      tag_76\n      jumpi\n      0x00\n      dup1\n      revert\n    tag_76:\n      swap1\n      0x00\n      mstore\n      keccak256(0x00, 0x20)\n      add\n      0x00\n      swap2\n      pop\n      sload\n      swap1\n      0x0100\n      exp\n      swap1\n      div\n      0xffffffffffffffffffffffffffffffffffffffff\n      and\n      dup2\n      jump\t// out\n        /* \"l1-5-homework/mulSigWallet.sol\":1845:1944  function getBalance() external view returns (uint256) {... */\n    tag_28:\n        /* \"l1-5-homework/mulSigWallet.sol\":1890:1897  uint256 */\n      0x00\n        /* \"l1-5-homework/mulSigWallet.sol\":1916:1937  address(this).balance */\n      selfbalance\n        /* \"l1-5-homework/mulSigWallet.sol\":1909:1937  return address(this).balance */\n      swap1\n      pop\n        /* \"l1-5-homework/mulSigWallet.sol\":1845:1944  function getBalance() external view returns (uint256) {... */\n      swap1\n      jump\t// out\n        /* \"l1-5-homework/mulSigWallet.sol\":1949:2374  function submit(... */\n    tag_34:\n        /* \"l1-5-homework/mulSigWallet.sol\":2073:2080  uint256 */\n      0x00\n        /* \"l1-5-homework/mulSigWallet.sol\":816:823  isOwner */\n      0x01\n        /* \"l1-5-homework/mulSigWallet.sol\":816:835  isOwner[msg.sender] */\n      0x00\n        /* \"l1-5-homework/mulSigWallet.sol\":824:834  msg.sender */\n      caller\n        /* \"l1-5-homework/mulSigWallet.sol\":816:835  isOwner[msg.sender] */\n      0xffffffffffffffffffffffffffffffffffffffff\n      and\n      0xffffffffffffffffffffffffffffffffffffffff\n      and\n      dup2\n      mstore\n      0x20\n      add\n      swap1\n      dup2\n      mstore\n      0x20\n      add\n      0x00\n      keccak256\n      0x00\n      swap1\n      sload\n      swap1\n      0x0100\n      exp\n      swap1\n      div\n      0xff\n      and\n        /* \"l1-5-homework/mulSigWallet.sol\":808:849  require(isOwner[msg.sender], \"not owner\") */\n      tag_80\n      jumpi\n      mload(0x40)\n      0x08c379a000000000000000000000000000000000000000000000000000000000\n      dup2\n      mstore\n      0x04\n      add\n      tag_81\n      swap1\n      tag_82\n      jump\t// in\n    tag_81:\n      mload(0x40)\n      dup1\n      swap2\n      sub\n      swap1\n      revert\n    tag_80:\n        /* \"l1-5-homework/mulSigWallet.sol\":2092:2105  transacations */\n      0x03\n        /* \"l1-5-homework/mulSigWallet.sol\":2124:2269  Transacation({... */\n      mload(0x40)\n      dup1\n      0x80\n      add\n      0x40\n      mstore\n      dup1\n        /* \"l1-5-homework/mulSigWallet.sol\":2159:2162  to_ */\n      dup8\n        /* \"l1-5-homework/mulSigWallet.sol\":2124:2269  Transacation({... */\n      0xffffffffffffffffffffffffffffffffffffffff\n      and\n      dup2\n      mstore\n      0x20\n      add\n        /* \"l1-5-homework/mulSigWallet.sol\":2187:2193  value_ */\n      dup7\n        /* \"l1-5-homework/mulSigWallet.sol\":2124:2269  Transacation({... */\n      dup2\n      mstore\n      0x20\n      add\n        /* \"l1-5-homework/mulSigWallet.sol\":2217:2222  data_ */\n      dup6\n      dup6\n        /* \"l1-5-homework/mulSigWallet.sol\":2124:2269  Transacation({... */\n      dup1\n      dup1\n      0x1f\n      add\n      0x20\n      dup1\n      swap2\n      div\n      mul\n      0x20\n      add\n      mload(0x40)\n      swap1\n      dup2\n      add\n      0x40\n      mstore\n      dup1\n      swap4\n      swap3\n      swap2\n      swap1\n      dup2\n      dup2\n      mstore\n      0x20\n      add\n      dup4\n      dup4\n      dup1\n      dup3\n      dup5\n      calldatacopy\n      0x00\n      dup2\n      dup5\n      add\n      mstore\n      not(0x1f)\n      0x1f\n      dup3\n      add\n      and\n      swap1\n      pop\n      dup1\n      dup4\n      add\n      swap3\n      pop\n      pop\n      pop\n      pop\n      pop\n      pop\n      pop\n      dup2\n      mstore\n      0x20\n      add\n        /* \"l1-5-homework/mulSigWallet.sol\":2249:2254  false */\n      0x00\n        /* \"l1-5-homework/mulSigWallet.sol\":2124:2269  Transacation({... */\n      iszero\n      iszero\n      dup2\n      mstore\n      pop\n        /* \"l1-5-homework/mulSigWallet.sol\":2092:2279  transacations.push(... */\n      swap1\n      dup1\n      0x01\n      dup2\n      sload\n      add\n      dup1\n      dup3\n      sstore\n      dup1\n      swap2\n      pop\n      pop\n      0x01\n      swap1\n      sub\n      swap1\n      0x00\n      mstore\n      keccak256(0x00, 0x20)\n      swap1\n      0x04\n      mul\n      add\n      0x00\n      swap1\n      swap2\n      swap1\n      swap2\n      swap1\n      swap2\n      pop\n      0x00\n      dup3\n      add\n      mload\n      dup2\n      0x00\n      add\n      exp(0x0100, 0x00)\n      dup2\n      sload\n      dup2\n      0xffffffffffffffffffffffffffffffffffffffff\n      mul\n      not\n      and\n      swap1\n      dup4\n      0xffffffffffffffffffffffffffffffffffffffff\n      and\n      mul\n      or\n      swap1\n      sstore\n      pop\n      0x20\n      dup3\n      add\n      mload\n      dup2\n      0x01\n      add\n      sstore\n      0x40\n      dup3\n      add\n      mload\n      dup2\n      0x02\n      add\n      swap1\n      dup2\n      tag_85\n      swap2\n      swap1\n      tag_86\n      jump\t// in\n    tag_85:\n      pop\n      0x60\n      dup3\n      add\n      mload\n      dup2\n      0x03\n      add\n      exp(0x0100, 0x00)\n      dup2\n      sload\n      dup2\n      0xff\n      mul\n      not\n      and\n      swap1\n      dup4\n      iszero\n      iszero\n      mul\n      or\n      swap1\n      sstore\n      pop\n      pop\n      pop\n        /* \"l1-5-homework/mulSigWallet.sol\":2324:2325  1 */\n      0x01\n        /* \"l1-5-homework/mulSigWallet.sol\":2301:2314  transacations */\n      0x03\n        /* \"l1-5-homework/mulSigWallet.sol\":2301:2321  transacations.length */\n      dup1\n      sload\n      swap1\n      pop\n        /* \"l1-5-homework/mulSigWallet.sol\":2301:2325  transacations.length - 1 */\n      tag_87\n      swap2\n      swap1\n      tag_88\n      jump\t// in\n    tag_87:\n        /* \"l1-5-homework/mulSigWallet.sol\":2294:2326  Submit(transacations.length - 1) */\n      0x08324b3d745b914e3abd4ffbfead91e3b78391a98c173202129215ab933adfbe\n      mload(0x40)\n      mload(0x40)\n      dup1\n      swap2\n      sub\n      swap1\n      log2\n        /* \"l1-5-homework/mulSigWallet.sol\":2366:2367  1 */\n      0x01\n        /* \"l1-5-homework/mulSigWallet.sol\":2343:2356  transacations */\n      0x03\n        /* \"l1-5-homework/mulSigWallet.sol\":2343:2363  transacations.length */\n      dup1\n      sload\n      swap1\n      pop\n        /* \"l1-5-homework/mulSigWallet.sol\":2343:2367  transacations.length - 1 */\n      tag_89\n      swap2\n      swap1\n      tag_88\n      jump\t// in\n    tag_89:\n        /* \"l1-5-homework/mulSigWallet.sol\":2336:2367  return transacations.length - 1 */\n      swap1\n      pop\n        /* \"l1-5-homework/mulSigWallet.sol\":1949:2374  function submit(... */\n      swap5\n      swap4\n      pop\n      pop\n      pop\n      pop\n      jump\t// out\n        /* \"l1-5-homework/mulSigWallet.sol\":3241:3483  function revoke(uint256 txId_) external onlyOwner txExists(txId_) notExecuted(txId_) {... */\n    tag_39:\n        /* \"l1-5-homework/mulSigWallet.sol\":816:823  isOwner */\n      0x01\n        /* \"l1-5-homework/mulSigWallet.sol\":816:835  isOwner[msg.sender] */\n      0x00\n        /* \"l1-5-homework/mulSigWallet.sol\":824:834  msg.sender */\n      caller\n        /* \"l1-5-homework/mulSigWallet.sol\":816:835  isOwner[msg.sender] */\n      0xffffffffffffffffffffffffffffffffffffffff\n      and\n      0xffffffffffffffffffffffffffffffffffffffff\n      and\n      dup2\n      mstore\n      0x20\n      add\n      swap1\n      dup2\n      mstore\n      0x20\n      add\n      0x00\n      keccak256\n      0x00\n      swap1\n      sload\n      swap1\n      0x0100\n      exp\n      swap1\n      div\n      0xff\n      and\n        /* \"l1-5-homework/mulSigWallet.sol\":808:849  require(isOwner[msg.sender], \"not owner\") */\n      tag_91\n      jumpi\n      mload(0x40)\n      0x08c379a000000000000000000000000000000000000000000000000000000000\n      dup2\n      mstore\n      0x04\n      add\n      tag_92\n      swap1\n      tag_82\n      jump\t// in\n    tag_92:\n      mload(0x40)\n      dup1\n      swap2\n      sub\n      swap1\n      revert\n    tag_91:\n        /* \"l1-5-homework/mulSigWallet.sol\":3300:3305  txId_ */\n      dup1\n        /* \"l1-5-homework/mulSigWallet.sol\":931:944  transacations */\n      0x03\n        /* \"l1-5-homework/mulSigWallet.sol\":931:951  transacations.length */\n      dup1\n      sload\n      swap1\n      pop\n        /* \"l1-5-homework/mulSigWallet.sol\":923:928  txId_ */\n      dup2\n        /* \"l1-5-homework/mulSigWallet.sol\":923:951  txId_ < transacations.length */\n      lt\n        /* \"l1-5-homework/mulSigWallet.sol\":915:972  require(txId_ < transacations.length, \"tx doesn't exist\") */\n      tag_94\n      jumpi\n      mload(0x40)\n      0x08c379a000000000000000000000000000000000000000000000000000000000\n      dup2\n      mstore\n      0x04\n      add\n      tag_95\n      swap1\n      tag_96\n      jump\t// in\n    tag_95:\n      mload(0x40)\n      dup1\n      swap2\n      sub\n      swap1\n      revert\n    tag_94:\n        /* \"l1-5-homework/mulSigWallet.sol\":3319:3324  txId_ */\n      dup2\n        /* \"l1-5-homework/mulSigWallet.sol\":1179:1192  transacations */\n      0x03\n        /* \"l1-5-homework/mulSigWallet.sol\":1193:1198  txId_ */\n      dup2\n        /* \"l1-5-homework/mulSigWallet.sol\":1179:1199  transacations[txId_] */\n      dup2\n      sload\n      dup2\n      lt\n      tag_98\n      jumpi\n      tag_99\n      tag_100\n      jump\t// in\n    tag_99:\n    tag_98:\n      swap1\n      0x00\n      mstore\n      keccak256(0x00, 0x20)\n      swap1\n      0x04\n      mul\n      add\n        /* \"l1-5-homework/mulSigWallet.sol\":1179:1207  transacations[txId_].exected */\n      0x03\n      add\n      0x00\n      swap1\n      sload\n      swap1\n      0x0100\n      exp\n      swap1\n      div\n      0xff\n      and\n        /* \"l1-5-homework/mulSigWallet.sol\":1178:1207  !transacations[txId_].exected */\n      iszero\n        /* \"l1-5-homework/mulSigWallet.sol\":1170:1226  require(!transacations[txId_].exected, \"tx is executed\") */\n      tag_102\n      jumpi\n      mload(0x40)\n      0x08c379a000000000000000000000000000000000000000000000000000000000\n      dup2\n      mstore\n      0x04\n      add\n      tag_103\n      swap1\n      tag_104\n      jump\t// in\n    tag_103:\n      mload(0x40)\n      dup1\n      swap2\n      sub\n      swap1\n      revert\n    tag_102:\n        /* \"l1-5-homework/mulSigWallet.sol\":3344:3352  approved */\n      0x04\n        /* \"l1-5-homework/mulSigWallet.sol\":3344:3359  approved[txId_] */\n      0x00\n        /* \"l1-5-homework/mulSigWallet.sol\":3353:3358  txId_ */\n      dup5\n        /* \"l1-5-homework/mulSigWallet.sol\":3344:3359  approved[txId_] */\n      dup2\n      mstore\n      0x20\n      add\n      swap1\n      dup2\n      mstore\n      0x20\n      add\n      0x00\n      keccak256\n        /* \"l1-5-homework/mulSigWallet.sol\":3344:3371  approved[txId_][msg.sender] */\n      0x00\n        /* \"l1-5-homework/mulSigWallet.sol\":3360:3370  msg.sender */\n      caller\n        /* \"l1-5-homework/mulSigWallet.sol\":3344:3371  approved[txId_][msg.sender] */\n      0xffffffffffffffffffffffffffffffffffffffff\n      and\n      0xffffffffffffffffffffffffffffffffffffffff\n      and\n      dup2\n      mstore\n      0x20\n      add\n      swap1\n      dup2\n      mstore\n      0x20\n      add\n      0x00\n      keccak256\n      0x00\n      swap1\n      sload\n      swap1\n      0x0100\n      exp\n      swap1\n      div\n      0xff\n      and\n        /* \"l1-5-homework/mulSigWallet.sol\":3336:3391  require(approved[txId_][msg.sender], \"tx not approved\") */\n      tag_106\n      jumpi\n      mload(0x40)\n      0x08c379a000000000000000000000000000000000000000000000000000000000\n      dup2\n      mstore\n      0x04\n      add\n      tag_107\n      swap1\n      tag_108\n      jump\t// in\n    tag_107:\n      mload(0x40)\n      dup1\n      swap2\n      sub\n      swap1\n      revert\n    tag_106:\n        /* \"l1-5-homework/mulSigWallet.sol\":3431:3436  false */\n      0x00\n        /* \"l1-5-homework/mulSigWallet.sol\":3401:3409  approved */\n      0x04\n        /* \"l1-5-homework/mulSigWallet.sol\":3401:3416  approved[txId_] */\n      0x00\n        /* \"l1-5-homework/mulSigWallet.sol\":3410:3415  txId_ */\n      dup6\n        /* \"l1-5-homework/mulSigWallet.sol\":3401:3416  approved[txId_] */\n      dup2\n      mstore\n      0x20\n      add\n      swap1\n      dup2\n      mstore\n      0x20\n      add\n      0x00\n      keccak256\n        /* \"l1-5-homework/mulSigWallet.sol\":3401:3428  approved[txId_][msg.sender] */\n      0x00\n        /* \"l1-5-homework/mulSigWallet.sol\":3417:3427  msg.sender */\n      caller\n        /* \"l1-5-homework/mulSigWallet.sol\":3401:3428  approved[txId_][msg.sender] */\n      0xffffffffffffffffffffffffffffffffffffffff\n      and\n      0xffffffffffffffffffffffffffffffffffffffff\n      and\n      dup2\n      mstore\n      0x20\n      add\n      swap1\n      dup2\n      mstore\n      0x20\n      add\n      0x00\n      keccak256\n      0x00\n        /* \"l1-5-homework/mulSigWallet.sol\":3401:3436  approved[txId_][msg.sender] = false */\n      0x0100\n      exp\n      dup2\n      sload\n      dup2\n      0xff\n      mul\n      not\n      and\n      swap1\n      dup4\n      iszero\n      iszero\n      mul\n      or\n      swap1\n      sstore\n      pop\n        /* \"l1-5-homework/mulSigWallet.sol\":3470:3475  txId_ */\n      dup3\n        /* \"l1-5-homework/mulSigWallet.sol\":3458:3468  msg.sender */\n      caller\n        /* \"l1-5-homework/mulSigWallet.sol\":3451:3476  Revoke(msg.sender, txId_) */\n      0xffffffffffffffffffffffffffffffffffffffff\n      and\n      0xec9ab91322523c899ede7830ec9bfc992b5981cdcc27b91162fb23de5791117b\n      mload(0x40)\n      mload(0x40)\n      dup1\n      swap2\n      sub\n      swap1\n      log3\n        /* \"l1-5-homework/mulSigWallet.sol\":982:983  _ */\n      pop\n        /* \"l1-5-homework/mulSigWallet.sol\":859:860  _ */\n      pop\n        /* \"l1-5-homework/mulSigWallet.sol\":3241:3483  function revoke(uint256 txId_) external onlyOwner txExists(txId_) notExecuted(txId_) {... */\n      pop\n      jump\t// out\n        /* \"l1-5-homework/mulSigWallet.sol\":117:156  mapping(address => bool) public isOwner */\n    tag_44:\n      mstore(0x20, 0x01)\n      dup1\n      0x00\n      mstore\n      keccak256(0x00, 0x40)\n      0x00\n      swap2\n      pop\n      sload\n      swap1\n      0x0100\n      exp\n      swap1\n      div\n      0xff\n      and\n      dup2\n      jump\t// out\n        /* \"l1-5-homework/mulSigWallet.sol\":316:351  Transacation[] public transacations */\n    tag_50:\n      0x03\n      dup2\n      dup2\n      sload\n      dup2\n      lt\n      tag_109\n      jumpi\n      0x00\n      dup1\n      revert\n    tag_109:\n      swap1\n      0x00\n      mstore\n      keccak256(0x00, 0x20)\n      swap1\n      0x04\n      mul\n      add\n      0x00\n      swap2\n      pop\n      swap1\n      pop\n      dup1\n      0x00\n      add\n      0x00\n      swap1\n      sload\n      swap1\n      0x0100\n      exp\n      swap1\n      div\n      0xffffffffffffffffffffffffffffffffffffffff\n      and\n      swap1\n      dup1\n      0x01\n      add\n      sload\n      swap1\n      dup1\n      0x02\n      add\n      dup1\n      sload\n      tag_111\n      swap1\n      tag_112\n      jump\t// in\n    tag_111:\n      dup1\n      0x1f\n      add\n      0x20\n      dup1\n      swap2\n      div\n      mul\n      0x20\n      add\n      mload(0x40)\n      swap1\n      dup2\n      add\n      0x40\n      mstore\n      dup1\n      swap3\n      swap2\n      swap1\n      dup2\n      dup2\n      mstore\n      0x20\n      add\n      dup3\n      dup1\n      sload\n      tag_113\n      swap1\n      tag_112\n      jump\t// in\n    tag_113:\n      dup1\n      iszero\n      tag_114\n      jumpi\n      dup1\n      0x1f\n      lt\n      tag_115\n      jumpi\n      0x0100\n      dup1\n      dup4\n      sload\n      div\n      mul\n      dup4\n      mstore\n      swap2\n      0x20\n      add\n      swap2\n      jump(tag_114)\n    tag_115:\n      dup3\n      add\n      swap2\n      swap1\n      0x00\n      mstore\n      keccak256(0x00, 0x20)\n      swap1\n    tag_116:\n      dup2\n      sload\n      dup2\n      mstore\n      swap1\n      0x01\n      add\n      swap1\n      0x20\n      add\n      dup1\n      dup4\n      gt\n      tag_116\n      jumpi\n      dup3\n      swap1\n      sub\n      0x1f\n      and\n      dup3\n      add\n      swap2\n    tag_114:\n      pop\n      pop\n      pop\n      pop\n      pop\n      swap1\n      dup1\n      0x03\n      add\n      0x00\n      swap1\n      sload\n      swap1\n      0x0100\n      exp\n      swap1\n      div\n      0xff\n      and\n      swap1\n      pop\n      dup5\n      jump\t// out\n        /* \"l1-5-homework/mulSigWallet.sol\":357:417  mapping(uint256 => mapping(address => bool)) public approved */\n    tag_57:\n      mstore(0x20, 0x04)\n      dup2\n      0x00\n      mstore\n      mstore(0x20, keccak256(0x00, 0x40))\n      dup1\n      0x00\n      mstore\n      keccak256(0x00, 0x40)\n      0x00\n      swap2\n      pop\n      swap2\n      pop\n      swap1\n      sload\n      swap1\n      0x0100\n      exp\n      swap1\n      div\n      0xff\n      and\n      dup2\n      jump\t// out\n        /* \"l1-5-homework/mulSigWallet.sol\":2379:2576  function approve(uint256 txId_) external onlyOwner txExists(txId_) notApproved(txId_) notExecuted(txId_) {... */\n    tag_62:\n        /* \"l1-5-homework/mulSigWallet.sol\":816:823  isOwner */\n      0x01\n        /* \"l1-5-homework/mulSigWallet.sol\":816:835  isOwner[msg.sender] */\n      0x00\n        /* \"l1-5-homework/mulSigWallet.sol\":824:834  msg.sender */\n      caller\n        /* \"l1-5-homework/mulSigWallet.sol\":816:835  isOwner[msg.sender] */\n      0xffffffffffffffffffffffffffffffffffffffff\n      and\n      0xffffffffffffffffffffffffffffffffffffffff\n      and\n      dup2\n      mstore\n      0x20\n      add\n      swap1\n      dup2\n      mstore\n      0x20\n      add\n      0x00\n      keccak256\n      0x00\n      swap1\n      sload\n      swap1\n      0x0100\n      exp\n      swap1\n      div\n      0xff\n      and\n        /* \"l1-5-homework/mulSigWallet.sol\":808:849  require(isOwner[msg.sender], \"not owner\") */\n      tag_118\n      jumpi\n      mload(0x40)\n      0x08c379a000000000000000000000000000000000000000000000000000000000\n      dup2\n      mstore\n      0x04\n      add\n      tag_119\n      swap1\n      tag_82\n      jump\t// in\n    tag_119:\n      mload(0x40)\n      dup1\n      swap2\n      sub\n      swap1\n      revert\n    tag_118:\n        /* \"l1-5-homework/mulSigWallet.sol\":2439:2444  txId_ */\n      dup1\n        /* \"l1-5-homework/mulSigWallet.sol\":931:944  transacations */\n      0x03\n        /* \"l1-5-homework/mulSigWallet.sol\":931:951  transacations.length */\n      dup1\n      sload\n      swap1\n      pop\n        /* \"l1-5-homework/mulSigWallet.sol\":923:928  txId_ */\n      dup2\n        /* \"l1-5-homework/mulSigWallet.sol\":923:951  txId_ < transacations.length */\n      lt\n        /* \"l1-5-homework/mulSigWallet.sol\":915:972  require(txId_ < transacations.length, \"tx doesn't exist\") */\n      tag_121\n      jumpi\n      mload(0x40)\n      0x08c379a000000000000000000000000000000000000000000000000000000000\n      dup2\n      mstore\n      0x04\n      add\n      tag_122\n      swap1\n      tag_96\n      jump\t// in\n    tag_122:\n      mload(0x40)\n      dup1\n      swap2\n      sub\n      swap1\n      revert\n    tag_121:\n        /* \"l1-5-homework/mulSigWallet.sol\":2458:2463  txId_ */\n      dup2\n        /* \"l1-5-homework/mulSigWallet.sol\":1050:1058  approved */\n      0x04\n        /* \"l1-5-homework/mulSigWallet.sol\":1050:1065  approved[txId_] */\n      0x00\n        /* \"l1-5-homework/mulSigWallet.sol\":1059:1064  txId_ */\n      dup3\n        /* \"l1-5-homework/mulSigWallet.sol\":1050:1065  approved[txId_] */\n      dup2\n      mstore\n      0x20\n      add\n      swap1\n      dup2\n      mstore\n      0x20\n      add\n      0x00\n      keccak256\n        /* \"l1-5-homework/mulSigWallet.sol\":1050:1077  approved[txId_][msg.sender] */\n      0x00\n        /* \"l1-5-homework/mulSigWallet.sol\":1066:1076  msg.sender */\n      caller\n        /* \"l1-5-homework/mulSigWallet.sol\":1050:1077  approved[txId_][msg.sender] */\n      0xffffffffffffffffffffffffffffffffffffffff\n      and\n      0xffffffffffffffffffffffffffffffffffffffff\n      and\n      dup2\n      mstore\n      0x20\n      add\n      swap1\n      dup2\n      mstore\n      0x20\n      add\n      0x00\n      keccak256\n      0x00\n      swap1\n      sload\n      swap1\n      0x0100\n      exp\n      swap1\n      div\n      0xff\n      and\n        /* \"l1-5-homework/mulSigWallet.sol\":1049:1077  !approved[txId_][msg.sender] */\n      iszero\n        /* \"l1-5-homework/mulSigWallet.sol\":1041:1101  require(!approved[txId_][msg.sender], \"tx already approved\") */\n      tag_124\n      jumpi\n      mload(0x40)\n      0x08c379a000000000000000000000000000000000000000000000000000000000\n      dup2\n      mstore\n      0x04\n      add\n      tag_125\n      swap1\n      tag_126\n      jump\t// in\n    tag_125:\n      mload(0x40)\n      dup1\n      swap2\n      sub\n      swap1\n      revert\n    tag_124:\n        /* \"l1-5-homework/mulSigWallet.sol\":2477:2482  txId_ */\n      dup3\n        /* \"l1-5-homework/mulSigWallet.sol\":1179:1192  transacations */\n      0x03\n        /* \"l1-5-homework/mulSigWallet.sol\":1193:1198  txId_ */\n      dup2\n        /* \"l1-5-homework/mulSigWallet.sol\":1179:1199  transacations[txId_] */\n      dup2\n      sload\n      dup2\n      lt\n      tag_128\n      jumpi\n      tag_129\n      tag_100\n      jump\t// in\n    tag_129:\n    tag_128:\n      swap1\n      0x00\n      mstore\n      keccak256(0x00, 0x20)\n      swap1\n      0x04\n      mul\n      add\n        /* \"l1-5-homework/mulSigWallet.sol\":1179:1207  transacations[txId_].exected */\n      0x03\n      add\n      0x00\n      swap1\n      sload\n      swap1\n      0x0100\n      exp\n      swap1\n      div\n      0xff\n      and\n        /* \"l1-5-homework/mulSigWallet.sol\":1178:1207  !transacations[txId_].exected */\n      iszero\n        /* \"l1-5-homework/mulSigWallet.sol\":1170:1226  require(!transacations[txId_].exected, \"tx is executed\") */\n      tag_131\n      jumpi\n      mload(0x40)\n      0x08c379a000000000000000000000000000000000000000000000000000000000\n      dup2\n      mstore\n      0x04\n      add\n      tag_132\n      swap1\n      tag_104\n      jump\t// in\n    tag_132:\n      mload(0x40)\n      dup1\n      swap2\n      sub\n      swap1\n      revert\n    tag_131:\n        /* \"l1-5-homework/mulSigWallet.sol\":2524:2528  true */\n      0x01\n        /* \"l1-5-homework/mulSigWallet.sol\":2494:2502  approved */\n      0x04\n        /* \"l1-5-homework/mulSigWallet.sol\":2494:2509  approved[txId_] */\n      0x00\n        /* \"l1-5-homework/mulSigWallet.sol\":2503:2508  txId_ */\n      dup7\n        /* \"l1-5-homework/mulSigWallet.sol\":2494:2509  approved[txId_] */\n      dup2\n      mstore\n      0x20\n      add\n      swap1\n      dup2\n      mstore\n      0x20\n      add\n      0x00\n      keccak256\n        /* \"l1-5-homework/mulSigWallet.sol\":2494:2521  approved[txId_][msg.sender] */\n      0x00\n        /* \"l1-5-homework/mulSigWallet.sol\":2510:2520  msg.sender */\n      caller\n        /* \"l1-5-homework/mulSigWallet.sol\":2494:2521  approved[txId_][msg.sender] */\n      0xffffffffffffffffffffffffffffffffffffffff\n      and\n      0xffffffffffffffffffffffffffffffffffffffff\n      and\n      dup2\n      mstore\n      0x20\n      add\n      swap1\n      dup2\n      mstore\n      0x20\n      add\n      0x00\n      keccak256\n      0x00\n        /* \"l1-5-homework/mulSigWallet.sol\":2494:2528  approved[txId_][msg.sender] = true */\n      0x0100\n      exp\n      dup2\n      sload\n      dup2\n      0xff\n      mul\n      not\n      and\n      swap1\n      dup4\n      iszero\n      iszero\n      mul\n      or\n      swap1\n      sstore\n      pop\n        /* \"l1-5-homework/mulSigWallet.sol\":2563:2568  txId_ */\n      dup4\n        /* \"l1-5-homework/mulSigWallet.sol\":2551:2561  msg.sender */\n      caller\n        /* \"l1-5-homework/mulSigWallet.sol\":2543:2569  Approve(msg.sender, txId_) */\n      0xffffffffffffffffffffffffffffffffffffffff\n      and\n      0x90ec57f18fa7b15c6b8d5e4d1deb90796c74b2ff23d4d0cecad0cb42a96b3128\n      mload(0x40)\n      mload(0x40)\n      dup1\n      swap2\n      sub\n      swap1\n      log3\n        /* \"l1-5-homework/mulSigWallet.sol\":1111:1112  _ */\n      pop\n        /* \"l1-5-homework/mulSigWallet.sol\":982:983  _ */\n      pop\n        /* \"l1-5-homework/mulSigWallet.sol\":859:860  _ */\n      pop\n        /* \"l1-5-homework/mulSigWallet.sol\":2379:2576  function approve(uint256 txId_) external onlyOwner txExists(txId_) notApproved(txId_) notExecuted(txId_) {... */\n      pop\n      jump\t// out\n        /* \"l1-5-homework/mulSigWallet.sol\":2995:3236  function getApprovalCount(uint256 txId_) public view returns(uint256 count) {... */\n    tag_66:\n        /* \"l1-5-homework/mulSigWallet.sol\":3056:3069  uint256 count */\n      0x00\n        /* \"l1-5-homework/mulSigWallet.sol\":3085:3096  uint256 idx */\n      dup1\n        /* \"l1-5-homework/mulSigWallet.sol\":3099:3100  0 */\n      0x00\n        /* \"l1-5-homework/mulSigWallet.sol\":3085:3100  uint256 idx = 0 */\n      swap1\n      pop\n        /* \"l1-5-homework/mulSigWallet.sol\":3081:3230  for(uint256 idx = 0; idx < owners.length; idx++) {... */\n    tag_135:\n        /* \"l1-5-homework/mulSigWallet.sol\":3108:3114  owners */\n      0x00\n        /* \"l1-5-homework/mulSigWallet.sol\":3108:3121  owners.length */\n      dup1\n      sload\n      swap1\n      pop\n        /* \"l1-5-homework/mulSigWallet.sol\":3102:3105  idx */\n      dup2\n        /* \"l1-5-homework/mulSigWallet.sol\":3102:3121  idx < owners.length */\n      lt\n        /* \"l1-5-homework/mulSigWallet.sol\":3081:3230  for(uint256 idx = 0; idx < owners.length; idx++) {... */\n      iszero\n      tag_136\n      jumpi\n        /* \"l1-5-homework/mulSigWallet.sol\":3147:3155  approved */\n      0x04\n        /* \"l1-5-homework/mulSigWallet.sol\":3147:3162  approved[txId_] */\n      0x00\n        /* \"l1-5-homework/mulSigWallet.sol\":3156:3161  txId_ */\n      dup5\n        /* \"l1-5-homework/mulSigWallet.sol\":3147:3162  approved[txId_] */\n      dup2\n      mstore\n      0x20\n      add\n      swap1\n      dup2\n      mstore\n      0x20\n      add\n      0x00\n      keccak256\n        /* \"l1-5-homework/mulSigWallet.sol\":3147:3175  approved[txId_][owners[idx]] */\n      0x00\n        /* \"l1-5-homework/mulSigWallet.sol\":3163:3169  owners */\n      dup1\n        /* \"l1-5-homework/mulSigWallet.sol\":3170:3173  idx */\n      dup4\n        /* \"l1-5-homework/mulSigWallet.sol\":3163:3174  owners[idx] */\n      dup2\n      sload\n      dup2\n      lt\n      tag_138\n      jumpi\n      tag_139\n      tag_100\n      jump\t// in\n    tag_139:\n    tag_138:\n      swap1\n      0x00\n      mstore\n      keccak256(0x00, 0x20)\n      add\n      0x00\n      swap1\n      sload\n      swap1\n      0x0100\n      exp\n      swap1\n      div\n      0xffffffffffffffffffffffffffffffffffffffff\n      and\n        /* \"l1-5-homework/mulSigWallet.sol\":3147:3175  approved[txId_][owners[idx]] */\n      0xffffffffffffffffffffffffffffffffffffffff\n      and\n      0xffffffffffffffffffffffffffffffffffffffff\n      and\n      dup2\n      mstore\n      0x20\n      add\n      swap1\n      dup2\n      mstore\n      0x20\n      add\n      0x00\n      keccak256\n      0x00\n      swap1\n      sload\n      swap1\n      0x0100\n      exp\n      swap1\n      div\n      0xff\n      and\n        /* \"l1-5-homework/mulSigWallet.sol\":3144:3220  if(approved[txId_][owners[idx]]) {... */\n      iszero\n      tag_141\n      jumpi\n        /* \"l1-5-homework/mulSigWallet.sol\":3204:3205  1 */\n      0x01\n        /* \"l1-5-homework/mulSigWallet.sol\":3195:3205  count += 1 */\n      dup3\n      tag_142\n      swap2\n      swap1\n      tag_143\n      jump\t// in\n    tag_142:\n      swap2\n      pop\n        /* \"l1-5-homework/mulSigWallet.sol\":3144:3220  if(approved[txId_][owners[idx]]) {... */\n    tag_141:\n        /* \"l1-5-homework/mulSigWallet.sol\":3123:3128  idx++ */\n      dup1\n      dup1\n      0x01\n      add\n      swap2\n      pop\n      pop\n        /* \"l1-5-homework/mulSigWallet.sol\":3081:3230  for(uint256 idx = 0; idx < owners.length; idx++) {... */\n      jump(tag_135)\n    tag_136:\n      pop\n        /* \"l1-5-homework/mulSigWallet.sol\":2995:3236  function getApprovalCount(uint256 txId_) public view returns(uint256 count) {... */\n      swap2\n      swap1\n      pop\n      jump\t// out\n        /* \"l1-5-homework/mulSigWallet.sol\":162:188  uint256 public requiredNum */\n    tag_70:\n      sload(0x02)\n      dup2\n      jump\t// out\n        /* \"l1-5-homework/mulSigWallet.sol\":2581:2990  function execute(uint256 txId_) external onlyOwner txExists(txId_) notApproved(txId_) notExecuted(txId_) {... */\n    tag_75:\n        /* \"l1-5-homework/mulSigWallet.sol\":816:823  isOwner */\n      0x01\n        /* \"l1-5-homework/mulSigWallet.sol\":816:835  isOwner[msg.sender] */\n      0x00\n        /* \"l1-5-homework/mulSigWallet.sol\":824:834  msg.sender */\n      caller\n        /* \"l1-5-homework/mulSigWallet.sol\":816:835  isOwner[msg.sender] */\n      0xffffffffffffffffffffffffffffffffffffffff\n      and\n      0xffffffffffffffffffffffffffffffffffffffff\n      and\n      dup2\n      mstore\n      0x20\n      add\n      swap1\n      dup2\n      mstore\n      0x20\n      add\n      0x00\n      keccak256\n      0x00\n      swap1\n      sload\n      swap1\n      0x0100\n      exp\n      swap1\n      div\n      0xff\n      and\n        /* \"l1-5-homework/mulSigWallet.sol\":808:849  require(isOwner[msg.sender], \"not owner\") */\n      tag_145\n      jumpi\n      mload(0x40)\n      0x08c379a000000000000000000000000000000000000000000000000000000000\n      dup2\n      mstore\n      0x04\n      add\n      tag_146\n      swap1\n      tag_82\n      jump\t// in\n    tag_146:\n      mload(0x40)\n      dup1\n      swap2\n      sub\n      swap1\n      revert\n    tag_145:\n        /* \"l1-5-homework/mulSigWallet.sol\":2641:2646  txId_ */\n      dup1\n        /* \"l1-5-homework/mulSigWallet.sol\":931:944  transacations */\n      0x03\n        /* \"l1-5-homework/mulSigWallet.sol\":931:951  transacations.length */\n      dup1\n      sload\n      swap1\n      pop\n        /* \"l1-5-homework/mulSigWallet.sol\":923:928  txId_ */\n      dup2\n        /* \"l1-5-homework/mulSigWallet.sol\":923:951  txId_ < transacations.length */\n      lt\n        /* \"l1-5-homework/mulSigWallet.sol\":915:972  require(txId_ < transacations.length, \"tx doesn't exist\") */\n      tag_148\n      jumpi\n      mload(0x40)\n      0x08c379a000000000000000000000000000000000000000000000000000000000\n      dup2\n      mstore\n      0x04\n      add\n      tag_149\n      swap1\n      tag_96\n      jump\t// in\n    tag_149:\n      mload(0x40)\n      dup1\n      swap2\n      sub\n      swap1\n      revert\n    tag_148:\n        /* \"l1-5-homework/mulSigWallet.sol\":2660:2665  txId_ */\n      dup2\n        /* \"l1-5-homework/mulSigWallet.sol\":1050:1058  approved */\n      0x04\n        /* \"l1-5-homework/mulSigWallet.sol\":1050:1065  approved[txId_] */\n      0x00\n        /* \"l1-5-homework/mulSigWallet.sol\":1059:1064  txId_ */\n      dup3\n        /* \"l1-5-homework/mulSigWallet.sol\":1050:1065  approved[txId_] */\n      dup2\n      mstore\n      0x20\n      add\n      swap1\n      dup2\n      mstore\n      0x20\n      add\n      0x00\n      keccak256\n        /* \"l1-5-homework/mulSigWallet.sol\":1050:1077  approved[txId_][msg.sender] */\n      0x00\n        /* \"l1-5-homework/mulSigWallet.sol\":1066:1076  msg.sender */\n      caller\n        /* \"l1-5-homework/mulSigWallet.sol\":1050:1077  approved[txId_][msg.sender] */\n      0xffffffffffffffffffffffffffffffffffffffff\n      and\n      0xffffffffffffffffffffffffffffffffffffffff\n      and\n      dup2\n      mstore\n      0x20\n      add\n      swap1\n      dup2\n      mstore\n      0x20\n      add\n      0x00\n      keccak256\n      0x00\n      swap1\n      sload\n      swap1\n      0x0100\n      exp\n      swap1\n      div\n      0xff\n      and\n        /* \"l1-5-homework/mulSigWallet.sol\":1049:1077  !approved[txId_][msg.sender] */\n      iszero\n        /* \"l1-5-homework/mulSigWallet.sol\":1041:1101  require(!approved[txId_][msg.sender], \"tx already approved\") */\n      tag_151\n      jumpi\n      mload(0x40)\n      0x08c379a000000000000000000000000000000000000000000000000000000000\n      dup2\n      mstore\n      0x04\n      add\n      tag_152\n      swap1\n      tag_126\n      jump\t// in\n    tag_152:\n      mload(0x40)\n      dup1\n      swap2\n      sub\n      swap1\n      revert\n    tag_151:\n        /* \"l1-5-homework/mulSigWallet.sol\":2679:2684  txId_ */\n      dup3\n        /* \"l1-5-homework/mulSigWallet.sol\":1179:1192  transacations */\n      0x03\n        /* \"l1-5-homework/mulSigWallet.sol\":1193:1198  txId_ */\n      dup2\n        /* \"l1-5-homework/mulSigWallet.sol\":1179:1199  transacations[txId_] */\n      dup2\n      sload\n      dup2\n      lt\n      tag_154\n      jumpi\n      tag_155\n      tag_100\n      jump\t// in\n    tag_155:\n    tag_154:\n      swap1\n      0x00\n      mstore\n      keccak256(0x00, 0x20)\n      swap1\n      0x04\n      mul\n      add\n        /* \"l1-5-homework/mulSigWallet.sol\":1179:1207  transacations[txId_].exected */\n      0x03\n      add\n      0x00\n      swap1\n      sload\n      swap1\n      0x0100\n      exp\n      swap1\n      div\n      0xff\n      and\n        /* \"l1-5-homework/mulSigWallet.sol\":1178:1207  !transacations[txId_].exected */\n      iszero\n        /* \"l1-5-homework/mulSigWallet.sol\":1170:1226  require(!transacations[txId_].exected, \"tx is executed\") */\n      tag_157\n      jumpi\n      mload(0x40)\n      0x08c379a000000000000000000000000000000000000000000000000000000000\n      dup2\n      mstore\n      0x04\n      add\n      tag_158\n      swap1\n      tag_104\n      jump\t// in\n    tag_158:\n      mload(0x40)\n      dup1\n      swap2\n      sub\n      swap1\n      revert\n    tag_157:\n        /* \"l1-5-homework/mulSigWallet.sol\":2731:2742  requiredNum */\n      sload(0x02)\n        /* \"l1-5-homework/mulSigWallet.sol\":2704:2727  getApprovalCount(txId_) */\n      tag_160\n        /* \"l1-5-homework/mulSigWallet.sol\":2721:2726  txId_ */\n      dup6\n        /* \"l1-5-homework/mulSigWallet.sol\":2704:2720  getApprovalCount */\n      tag_66\n        /* \"l1-5-homework/mulSigWallet.sol\":2704:2727  getApprovalCount(txId_) */\n      jump\t// in\n    tag_160:\n        /* \"l1-5-homework/mulSigWallet.sol\":2704:2742  getApprovalCount(txId_) >= requiredNum */\n      lt\n      iszero\n        /* \"l1-5-homework/mulSigWallet.sol\":2696:2767  require(getApprovalCount(txId_) >= requiredNum, \"approvals < required\") */\n      tag_161\n      jumpi\n      mload(0x40)\n      0x08c379a000000000000000000000000000000000000000000000000000000000\n      dup2\n      mstore\n      0x04\n      add\n      tag_162\n      swap1\n      tag_163\n      jump\t// in\n    tag_162:\n      mload(0x40)\n      dup1\n      swap2\n      sub\n      swap1\n      revert\n    tag_161:\n        /* \"l1-5-homework/mulSigWallet.sol\":2777:2800  Transacation storage tx */\n      0x00\n        /* \"l1-5-homework/mulSigWallet.sol\":2803:2816  transacations */\n      0x03\n        /* \"l1-5-homework/mulSigWallet.sol\":2817:2822  txId_ */\n      dup6\n        /* \"l1-5-homework/mulSigWallet.sol\":2803:2823  transacations[txId_] */\n      dup2\n      sload\n      dup2\n      lt\n      tag_164\n      jumpi\n      tag_165\n      tag_100\n      jump\t// in\n    tag_165:\n    tag_164:\n      swap1\n      0x00\n      mstore\n      keccak256(0x00, 0x20)\n      swap1\n      0x04\n      mul\n      add\n        /* \"l1-5-homework/mulSigWallet.sol\":2777:2823  Transacation storage tx = transacations[txId_] */\n      swap1\n      pop\n        /* \"l1-5-homework/mulSigWallet.sol\":2846:2850  true */\n      0x01\n        /* \"l1-5-homework/mulSigWallet.sol\":2833:2835  tx */\n      dup2\n        /* \"l1-5-homework/mulSigWallet.sol\":2833:2843  tx.exected */\n      0x03\n      add\n      0x00\n        /* \"l1-5-homework/mulSigWallet.sol\":2833:2850  tx.exected = true */\n      0x0100\n      exp\n      dup2\n      sload\n      dup2\n      0xff\n      mul\n      not\n      and\n      swap1\n      dup4\n      iszero\n      iszero\n      mul\n      or\n      swap1\n      sstore\n      pop\n        /* \"l1-5-homework/mulSigWallet.sol\":2861:2873  bool success */\n      0x00\n        /* \"l1-5-homework/mulSigWallet.sol\":2879:2881  tx */\n      dup2\n        /* \"l1-5-homework/mulSigWallet.sol\":2879:2884  tx.to */\n      0x00\n      add\n      0x00\n      swap1\n      sload\n      swap1\n      0x0100\n      exp\n      swap1\n      div\n      0xffffffffffffffffffffffffffffffffffffffff\n      and\n        /* \"l1-5-homework/mulSigWallet.sol\":2879:2889  tx.to.call */\n      0xffffffffffffffffffffffffffffffffffffffff\n      and\n        /* \"l1-5-homework/mulSigWallet.sol\":2897:2899  tx */\n      dup3\n        /* \"l1-5-homework/mulSigWallet.sol\":2897:2905  tx.value */\n      0x01\n      add\n      sload\n        /* \"l1-5-homework/mulSigWallet.sol\":2907:2909  tx */\n      dup4\n        /* \"l1-5-homework/mulSigWallet.sol\":2907:2914  tx.data */\n      0x02\n      add\n        /* \"l1-5-homework/mulSigWallet.sol\":2879:2915  tx.to.call{value: tx.value}(tx.data) */\n      mload(0x40)\n      tag_167\n      swap2\n      swap1\n      tag_168\n      jump\t// in\n    tag_167:\n      0x00\n      mload(0x40)\n      dup1\n      dup4\n      sub\n      dup2\n      dup6\n      dup8\n      gas\n      call\n      swap3\n      pop\n      pop\n      pop\n      returndatasize\n      dup1\n      0x00\n      dup2\n      eq\n      tag_171\n      jumpi\n      mload(0x40)\n      swap2\n      pop\n      and(add(returndatasize, 0x3f), not(0x1f))\n      dup3\n      add\n      0x40\n      mstore\n      returndatasize\n      dup3\n      mstore\n      returndatasize\n      0x00\n      0x20\n      dup5\n      add\n      returndatacopy\n      jump(tag_170)\n    tag_171:\n      0x60\n      swap2\n      pop\n    tag_170:\n      pop\n        /* \"l1-5-homework/mulSigWallet.sol\":2860:2915  (bool success, ) = tx.to.call{value: tx.value}(tx.data) */\n      pop\n      swap1\n      pop\n        /* \"l1-5-homework/mulSigWallet.sol\":2933:2940  success */\n      dup1\n        /* \"l1-5-homework/mulSigWallet.sol\":2925:2954  require(success, \"tx failed\") */\n      tag_172\n      jumpi\n      mload(0x40)\n      0x08c379a000000000000000000000000000000000000000000000000000000000\n      dup2\n      mstore\n      0x04\n      add\n      tag_173\n      swap1\n      tag_174\n      jump\t// in\n    tag_173:\n      mload(0x40)\n      dup1\n      swap2\n      sub\n      swap1\n      revert\n    tag_172:\n        /* \"l1-5-homework/mulSigWallet.sol\":2977:2982  txId_ */\n      dup6\n        /* \"l1-5-homework/mulSigWallet.sol\":2969:2983  Execute(txId_) */\n      0xddb556f1d2c1ec821e910b019d3685b229db152a0ecd517ca7e24b8bd7139289\n      mload(0x40)\n      mload(0x40)\n      dup1\n      swap2\n      sub\n      swap1\n      log2\n        /* \"l1-5-homework/mulSigWallet.sol\":2686:2990  {... */\n      pop\n      pop\n        /* \"l1-5-homework/mulSigWallet.sol\":1111:1112  _ */\n      pop\n        /* \"l1-5-homework/mulSigWallet.sol\":982:983  _ */\n      pop\n        /* \"l1-5-homework/mulSigWallet.sol\":859:860  _ */\n      pop\n        /* \"l1-5-homework/mulSigWallet.sol\":2581:2990  function execute(uint256 txId_) external onlyOwner txExists(txId_) notApproved(txId_) notExecuted(txId_) {... */\n      pop\n      jump\t// out\n        /* \"#utility.yul\":7:84   */\n    tag_175:\n        /* \"#utility.yul\":44:51   */\n      0x00\n        /* \"#utility.yul\":73:78   */\n      dup2\n        /* \"#utility.yul\":62:78   */\n      swap1\n      pop\n        /* \"#utility.yul\":7:84   */\n      swap2\n      swap1\n      pop\n      jump\t// out\n        /* \"#utility.yul\":90:208   */\n    tag_176:\n        /* \"#utility.yul\":177:201   */\n      tag_236\n        /* \"#utility.yul\":195:200   */\n      dup2\n        /* \"#utility.yul\":177:201   */\n      tag_175\n      jump\t// in\n    tag_236:\n        /* \"#utility.yul\":172:175   */\n      dup3\n        /* \"#utility.yul\":165:202   */\n      mstore\n        /* \"#utility.yul\":90:208   */\n      pop\n      pop\n      jump\t// out\n        /* \"#utility.yul\":214:436   */\n    tag_18:\n        /* \"#utility.yul\":307:311   */\n      0x00\n        /* \"#utility.yul\":345:347   */\n      0x20\n        /* \"#utility.yul\":334:343   */\n      dup3\n        /* \"#utility.yul\":330:348   */\n      add\n        /* \"#utility.yul\":322:348   */\n      swap1\n      pop\n        /* \"#utility.yul\":358:429   */\n      tag_238\n        /* \"#utility.yul\":426:427   */\n      0x00\n        /* \"#utility.yul\":415:424   */\n      dup4\n        /* \"#utility.yul\":411:428   */\n      add\n        /* \"#utility.yul\":402:408   */\n      dup5\n        /* \"#utility.yul\":358:429   */\n      tag_176\n      jump\t// in\n    tag_238:\n        /* \"#utility.yul\":214:436   */\n      swap3\n      swap2\n      pop\n      pop\n      jump\t// out\n        /* \"#utility.yul\":523:640   */\n    tag_178:\n        /* \"#utility.yul\":632:633   */\n      0x00\n        /* \"#utility.yul\":629:630   */\n      dup1\n        /* \"#utility.yul\":622:634   */\n      revert\n        /* \"#utility.yul\":646:763   */\n    tag_179:\n        /* \"#utility.yul\":755:756   */\n      0x00\n        /* \"#utility.yul\":752:753   */\n      dup1\n        /* \"#utility.yul\":745:757   */\n      revert\n        /* \"#utility.yul\":769:891   */\n    tag_180:\n        /* \"#utility.yul\":842:866   */\n      tag_243\n        /* \"#utility.yul\":860:865   */\n      dup2\n        /* \"#utility.yul\":842:866   */\n      tag_175\n      jump\t// in\n    tag_243:\n        /* \"#utility.yul\":835:840   */\n      dup2\n        /* \"#utility.yul\":832:867   */\n      eq\n        /* \"#utility.yul\":822:885   */\n      tag_244\n      jumpi\n        /* \"#utility.yul\":881:882   */\n      0x00\n        /* \"#utility.yul\":878:879   */\n      dup1\n        /* \"#utility.yul\":871:883   */\n      revert\n        /* \"#utility.yul\":822:885   */\n    tag_244:\n        /* \"#utility.yul\":769:891   */\n      pop\n      jump\t// out\n        /* \"#utility.yul\":897:1036   */\n    tag_181:\n        /* \"#utility.yul\":943:948   */\n      0x00\n        /* \"#utility.yul\":981:987   */\n      dup2\n        /* \"#utility.yul\":968:988   */\n      calldataload\n        /* \"#utility.yul\":959:988   */\n      swap1\n      pop\n        /* \"#utility.yul\":997:1030   */\n      tag_246\n        /* \"#utility.yul\":1024:1029   */\n      dup2\n        /* \"#utility.yul\":997:1030   */\n      tag_180\n      jump\t// in\n    tag_246:\n        /* \"#utility.yul\":897:1036   */\n      swap3\n      swap2\n      pop\n      pop\n      jump\t// out\n        /* \"#utility.yul\":1042:1371   */\n    tag_22:\n        /* \"#utility.yul\":1101:1107   */\n      0x00\n        /* \"#utility.yul\":1150:1152   */\n      0x20\n        /* \"#utility.yul\":1138:1147   */\n      dup3\n        /* \"#utility.yul\":1129:1136   */\n      dup5\n        /* \"#utility.yul\":1125:1148   */\n      sub\n        /* \"#utility.yul\":1121:1153   */\n      slt\n        /* \"#utility.yul\":1118:1237   */\n      iszero\n      tag_248\n      jumpi\n        /* \"#utility.yul\":1156:1235   */\n      tag_249\n      tag_178\n      jump\t// in\n    tag_249:\n        /* \"#utility.yul\":1118:1237   */\n    tag_248:\n        /* \"#utility.yul\":1276:1277   */\n      0x00\n        /* \"#utility.yul\":1301:1354   */\n      tag_250\n        /* \"#utility.yul\":1346:1353   */\n      dup5\n        /* \"#utility.yul\":1337:1343   */\n      dup3\n        /* \"#utility.yul\":1326:1335   */\n      dup6\n        /* \"#utility.yul\":1322:1344   */\n      add\n        /* \"#utility.yul\":1301:1354   */\n      tag_181\n      jump\t// in\n    tag_250:\n        /* \"#utility.yul\":1291:1354   */\n      swap2\n      pop\n        /* \"#utility.yul\":1247:1364   */\n      pop\n        /* \"#utility.yul\":1042:1371   */\n      swap3\n      swap2\n      pop\n      pop\n      jump\t// out\n        /* \"#utility.yul\":1377:1503   */\n    tag_182:\n        /* \"#utility.yul\":1414:1421   */\n      0x00\n        /* \"#utility.yul\":1454:1496   */\n      0xffffffffffffffffffffffffffffffffffffffff\n        /* \"#utility.yul\":1447:1452   */\n      dup3\n        /* \"#utility.yul\":1443:1497   */\n      and\n        /* \"#utility.yul\":1432:1497   */\n      swap1\n      pop\n        /* \"#utility.yul\":1377:1503   */\n      swap2\n      swap1\n      pop\n      jump\t// out\n        /* \"#utility.yul\":1509:1605   */\n    tag_183:\n        /* \"#utility.yul\":1546:1553   */\n      0x00\n        /* \"#utility.yul\":1575:1599   */\n      tag_253\n        /* \"#utility.yul\":1593:1598   */\n      dup3\n        /* \"#utility.yul\":1575:1599   */\n      tag_182\n      jump\t// in\n    tag_253:\n        /* \"#utility.yul\":1564:1599   */\n      swap1\n      pop\n        /* \"#utility.yul\":1509:1605   */\n      swap2\n      swap1\n      pop\n      jump\t// out\n        /* \"#utility.yul\":1611:1729   */\n    tag_184:\n        /* \"#utility.yul\":1698:1722   */\n      tag_255\n        /* \"#utility.yul\":1716:1721   */\n      dup2\n        /* \"#utility.yul\":1698:1722   */\n      tag_183\n      jump\t// in\n    tag_255:\n        /* \"#utility.yul\":1693:1696   */\n      dup3\n        /* \"#utility.yul\":1686:1723   */\n      mstore\n        /* \"#utility.yul\":1611:1729   */\n      pop\n      pop\n      jump\t// out\n        /* \"#utility.yul\":1735:1957   */\n    tag_25:\n        /* \"#utility.yul\":1828:1832   */\n      0x00\n        /* \"#utility.yul\":1866:1868   */\n      0x20\n        /* \"#utility.yul\":1855:1864   */\n      dup3\n        /* \"#utility.yul\":1851:1869   */\n      add\n        /* \"#utility.yul\":1843:1869   */\n      swap1\n      pop\n        /* \"#utility.yul\":1879:1950   */\n      tag_257\n        /* \"#utility.yul\":1947:1948   */\n      0x00\n        /* \"#utility.yul\":1936:1945   */\n      dup4\n        /* \"#utility.yul\":1932:1949   */\n      add\n        /* \"#utility.yul\":1923:1929   */\n      dup5\n        /* \"#utility.yul\":1879:1950   */\n      tag_184\n      jump\t// in\n    tag_257:\n        /* \"#utility.yul\":1735:1957   */\n      swap3\n      swap2\n      pop\n      pop\n      jump\t// out\n        /* \"#utility.yul\":1963:2085   */\n    tag_185:\n        /* \"#utility.yul\":2036:2060   */\n      tag_259\n        /* \"#utility.yul\":2054:2059   */\n      dup2\n        /* \"#utility.yul\":2036:2060   */\n      tag_183\n      jump\t// in\n    tag_259:\n        /* \"#utility.yul\":2029:2034   */\n      dup2\n        /* \"#utility.yul\":2026:2061   */\n      eq\n        /* \"#utility.yul\":2016:2079   */\n      tag_260\n      jumpi\n        /* \"#utility.yul\":2075:2076   */\n      0x00\n        /* \"#utility.yul\":2072:2073   */\n      dup1\n        /* \"#utility.yul\":2065:2077   */\n      revert\n        /* \"#utility.yul\":2016:2079   */\n    tag_260:\n        /* \"#utility.yul\":1963:2085   */\n      pop\n      jump\t// out\n        /* \"#utility.yul\":2091:2230   */\n    tag_186:\n        /* \"#utility.yul\":2137:2142   */\n      0x00\n        /* \"#utility.yul\":2175:2181   */\n      dup2\n        /* \"#utility.yul\":2162:2182   */\n      calldataload\n        /* \"#utility.yul\":2153:2182   */\n      swap1\n      pop\n        /* \"#utility.yul\":2191:2224   */\n      tag_262\n        /* \"#utility.yul\":2218:2223   */\n      dup2\n        /* \"#utility.yul\":2191:2224   */\n      tag_185\n      jump\t// in\n    tag_262:\n        /* \"#utility.yul\":2091:2230   */\n      swap3\n      swap2\n      pop\n      pop\n      jump\t// out\n        /* \"#utility.yul\":2236:2353   */\n    tag_187:\n        /* \"#utility.yul\":2345:2346   */\n      0x00\n        /* \"#utility.yul\":2342:2343   */\n      dup1\n        /* \"#utility.yul\":2335:2347   */\n      revert\n        /* \"#utility.yul\":2359:2476   */\n    tag_188:\n        /* \"#utility.yul\":2468:2469   */\n      0x00\n        /* \"#utility.yul\":2465:2466   */\n      dup1\n        /* \"#utility.yul\":2458:2470   */\n      revert\n        /* \"#utility.yul\":2482:2599   */\n    tag_189:\n        /* \"#utility.yul\":2591:2592   */\n      0x00\n        /* \"#utility.yul\":2588:2589   */\n      dup1\n        /* \"#utility.yul\":2581:2593   */\n      revert\n        /* \"#utility.yul\":2618:3170   */\n    tag_190:\n        /* \"#utility.yul\":2675:2683   */\n      0x00\n        /* \"#utility.yul\":2685:2691   */\n      dup1\n        /* \"#utility.yul\":2735:2738   */\n      dup4\n        /* \"#utility.yul\":2728:2732   */\n      0x1f\n        /* \"#utility.yul\":2720:2726   */\n      dup5\n        /* \"#utility.yul\":2716:2733   */\n      add\n        /* \"#utility.yul\":2712:2739   */\n      slt\n        /* \"#utility.yul\":2702:2824   */\n      tag_267\n      jumpi\n        /* \"#utility.yul\":2743:2822   */\n      tag_268\n      tag_187\n      jump\t// in\n    tag_268:\n        /* \"#utility.yul\":2702:2824   */\n    tag_267:\n        /* \"#utility.yul\":2856:2862   */\n      dup3\n        /* \"#utility.yul\":2843:2863   */\n      calldataload\n        /* \"#utility.yul\":2833:2863   */\n      swap1\n      pop\n        /* \"#utility.yul\":2886:2904   */\n      0xffffffffffffffff\n        /* \"#utility.yul\":2878:2884   */\n      dup2\n        /* \"#utility.yul\":2875:2905   */\n      gt\n        /* \"#utility.yul\":2872:2989   */\n      iszero\n      tag_269\n      jumpi\n        /* \"#utility.yul\":2908:2987   */\n      tag_270\n      tag_188\n      jump\t// in\n    tag_270:\n        /* \"#utility.yul\":2872:2989   */\n    tag_269:\n        /* \"#utility.yul\":3022:3026   */\n      0x20\n        /* \"#utility.yul\":3014:3020   */\n      dup4\n        /* \"#utility.yul\":3010:3027   */\n      add\n        /* \"#utility.yul\":2998:3027   */\n      swap2\n      pop\n        /* \"#utility.yul\":3076:3079   */\n      dup4\n        /* \"#utility.yul\":3068:3072   */\n      0x01\n        /* \"#utility.yul\":3060:3066   */\n      dup3\n        /* \"#utility.yul\":3056:3073   */\n      mul\n        /* \"#utility.yul\":3046:3054   */\n      dup4\n        /* \"#utility.yul\":3042:3074   */\n      add\n        /* \"#utility.yul\":3039:3080   */\n      gt\n        /* \"#utility.yul\":3036:3164   */\n      iszero\n      tag_271\n      jumpi\n        /* \"#utility.yul\":3083:3162   */\n      tag_272\n      tag_189\n      jump\t// in\n    tag_272:\n        /* \"#utility.yul\":3036:3164   */\n    tag_271:\n        /* \"#utility.yul\":2618:3170   */\n      swap3\n      pop\n      swap3\n      swap1\n      pop\n      jump\t// out\n        /* \"#utility.yul\":3176:3993   */\n    tag_33:\n        /* \"#utility.yul\":3264:3270   */\n      0x00\n        /* \"#utility.yul\":3272:3278   */\n      dup1\n        /* \"#utility.yul\":3280:3286   */\n      0x00\n        /* \"#utility.yul\":3288:3294   */\n      dup1\n        /* \"#utility.yul\":3337:3339   */\n      0x60\n        /* \"#utility.yul\":3325:3334   */\n      dup6\n        /* \"#utility.yul\":3316:3323   */\n      dup8\n        /* \"#utility.yul\":3312:3335   */\n      sub\n        /* \"#utility.yul\":3308:3340   */\n      slt\n        /* \"#utility.yul\":3305:3424   */\n      iszero\n      tag_274\n      jumpi\n        /* \"#utility.yul\":3343:3422   */\n      tag_275\n      tag_178\n      jump\t// in\n    tag_275:\n        /* \"#utility.yul\":3305:3424   */\n    tag_274:\n        /* \"#utility.yul\":3463:3464   */\n      0x00\n        /* \"#utility.yul\":3488:3541   */\n      tag_276\n        /* \"#utility.yul\":3533:3540   */\n      dup8\n        /* \"#utility.yul\":3524:3530   */\n      dup3\n        /* \"#utility.yul\":3513:3522   */\n      dup9\n        /* \"#utility.yul\":3509:3531   */\n      add\n        /* \"#utility.yul\":3488:3541   */\n      tag_186\n      jump\t// in\n    tag_276:\n        /* \"#utility.yul\":3478:3541   */\n      swap5\n      pop\n        /* \"#utility.yul\":3434:3551   */\n      pop\n        /* \"#utility.yul\":3590:3592   */\n      0x20\n        /* \"#utility.yul\":3616:3669   */\n      tag_277\n        /* \"#utility.yul\":3661:3668   */\n      dup8\n        /* \"#utility.yul\":3652:3658   */\n      dup3\n        /* \"#utility.yul\":3641:3650   */\n      dup9\n        /* \"#utility.yul\":3637:3659   */\n      add\n        /* \"#utility.yul\":3616:3669   */\n      tag_181\n      jump\t// in\n    tag_277:\n        /* \"#utility.yul\":3606:3669   */\n      swap4\n      pop\n        /* \"#utility.yul\":3561:3679   */\n      pop\n        /* \"#utility.yul\":3746:3748   */\n      0x40\n        /* \"#utility.yul\":3735:3744   */\n      dup6\n        /* \"#utility.yul\":3731:3749   */\n      add\n        /* \"#utility.yul\":3718:3750   */\n      calldataload\n        /* \"#utility.yul\":3777:3795   */\n      0xffffffffffffffff\n        /* \"#utility.yul\":3769:3775   */\n      dup2\n        /* \"#utility.yul\":3766:3796   */\n      gt\n        /* \"#utility.yul\":3763:3880   */\n      iszero\n      tag_278\n      jumpi\n        /* \"#utility.yul\":3799:3878   */\n      tag_279\n      tag_179\n      jump\t// in\n    tag_279:\n        /* \"#utility.yul\":3763:3880   */\n    tag_278:\n        /* \"#utility.yul\":3912:3976   */\n      tag_280\n        /* \"#utility.yul\":3968:3975   */\n      dup8\n        /* \"#utility.yul\":3959:3965   */\n      dup3\n        /* \"#utility.yul\":3948:3957   */\n      dup9\n        /* \"#utility.yul\":3944:3966   */\n      add\n        /* \"#utility.yul\":3912:3976   */\n      tag_190\n      jump\t// in\n    tag_280:\n        /* \"#utility.yul\":3894:3976   */\n      swap3\n      pop\n      swap3\n      pop\n        /* \"#utility.yul\":3689:3986   */\n      pop\n        /* \"#utility.yul\":3176:3993   */\n      swap3\n      swap6\n      swap2\n      swap5\n      pop\n      swap3\n      pop\n      jump\t// out\n        /* \"#utility.yul\":3999:4328   */\n    tag_43:\n        /* \"#utility.yul\":4058:4064   */\n      0x00\n        /* \"#utility.yul\":4107:4109   */\n      0x20\n        /* \"#utility.yul\":4095:4104   */\n      dup3\n        /* \"#utility.yul\":4086:4093   */\n      dup5\n        /* \"#utility.yul\":4082:4105   */\n      sub\n        /* \"#utility.yul\":4078:4110   */\n      slt\n        /* \"#utility.yul\":4075:4194   */\n      iszero\n      tag_282\n      jumpi\n        /* \"#utility.yul\":4113:4192   */\n      tag_283\n      tag_178\n      jump\t// in\n    tag_283:\n        /* \"#utility.yul\":4075:4194   */\n    tag_282:\n        /* \"#utility.yul\":4233:4234   */\n      0x00\n        /* \"#utility.yul\":4258:4311   */\n      tag_284\n        /* \"#utility.yul\":4303:4310   */\n      dup5\n        /* \"#utility.yul\":4294:4300   */\n      dup3\n        /* \"#utility.yul\":4283:4292   */\n      dup6\n        /* \"#utility.yul\":4279:4301   */\n      add\n        /* \"#utility.yul\":4258:4311   */\n      tag_186\n      jump\t// in\n    tag_284:\n        /* \"#utility.yul\":4248:4311   */\n      swap2\n      pop\n        /* \"#utility.yul\":4204:4321   */\n      pop\n        /* \"#utility.yul\":3999:4328   */\n      swap3\n      swap2\n      pop\n      pop\n      jump\t// out\n        /* \"#utility.yul\":4334:4424   */\n    tag_191:\n        /* \"#utility.yul\":4368:4375   */\n      0x00\n        /* \"#utility.yul\":4411:4416   */\n      dup2\n        /* \"#utility.yul\":4404:4417   */\n      iszero\n        /* \"#utility.yul\":4397:4418   */\n      iszero\n        /* \"#utility.yul\":4386:4418   */\n      swap1\n      pop\n        /* \"#utility.yul\":4334:4424   */\n      swap2\n      swap1\n      pop\n      jump\t// out\n        /* \"#utility.yul\":4430:4539   */\n    tag_192:\n        /* \"#utility.yul\":4511:4532   */\n      tag_287\n        /* \"#utility.yul\":4526:4531   */\n      dup2\n        /* \"#utility.yul\":4511:4532   */\n      tag_191\n      jump\t// in\n    tag_287:\n        /* \"#utility.yul\":4506:4509   */\n      dup3\n        /* \"#utility.yul\":4499:4533   */\n      mstore\n        /* \"#utility.yul\":4430:4539   */\n      pop\n      pop\n      jump\t// out\n        /* \"#utility.yul\":4545:4755   */\n    tag_46:\n        /* \"#utility.yul\":4632:4636   */\n      0x00\n        /* \"#utility.yul\":4670:4672   */\n      0x20\n        /* \"#utility.yul\":4659:4668   */\n      dup3\n        /* \"#utility.yul\":4655:4673   */\n      add\n        /* \"#utility.yul\":4647:4673   */\n      swap1\n      pop\n        /* \"#utility.yul\":4683:4748   */\n      tag_289\n        /* \"#utility.yul\":4745:4746   */\n      0x00\n        /* \"#utility.yul\":4734:4743   */\n      dup4\n        /* \"#utility.yul\":4730:4747   */\n      add\n        /* \"#utility.yul\":4721:4727   */\n      dup5\n        /* \"#utility.yul\":4683:4748   */\n      tag_192\n      jump\t// in\n    tag_289:\n        /* \"#utility.yul\":4545:4755   */\n      swap3\n      swap2\n      pop\n      pop\n      jump\t// out\n        /* \"#utility.yul\":4761:4859   */\n    tag_193:\n        /* \"#utility.yul\":4812:4818   */\n      0x00\n        /* \"#utility.yul\":4846:4851   */\n      dup2\n        /* \"#utility.yul\":4840:4852   */\n      mload\n        /* \"#utility.yul\":4830:4852   */\n      swap1\n      pop\n        /* \"#utility.yul\":4761:4859   */\n      swap2\n      swap1\n      pop\n      jump\t// out\n        /* \"#utility.yul\":4865:5033   */\n    tag_194:\n        /* \"#utility.yul\":4948:4959   */\n      0x00\n        /* \"#utility.yul\":4982:4988   */\n      dup3\n        /* \"#utility.yul\":4977:4980   */\n      dup3\n        /* \"#utility.yul\":4970:4989   */\n      mstore\n        /* \"#utility.yul\":5022:5026   */\n      0x20\n        /* \"#utility.yul\":5017:5020   */\n      dup3\n        /* \"#utility.yul\":5013:5027   */\n      add\n        /* \"#utility.yul\":4998:5027   */\n      swap1\n      pop\n        /* \"#utility.yul\":4865:5033   */\n      swap3\n      swap2\n      pop\n      pop\n      jump\t// out\n        /* \"#utility.yul\":5039:5178   */\n    tag_195:\n        /* \"#utility.yul\":5128:5134   */\n      dup3\n        /* \"#utility.yul\":5123:5126   */\n      dup2\n        /* \"#utility.yul\":5118:5121   */\n      dup4\n        /* \"#utility.yul\":5112:5135   */\n      mcopy\n        /* \"#utility.yul\":5169:5170   */\n      0x00\n        /* \"#utility.yul\":5160:5166   */\n      dup4\n        /* \"#utility.yul\":5155:5158   */\n      dup4\n        /* \"#utility.yul\":5151:5167   */\n      add\n        /* \"#utility.yul\":5144:5171   */\n      mstore\n        /* \"#utility.yul\":5039:5178   */\n      pop\n      pop\n      pop\n      jump\t// out\n        /* \"#utility.yul\":5184:5286   */\n    tag_196:\n        /* \"#utility.yul\":5225:5231   */\n      0x00\n        /* \"#utility.yul\":5276:5278   */\n      0x1f\n        /* \"#utility.yul\":5272:5279   */\n      not\n        /* \"#utility.yul\":5267:5269   */\n      0x1f\n        /* \"#utility.yul\":5260:5265   */\n      dup4\n        /* \"#utility.yul\":5256:5270   */\n      add\n        /* \"#utility.yul\":5252:5280   */\n      and\n        /* \"#utility.yul\":5242:5280   */\n      swap1\n      pop\n        /* \"#utility.yul\":5184:5286   */\n      swap2\n      swap1\n      pop\n      jump\t// out\n        /* \"#utility.yul\":5292:5665   */\n    tag_197:\n        /* \"#utility.yul\":5378:5381   */\n      0x00\n        /* \"#utility.yul\":5406:5444   */\n      tag_295\n        /* \"#utility.yul\":5438:5443   */\n      dup3\n        /* \"#utility.yul\":5406:5444   */\n      tag_193\n      jump\t// in\n    tag_295:\n        /* \"#utility.yul\":5460:5530   */\n      tag_296\n        /* \"#utility.yul\":5523:5529   */\n      dup2\n        /* \"#utility.yul\":5518:5521   */\n      dup6\n        /* \"#utility.yul\":5460:5530   */\n      tag_194\n      jump\t// in\n    tag_296:\n        /* \"#utility.yul\":5453:5530   */\n      swap4\n      pop\n        /* \"#utility.yul\":5539:5604   */\n      tag_297\n        /* \"#utility.yul\":5597:5603   */\n      dup2\n        /* \"#utility.yul\":5592:5595   */\n      dup6\n        /* \"#utility.yul\":5585:5589   */\n      0x20\n        /* \"#utility.yul\":5578:5583   */\n      dup7\n        /* \"#utility.yul\":5574:5590   */\n      add\n        /* \"#utility.yul\":5539:5604   */\n      tag_195\n      jump\t// in\n    tag_297:\n        /* \"#utility.yul\":5629:5658   */\n      tag_298\n        /* \"#utility.yul\":5651:5657   */\n      dup2\n        /* \"#utility.yul\":5629:5658   */\n      tag_196\n      jump\t// in\n    tag_298:\n        /* \"#utility.yul\":5624:5627   */\n      dup5\n        /* \"#utility.yul\":5620:5659   */\n      add\n        /* \"#utility.yul\":5613:5659   */\n      swap2\n      pop\n        /* \"#utility.yul\":5382:5665   */\n      pop\n        /* \"#utility.yul\":5292:5665   */\n      swap3\n      swap2\n      pop\n      pop\n      jump\t// out\n        /* \"#utility.yul\":5671:6299   */\n    tag_52:\n        /* \"#utility.yul\":5860:5864   */\n      0x00\n        /* \"#utility.yul\":5898:5901   */\n      0x80\n        /* \"#utility.yul\":5887:5896   */\n      dup3\n        /* \"#utility.yul\":5883:5902   */\n      add\n        /* \"#utility.yul\":5875:5902   */\n      swap1\n      pop\n        /* \"#utility.yul\":5912:5983   */\n      tag_300\n        /* \"#utility.yul\":5980:5981   */\n      0x00\n        /* \"#utility.yul\":5969:5978   */\n      dup4\n        /* \"#utility.yul\":5965:5982   */\n      add\n        /* \"#utility.yul\":5956:5962   */\n      dup8\n        /* \"#utility.yul\":5912:5983   */\n      tag_184\n      jump\t// in\n    tag_300:\n        /* \"#utility.yul\":5993:6065   */\n      tag_301\n        /* \"#utility.yul\":6061:6063   */\n      0x20\n        /* \"#utility.yul\":6050:6059   */\n      dup4\n        /* \"#utility.yul\":6046:6064   */\n      add\n        /* \"#utility.yul\":6037:6043   */\n      dup7\n        /* \"#utility.yul\":5993:6065   */\n      tag_176\n      jump\t// in\n    tag_301:\n        /* \"#utility.yul\":6112:6121   */\n      dup2\n        /* \"#utility.yul\":6106:6110   */\n      dup2\n        /* \"#utility.yul\":6102:6122   */\n      sub\n        /* \"#utility.yul\":6097:6099   */\n      0x40\n        /* \"#utility.yul\":6086:6095   */\n      dup4\n        /* \"#utility.yul\":6082:6100   */\n      add\n        /* \"#utility.yul\":6075:6123   */\n      mstore\n        /* \"#utility.yul\":6140:6216   */\n      tag_302\n        /* \"#utility.yul\":6211:6215   */\n      dup2\n        /* \"#utility.yul\":6202:6208   */\n      dup6\n        /* \"#utility.yul\":6140:6216   */\n      tag_197\n      jump\t// in\n    tag_302:\n        /* \"#utility.yul\":6132:6216   */\n      swap1\n      pop\n        /* \"#utility.yul\":6226:6292   */\n      tag_303\n        /* \"#utility.yul\":6288:6290   */\n      0x60\n        /* \"#utility.yul\":6277:6286   */\n      dup4\n        /* \"#utility.yul\":6273:6291   */\n      add\n        /* \"#utility.yul\":6264:6270   */\n      dup5\n        /* \"#utility.yul\":6226:6292   */\n      tag_192\n      jump\t// in\n    tag_303:\n        /* \"#utility.yul\":5671:6299   */\n      swap6\n      swap5\n      pop\n      pop\n      pop\n      pop\n      pop\n      jump\t// out\n        /* \"#utility.yul\":6305:6779   */\n    tag_56:\n        /* \"#utility.yul\":6373:6379   */\n      0x00\n        /* \"#utility.yul\":6381:6387   */\n      dup1\n        /* \"#utility.yul\":6430:6432   */\n      0x40\n        /* \"#utility.yul\":6418:6427   */\n      dup4\n        /* \"#utility.yul\":6409:6416   */\n      dup6\n        /* \"#utility.yul\":6405:6428   */\n      sub\n        /* \"#utility.yul\":6401:6433   */\n      slt\n        /* \"#utility.yul\":6398:6517   */\n      iszero\n      tag_305\n      jumpi\n        /* \"#utility.yul\":6436:6515   */\n      tag_306\n      tag_178\n      jump\t// in\n    tag_306:\n        /* \"#utility.yul\":6398:6517   */\n    tag_305:\n        /* \"#utility.yul\":6556:6557   */\n      0x00\n        /* \"#utility.yul\":6581:6634   */\n      tag_307\n        /* \"#utility.yul\":6626:6633   */\n      dup6\n        /* \"#utility.yul\":6617:6623   */\n      dup3\n        /* \"#utility.yul\":6606:6615   */\n      dup7\n        /* \"#utility.yul\":6602:6624   */\n      add\n        /* \"#utility.yul\":6581:6634   */\n      tag_181\n      jump\t// in\n    tag_307:\n        /* \"#utility.yul\":6571:6634   */\n      swap3\n      pop\n        /* \"#utility.yul\":6527:6644   */\n      pop\n        /* \"#utility.yul\":6683:6685   */\n      0x20\n        /* \"#utility.yul\":6709:6762   */\n      tag_308\n        /* \"#utility.yul\":6754:6761   */\n      dup6\n        /* \"#utility.yul\":6745:6751   */\n      dup3\n        /* \"#utility.yul\":6734:6743   */\n      dup7\n        /* \"#utility.yul\":6730:6752   */\n      add\n        /* \"#utility.yul\":6709:6762   */\n      tag_186\n      jump\t// in\n    tag_308:\n        /* \"#utility.yul\":6699:6762   */\n      swap2\n      pop\n        /* \"#utility.yul\":6654:6772   */\n      pop\n        /* \"#utility.yul\":6305:6779   */\n      swap3\n      pop\n      swap3\n      swap1\n      pop\n      jump\t// out\n        /* \"#utility.yul\":6785:6954   */\n    tag_198:\n        /* \"#utility.yul\":6869:6880   */\n      0x00\n        /* \"#utility.yul\":6903:6909   */\n      dup3\n        /* \"#utility.yul\":6898:6901   */\n      dup3\n        /* \"#utility.yul\":6891:6910   */\n      mstore\n        /* \"#utility.yul\":6943:6947   */\n      0x20\n        /* \"#utility.yul\":6938:6941   */\n      dup3\n        /* \"#utility.yul\":6934:6948   */\n      add\n        /* \"#utility.yul\":6919:6948   */\n      swap1\n      pop\n        /* \"#utility.yul\":6785:6954   */\n      swap3\n      swap2\n      pop\n      pop\n      jump\t// out\n        /* \"#utility.yul\":6960:7119   */\n    tag_199:\n        /* \"#utility.yul\":7100:7111   */\n      0x6e6f74206f776e65720000000000000000000000000000000000000000000000\n        /* \"#utility.yul\":7096:7097   */\n      0x00\n        /* \"#utility.yul\":7088:7094   */\n      dup3\n        /* \"#utility.yul\":7084:7098   */\n      add\n        /* \"#utility.yul\":7077:7112   */\n      mstore\n        /* \"#utility.yul\":6960:7119   */\n      pop\n      jump\t// out\n        /* \"#utility.yul\":7125:7490   */\n    tag_200:\n        /* \"#utility.yul\":7267:7270   */\n      0x00\n        /* \"#utility.yul\":7288:7354   */\n      tag_312\n        /* \"#utility.yul\":7352:7353   */\n      0x09\n        /* \"#utility.yul\":7347:7350   */\n      dup4\n        /* \"#utility.yul\":7288:7354   */\n      tag_198\n      jump\t// in\n    tag_312:\n        /* \"#utility.yul\":7281:7354   */\n      swap2\n      pop\n        /* \"#utility.yul\":7363:7456   */\n      tag_313\n        /* \"#utility.yul\":7452:7455   */\n      dup3\n        /* \"#utility.yul\":7363:7456   */\n      tag_199\n      jump\t// in\n    tag_313:\n        /* \"#utility.yul\":7481:7483   */\n      0x20\n        /* \"#utility.yul\":7476:7479   */\n      dup3\n        /* \"#utility.yul\":7472:7484   */\n      add\n        /* \"#utility.yul\":7465:7484   */\n      swap1\n      pop\n        /* \"#utility.yul\":7125:7490   */\n      swap2\n      swap1\n      pop\n      jump\t// out\n        /* \"#utility.yul\":7496:7915   */\n    tag_82:\n        /* \"#utility.yul\":7662:7666   */\n      0x00\n        /* \"#utility.yul\":7700:7702   */\n      0x20\n        /* \"#utility.yul\":7689:7698   */\n      dup3\n        /* \"#utility.yul\":7685:7703   */\n      add\n        /* \"#utility.yul\":7677:7703   */\n      swap1\n      pop\n        /* \"#utility.yul\":7749:7758   */\n      dup2\n        /* \"#utility.yul\":7743:7747   */\n      dup2\n        /* \"#utility.yul\":7739:7759   */\n      sub\n        /* \"#utility.yul\":7735:7736   */\n      0x00\n        /* \"#utility.yul\":7724:7733   */\n      dup4\n        /* \"#utility.yul\":7720:7737   */\n      add\n        /* \"#utility.yul\":7713:7760   */\n      mstore\n        /* \"#utility.yul\":7777:7908   */\n      tag_315\n        /* \"#utility.yul\":7903:7907   */\n      dup2\n        /* \"#utility.yul\":7777:7908   */\n      tag_200\n      jump\t// in\n    tag_315:\n        /* \"#utility.yul\":7769:7908   */\n      swap1\n      pop\n        /* \"#utility.yul\":7496:7915   */\n      swap2\n      swap1\n      pop\n      jump\t// out\n        /* \"#utility.yul\":7921:8101   */\n    tag_201:\n        /* \"#utility.yul\":7969:8046   */\n      0x4e487b7100000000000000000000000000000000000000000000000000000000\n        /* \"#utility.yul\":7966:7967   */\n      0x00\n        /* \"#utility.yul\":7959:8047   */\n      mstore\n        /* \"#utility.yul\":8066:8070   */\n      0x41\n        /* \"#utility.yul\":8063:8064   */\n      0x04\n        /* \"#utility.yul\":8056:8071   */\n      mstore\n        /* \"#utility.yul\":8090:8094   */\n      0x24\n        /* \"#utility.yul\":8087:8088   */\n      0x00\n        /* \"#utility.yul\":8080:8095   */\n      revert\n        /* \"#utility.yul\":8107:8287   */\n    tag_202:\n        /* \"#utility.yul\":8155:8232   */\n      0x4e487b7100000000000000000000000000000000000000000000000000000000\n        /* \"#utility.yul\":8152:8153   */\n      0x00\n        /* \"#utility.yul\":8145:8233   */\n      mstore\n        /* \"#utility.yul\":8252:8256   */\n      0x22\n        /* \"#utility.yul\":8249:8250   */\n      0x04\n        /* \"#utility.yul\":8242:8257   */\n      mstore\n        /* \"#utility.yul\":8276:8280   */\n      0x24\n        /* \"#utility.yul\":8273:8274   */\n      0x00\n        /* \"#utility.yul\":8266:8281   */\n      revert\n        /* \"#utility.yul\":8293:8613   */\n    tag_112:\n        /* \"#utility.yul\":8337:8343   */\n      0x00\n        /* \"#utility.yul\":8374:8375   */\n      0x02\n        /* \"#utility.yul\":8368:8372   */\n      dup3\n        /* \"#utility.yul\":8364:8376   */\n      div\n        /* \"#utility.yul\":8354:8376   */\n      swap1\n      pop\n        /* \"#utility.yul\":8421:8422   */\n      0x01\n        /* \"#utility.yul\":8415:8419   */\n      dup3\n        /* \"#utility.yul\":8411:8423   */\n      and\n        /* \"#utility.yul\":8442:8460   */\n      dup1\n        /* \"#utility.yul\":8432:8513   */\n      tag_319\n      jumpi\n        /* \"#utility.yul\":8498:8502   */\n      0x7f\n        /* \"#utility.yul\":8490:8496   */\n      dup3\n        /* \"#utility.yul\":8486:8503   */\n      and\n        /* \"#utility.yul\":8476:8503   */\n      swap2\n      pop\n        /* \"#utility.yul\":8432:8513   */\n    tag_319:\n        /* \"#utility.yul\":8560:8562   */\n      0x20\n        /* \"#utility.yul\":8552:8558   */\n      dup3\n        /* \"#utility.yul\":8549:8563   */\n      lt\n        /* \"#utility.yul\":8529:8547   */\n      dup2\n        /* \"#utility.yul\":8526:8564   */\n      sub\n        /* \"#utility.yul\":8523:8607   */\n      tag_320\n      jumpi\n        /* \"#utility.yul\":8579:8597   */\n      tag_321\n      tag_202\n      jump\t// in\n    tag_321:\n        /* \"#utility.yul\":8523:8607   */\n    tag_320:\n        /* \"#utility.yul\":8344:8613   */\n      pop\n        /* \"#utility.yul\":8293:8613   */\n      swap2\n      swap1\n      pop\n      jump\t// out\n        /* \"#utility.yul\":8619:8759   */\n    tag_203:\n        /* \"#utility.yul\":8667:8671   */\n      0x00\n        /* \"#utility.yul\":8690:8693   */\n      dup2\n        /* \"#utility.yul\":8682:8693   */\n      swap1\n      pop\n        /* \"#utility.yul\":8713:8716   */\n      dup2\n        /* \"#utility.yul\":8710:8711   */\n      0x00\n        /* \"#utility.yul\":8703:8717   */\n      mstore\n        /* \"#utility.yul\":8747:8751   */\n      0x20\n        /* \"#utility.yul\":8744:8745   */\n      0x00\n        /* \"#utility.yul\":8734:8752   */\n      keccak256\n        /* \"#utility.yul\":8726:8752   */\n      swap1\n      pop\n        /* \"#utility.yul\":8619:8759   */\n      swap2\n      swap1\n      pop\n      jump\t// out\n        /* \"#utility.yul\":8765:8858   */\n    tag_204:\n        /* \"#utility.yul\":8802:8808   */\n      0x00\n        /* \"#utility.yul\":8849:8851   */\n      0x20\n        /* \"#utility.yul\":8844:8846   */\n      0x1f\n        /* \"#utility.yul\":8837:8842   */\n      dup4\n        /* \"#utility.yul\":8833:8847   */\n      add\n        /* \"#utility.yul\":8829:8852   */\n      div\n        /* \"#utility.yul\":8819:8852   */\n      swap1\n      pop\n        /* \"#utility.yul\":8765:8858   */\n      swap2\n      swap1\n      pop\n      jump\t// out\n        /* \"#utility.yul\":8864:8971   */\n    tag_205:\n        /* \"#utility.yul\":8908:8916   */\n      0x00\n        /* \"#utility.yul\":8958:8963   */\n      dup3\n        /* \"#utility.yul\":8952:8956   */\n      dup3\n        /* \"#utility.yul\":8948:8964   */\n      shl\n        /* \"#utility.yul\":8927:8964   */\n      swap1\n      pop\n        /* \"#utility.yul\":8864:8971   */\n      swap3\n      swap2\n      pop\n      pop\n      jump\t// out\n        /* \"#utility.yul\":8977:9370   */\n    tag_206:\n        /* \"#utility.yul\":9046:9052   */\n      0x00\n        /* \"#utility.yul\":9096:9097   */\n      0x08\n        /* \"#utility.yul\":9084:9094   */\n      dup4\n        /* \"#utility.yul\":9080:9098   */\n      mul\n        /* \"#utility.yul\":9119:9216   */\n      tag_326\n        /* \"#utility.yul\":9149:9215   */\n      0xffffffffffffffffffffffffffffffffffffffffffffffffffffffffffffffff\n        /* \"#utility.yul\":9138:9147   */\n      dup3\n        /* \"#utility.yul\":9119:9216   */\n      tag_205\n      jump\t// in\n    tag_326:\n        /* \"#utility.yul\":9237:9276   */\n      tag_327\n        /* \"#utility.yul\":9267:9275   */\n      dup7\n        /* \"#utility.yul\":9256:9265   */\n      dup4\n        /* \"#utility.yul\":9237:9276   */\n      tag_205\n      jump\t// in\n    tag_327:\n        /* \"#utility.yul\":9225:9276   */\n      swap6\n      pop\n        /* \"#utility.yul\":9309:9313   */\n      dup1\n        /* \"#utility.yul\":9305:9314   */\n      not\n        /* \"#utility.yul\":9298:9303   */\n      dup5\n        /* \"#utility.yul\":9294:9315   */\n      and\n        /* \"#utility.yul\":9285:9315   */\n      swap4\n      pop\n        /* \"#utility.yul\":9358:9362   */\n      dup1\n        /* \"#utility.yul\":9348:9356   */\n      dup7\n        /* \"#utility.yul\":9344:9363   */\n      and\n        /* \"#utility.yul\":9337:9342   */\n      dup5\n        /* \"#utility.yul\":9334:9364   */\n      or\n        /* \"#utility.yul\":9324:9364   */\n      swap3\n      pop\n        /* \"#utility.yul\":9053:9370   */\n      pop\n      pop\n        /* \"#utility.yul\":8977:9370   */\n      swap4\n      swap3\n      pop\n      pop\n      pop\n      jump\t// out\n        /* \"#utility.yul\":9376:9436   */\n    tag_207:\n        /* \"#utility.yul\":9404:9407   */\n      0x00\n        /* \"#utility.yul\":9425:9430   */\n      dup2\n        /* \"#utility.yul\":9418:9430   */\n      swap1\n      pop\n        /* \"#utility.yul\":9376:9436   */\n      swap2\n      swap1\n      pop\n      jump\t// out\n        /* \"#utility.yul\":9442:9584   */\n    tag_208:\n        /* \"#utility.yul\":9492:9501   */\n      0x00\n        /* \"#utility.yul\":9525:9578   */\n      tag_330\n        /* \"#utility.yul\":9543:9577   */\n      tag_331\n        /* \"#utility.yul\":9552:9576   */\n      tag_332\n        /* \"#utility.yul\":9570:9575   */\n      dup5\n        /* \"#utility.yul\":9552:9576   */\n      tag_175\n      jump\t// in\n    tag_332:\n        /* \"#utility.yul\":9543:9577   */\n      tag_207\n      jump\t// in\n    tag_331:\n        /* \"#utility.yul\":9525:9578   */\n      tag_175\n      jump\t// in\n    tag_330:\n        /* \"#utility.yul\":9512:9578   */\n      swap1\n      pop\n        /* \"#utility.yul\":9442:9584   */\n      swap2\n      swap1\n      pop\n      jump\t// out\n        /* \"#utility.yul\":9590:9665   */\n    tag_209:\n        /* \"#utility.yul\":9633:9636   */\n      0x00\n        /* \"#utility.yul\":9654:9659   */\n      dup2\n        /* \"#utility.yul\":9647:9659   */\n      swap1\n      pop\n        /* \"#utility.yul\":9590:9665   */\n      swap2\n      swap1\n      pop\n      jump\t// out\n        /* \"#utility.yul\":9671:9940   */\n    tag_210:\n        /* \"#utility.yul\":9781:9820   */\n      tag_335\n        /* \"#utility.yul\":9812:9819   */\n      dup4\n        /* \"#utility.yul\":9781:9820   */\n      tag_208\n      jump\t// in\n    tag_335:\n        /* \"#utility.yul\":9842:9933   */\n      tag_336\n        /* \"#utility.yul\":9891:9932   */\n      tag_337\n        /* \"#utility.yul\":9915:9931   */\n      dup3\n        /* \"#utility.yul\":9891:9932   */\n      tag_209\n      jump\t// in\n    tag_337:\n        /* \"#utility.yul\":9883:9889   */\n      dup5\n        /* \"#utility.yul\":9876:9880   */\n      dup5\n        /* \"#utility.yul\":9870:9881   */\n      sload\n        /* \"#utility.yul\":9842:9933   */\n      tag_206\n      jump\t// in\n    tag_336:\n        /* \"#utility.yul\":9836:9840   */\n      dup3\n        /* \"#utility.yul\":9829:9934   */\n      sstore\n        /* \"#utility.yul\":9747:9940   */\n      pop\n        /* \"#utility.yul\":9671:9940   */\n      pop\n      pop\n      pop\n      jump\t// out\n        /* \"#utility.yul\":9946:10019   */\n    tag_211:\n        /* \"#utility.yul\":9991:9994   */\n      0x00\n        /* \"#utility.yul\":9946:10019   */\n      swap1\n      jump\t// out\n        /* \"#utility.yul\":10025:10214   */\n    tag_212:\n        /* \"#utility.yul\":10102:10134   */\n      tag_340\n      tag_211\n      jump\t// in\n    tag_340:\n        /* \"#utility.yul\":10143:10208   */\n      tag_341\n        /* \"#utility.yul\":10201:10207   */\n      dup2\n        /* \"#utility.yul\":10193:10199   */\n      dup5\n        /* \"#utility.yul\":10187:10191   */\n      dup5\n        /* \"#utility.yul\":10143:10208   */\n      tag_210\n      jump\t// in\n    tag_341:\n        /* \"#utility.yul\":10078:10214   */\n      pop\n        /* \"#utility.yul\":10025:10214   */\n      pop\n      pop\n      jump\t// out\n        /* \"#utility.yul\":10220:10406   */\n    tag_213:\n        /* \"#utility.yul\":10280:10400   */\n    tag_343:\n        /* \"#utility.yul\":10297:10300   */\n      dup2\n        /* \"#utility.yul\":10290:10295   */\n      dup2\n        /* \"#utility.yul\":10287:10301   */\n      lt\n        /* \"#utility.yul\":10280:10400   */\n      iszero\n      tag_345\n      jumpi\n        /* \"#utility.yul\":10351:10390   */\n      tag_346\n        /* \"#utility.yul\":10388:10389   */\n      0x00\n        /* \"#utility.yul\":10381:10386   */\n      dup3\n        /* \"#utility.yul\":10351:10390   */\n      tag_212\n      jump\t// in\n    tag_346:\n        /* \"#utility.yul\":10324:10325   */\n      0x01\n        /* \"#utility.yul\":10317:10322   */\n      dup2\n        /* \"#utility.yul\":10313:10326   */\n      add\n        /* \"#utility.yul\":10304:10326   */\n      swap1\n      pop\n        /* \"#utility.yul\":10280:10400   */\n      jump(tag_343)\n    tag_345:\n        /* \"#utility.yul\":10220:10406   */\n      pop\n      pop\n      jump\t// out\n        /* \"#utility.yul\":10412:10953   */\n    tag_214:\n        /* \"#utility.yul\":10512:10514   */\n      0x1f\n        /* \"#utility.yul\":10507:10510   */\n      dup3\n        /* \"#utility.yul\":10504:10515   */\n      gt\n        /* \"#utility.yul\":10501:10946   */\n      iszero\n      tag_348\n      jumpi\n        /* \"#utility.yul\":10546:10583   */\n      tag_349\n        /* \"#utility.yul\":10577:10582   */\n      dup2\n        /* \"#utility.yul\":10546:10583   */\n      tag_203\n      jump\t// in\n    tag_349:\n        /* \"#utility.yul\":10629:10658   */\n      tag_350\n        /* \"#utility.yul\":10647:10657   */\n      dup5\n        /* \"#utility.yul\":10629:10658   */\n      tag_204\n      jump\t// in\n    tag_350:\n        /* \"#utility.yul\":10619:10627   */\n      dup2\n        /* \"#utility.yul\":10615:10659   */\n      add\n        /* \"#utility.yul\":10812:10814   */\n      0x20\n        /* \"#utility.yul\":10800:10810   */\n      dup6\n        /* \"#utility.yul\":10797:10815   */\n      lt\n        /* \"#utility.yul\":10794:10843   */\n      iszero\n      tag_351\n      jumpi\n        /* \"#utility.yul\":10833:10841   */\n      dup2\n        /* \"#utility.yul\":10818:10841   */\n      swap1\n      pop\n        /* \"#utility.yul\":10794:10843   */\n    tag_351:\n        /* \"#utility.yul\":10856:10936   */\n      tag_352\n        /* \"#utility.yul\":10912:10934   */\n      tag_353\n        /* \"#utility.yul\":10930:10933   */\n      dup6\n        /* \"#utility.yul\":10912:10934   */\n      tag_204\n      jump\t// in\n    tag_353:\n        /* \"#utility.yul\":10902:10910   */\n      dup4\n        /* \"#utility.yul\":10898:10935   */\n      add\n        /* \"#utility.yul\":10885:10896   */\n      dup3\n        /* \"#utility.yul\":10856:10936   */\n      tag_213\n      jump\t// in\n    tag_352:\n        /* \"#utility.yul\":10516:10946   */\n      pop\n      pop\n        /* \"#utility.yul\":10501:10946   */\n    tag_348:\n        /* \"#utility.yul\":10412:10953   */\n      pop\n      pop\n      pop\n      jump\t// out\n        /* \"#utility.yul\":10959:11076   */\n    tag_215:\n        /* \"#utility.yul\":11013:11021   */\n      0x00\n        /* \"#utility.yul\":11063:11068   */\n      dup3\n        /* \"#utility.yul\":11057:11061   */\n      dup3\n        /* \"#utility.yul\":11053:11069   */\n      shr\n        /* \"#utility.yul\":11032:11069   */\n      swap1\n      pop\n        /* \"#utility.yul\":10959:11076   */\n      swap3\n      swap2\n      pop\n      pop\n      jump\t// out\n        /* \"#utility.yul\":11082:11251   */\n    tag_216:\n        /* \"#utility.yul\":11126:11132   */\n      0x00\n        /* \"#utility.yul\":11159:11210   */\n      tag_356\n        /* \"#utility.yul\":11207:11208   */\n      0x00\n        /* \"#utility.yul\":11203:11209   */\n      not\n        /* \"#utility.yul\":11195:11200   */\n      dup5\n        /* \"#utility.yul\":11192:11193   */\n      0x08\n        /* \"#utility.yul\":11188:11201   */\n      mul\n        /* \"#utility.yul\":11159:11210   */\n      tag_215\n      jump\t// in\n    tag_356:\n        /* \"#utility.yul\":11155:11211   */\n      not\n        /* \"#utility.yul\":11240:11244   */\n      dup1\n        /* \"#utility.yul\":11234:11238   */\n      dup4\n        /* \"#utility.yul\":11230:11245   */\n      and\n        /* \"#utility.yul\":11220:11245   */\n      swap2\n      pop\n        /* \"#utility.yul\":11133:11251   */\n      pop\n        /* \"#utility.yul\":11082:11251   */\n      swap3\n      swap2\n      pop\n      pop\n      jump\t// out\n        /* \"#utility.yul\":11256:11551   */\n    tag_217:\n        /* \"#utility.yul\":11332:11336   */\n      0x00\n        /* \"#utility.yul\":11478:11507   */\n      tag_358\n        /* \"#utility.yul\":11503:11506   */\n      dup4\n        /* \"#utility.yul\":11497:11501   */\n      dup4\n        /* \"#utility.yul\":11478:11507   */\n      tag_216\n      jump\t// in\n    tag_358:\n        /* \"#utility.yul\":11470:11507   */\n      swap2\n      pop\n        /* \"#utility.yul\":11540:11543   */\n      dup3\n        /* \"#utility.yul\":11537:11538   */\n      0x02\n        /* \"#utility.yul\":11533:11544   */\n      mul\n        /* \"#utility.yul\":11527:11531   */\n      dup3\n        /* \"#utility.yul\":11524:11545   */\n      or\n        /* \"#utility.yul\":11516:11545   */\n      swap1\n      pop\n        /* \"#utility.yul\":11256:11551   */\n      swap3\n      swap2\n      pop\n      pop\n      jump\t// out\n        /* \"#utility.yul\":11556:12946   */\n    tag_86:\n        /* \"#utility.yul\":11671:11707   */\n      tag_360\n        /* \"#utility.yul\":11703:11706   */\n      dup3\n        /* \"#utility.yul\":11671:11707   */\n      tag_193\n      jump\t// in\n    tag_360:\n        /* \"#utility.yul\":11772:11790   */\n      0xffffffffffffffff\n        /* \"#utility.yul\":11764:11770   */\n      dup2\n        /* \"#utility.yul\":11761:11791   */\n      gt\n        /* \"#utility.yul\":11758:11814   */\n      iszero\n      tag_361\n      jumpi\n        /* \"#utility.yul\":11794:11812   */\n      tag_362\n      tag_201\n      jump\t// in\n    tag_362:\n        /* \"#utility.yul\":11758:11814   */\n    tag_361:\n        /* \"#utility.yul\":11838:11876   */\n      tag_363\n        /* \"#utility.yul\":11870:11874   */\n      dup3\n        /* \"#utility.yul\":11864:11875   */\n      sload\n        /* \"#utility.yul\":11838:11876   */\n      tag_112\n      jump\t// in\n    tag_363:\n        /* \"#utility.yul\":11923:11989   */\n      tag_364\n        /* \"#utility.yul\":11982:11988   */\n      dup3\n        /* \"#utility.yul\":11974:11980   */\n      dup3\n        /* \"#utility.yul\":11968:11972   */\n      dup6\n        /* \"#utility.yul\":11923:11989   */\n      tag_214\n      jump\t// in\n    tag_364:\n        /* \"#utility.yul\":12016:12017   */\n      0x00\n        /* \"#utility.yul\":12040:12044   */\n      0x20\n        /* \"#utility.yul\":12027:12044   */\n      swap1\n      pop\n        /* \"#utility.yul\":12072:12074   */\n      0x1f\n        /* \"#utility.yul\":12064:12070   */\n      dup4\n        /* \"#utility.yul\":12061:12075   */\n      gt\n        /* \"#utility.yul\":12089:12090   */\n      0x01\n        /* \"#utility.yul\":12084:12701   */\n      dup2\n      eq\n      tag_366\n      jumpi\n        /* \"#utility.yul\":12745:12746   */\n      0x00\n        /* \"#utility.yul\":12762:12768   */\n      dup5\n        /* \"#utility.yul\":12759:12836   */\n      iszero\n      tag_367\n      jumpi\n        /* \"#utility.yul\":12811:12820   */\n      dup3\n        /* \"#utility.yul\":12806:12809   */\n      dup8\n        /* \"#utility.yul\":12802:12821   */\n      add\n        /* \"#utility.yul\":12796:12822   */\n      mload\n        /* \"#utility.yul\":12787:12822   */\n      swap1\n      pop\n        /* \"#utility.yul\":12759:12836   */\n    tag_367:\n        /* \"#utility.yul\":12862:12929   */\n      tag_368\n        /* \"#utility.yul\":12922:12928   */\n      dup6\n        /* \"#utility.yul\":12915:12920   */\n      dup3\n        /* \"#utility.yul\":12862:12929   */\n      tag_217\n      jump\t// in\n    tag_368:\n        /* \"#utility.yul\":12856:12860   */\n      dup7\n        /* \"#utility.yul\":12849:12930   */\n      sstore\n        /* \"#utility.yul\":12718:12940   */\n      pop\n        /* \"#utility.yul\":12054:12940   */\n      jump(tag_365)\n        /* \"#utility.yul\":12084:12701   */\n    tag_366:\n        /* \"#utility.yul\":12136:12140   */\n      0x1f\n        /* \"#utility.yul\":12132:12141   */\n      not\n        /* \"#utility.yul\":12124:12130   */\n      dup5\n        /* \"#utility.yul\":12120:12142   */\n      and\n        /* \"#utility.yul\":12170:12206   */\n      tag_369\n        /* \"#utility.yul\":12201:12205   */\n      dup7\n        /* \"#utility.yul\":12170:12206   */\n      tag_203\n      jump\t// in\n    tag_369:\n        /* \"#utility.yul\":12228:12229   */\n      0x00\n        /* \"#utility.yul\":12242:12450   */\n    tag_370:\n        /* \"#utility.yul\":12256:12263   */\n      dup3\n        /* \"#utility.yul\":12253:12254   */\n      dup2\n        /* \"#utility.yul\":12250:12264   */\n      lt\n        /* \"#utility.yul\":12242:12450   */\n      iszero\n      tag_372\n      jumpi\n        /* \"#utility.yul\":12335:12344   */\n      dup5\n        /* \"#utility.yul\":12330:12333   */\n      dup10\n        /* \"#utility.yul\":12326:12345   */\n      add\n        /* \"#utility.yul\":12320:12346   */\n      mload\n        /* \"#utility.yul\":12312:12318   */\n      dup3\n        /* \"#utility.yul\":12305:12347   */\n      sstore\n        /* \"#utility.yul\":12386:12387   */\n      0x01\n        /* \"#utility.yul\":12378:12384   */\n      dup3\n        /* \"#utility.yul\":12374:12388   */\n      add\n        /* \"#utility.yul\":12364:12388   */\n      swap2\n      pop\n        /* \"#utility.yul\":12433:12435   */\n      0x20\n        /* \"#utility.yul\":12422:12431   */\n      dup6\n        /* \"#utility.yul\":12418:12436   */\n      add\n        /* \"#utility.yul\":12405:12436   */\n      swap5\n      pop\n        /* \"#utility.yul\":12279:12283   */\n      0x20\n        /* \"#utility.yul\":12276:12277   */\n      dup2\n        /* \"#utility.yul\":12272:12284   */\n      add\n        /* \"#utility.yul\":12267:12284   */\n      swap1\n      pop\n        /* \"#utility.yul\":12242:12450   */\n      jump(tag_370)\n    tag_372:\n        /* \"#utility.yul\":12478:12484   */\n      dup7\n        /* \"#utility.yul\":12469:12476   */\n      dup4\n        /* \"#utility.yul\":12466:12485   */\n      lt\n        /* \"#utility.yul\":12463:12642   */\n      iszero\n      tag_373\n      jumpi\n        /* \"#utility.yul\":12536:12545   */\n      dup5\n        /* \"#utility.yul\":12531:12534   */\n      dup10\n        /* \"#utility.yul\":12527:12546   */\n      add\n        /* \"#utility.yul\":12521:12547   */\n      mload\n        /* \"#utility.yul\":12579:12627   */\n      tag_374\n        /* \"#utility.yul\":12621:12625   */\n      0x1f\n        /* \"#utility.yul\":12613:12619   */\n      dup10\n        /* \"#utility.yul\":12609:12626   */\n      and\n        /* \"#utility.yul\":12598:12607   */\n      dup3\n        /* \"#utility.yul\":12579:12627   */\n      tag_216\n      jump\t// in\n    tag_374:\n        /* \"#utility.yul\":12571:12577   */\n      dup4\n        /* \"#utility.yul\":12564:12628   */\n      sstore\n        /* \"#utility.yul\":12486:12642   */\n      pop\n        /* \"#utility.yul\":12463:12642   */\n    tag_373:\n        /* \"#utility.yul\":12688:12689   */\n      0x01\n        /* \"#utility.yul\":12684:12685   */\n      0x02\n        /* \"#utility.yul\":12676:12682   */\n      dup9\n        /* \"#utility.yul\":12672:12686   */\n      mul\n        /* \"#utility.yul\":12668:12690   */\n      add\n        /* \"#utility.yul\":12662:12666   */\n      dup9\n        /* \"#utility.yul\":12655:12691   */\n      sstore\n        /* \"#utility.yul\":12091:12701   */\n      pop\n      pop\n      pop\n        /* \"#utility.yul\":12054:12940   */\n    tag_365:\n      pop\n        /* \"#utility.yul\":11646:12946   */\n      pop\n      pop\n      pop\n        /* \"#utility.yul\":11556:12946   */\n      pop\n      pop\n      jump\t// out\n        /* \"#utility.yul\":12952:13132   */\n    tag_218:\n        /* \"#utility.yul\":13000:13077   */\n      0x4e487b7100000000000000000000000000000000000000000000000000000000\n        /* \"#utility.yul\":12997:12998   */\n      0x00\n        /* \"#utility.yul\":12990:13078   */\n      mstore\n        /* \"#utility.yul\":13097:13101   */\n      0x11\n        /* \"#utility.yul\":13094:13095   */\n      0x04\n        /* \"#utility.yul\":13087:13102   */\n      mstore\n        /* \"#utility.yul\":13121:13125   */\n      0x24\n        /* \"#utility.yul\":13118:13119   */\n      0x00\n        /* \"#utility.yul\":13111:13126   */\n      revert\n        /* \"#utility.yul\":13138:13332   */\n    tag_88:\n        /* \"#utility.yul\":13178:13182   */\n      0x00\n        /* \"#utility.yul\":13198:13218   */\n      tag_377\n        /* \"#utility.yul\":13216:13217   */\n      dup3\n        /* \"#utility.yul\":13198:13218   */\n      tag_175\n      jump\t// in\n    tag_377:\n        /* \"#utility.yul\":13193:13218   */\n      swap2\n      pop\n        /* \"#utility.yul\":13232:13252   */\n      tag_378\n        /* \"#utility.yul\":13250:13251   */\n      dup4\n        /* \"#utility.yul\":13232:13252   */\n      tag_175\n      jump\t// in\n    tag_378:\n        /* \"#utility.yul\":13227:13252   */\n      swap3\n      pop\n        /* \"#utility.yul\":13276:13277   */\n      dup3\n        /* \"#utility.yul\":13273:13274   */\n      dup3\n        /* \"#utility.yul\":13269:13278   */\n      sub\n        /* \"#utility.yul\":13261:13278   */\n      swap1\n      pop\n        /* \"#utility.yul\":13300:13301   */\n      dup2\n        /* \"#utility.yul\":13294:13298   */\n      dup2\n        /* \"#utility.yul\":13291:13302   */\n      gt\n        /* \"#utility.yul\":13288:13325   */\n      iszero\n      tag_379\n      jumpi\n        /* \"#utility.yul\":13305:13323   */\n      tag_380\n      tag_218\n      jump\t// in\n    tag_380:\n        /* \"#utility.yul\":13288:13325   */\n    tag_379:\n        /* \"#utility.yul\":13138:13332   */\n      swap3\n      swap2\n      pop\n      pop\n      jump\t// out\n        /* \"#utility.yul\":13338:13504   */\n    tag_219:\n        /* \"#utility.yul\":13478:13496   */\n      0x747820646f65736e277420657869737400000000000000000000000000000000\n        /* \"#utility.yul\":13474:13475   */\n      0x00\n        /* \"#utility.yul\":13466:13472   */\n      dup3\n        /* \"#utility.yul\":13462:13476   */\n      add\n        /* \"#utility.yul\":13455:13497   */\n      mstore\n        /* \"#utility.yul\":13338:13504   */\n      pop\n      jump\t// out\n        /* \"#utility.yul\":13510:13876   */\n    tag_220:\n        /* \"#utility.yul\":13652:13655   */\n      0x00\n        /* \"#utility.yul\":13673:13740   */\n      tag_383\n        /* \"#utility.yul\":13737:13739   */\n      0x10\n        /* \"#utility.yul\":13732:13735   */\n      dup4\n        /* \"#utility.yul\":13673:13740   */\n      tag_198\n      jump\t// in\n    tag_383:\n        /* \"#utility.yul\":13666:13740   */\n      swap2\n      pop\n        /* \"#utility.yul\":13749:13842   */\n      tag_384\n        /* \"#utility.yul\":13838:13841   */\n      dup3\n        /* \"#utility.yul\":13749:13842   */\n      tag_219\n      jump\t// in\n    tag_384:\n        /* \"#utility.yul\":13867:13869   */\n      0x20\n        /* \"#utility.yul\":13862:13865   */\n      dup3\n        /* \"#utility.yul\":13858:13870   */\n      add\n        /* \"#utility.yul\":13851:13870   */\n      swap1\n      pop\n        /* \"#utility.yul\":13510:13876   */\n      swap2\n      swap1\n      pop\n      jump\t// out\n        /* \"#utility.yul\":13882:14301   */\n    tag_96:\n        /* \"#utility.yul\":14048:14052   */\n      0x00\n        /* \"#utility.yul\":14086:14088   */\n      0x20\n        /* \"#utility.yul\":14075:14084   */\n      dup3\n        /* \"#utility.yul\":14071:14089   */\n      add\n        /* \"#utility.yul\":14063:14089   */\n      swap1\n      pop\n        /* \"#utility.yul\":14135:14144   */\n      dup2\n        /* \"#utility.yul\":14129:14133   */\n      dup2\n        /* \"#utility.yul\":14125:14145   */\n      sub\n        /* \"#utility.yul\":14121:14122   */\n      0x00\n        /* \"#utility.yul\":14110:14119   */\n      dup4\n        /* \"#utility.yul\":14106:14123   */\n      add\n        /* \"#utility.yul\":14099:14146   */\n      mstore\n        /* \"#utility.yul\":14163:14294   */\n      tag_386\n        /* \"#utility.yul\":14289:14293   */\n      dup2\n        /* \"#utility.yul\":14163:14294   */\n      tag_220\n      jump\t// in\n    tag_386:\n        /* \"#utility.yul\":14155:14294   */\n      swap1\n      pop\n        /* \"#utility.yul\":13882:14301   */\n      swap2\n      swap1\n      pop\n      jump\t// out\n        /* \"#utility.yul\":14307:14487   */\n    tag_100:\n        /* \"#utility.yul\":14355:14432   */\n      0x4e487b7100000000000000000000000000000000000000000000000000000000\n        /* \"#utility.yul\":14352:14353   */\n      0x00\n        /* \"#utility.yul\":14345:14433   */\n      mstore\n        /* \"#utility.yul\":14452:14456   */\n      0x32\n        /* \"#utility.yul\":14449:14450   */\n      0x04\n        /* \"#utility.yul\":14442:14457   */\n      mstore\n        /* \"#utility.yul\":14476:14480   */\n      0x24\n        /* \"#utility.yul\":14473:14474   */\n      0x00\n        /* \"#utility.yul\":14466:14481   */\n      revert\n        /* \"#utility.yul\":14493:14657   */\n    tag_221:\n        /* \"#utility.yul\":14633:14649   */\n      0x7478206973206578656375746564000000000000000000000000000000000000\n        /* \"#utility.yul\":14629:14630   */\n      0x00\n        /* \"#utility.yul\":14621:14627   */\n      dup3\n        /* \"#utility.yul\":14617:14631   */\n      add\n        /* \"#utility.yul\":14610:14650   */\n      mstore\n        /* \"#utility.yul\":14493:14657   */\n      pop\n      jump\t// out\n        /* \"#utility.yul\":14663:15029   */\n    tag_222:\n        /* \"#utility.yul\":14805:14808   */\n      0x00\n        /* \"#utility.yul\":14826:14893   */\n      tag_390\n        /* \"#utility.yul\":14890:14892   */\n      0x0e\n        /* \"#utility.yul\":14885:14888   */\n      dup4\n        /* \"#utility.yul\":14826:14893   */\n      tag_198\n      jump\t// in\n    tag_390:\n        /* \"#utility.yul\":14819:14893   */\n      swap2\n      pop\n        /* \"#utility.yul\":14902:14995   */\n      tag_391\n        /* \"#utility.yul\":14991:14994   */\n      dup3\n        /* \"#utility.yul\":14902:14995   */\n      tag_221\n      jump\t// in\n    tag_391:\n        /* \"#utility.yul\":15020:15022   */\n      0x20\n        /* \"#utility.yul\":15015:15018   */\n      dup3\n        /* \"#utility.yul\":15011:15023   */\n      add\n        /* \"#utility.yul\":15004:15023   */\n      swap1\n      pop\n        /* \"#utility.yul\":14663:15029   */\n      swap2\n      swap1\n      pop\n      jump\t// out\n        /* \"#utility.yul\":15035:15454   */\n    tag_104:\n        /* \"#utility.yul\":15201:15205   */\n      0x00\n        /* \"#utility.yul\":15239:15241   */\n      0x20\n        /* \"#utility.yul\":15228:15237   */\n      dup3\n        /* \"#utility.yul\":15224:15242   */\n      add\n        /* \"#utility.yul\":15216:15242   */\n      swap1\n      pop\n        /* \"#utility.yul\":15288:15297   */\n      dup2\n        /* \"#utility.yul\":15282:15286   */\n      dup2\n        /* \"#utility.yul\":15278:15298   */\n      sub\n        /* \"#utility.yul\":15274:15275   */\n      0x00\n        /* \"#utility.yul\":15263:15272   */\n      dup4\n        /* \"#utility.yul\":15259:15276   */\n      add\n        /* \"#utility.yul\":15252:15299   */\n      mstore\n        /* \"#utility.yul\":15316:15447   */\n      tag_393\n        /* \"#utility.yul\":15442:15446   */\n      dup2\n        /* \"#utility.yul\":15316:15447   */\n      tag_222\n      jump\t// in\n    tag_393:\n        /* \"#utility.yul\":15308:15447   */\n      swap1\n      pop\n        /* \"#utility.yul\":15035:15454   */\n      swap2\n      swap1\n      pop\n      jump\t// out\n        /* \"#utility.yul\":15460:15625   */\n    tag_223:\n        /* \"#utility.yul\":15600:15617   */\n      0x7478206e6f7420617070726f7665640000000000000000000000000000000000\n        /* \"#utility.yul\":15596:15597   */\n      0x00\n        /* \"#utility.yul\":15588:15594   */\n      dup3\n        /* \"#utility.yul\":15584:15598   */\n      add\n        /* \"#utility.yul\":15577:15618   */\n      mstore\n        /* \"#utility.yul\":15460:15625   */\n      pop\n      jump\t// out\n        /* \"#utility.yul\":15631:15997   */\n    tag_224:\n        /* \"#utility.yul\":15773:15776   */\n      0x00\n        /* \"#utility.yul\":15794:15861   */\n      tag_396\n        /* \"#utility.yul\":15858:15860   */\n      0x0f\n        /* \"#utility.yul\":15853:15856   */\n      dup4\n        /* \"#utility.yul\":15794:15861   */\n      tag_198\n      jump\t// in\n    tag_396:\n        /* \"#utility.yul\":15787:15861   */\n      swap2\n      pop\n        /* \"#utility.yul\":15870:15963   */\n      tag_397\n        /* \"#utility.yul\":15959:15962   */\n      dup3\n        /* \"#utility.yul\":15870:15963   */\n      tag_223\n      jump\t// in\n    tag_397:\n        /* \"#utility.yul\":15988:15990   */\n      0x20\n        /* \"#utility.yul\":15983:15986   */\n      dup3\n        /* \"#utility.yul\":15979:15991   */\n      add\n        /* \"#utility.yul\":15972:15991   */\n      swap1\n      pop\n        /* \"#utility.yul\":15631:15997   */\n      swap2\n      swap1\n      pop\n      jump\t// out\n        /* \"#utility.yul\":16003:16422   */\n    tag_108:\n        /* \"#utility.yul\":16169:16173   */\n      0x00\n        /* \"#utility.yul\":16207:16209   */\n      0x20\n        /* \"#utility.yul\":16196:16205   */\n      dup3\n        /* \"#utility.yul\":16192:16210   */\n      add\n        /* \"#utility.yul\":16184:16210   */\n      swap1\n      pop\n        /* \"#utility.yul\":16256:16265   */\n      dup2\n        /* \"#utility.yul\":16250:16254   */\n      dup2\n        /* \"#utility.yul\":16246:16266   */\n      sub\n        /* \"#utility.yul\":16242:16243   */\n      0x00\n        /* \"#utility.yul\":16231:16240   */\n      dup4\n        /* \"#utility.yul\":16227:16244   */\n      add\n        /* \"#utility.yul\":16220:16267   */\n      mstore\n        /* \"#utility.yul\":16284:16415   */\n      tag_399\n        /* \"#utility.yul\":16410:16414   */\n      dup2\n        /* \"#utility.yul\":16284:16415   */\n      tag_224\n      jump\t// in\n    tag_399:\n        /* \"#utility.yul\":16276:16415   */\n      swap1\n      pop\n        /* \"#utility.yul\":16003:16422   */\n      swap2\n      swap1\n      pop\n      jump\t// out\n        /* \"#utility.yul\":16428:16597   */\n    tag_225:\n        /* \"#utility.yul\":16568:16589   */\n      0x747820616c726561647920617070726f76656400000000000000000000000000\n        /* \"#utility.yul\":16564:16565   */\n      0x00\n        /* \"#utility.yul\":16556:16562   */\n      dup3\n        /* \"#utility.yul\":16552:16566   */\n      add\n        /* \"#utility.yul\":16545:16590   */\n      mstore\n        /* \"#utility.yul\":16428:16597   */\n      pop\n      jump\t// out\n        /* \"#utility.yul\":16603:16969   */\n    tag_226:\n        /* \"#utility.yul\":16745:16748   */\n      0x00\n        /* \"#utility.yul\":16766:16833   */\n      tag_402\n        /* \"#utility.yul\":16830:16832   */\n      0x13\n        /* \"#utility.yul\":16825:16828   */\n      dup4\n        /* \"#utility.yul\":16766:16833   */\n      tag_198\n      jump\t// in\n    tag_402:\n        /* \"#utility.yul\":16759:16833   */\n      swap2\n      pop\n        /* \"#utility.yul\":16842:16935   */\n      tag_403\n        /* \"#utility.yul\":16931:16934   */\n      dup3\n        /* \"#utility.yul\":16842:16935   */\n      tag_225\n      jump\t// in\n    tag_403:\n        /* \"#utility.yul\":16960:16962   */\n      0x20\n        /* \"#utility.yul\":16955:16958   */\n      dup3\n        /* \"#utility.yul\":16951:16963   */\n      add\n        /* \"#utility.yul\":16944:16963   */\n      swap1\n      pop\n        /* \"#utility.yul\":16603:16969   */\n      swap2\n      swap1\n      pop\n      jump\t// out\n        /* \"#utility.yul\":16975:17394   */\n    tag_126:\n        /* \"#utility.yul\":17141:17145   */\n      0x00\n        /* \"#utility.yul\":17179:17181   */\n      0x20\n        /* \"#utility.yul\":17168:17177   */\n      dup3\n        /* \"#utility.yul\":17164:17182   */\n      add\n        /* \"#utility.yul\":17156:17182   */\n      swap1\n      pop\n        /* \"#utility.yul\":17228:17237   */\n      dup2\n        /* \"#utility.yul\":17222:17226   */\n      dup2\n        /* \"#utility.yul\":17218:17238   */\n      sub\n        /* \"#utility.yul\":17214:17215   */\n      0x00\n        /* \"#utility.yul\":17203:17212   */\n      dup4\n        /* \"#utility.yul\":17199:17216   */\n      add\n        /* \"#utility.yul\":17192:17239   */\n      mstore\n        /* \"#utility.yul\":17256:17387   */\n      tag_405\n        /* \"#utility.yul\":17382:17386   */\n      dup2\n        /* \"#utility.yul\":17256:17387   */\n      tag_226\n      jump\t// in\n    tag_405:\n        /* \"#utility.yul\":17248:17387   */\n      swap1\n      pop\n        /* \"#utility.yul\":16975:17394   */\n      swap2\n      swap1\n      pop\n      jump\t// out\n        /* \"#utility.yul\":17400:17591   */\n    tag_143:\n        /* \"#utility.yul\":17440:17443   */\n      0x00\n        /* \"#utility.yul\":17459:17479   */\n      tag_407\n        /* \"#utility.yul\":17477:17478   */\n      dup3\n        /* \"#utility.yul\":17459:17479   */\n      tag_175\n      jump\t// in\n    tag_407:\n        /* \"#utility.yul\":17454:17479   */\n      swap2\n      pop\n        /* \"#utility.yul\":17493:17513   */\n      tag_408\n        /* \"#utility.yul\":17511:17512   */\n      dup4\n        /* \"#utility.yul\":17493:17513   */\n      tag_175\n      jump\t// in\n    tag_408:\n        /* \"#utility.yul\":17488:17513   */\n      swap3\n      pop\n        /* \"#utility.yul\":17536:17537   */\n      dup3\n        /* \"#utility.yul\":17533:17534   */\n      dup3\n        /* \"#utility.yul\":17529:17538   */\n      add\n        /* \"#utility.yul\":17522:17538   */\n      swap1\n      pop\n        /* \"#utility.yul\":17557:17560   */\n      dup1\n        /* \"#utility.yul\":17554:17555   */\n      dup3\n        /* \"#utility.yul\":17551:17561   */\n      gt\n        /* \"#utility.yul\":17548:17584   */\n      iszero\n      tag_409\n      jumpi\n        /* \"#utility.yul\":17564:17582   */\n      tag_410\n      tag_218\n      jump\t// in\n    tag_410:\n        /* \"#utility.yul\":17548:17584   */\n    tag_409:\n        /* \"#utility.yul\":17400:17591   */\n      swap3\n      swap2\n      pop\n      pop\n      jump\t// out\n        /* \"#utility.yul\":17597:17767   */\n    tag_227:\n        /* \"#utility.yul\":17737:17759   */\n      0x617070726f76616c73203c207265717569726564000000000000000000000000\n        /* \"#utility.yul\":17733:17734   */\n      0x00\n        /* \"#utility.yul\":17725:17731   */\n      dup3\n        /* \"#utility.yul\":17721:17735   */\n      add\n        /* \"#utility.yul\":17714:17760   */\n      mstore\n        /* \"#utility.yul\":17597:17767   */\n      pop\n      jump\t// out\n        /* \"#utility.yul\":17773:18139   */\n    tag_228:\n        /* \"#utility.yul\":17915:17918   */\n      0x00\n        /* \"#utility.yul\":17936:18003   */\n      tag_413\n        /* \"#utility.yul\":18000:18002   */\n      0x14\n        /* \"#utility.yul\":17995:17998   */\n      dup4\n        /* \"#utility.yul\":17936:18003   */\n      tag_198\n      jump\t// in\n    tag_413:\n        /* \"#utility.yul\":17929:18003   */\n      swap2\n      pop\n        /* \"#utility.yul\":18012:18105   */\n      tag_414\n        /* \"#utility.yul\":18101:18104   */\n      dup3\n        /* \"#utility.yul\":18012:18105   */\n      tag_227\n      jump\t// in\n    tag_414:\n        /* \"#utility.yul\":18130:18132   */\n      0x20\n        /* \"#utility.yul\":18125:18128   */\n      dup3\n        /* \"#utility.yul\":18121:18133   */\n      add\n        /* \"#utility.yul\":18114:18133   */\n      swap1\n      pop\n        /* \"#utility.yul\":17773:18139   */\n      swap2\n      swap1\n      pop\n      jump\t// out\n        /* \"#utility.yul\":18145:18564   */\n    tag_163:\n        /* \"#utility.yul\":18311:18315   */\n      0x00\n        /* \"#utility.yul\":18349:18351   */\n      0x20\n        /* \"#utility.yul\":18338:18347   */\n      dup3\n        /* \"#utility.yul\":18334:18352   */\n      add\n        /* \"#utility.yul\":18326:18352   */\n      swap1\n      pop\n        /* \"#utility.yul\":18398:18407   */\n      dup2\n        /* \"#utility.yul\":18392:18396   */\n      dup2\n        /* \"#utility.yul\":18388:18408   */\n      sub\n        /* \"#utility.yul\":18384:18385   */\n      0x00\n        /* \"#utility.yul\":18373:18382   */\n      dup4\n        /* \"#utility.yul\":18369:18386   */\n      add\n        /* \"#utility.yul\":18362:18409   */\n      mstore\n        /* \"#utility.yul\":18426:18557   */\n      tag_416\n        /* \"#utility.yul\":18552:18556   */\n      dup2\n        /* \"#utility.yul\":18426:18557   */\n      tag_228\n      jump\t// in\n    tag_416:\n        /* \"#utility.yul\":18418:18557   */\n      swap1\n      pop\n        /* \"#utility.yul\":18145:18564   */\n      swap2\n      swap1\n      pop\n      jump\t// out\n        /* \"#utility.yul\":18570:18717   */\n    tag_229:\n        /* \"#utility.yul\":18671:18682   */\n      0x00\n        /* \"#utility.yul\":18708:18711   */\n      dup2\n        /* \"#utility.yul\":18693:18711   */\n      swap1\n      pop\n        /* \"#utility.yul\":18570:18717   */\n      swap3\n      swap2\n      pop\n      pop\n      jump\t// out\n        /* \"#utility.yul\":18745:19615   */\n    tag_230:\n        /* \"#utility.yul\":18846:18849   */\n      0x00\n        /* \"#utility.yul\":18883:18888   */\n      dup2\n        /* \"#utility.yul\":18877:18889   */\n      sload\n        /* \"#utility.yul\":18912:18948   */\n      tag_419\n        /* \"#utility.yul\":18938:18947   */\n      dup2\n        /* \"#utility.yul\":18912:18948   */\n      tag_112\n      jump\t// in\n    tag_419:\n        /* \"#utility.yul\":18964:19052   */\n      tag_420\n        /* \"#utility.yul\":19045:19051   */\n      dup2\n        /* \"#utility.yul\":19040:19043   */\n      dup7\n        /* \"#utility.yul\":18964:19052   */\n      tag_229\n      jump\t// in\n    tag_420:\n        /* \"#utility.yul\":18957:19052   */\n      swap5\n      pop\n        /* \"#utility.yul\":19083:19084   */\n      0x01\n        /* \"#utility.yul\":19072:19081   */\n      dup3\n        /* \"#utility.yul\":19068:19085   */\n      and\n        /* \"#utility.yul\":19099:19100   */\n      0x00\n        /* \"#utility.yul\":19094:19260   */\n      dup2\n      eq\n      tag_422\n      jumpi\n        /* \"#utility.yul\":19274:19275   */\n      0x01\n        /* \"#utility.yul\":19269:19609   */\n      dup2\n      eq\n      tag_423\n      jumpi\n        /* \"#utility.yul\":19061:19609   */\n      jump(tag_421)\n        /* \"#utility.yul\":19094:19260   */\n    tag_422:\n        /* \"#utility.yul\":19178:19182   */\n      0xff\n        /* \"#utility.yul\":19174:19183   */\n      not\n        /* \"#utility.yul\":19163:19172   */\n      dup4\n        /* \"#utility.yul\":19159:19184   */\n      and\n        /* \"#utility.yul\":19154:19157   */\n      dup7\n        /* \"#utility.yul\":19147:19185   */\n      mstore\n        /* \"#utility.yul\":19240:19246   */\n      dup2\n        /* \"#utility.yul\":19233:19247   */\n      iszero\n        /* \"#utility.yul\":19226:19248   */\n      iszero\n        /* \"#utility.yul\":19218:19224   */\n      dup3\n        /* \"#utility.yul\":19214:19249   */\n      mul\n        /* \"#utility.yul\":19209:19212   */\n      dup7\n        /* \"#utility.yul\":19205:19250   */\n      add\n        /* \"#utility.yul\":19198:19250   */\n      swap4\n      pop\n        /* \"#utility.yul\":19094:19260   */\n      jump(tag_421)\n        /* \"#utility.yul\":19269:19609   */\n    tag_423:\n        /* \"#utility.yul\":19336:19373   */\n      tag_424\n        /* \"#utility.yul\":19367:19372   */\n      dup6\n        /* \"#utility.yul\":19336:19373   */\n      tag_203\n      jump\t// in\n    tag_424:\n        /* \"#utility.yul\":19395:19396   */\n      0x00\n        /* \"#utility.yul\":19409:19563   */\n    tag_425:\n        /* \"#utility.yul\":19423:19429   */\n      dup4\n        /* \"#utility.yul\":19420:19421   */\n      dup2\n        /* \"#utility.yul\":19417:19430   */\n      lt\n        /* \"#utility.yul\":19409:19563   */\n      iszero\n      tag_427\n      jumpi\n        /* \"#utility.yul\":19497:19504   */\n      dup2\n        /* \"#utility.yul\":19491:19505   */\n      sload\n        /* \"#utility.yul\":19487:19488   */\n      dup2\n        /* \"#utility.yul\":19482:19485   */\n      dup10\n        /* \"#utility.yul\":19478:19489   */\n      add\n        /* \"#utility.yul\":19471:19506   */\n      mstore\n        /* \"#utility.yul\":19547:19548   */\n      0x01\n        /* \"#utility.yul\":19538:19545   */\n      dup3\n        /* \"#utility.yul\":19534:19549   */\n      add\n        /* \"#utility.yul\":19523:19549   */\n      swap2\n      pop\n        /* \"#utility.yul\":19445:19449   */\n      0x20\n        /* \"#utility.yul\":19442:19443   */\n      dup2\n        /* \"#utility.yul\":19438:19450   */\n      add\n        /* \"#utility.yul\":19433:19450   */\n      swap1\n      pop\n        /* \"#utility.yul\":19409:19563   */\n      jump(tag_425)\n    tag_427:\n        /* \"#utility.yul\":19592:19598   */\n      dup4\n        /* \"#utility.yul\":19587:19590   */\n      dup9\n        /* \"#utility.yul\":19583:19599   */\n      add\n        /* \"#utility.yul\":19576:19599   */\n      swap6\n      pop\n        /* \"#utility.yul\":19276:19609   */\n      pop\n      pop\n        /* \"#utility.yul\":19061:19609   */\n    tag_421:\n      pop\n        /* \"#utility.yul\":18850:19615   */\n      pop\n      pop\n        /* \"#utility.yul\":18745:19615   */\n      swap3\n      swap2\n      pop\n      pop\n      jump\t// out\n        /* \"#utility.yul\":19621:19886   */\n    tag_168:\n        /* \"#utility.yul\":19748:19751   */\n      0x00\n        /* \"#utility.yul\":19770:19860   */\n      tag_429\n        /* \"#utility.yul\":19856:19859   */\n      dup3\n        /* \"#utility.yul\":19847:19853   */\n      dup5\n        /* \"#utility.yul\":19770:19860   */\n      tag_230\n      jump\t// in\n    tag_429:\n        /* \"#utility.yul\":19763:19860   */\n      swap2\n      pop\n        /* \"#utility.yul\":19877:19880   */\n      dup2\n        /* \"#utility.yul\":19870:19880   */\n      swap1\n      pop\n        /* \"#utility.yul\":19621:19886   */\n      swap3\n      swap2\n      pop\n      pop\n      jump\t// out\n        /* \"#utility.yul\":19892:20051   */\n    tag_231:\n        /* \"#utility.yul\":20032:20043   */\n      0x7478206661696c65640000000000000000000000000000000000000000000000\n        /* \"#utility.yul\":20028:20029   */\n      0x00\n        /* \"#utility.yul\":20020:20026   */\n      dup3\n        /* \"#utility.yul\":20016:20030   */\n      add\n        /* \"#utility.yul\":20009:20044   */\n      mstore\n        /* \"#utility.yul\":19892:20051   */\n      pop\n      jump\t// out\n        /* \"#utility.yul\":20057:20422   */\n    tag_232:\n        /* \"#utility.yul\":20199:20202   */\n      0x00\n        /* \"#utility.yul\":20220:20286   */\n      tag_432\n        /* \"#utility.yul\":20284:20285   */\n      0x09\n        /* \"#utility.yul\":20279:20282   */\n      dup4\n        /* \"#utility.yul\":20220:20286   */\n      tag_198\n      jump\t// in\n    tag_432:\n        /* \"#utility.yul\":20213:20286   */\n      swap2\n      pop\n        /* \"#utility.yul\":20295:20388   */\n      tag_433\n        /* \"#utility.yul\":20384:20387   */\n      dup3\n        /* \"#utility.yul\":20295:20388   */\n      tag_231\n      jump\t// in\n    tag_433:\n        /* \"#utility.yul\":20413:20415   */\n      0x20\n        /* \"#utility.yul\":20408:20411   */\n      dup3\n        /* \"#utility.yul\":20404:20416   */\n      add\n        /* \"#utility.yul\":20397:20416   */\n      swap1\n      pop\n        /* \"#utility.yul\":20057:20422   */\n      swap2\n      swap1\n      pop\n      jump\t// out\n        /* \"#utility.yul\":20428:20847   */\n    tag_174:\n        /* \"#utility.yul\":20594:20598   */\n      0x00\n        /* \"#utility.yul\":20632:20634   */\n      0x20\n        /* \"#utility.yul\":20621:20630   */\n      dup3\n        /* \"#utility.yul\":20617:20635   */\n      add\n        /* \"#utility.yul\":20609:20635   */\n      swap1\n      pop\n        /* \"#utility.yul\":20681:20690   */\n      dup2\n        /* \"#utility.yul\":20675:20679   */\n      dup2\n        /* \"#utility.yul\":20671:20691   */\n      sub\n        /* \"#utility.yul\":20667:20668   */\n      0x00\n        /* \"#utility.yul\":20656:20665   */\n      dup4\n        /* \"#utility.yul\":20652:20669   */\n      add\n        /* \"#utility.yul\":20645:20692   */\n      mstore\n        /* \"#utility.yul\":20709:20840   */\n      tag_435\n        /* \"#utility.yul\":20835:20839   */\n      dup2\n        /* \"#utility.yul\":20709:20840   */\n      tag_232\n      jump\t// in\n    tag_435:\n        /* \"#utility.yul\":20701:20840   */\n      swap1\n      pop\n        /* \"#utility.yul\":20428:20847   */\n      swap2\n      swap1\n      pop\n      jump\t// out\n\n    auxdata: 0xa26469706673582212203e384172ee826c56410bdd674e7877e43111685069486373b327a2ddfbd2a7cd64736f6c634300081a0033\n}\n",
				"bytecode": {
					"linkReferences": {},
					"object": "608060405234801561000f575f80fd5b50604051612198380380612198833981810160405281019061003191906104a5565b5f825111610074576040517f08c379a000000000000000000000000000000000000000000000000000000000815260040161006b90610559565b60405180910390fd5b5f8111801561008757505f805490508111155b6100c6576040517f08c379a00000000000000000000000000000000000000000000000000000000081526004016100bd906105c1565b60405180910390fd5b5f5b82518110156102a8575f8382815181106100e5576100e46105df565b5b602002602001015190505f73ffffffffffffffffffffffffffffffffffffffff168173ffffffffffffffffffffffffffffffffffffffff160361015d576040517f08c379a000000000000000000000000000000000000000000000000000000000815260040161015490610656565b60405180910390fd5b60015f8273ffffffffffffffffffffffffffffffffffffffff1673ffffffffffffffffffffffffffffffffffffffff1681526020019081526020015f205f9054906101000a900460ff16156101e7576040517f08c379a00000000000000000000000000000000000000000000000000000000081526004016101de906106be565b60405180910390fd5b6001805f8373ffffffffffffffffffffffffffffffffffffffff1673ffffffffffffffffffffffffffffffffffffffff1681526020019081526020015f205f6101000a81548160ff0219169083151502179055505f81908060018154018082558091505060019003905f5260205f20015f9091909190916101000a81548173ffffffffffffffffffffffffffffffffffffffff021916908373ffffffffffffffffffffffffffffffffffffffff1602179055505080806001019150506100c8565b508060028190555050506106dc565b5f604051905090565b5f80fd5b5f80fd5b5f80fd5b5f601f19601f8301169050919050565b7f4e487b71000000000000000000000000000000000000000000000000000000005f52604160045260245ffd5b610312826102cc565b810181811067ffffffffffffffff82111715610331576103306102dc565b5b80604052505050565b5f6103436102b7565b905061034f8282610309565b919050565b5f67ffffffffffffffff82111561036e5761036d6102dc565b5b602082029050602081019050919050565b5f80fd5b5f73ffffffffffffffffffffffffffffffffffffffff82169050919050565b5f6103ac82610383565b9050919050565b6103bc816103a2565b81146103c6575f80fd5b50565b5f815190506103d7816103b3565b92915050565b5f6103ef6103ea84610354565b61033a565b905080838252602082019050602084028301858111156104125761041161037f565b5b835b8181101561043b578061042788826103c9565b845260208401935050602081019050610414565b5050509392505050565b5f82601f830112610459576104586102c8565b5b81516104698482602086016103dd565b91505092915050565b5f819050919050565b61048481610472565b811461048e575f80fd5b50565b5f8151905061049f8161047b565b92915050565b5f80604083850312156104bb576104ba6102c0565b5b5f83015167ffffffffffffffff8111156104d8576104d76102c4565b5b6104e485828601610445565b92505060206104f585828601610491565b9150509250929050565b5f82825260208201905092915050565b7f6f776e65722069732072657175697265640000000000000000000000000000005f82015250565b5f6105436011836104ff565b915061054e8261050f565b602082019050919050565b5f6020820190508181035f83015261057081610537565b9050919050565b7f696e76616c6964207265717569726564206e756d626572206f66206f776e65725f82015250565b5f6105ab6020836104ff565b91506105b682610577565b602082019050919050565b5f6020820190508181035f8301526105d88161059f565b9050919050565b7f4e487b71000000000000000000000000000000000000000000000000000000005f52603260045260245ffd5b7f696e76616c6964206f776e6572000000000000000000000000000000000000005f82015250565b5f610640600d836104ff565b915061064b8261060c565b602082019050919050565b5f6020820190508181035f83015261066d81610634565b9050919050565b7f6f776e6572206973206e6f7420756e69717565000000000000000000000000005f82015250565b5f6106a86013836104ff565b91506106b382610674565b602082019050919050565b5f6020820190508181035f8301526106d58161069c565b9050919050565b611aaf806106e95f395ff3fe60806040526004361061009f575f3560e01c80636231a8ce116100635780636231a8ce146101fe5780638253951a1461023d578063b759f95414610279578063ba7e7cab146102a1578063d5d0f21e146102dd578063fe0d94c114610307576100f4565b8063025e7c27146100f857806312065fe01461013457806314de327f1461015e57806320c5429b1461019a5780632f54bf6e146101c2576100f4565b366100f4573373ffffffffffffffffffffffffffffffffffffffff167fe1fffcc4923d04b559f4d29a8bfc6cda04eb5b0d3c460751c2402c5c5cc9109c346040516100ea919061101b565b60405180910390a2005b5f80fd5b348015610103575f80fd5b5061011e60048036038101906101199190611066565b61032f565b60405161012b91906110d0565b60405180910390f35b34801561013f575f80fd5b50610148610369565b604051610155919061101b565b60405180910390f35b348015610169575f80fd5b50610184600480360381019061017f9190611174565b610370565b604051610191919061101b565b60405180910390f35b3480156101a5575f80fd5b506101c060048036038101906101bb9190611066565b61057d565b005b3480156101cd575f80fd5b506101e860048036038101906101e391906111e5565b610803565b6040516101f5919061122a565b60405180910390f35b348015610209575f80fd5b50610224600480360381019061021f9190611066565b610820565b60405161023494939291906112b3565b60405180910390f35b348015610248575f80fd5b50610263600480360381019061025e91906112fd565b61090c565b604051610270919061122a565b60405180910390f35b348015610284575f80fd5b5061029f600480360381019061029a9190611066565b610936565b005b3480156102ac575f80fd5b506102c760048036038101906102c29190611066565b610bc0565b6040516102d4919061101b565b60405180910390f35b3480156102e8575f80fd5b506102f1610c8d565b6040516102fe919061101b565b60405180910390f35b348015610312575f80fd5b5061032d60048036038101906103289190611066565b610c93565b005b5f818154811061033d575f80fd5b905f5260205f20015f915054906101000a900473ffffffffffffffffffffffffffffffffffffffff1681565b5f47905090565b5f60015f3373ffffffffffffffffffffffffffffffffffffffff1673ffffffffffffffffffffffffffffffffffffffff1681526020019081526020015f205f9054906101000a900460ff166103fa576040517f08c379a00000000000000000000000000000000000000000000000000000000081526004016103f190611395565b60405180910390fd5b600360405180608001604052808773ffffffffffffffffffffffffffffffffffffffff16815260200186815260200185858080601f0160208091040260200160405190810160405280939291908181526020018383808284375f81840152601f19601f8201169050808301925050505050505081526020015f1515815250908060018154018082558091505060019003905f5260205f2090600402015f909190919091505f820151815f015f6101000a81548173ffffffffffffffffffffffffffffffffffffffff021916908373ffffffffffffffffffffffffffffffffffffffff16021790555060208201518160010155604082015181600201908161050191906115da565b506060820151816003015f6101000a81548160ff0219169083151502179055505050600160038054905061053591906116d6565b7f08324b3d745b914e3abd4ffbfead91e3b78391a98c173202129215ab933adfbe60405160405180910390a2600160038054905061057391906116d6565b9050949350505050565b60015f3373ffffffffffffffffffffffffffffffffffffffff1673ffffffffffffffffffffffffffffffffffffffff1681526020019081526020015f205f9054906101000a900460ff16610606576040517f08c379a00000000000000000000000000000000000000000000000000000000081526004016105fd90611395565b60405180910390fd5b80600380549050811061064e576040517f08c379a000000000000000000000000000000000000000000000000000000000815260040161064590611753565b60405180910390fd5b816003818154811061066357610662611771565b5b905f5260205f2090600402016003015f9054906101000a900460ff16156106bf576040517f08c379a00000000000000000000000000000000000000000000000000000000081526004016106b6906117e8565b60405180910390fd5b60045f8481526020019081526020015f205f3373ffffffffffffffffffffffffffffffffffffffff1673ffffffffffffffffffffffffffffffffffffffff1681526020019081526020015f205f9054906101000a900460ff16610757576040517f08c379a000000000000000000000000000000000000000000000000000000000815260040161074e90611850565b60405180910390fd5b5f60045f8581526020019081526020015f205f3373ffffffffffffffffffffffffffffffffffffffff1673ffffffffffffffffffffffffffffffffffffffff1681526020019081526020015f205f6101000a81548160ff021916908315150217905550823373ffffffffffffffffffffffffffffffffffffffff167fec9ab91322523c899ede7830ec9bfc992b5981cdcc27b91162fb23de5791117b60405160405180910390a3505050565b6001602052805f5260405f205f915054906101000a900460ff1681565b6003818154811061082f575f80fd5b905f5260205f2090600402015f91509050805f015f9054906101000a900473ffffffffffffffffffffffffffffffffffffffff16908060010154908060020180546108799061140d565b80601f01602080910402602001604051908101604052809291908181526020018280546108a59061140d565b80156108f05780601f106108c7576101008083540402835291602001916108f0565b820191905f5260205f20905b8154815290600101906020018083116108d357829003601f168201915b505050505090806003015f9054906101000a900460ff16905084565b6004602052815f5260405f20602052805f5260405f205f915091509054906101000a900460ff1681565b60015f3373ffffffffffffffffffffffffffffffffffffffff1673ffffffffffffffffffffffffffffffffffffffff1681526020019081526020015f205f9054906101000a900460ff166109bf576040517f08c379a00000000000000000000000000000000000000000000000000000000081526004016109b690611395565b60405180910390fd5b806003805490508110610a07576040517f08c379a00000000000000000000000000000000000000000000000000000000081526004016109fe90611753565b60405180910390fd5b8160045f8281526020019081526020015f205f3373ffffffffffffffffffffffffffffffffffffffff1673ffffffffffffffffffffffffffffffffffffffff1681526020019081526020015f205f9054906101000a900460ff1615610aa1576040517f08c379a0000000000000000000000000000000000000000000000000000000008152600401610a98906118b8565b60405180910390fd5b8260038181548110610ab657610ab5611771565b5b905f5260205f2090600402016003015f9054906101000a900460ff1615610b12576040517f08c379a0000000000000000000000000000000000000000000000000000000008152600401610b09906117e8565b60405180910390fd5b600160045f8681526020019081526020015f205f3373ffffffffffffffffffffffffffffffffffffffff1673ffffffffffffffffffffffffffffffffffffffff1681526020019081526020015f205f6101000a81548160ff021916908315150217905550833373ffffffffffffffffffffffffffffffffffffffff167f90ec57f18fa7b15c6b8d5e4d1deb90796c74b2ff23d4d0cecad0cb42a96b312860405160405180910390a350505050565b5f805f90505b5f80549050811015610c875760045f8481526020019081526020015f205f808381548110610bf757610bf6611771565b5b905f5260205f20015f9054906101000a900473ffffffffffffffffffffffffffffffffffffffff1673ffffffffffffffffffffffffffffffffffffffff1673ffffffffffffffffffffffffffffffffffffffff1681526020019081526020015f205f9054906101000a900460ff1615610c7a57600182610c7791906118d6565b91505b8080600101915050610bc6565b50919050565b60025481565b60015f3373ffffffffffffffffffffffffffffffffffffffff1673ffffffffffffffffffffffffffffffffffffffff1681526020019081526020015f205f9054906101000a900460ff16610d1c576040517f08c379a0000000000000000000000000000000000000000000000000000000008152600401610d1390611395565b60405180910390fd5b806003805490508110610d64576040517f08c379a0000000000000000000000000000000000000000000000000000000008152600401610d5b90611753565b60405180910390fd5b8160045f8281526020019081526020015f205f3373ffffffffffffffffffffffffffffffffffffffff1673ffffffffffffffffffffffffffffffffffffffff1681526020019081526020015f205f9054906101000a900460ff1615610dfe576040517f08c379a0000000000000000000000000000000000000000000000000000000008152600401610df5906118b8565b60405180910390fd5b8260038181548110610e1357610e12611771565b5b905f5260205f2090600402016003015f9054906101000a900460ff1615610e6f576040517f08c379a0000000000000000000000000000000000000000000000000000000008152600401610e66906117e8565b60405180910390fd5b600254610e7b85610bc0565b1015610ebc576040517f08c379a0000000000000000000000000000000000000000000000000000000008152600401610eb390611953565b60405180910390fd5b5f60038581548110610ed157610ed0611771565b5b905f5260205f20906004020190506001816003015f6101000a81548160ff0219169083151502179055505f815f015f9054906101000a900473ffffffffffffffffffffffffffffffffffffffff1673ffffffffffffffffffffffffffffffffffffffff16826001015483600201604051610f4b91906119fb565b5f6040518083038185875af1925050503d805f8114610f85576040519150601f19603f3d011682016040523d82523d5f602084013e610f8a565b606091505b5050905080610fce576040517f08c379a0000000000000000000000000000000000000000000000000000000008152600401610fc590611a5b565b60405180910390fd5b857fddb556f1d2c1ec821e910b019d3685b229db152a0ecd517ca7e24b8bd713928960405160405180910390a2505050505050565b5f819050919050565b61101581611003565b82525050565b5f60208201905061102e5f83018461100c565b92915050565b5f80fd5b5f80fd5b61104581611003565b811461104f575f80fd5b50565b5f813590506110608161103c565b92915050565b5f6020828403121561107b5761107a611034565b5b5f61108884828501611052565b91505092915050565b5f73ffffffffffffffffffffffffffffffffffffffff82169050919050565b5f6110ba82611091565b9050919050565b6110ca816110b0565b82525050565b5f6020820190506110e35f8301846110c1565b92915050565b6110f2816110b0565b81146110fc575f80fd5b50565b5f8135905061110d816110e9565b92915050565b5f80fd5b5f80fd5b5f80fd5b5f8083601f84011261113457611133611113565b5b8235905067ffffffffffffffff81111561115157611150611117565b5b60208301915083600182028301111561116d5761116c61111b565b5b9250929050565b5f805f806060858703121561118c5761118b611034565b5b5f611199878288016110ff565b94505060206111aa87828801611052565b935050604085013567ffffffffffffffff8111156111cb576111ca611038565b5b6111d78782880161111f565b925092505092959194509250565b5f602082840312156111fa576111f9611034565b5b5f611207848285016110ff565b91505092915050565b5f8115159050919050565b61122481611210565b82525050565b5f60208201905061123d5f83018461121b565b92915050565b5f81519050919050565b5f82825260208201905092915050565b8281835e5f83830152505050565b5f601f19601f8301169050919050565b5f61128582611243565b61128f818561124d565b935061129f81856020860161125d565b6112a88161126b565b840191505092915050565b5f6080820190506112c65f8301876110c1565b6112d3602083018661100c565b81810360408301526112e5818561127b565b90506112f4606083018461121b565b95945050505050565b5f806040838503121561131357611312611034565b5b5f61132085828601611052565b9250506020611331858286016110ff565b9150509250929050565b5f82825260208201905092915050565b7f6e6f74206f776e657200000000000000000000000000000000000000000000005f82015250565b5f61137f60098361133b565b915061138a8261134b565b602082019050919050565b5f6020820190508181035f8301526113ac81611373565b9050919050565b7f4e487b71000000000000000000000000000000000000000000000000000000005f52604160045260245ffd5b7f4e487b71000000000000000000000000000000000000000000000000000000005f52602260045260245ffd5b5f600282049050600182168061142457607f821691505b602082108103611437576114366113e0565b5b50919050565b5f819050815f5260205f209050919050565b5f6020601f8301049050919050565b5f82821b905092915050565b5f600883026114997fffffffffffffffffffffffffffffffffffffffffffffffffffffffffffffffff8261145e565b6114a3868361145e565b95508019841693508086168417925050509392505050565b5f819050919050565b5f6114de6114d96114d484611003565b6114bb565b611003565b9050919050565b5f819050919050565b6114f7836114c4565b61150b611503826114e5565b84845461146a565b825550505050565b5f90565b61151f611513565b61152a8184846114ee565b505050565b5b8181101561154d576115425f82611517565b600181019050611530565b5050565b601f821115611592576115638161143d565b61156c8461144f565b8101602085101561157b578190505b61158f6115878561144f565b83018261152f565b50505b505050565b5f82821c905092915050565b5f6115b25f1984600802611597565b1980831691505092915050565b5f6115ca83836115a3565b9150826002028217905092915050565b6115e382611243565b67ffffffffffffffff8111156115fc576115fb6113b3565b5b611606825461140d565b611611828285611551565b5f60209050601f831160018114611642575f8415611630578287015190505b61163a85826115bf565b8655506116a1565b601f1984166116508661143d565b5f5b8281101561167757848901518255600182019150602085019450602081019050611652565b868310156116945784890151611690601f8916826115a3565b8355505b6001600288020188555050505b505050505050565b7f4e487b71000000000000000000000000000000000000000000000000000000005f52601160045260245ffd5b5f6116e082611003565b91506116eb83611003565b9250828203905081811115611703576117026116a9565b5b92915050565b7f747820646f65736e2774206578697374000000000000000000000000000000005f82015250565b5f61173d60108361133b565b915061174882611709565b602082019050919050565b5f6020820190508181035f83015261176a81611731565b9050919050565b7f4e487b71000000000000000000000000000000000000000000000000000000005f52603260045260245ffd5b7f74782069732065786563757465640000000000000000000000000000000000005f82015250565b5f6117d2600e8361133b565b91506117dd8261179e565b602082019050919050565b5f6020820190508181035f8301526117ff816117c6565b9050919050565b7f7478206e6f7420617070726f76656400000000000000000000000000000000005f82015250565b5f61183a600f8361133b565b915061184582611806565b602082019050919050565b5f6020820190508181035f8301526118678161182e565b9050919050565b7f747820616c726561647920617070726f766564000000000000000000000000005f82015250565b5f6118a260138361133b565b91506118ad8261186e565b602082019050919050565b5f6020820190508181035f8301526118cf81611896565b9050919050565b5f6118e082611003565b91506118eb83611003565b9250828201905080821115611903576119026116a9565b5b92915050565b7f617070726f76616c73203c2072657175697265640000000000000000000000005f82015250565b5f61193d60148361133b565b915061194882611909565b602082019050919050565b5f6020820190508181035f83015261196a81611931565b9050919050565b5f81905092915050565b5f81546119878161140d565b6119918186611971565b9450600182165f81146119ab57600181146119c0576119f2565b60ff19831686528115158202860193506119f2565b6119c98561143d565b5f5b838110156119ea578154818901526001820191506020810190506119cb565b838801955050505b50505092915050565b5f611a06828461197b565b915081905092915050565b7f7478206661696c656400000000000000000000000000000000000000000000005f82015250565b5f611a4560098361133b565b9150611a5082611a11565b602082019050919050565b5f6020820190508181035f830152611a7281611a39565b905091905056fea26469706673582212203e384172ee826c56410bdd674e7877e43111685069486373b327a2ddfbd2a7cd64736f6c634300081a0033",
					"opcodes": "PUSH1 0x80 PUSH1 0x40 MSTORE CALLVALUE DUP1 ISZERO PUSH2 0xF JUMPI PUSH0 DUP1 REVERT JUMPDEST POP PUSH1 0x40 MLOAD PUSH2 0x2198 CODESIZE SUB DUP1 PUSH2 0x2198 DUP4 CODECOPY DUP2 DUP2 ADD PUSH1 0x40 MSTORE DUP2 ADD SWAP1 PUSH2 0x31 SWAP2 SWAP1 PUSH2 0x4A5 JUMP JUMPDEST PUSH0 DUP3 MLOAD GT PUSH2 0x74 JUMPI PUSH1 0x40 MLOAD PUSH32 0x8C379A000000000000000000000000000000000000000000000000000000000 DUP2 MSTORE PUSH1 0x4 ADD PUSH2 0x6B SWAP1 PUSH2 0x559 JUMP JUMPDEST PUSH1 0x40 MLOAD DUP1 SWAP2 SUB SWAP1 REVERT JUMPDEST PUSH0 DUP2 GT DUP1 ISZERO PUSH2 0x87 JUMPI POP PUSH0 DUP1 SLOAD SWAP1 POP DUP2 GT ISZERO JUMPDEST PUSH2 0xC6 JUMPI PUSH1 0x40 MLOAD PUSH32 0x8C379A000000000000000000000000000000000000000000000000000000000 DUP2 MSTORE PUSH1 0x4 ADD PUSH2 0xBD SWAP1 PUSH2 0x5C1 JUMP JUMPDEST PUSH1 0x40 MLOAD DUP1 SWAP2 SUB SWAP1 REVERT JUMPDEST PUSH0 JUMPDEST DUP3 MLOAD DUP2 LT ISZERO PUSH2 0x2A8 JUMPI PUSH0 DUP4 DUP3 DUP2 MLOAD DUP2 LT PUSH2 0xE5 JUMPI PUSH2 0xE4 PUSH2 0x5DF JUMP JUMPDEST JUMPDEST PUSH1 0x20 MUL PUSH1 0x20 ADD ADD MLOAD SWAP1 POP PUSH0 PUSH20 0xFFFFFFFFFFFFFFFFFFFFFFFFFFFFFFFFFFFFFFFF AND DUP2 PUSH20 0xFFFFFFFFFFFFFFFFFFFFFFFFFFFFFFFFFFFFFFFF AND SUB PUSH2 0x15D JUMPI PUSH1 0x40 MLOAD PUSH32 0x8C379A000000000000000000000000000000000000000000000000000000000 DUP2 MSTORE PUSH1 0x4 ADD PUSH2 0x154 SWAP1 PUSH2 0x656 JUMP JUMPDEST PUSH1 0x40 MLOAD DUP1 SWAP2 SUB SWAP1 REVERT JUMPDEST PUSH1 0x1 PUSH0 DUP3 PUSH20 0xFFFFFFFFFFFFFFFFFFFFFFFFFFFFFFFFFFFFFFFF AND PUSH20 0xFFFFFFFFFFFFFFFFFFFFFFFFFFFFFFFFFFFFFFFF AND DUP2 MSTORE PUSH1 0x20 ADD SWAP1 DUP2 MSTORE PUSH1 0x20 ADD PUSH0 KECCAK256 PUSH0 SWAP1 SLOAD SWAP1 PUSH2 0x100 EXP SWAP1 DIV PUSH1 0xFF AND ISZERO PUSH2 0x1E7 JUMPI PUSH1 0x40 MLOAD PUSH32 0x8C379A000000000000000000000000000000000000000000000000000000000 DUP2 MSTORE PUSH1 0x4 ADD PUSH2 0x1DE SWAP1 PUSH2 0x6BE JUMP JUMPDEST PUSH1 0x40 MLOAD DUP1 SWAP2 SUB SWAP1 REVERT JUMPDEST PUSH1 0x1 DUP1 PUSH0 DUP4 PUSH20 0xFFFFFFFFFFFFFFFFFFFFFFFFFFFFFFFFFFFFFFFF AND PUSH20 0xFFFFFFFFFFFFFFFFFFFFFFFFFFFFFFFFFFFFFFFF AND DUP2 MSTORE PUSH1 0x20 ADD SWAP1 DUP2 MSTORE PUSH1 0x20 ADD PUSH0 KECCAK256 PUSH0 PUSH2 0x100 EXP DUP2 SLOAD DUP2 PUSH1 0xFF MUL NOT AND SWAP1 DUP4 ISZERO ISZERO MUL OR SWAP1 SSTORE POP PUSH0 DUP2 SWAP1 DUP1 PUSH1 0x1 DUP2 SLOAD ADD DUP1 DUP3 SSTORE DUP1 SWAP2 POP POP PUSH1 0x1 SWAP1 SUB SWAP1 PUSH0 MSTORE PUSH1 0x20 PUSH0 KECCAK256 ADD PUSH0 SWAP1 SWAP2 SWAP1 SWAP2 SWAP1 SWAP2 PUSH2 0x100 EXP DUP2 SLOAD DUP2 PUSH20 0xFFFFFFFFFFFFFFFFFFFFFFFFFFFFFFFFFFFFFFFF MUL NOT AND SWAP1 DUP4 PUSH20 0xFFFFFFFFFFFFFFFFFFFFFFFFFFFFFFFFFFFFFFFF AND MUL OR SWAP1 SSTORE POP POP DUP1 DUP1 PUSH1 0x1 ADD SWAP2 POP POP PUSH2 0xC8 JUMP JUMPDEST POP DUP1 PUSH1 0x2 DUP2 SWAP1 SSTORE POP POP POP PUSH2 0x6DC JUMP JUMPDEST PUSH0 PUSH1 0x40 MLOAD SWAP1 POP SWAP1 JUMP JUMPDEST PUSH0 DUP1 REVERT JUMPDEST PUSH0 DUP1 REVERT JUMPDEST PUSH0 DUP1 REVERT JUMPDEST PUSH0 PUSH1 0x1F NOT PUSH1 0x1F DUP4 ADD AND SWAP1 POP SWAP2 SWAP1 POP JUMP JUMPDEST PUSH32 0x4E487B7100000000000000000000000000000000000000000000000000000000 PUSH0 MSTORE PUSH1 0x41 PUSH1 0x4 MSTORE PUSH1 0x24 PUSH0 REVERT JUMPDEST PUSH2 0x312 DUP3 PUSH2 0x2CC JUMP JUMPDEST DUP2 ADD DUP2 DUP2 LT PUSH8 0xFFFFFFFFFFFFFFFF DUP3 GT OR ISZERO PUSH2 0x331 JUMPI PUSH2 0x330 PUSH2 0x2DC JUMP JUMPDEST JUMPDEST DUP1 PUSH1 0x40 MSTORE POP POP POP JUMP JUMPDEST PUSH0 PUSH2 0x343 PUSH2 0x2B7 JUMP JUMPDEST SWAP1 POP PUSH2 0x34F DUP3 DUP3 PUSH2 0x309 JUMP JUMPDEST SWAP2 SWAP1 POP JUMP JUMPDEST PUSH0 PUSH8 0xFFFFFFFFFFFFFFFF DUP3 GT ISZERO PUSH2 0x36E JUMPI PUSH2 0x36D PUSH2 0x2DC JUMP JUMPDEST JUMPDEST PUSH1 0x20 DUP3 MUL SWAP1 POP PUSH1 0x20 DUP2 ADD SWAP1 POP SWAP2 SWAP1 POP JUMP JUMPDEST PUSH0 DUP1 REVERT JUMPDEST PUSH0 PUSH20 0xFFFFFFFFFFFFFFFFFFFFFFFFFFFFFFFFFFFFFFFF DUP3 AND SWAP1 POP SWAP2 SWAP1 POP JUMP JUMPDEST PUSH0 PUSH2 0x3AC DUP3 PUSH2 0x383 JUMP JUMPDEST SWAP1 POP SWAP2 SWAP1 POP JUMP JUMPDEST PUSH2 0x3BC DUP2 PUSH2 0x3A2 JUMP JUMPDEST DUP2 EQ PUSH2 0x3C6 JUMPI PUSH0 DUP1 REVERT JUMPDEST POP JUMP JUMPDEST PUSH0 DUP2 MLOAD SWAP1 POP PUSH2 0x3D7 DUP2 PUSH2 0x3B3 JUMP JUMPDEST SWAP3 SWAP2 POP POP JUMP JUMPDEST PUSH0 PUSH2 0x3EF PUSH2 0x3EA DUP5 PUSH2 0x354 JUMP JUMPDEST PUSH2 0x33A JUMP JUMPDEST SWAP1 POP DUP1 DUP4 DUP3 MSTORE PUSH1 0x20 DUP3 ADD SWAP1 POP PUSH1 0x20 DUP5 MUL DUP4 ADD DUP6 DUP2 GT ISZERO PUSH2 0x412 JUMPI PUSH2 0x411 PUSH2 0x37F JUMP JUMPDEST JUMPDEST DUP4 JUMPDEST DUP2 DUP2 LT ISZERO PUSH2 0x43B JUMPI DUP1 PUSH2 0x427 DUP9 DUP3 PUSH2 0x3C9 JUMP JUMPDEST DUP5 MSTORE PUSH1 0x20 DUP5 ADD SWAP4 POP POP PUSH1 0x20 DUP2 ADD SWAP1 POP PUSH2 0x414 JUMP JUMPDEST POP POP POP SWAP4 SWAP3 POP POP POP JUMP JUMPDEST PUSH0 DUP3 PUSH1 0x1F DUP4 ADD SLT PUSH2 0x459 JUMPI PUSH2 0x458 PUSH2 0x2C8 JUMP JUMPDEST JUMPDEST DUP2 MLOAD PUSH2 0x469 DUP5 DUP3 PUSH1 0x20 DUP7 ADD PUSH2 0x3DD JUMP JUMPDEST SWAP2 POP POP SWAP3 SWAP2 POP POP JUMP JUMPDEST PUSH0 DUP2 SWAP1 POP SWAP2 SWAP1 POP JUMP JUMPDEST PUSH2 0x484 DUP2 PUSH2 0x472 JUMP JUMPDEST DUP2 EQ PUSH2 0x48E JUMPI PUSH0 DUP1 REVERT JUMPDEST POP JUMP JUMPDEST PUSH0 DUP2 MLOAD SWAP1 POP PUSH2 0x49F DUP2 PUSH2 0x47B JUMP JUMPDEST SWAP3 SWAP2 POP POP JUMP JUMPDEST PUSH0 DUP1 PUSH1 0x40 DUP4 DUP6 SUB SLT ISZERO PUSH2 0x4BB JUMPI PUSH2 0x4BA PUSH2 0x2C0 JUMP JUMPDEST JUMPDEST PUSH0 DUP4 ADD MLOAD PUSH8 0xFFFFFFFFFFFFFFFF DUP2 GT ISZERO PUSH2 0x4D8 JUMPI PUSH2 0x4D7 PUSH2 0x2C4 JUMP JUMPDEST JUMPDEST PUSH2 0x4E4 DUP6 DUP3 DUP7 ADD PUSH2 0x445 JUMP JUMPDEST SWAP3 POP POP PUSH1 0x20 PUSH2 0x4F5 DUP6 DUP3 DUP7 ADD PUSH2 0x491 JUMP JUMPDEST SWAP2 POP POP SWAP3 POP SWAP3 SWAP1 POP JUMP JUMPDEST PUSH0 DUP3 DUP3 MSTORE PUSH1 0x20 DUP3 ADD SWAP1 POP SWAP3 SWAP2 POP POP JUMP JUMPDEST PUSH32 0x6F776E6572206973207265717569726564000000000000000000000000000000 PUSH0 DUP3 ADD MSTORE POP JUMP JUMPDEST PUSH0 PUSH2 0x543 PUSH1 0x11 DUP4 PUSH2 0x4FF JUMP JUMPDEST SWAP2 POP PUSH2 0x54E DUP3 PUSH2 0x50F JUMP JUMPDEST PUSH1 0x20 DUP3 ADD SWAP1 POP SWAP2 SWAP1 POP JUMP JUMPDEST PUSH0 PUSH1 0x20 DUP3 ADD SWAP1 POP DUP2 DUP2 SUB PUSH0 DUP4 ADD MSTORE PUSH2 0x570 DUP2 PUSH2 0x537 JUMP JUMPDEST SWAP1 POP SWAP2 SWAP1 POP JUMP JUMPDEST PUSH32 0x696E76616C6964207265717569726564206E756D626572206F66206F776E6572 PUSH0 DUP3 ADD MSTORE POP JUMP JUMPDEST PUSH0 PUSH2 0x5AB PUSH1 0x20 DUP4 PUSH2 0x4FF JUMP JUMPDEST SWAP2 POP PUSH2 0x5B6 DUP3 PUSH2 0x577 JUMP JUMPDEST PUSH1 0x20 DUP3 ADD SWAP1 POP SWAP2 SWAP1 POP JUMP JUMPDEST PUSH0 PUSH1 0x20 DUP3 ADD SWAP1 POP DUP2 DUP2 SUB PUSH0 DUP4 ADD MSTORE PUSH2 0x5D8 DUP2 PUSH2 0x59F JUMP JUMPDEST SWAP1 POP SWAP2 SWAP1 POP JUMP JUMPDEST PUSH32 0x4E487B7100000000000000000000000000000000000000000000000000000000 PUSH0 MSTORE PUSH1 0x32 PUSH1 0x4 MSTORE PUSH1 0x24 PUSH0 REVERT JUMPDEST PUSH32 0x696E76616C6964206F776E657200000000000000000000000000000000000000 PUSH0 DUP3 ADD MSTORE POP JUMP JUMPDEST PUSH0 PUSH2 0x640 PUSH1 0xD DUP4 PUSH2 0x4FF JUMP JUMPDEST SWAP2 POP PUSH2 0x64B DUP3 PUSH2 0x60C JUMP JUMPDEST PUSH1 0x20 DUP3 ADD SWAP1 POP SWAP2 SWAP1 POP JUMP JUMPDEST PUSH0 PUSH1 0x20 DUP3 ADD SWAP1 POP DUP2 DUP2 SUB PUSH0 DUP4 ADD MSTORE PUSH2 0x66D DUP2 PUSH2 0x634 JUMP JUMPDEST SWAP1 POP SWAP2 SWAP1 POP JUMP JUMPDEST PUSH32 0x6F776E6572206973206E6F7420756E6971756500000000000000000000000000 PUSH0 DUP3 ADD MSTORE POP JUMP JUMPDEST PUSH0 PUSH2 0x6A8 PUSH1 0x13 DUP4 PUSH2 0x4FF JUMP JUMPDEST SWAP2 POP PUSH2 0x6B3 DUP3 PUSH2 0x674 JUMP JUMPDEST PUSH1 0x20 DUP3 ADD SWAP1 POP SWAP2 SWAP1 POP JUMP JUMPDEST PUSH0 PUSH1 0x20 DUP3 ADD SWAP1 POP DUP2 DUP2 SUB PUSH0 DUP4 ADD MSTORE PUSH2 0x6D5 DUP2 PUSH2 0x69C JUMP JUMPDEST SWAP1 POP SWAP2 SWAP1 POP JUMP JUMPDEST PUSH2 0x1AAF DUP1 PUSH2 0x6E9 PUSH0 CODECOPY PUSH0 RETURN INVALID PUSH1 0x80 PUSH1 0x40 MSTORE PUSH1 0x4 CALLDATASIZE LT PUSH2 0x9F JUMPI PUSH0 CALLDATALOAD PUSH1 0xE0 SHR DUP1 PUSH4 0x6231A8CE GT PUSH2 0x63 JUMPI DUP1 PUSH4 0x6231A8CE EQ PUSH2 0x1FE JUMPI DUP1 PUSH4 0x8253951A EQ PUSH2 0x23D JUMPI DUP1 PUSH4 0xB759F954 EQ PUSH2 0x279 JUMPI DUP1 PUSH4 0xBA7E7CAB EQ PUSH2 0x2A1 JUMPI DUP1 PUSH4 0xD5D0F21E EQ PUSH2 0x2DD JUMPI DUP1 PUSH4 0xFE0D94C1 EQ PUSH2 0x307 JUMPI PUSH2 0xF4 JUMP JUMPDEST DUP1 PUSH4 0x25E7C27 EQ PUSH2 0xF8 JUMPI DUP1 PUSH4 0x12065FE0 EQ PUSH2 0x134 JUMPI DUP1 PUSH4 0x14DE327F EQ PUSH2 0x15E JUMPI DUP1 PUSH4 0x20C5429B EQ PUSH2 0x19A JUMPI DUP1 PUSH4 0x2F54BF6E EQ PUSH2 0x1C2 JUMPI PUSH2 0xF4 JUMP JUMPDEST CALLDATASIZE PUSH2 0xF4 JUMPI CALLER PUSH20 0xFFFFFFFFFFFFFFFFFFFFFFFFFFFFFFFFFFFFFFFF AND PUSH32 0xE1FFFCC4923D04B559F4D29A8BFC6CDA04EB5B0D3C460751C2402C5C5CC9109C CALLVALUE PUSH1 0x40 MLOAD PUSH2 0xEA SWAP2 SWAP1 PUSH2 0x101B JUMP JUMPDEST PUSH1 0x40 MLOAD DUP1 SWAP2 SUB SWAP1 LOG2 STOP JUMPDEST PUSH0 DUP1 REVERT JUMPDEST CALLVALUE DUP1 ISZERO PUSH2 0x103 JUMPI PUSH0 DUP1 REVERT JUMPDEST POP PUSH2 0x11E PUSH1 0x4 DUP1 CALLDATASIZE SUB DUP2 ADD SWAP1 PUSH2 0x119 SWAP2 SWAP1 PUSH2 0x1066 JUMP JUMPDEST PUSH2 0x32F JUMP JUMPDEST PUSH1 0x40 MLOAD PUSH2 0x12B SWAP2 SWAP1 PUSH2 0x10D0 JUMP JUMPDEST PUSH1 0x40 MLOAD DUP1 SWAP2 SUB SWAP1 RETURN JUMPDEST CALLVALUE DUP1 ISZERO PUSH2 0x13F JUMPI PUSH0 DUP1 REVERT JUMPDEST POP PUSH2 0x148 PUSH2 0x369 JUMP JUMPDEST PUSH1 0x40 MLOAD PUSH2 0x155 SWAP2 SWAP1 PUSH2 0x101B JUMP JUMPDEST PUSH1 0x40 MLOAD DUP1 SWAP2 SUB SWAP1 RETURN JUMPDEST CALLVALUE DUP1 ISZERO PUSH2 0x169 JUMPI PUSH0 DUP1 REVERT JUMPDEST POP PUSH2 0x184 PUSH1 0x4 DUP1 CALLDATASIZE SUB DUP2 ADD SWAP1 PUSH2 0x17F SWAP2 SWAP1 PUSH2 0x1174 JUMP JUMPDEST PUSH2 0x370 JUMP JUMPDEST PUSH1 0x40 MLOAD PUSH2 0x191 SWAP2 SWAP1 PUSH2 0x101B JUMP JUMPDEST PUSH1 0x40 MLOAD DUP1 SWAP2 SUB SWAP1 RETURN JUMPDEST CALLVALUE DUP1 ISZERO PUSH2 0x1A5 JUMPI PUSH0 DUP1 REVERT JUMPDEST POP PUSH2 0x1C0 PUSH1 0x4 DUP1 CALLDATASIZE SUB DUP2 ADD SWAP1 PUSH2 0x1BB SWAP2 SWAP1 PUSH2 0x1066 JUMP JUMPDEST PUSH2 0x57D JUMP JUMPDEST STOP JUMPDEST CALLVALUE DUP1 ISZERO PUSH2 0x1CD JUMPI PUSH0 DUP1 REVERT JUMPDEST POP PUSH2 0x1E8 PUSH1 0x4 DUP1 CALLDATASIZE SUB DUP2 ADD SWAP1 PUSH2 0x1E3 SWAP2 SWAP1 PUSH2 0x11E5 JUMP JUMPDEST PUSH2 0x803 JUMP JUMPDEST PUSH1 0x40 MLOAD PUSH2 0x1F5 SWAP2 SWAP1 PUSH2 0x122A JUMP JUMPDEST PUSH1 0x40 MLOAD DUP1 SWAP2 SUB SWAP1 RETURN JUMPDEST CALLVALUE DUP1 ISZERO PUSH2 0x209 JUMPI PUSH0 DUP1 REVERT JUMPDEST POP PUSH2 0x224 PUSH1 0x4 DUP1 CALLDATASIZE SUB DUP2 ADD SWAP1 PUSH2 0x21F SWAP2 SWAP1 PUSH2 0x1066 JUMP JUMPDEST PUSH2 0x820 JUMP JUMPDEST PUSH1 0x40 MLOAD PUSH2 0x234 SWAP5 SWAP4 SWAP3 SWAP2 SWAP1 PUSH2 0x12B3 JUMP JUMPDEST PUSH1 0x40 MLOAD DUP1 SWAP2 SUB SWAP1 RETURN JUMPDEST CALLVALUE DUP1 ISZERO PUSH2 0x248 JUMPI PUSH0 DUP1 REVERT JUMPDEST POP PUSH2 0x263 PUSH1 0x4 DUP1 CALLDATASIZE SUB DUP2 ADD SWAP1 PUSH2 0x25E SWAP2 SWAP1 PUSH2 0x12FD JUMP JUMPDEST PUSH2 0x90C JUMP JUMPDEST PUSH1 0x40 MLOAD PUSH2 0x270 SWAP2 SWAP1 PUSH2 0x122A JUMP JUMPDEST PUSH1 0x40 MLOAD DUP1 SWAP2 SUB SWAP1 RETURN JUMPDEST CALLVALUE DUP1 ISZERO PUSH2 0x284 JUMPI PUSH0 DUP1 REVERT JUMPDEST POP PUSH2 0x29F PUSH1 0x4 DUP1 CALLDATASIZE SUB DUP2 ADD SWAP1 PUSH2 0x29A SWAP2 SWAP1 PUSH2 0x1066 JUMP JUMPDEST PUSH2 0x936 JUMP JUMPDEST STOP JUMPDEST CALLVALUE DUP1 ISZERO PUSH2 0x2AC JUMPI PUSH0 DUP1 REVERT JUMPDEST POP PUSH2 0x2C7 PUSH1 0x4 DUP1 CALLDATASIZE SUB DUP2 ADD SWAP1 PUSH2 0x2C2 SWAP2 SWAP1 PUSH2 0x1066 JUMP JUMPDEST PUSH2 0xBC0 JUMP JUMPDEST PUSH1 0x40 MLOAD PUSH2 0x2D4 SWAP2 SWAP1 PUSH2 0x101B JUMP JUMPDEST PUSH1 0x40 MLOAD DUP1 SWAP2 SUB SWAP1 RETURN JUMPDEST CALLVALUE DUP1 ISZERO PUSH2 0x2E8 JUMPI PUSH0 DUP1 REVERT JUMPDEST POP PUSH2 0x2F1 PUSH2 0xC8D JUMP JUMPDEST PUSH1 0x40 MLOAD PUSH2 0x2FE SWAP2 SWAP1 PUSH2 0x101B JUMP JUMPDEST PUSH1 0x40 MLOAD DUP1 SWAP2 SUB SWAP1 RETURN JUMPDEST CALLVALUE DUP1 ISZERO PUSH2 0x312 JUMPI PUSH0 DUP1 REVERT JUMPDEST POP PUSH2 0x32D PUSH1 0x4 DUP1 CALLDATASIZE SUB DUP2 ADD SWAP1 PUSH2 0x328 SWAP2 SWAP1 PUSH2 0x1066 JUMP JUMPDEST PUSH2 0xC93 JUMP JUMPDEST STOP JUMPDEST PUSH0 DUP2 DUP2 SLOAD DUP2 LT PUSH2 0x33D JUMPI PUSH0 DUP1 REVERT JUMPDEST SWAP1 PUSH0 MSTORE PUSH1 0x20 PUSH0 KECCAK256 ADD PUSH0 SWAP2 POP SLOAD SWAP1 PUSH2 0x100 EXP SWAP1 DIV PUSH20 0xFFFFFFFFFFFFFFFFFFFFFFFFFFFFFFFFFFFFFFFF AND DUP2 JUMP JUMPDEST PUSH0 SELFBALANCE SWAP1 POP SWAP1 JUMP JUMPDEST PUSH0 PUSH1 0x1 PUSH0 CALLER PUSH20 0xFFFFFFFFFFFFFFFFFFFFFFFFFFFFFFFFFFFFFFFF AND PUSH20 0xFFFFFFFFFFFFFFFFFFFFFFFFFFFFFFFFFFFFFFFF AND DUP2 MSTORE PUSH1 0x20 ADD SWAP1 DUP2 MSTORE PUSH1 0x20 ADD PUSH0 KECCAK256 PUSH0 SWAP1 SLOAD SWAP1 PUSH2 0x100 EXP SWAP1 DIV PUSH1 0xFF AND PUSH2 0x3FA JUMPI PUSH1 0x40 MLOAD PUSH32 0x8C379A000000000000000000000000000000000000000000000000000000000 DUP2 MSTORE PUSH1 0x4 ADD PUSH2 0x3F1 SWAP1 PUSH2 0x1395 JUMP JUMPDEST PUSH1 0x40 MLOAD DUP1 SWAP2 SUB SWAP1 REVERT JUMPDEST PUSH1 0x3 PUSH1 0x40 MLOAD DUP1 PUSH1 0x80 ADD PUSH1 0x40 MSTORE DUP1 DUP8 PUSH20 0xFFFFFFFFFFFFFFFFFFFFFFFFFFFFFFFFFFFFFFFF AND DUP2 MSTORE PUSH1 0x20 ADD DUP7 DUP2 MSTORE PUSH1 0x20 ADD DUP6 DUP6 DUP1 DUP1 PUSH1 0x1F ADD PUSH1 0x20 DUP1 SWAP2 DIV MUL PUSH1 0x20 ADD PUSH1 0x40 MLOAD SWAP1 DUP2 ADD PUSH1 0x40 MSTORE DUP1 SWAP4 SWAP3 SWAP2 SWAP1 DUP2 DUP2 MSTORE PUSH1 0x20 ADD DUP4 DUP4 DUP1 DUP3 DUP5 CALLDATACOPY PUSH0 DUP2 DUP5 ADD MSTORE PUSH1 0x1F NOT PUSH1 0x1F DUP3 ADD AND SWAP1 POP DUP1 DUP4 ADD SWAP3 POP POP POP POP POP POP POP DUP2 MSTORE PUSH1 0x20 ADD PUSH0 ISZERO ISZERO DUP2 MSTORE POP SWAP1 DUP1 PUSH1 0x1 DUP2 SLOAD ADD DUP1 DUP3 SSTORE DUP1 SWAP2 POP POP PUSH1 0x1 SWAP1 SUB SWAP1 PUSH0 MSTORE PUSH1 0x20 PUSH0 KECCAK256 SWAP1 PUSH1 0x4 MUL ADD PUSH0 SWAP1 SWAP2 SWAP1 SWAP2 SWAP1 SWAP2 POP PUSH0 DUP3 ADD MLOAD DUP2 PUSH0 ADD PUSH0 PUSH2 0x100 EXP DUP2 SLOAD DUP2 PUSH20 0xFFFFFFFFFFFFFFFFFFFFFFFFFFFFFFFFFFFFFFFF MUL NOT AND SWAP1 DUP4 PUSH20 0xFFFFFFFFFFFFFFFFFFFFFFFFFFFFFFFFFFFFFFFF AND MUL OR SWAP1 SSTORE POP PUSH1 0x20 DUP3 ADD MLOAD DUP2 PUSH1 0x1 ADD SSTORE PUSH1 0x40 DUP3 ADD MLOAD DUP2 PUSH1 0x2 ADD SWAP1 DUP2 PUSH2 0x501 SWAP2 SWAP1 PUSH2 0x15DA JUMP JUMPDEST POP PUSH1 0x60 DUP3 ADD MLOAD DUP2 PUSH1 0x3 ADD PUSH0 PUSH2 0x100 EXP DUP2 SLOAD DUP2 PUSH1 0xFF MUL NOT AND SWAP1 DUP4 ISZERO ISZERO MUL OR SWAP1 SSTORE POP POP POP PUSH1 0x1 PUSH1 0x3 DUP1 SLOAD SWAP1 POP PUSH2 0x535 SWAP2 SWAP1 PUSH2 0x16D6 JUMP JUMPDEST PUSH32 0x8324B3D745B914E3ABD4FFBFEAD91E3B78391A98C173202129215AB933ADFBE PUSH1 0x40 MLOAD PUSH1 0x40 MLOAD DUP1 SWAP2 SUB SWAP1 LOG2 PUSH1 0x1 PUSH1 0x3 DUP1 SLOAD SWAP1 POP PUSH2 0x573 SWAP2 SWAP1 PUSH2 0x16D6 JUMP JUMPDEST SWAP1 POP SWAP5 SWAP4 POP POP POP POP JUMP JUMPDEST PUSH1 0x1 PUSH0 CALLER PUSH20 0xFFFFFFFFFFFFFFFFFFFFFFFFFFFFFFFFFFFFFFFF AND PUSH20 0xFFFFFFFFFFFFFFFFFFFFFFFFFFFFFFFFFFFFFFFF AND DUP2 MSTORE PUSH1 0x20 ADD SWAP1 DUP2 MSTORE PUSH1 0x20 ADD PUSH0 KECCAK256 PUSH0 SWAP1 SLOAD SWAP1 PUSH2 0x100 EXP SWAP1 DIV PUSH1 0xFF AND PUSH2 0x606 JUMPI PUSH1 0x40 MLOAD PUSH32 0x8C379A000000000000000000000000000000000000000000000000000000000 DUP2 MSTORE PUSH1 0x4 ADD PUSH2 0x5FD SWAP1 PUSH2 0x1395 JUMP JUMPDEST PUSH1 0x40 MLOAD DUP1 SWAP2 SUB SWAP1 REVERT JUMPDEST DUP1 PUSH1 0x3 DUP1 SLOAD SWAP1 POP DUP2 LT PUSH2 0x64E JUMPI PUSH1 0x40 MLOAD PUSH32 0x8C379A000000000000000000000000000000000000000000000000000000000 DUP2 MSTORE PUSH1 0x4 ADD PUSH2 0x645 SWAP1 PUSH2 0x1753 JUMP JUMPDEST PUSH1 0x40 MLOAD DUP1 SWAP2 SUB SWAP1 REVERT JUMPDEST DUP2 PUSH1 0x3 DUP2 DUP2 SLOAD DUP2 LT PUSH2 0x663 JUMPI PUSH2 0x662 PUSH2 0x1771 JUMP JUMPDEST JUMPDEST SWAP1 PUSH0 MSTORE PUSH1 0x20 PUSH0 KECCAK256 SWAP1 PUSH1 0x4 MUL ADD PUSH1 0x3 ADD PUSH0 SWAP1 SLOAD SWAP1 PUSH2 0x100 EXP SWAP1 DIV PUSH1 0xFF AND ISZERO PUSH2 0x6BF JUMPI PUSH1 0x40 MLOAD PUSH32 0x8C379A000000000000000000000000000000000000000000000000000000000 DUP2 MSTORE PUSH1 0x4 ADD PUSH2 0x6B6 SWAP1 PUSH2 0x17E8 JUMP JUMPDEST PUSH1 0x40 MLOAD DUP1 SWAP2 SUB SWAP1 REVERT JUMPDEST PUSH1 0x4 PUSH0 DUP5 DUP2 MSTORE PUSH1 0x20 ADD SWAP1 DUP2 MSTORE PUSH1 0x20 ADD PUSH0 KECCAK256 PUSH0 CALLER PUSH20 0xFFFFFFFFFFFFFFFFFFFFFFFFFFFFFFFFFFFFFFFF AND PUSH20 0xFFFFFFFFFFFFFFFFFFFFFFFFFFFFFFFFFFFFFFFF AND DUP2 MSTORE PUSH1 0x20 ADD SWAP1 DUP2 MSTORE PUSH1 0x20 ADD PUSH0 KECCAK256 PUSH0 SWAP1 SLOAD SWAP1 PUSH2 0x100 EXP SWAP1 DIV PUSH1 0xFF AND PUSH2 0x757 JUMPI PUSH1 0x40 MLOAD PUSH32 0x8C379A000000000000000000000000000000000000000000000000000000000 DUP2 MSTORE PUSH1 0x4 ADD PUSH2 0x74E SWAP1 PUSH2 0x1850 JUMP JUMPDEST PUSH1 0x40 MLOAD DUP1 SWAP2 SUB SWAP1 REVERT JUMPDEST PUSH0 PUSH1 0x4 PUSH0 DUP6 DUP2 MSTORE PUSH1 0x20 ADD SWAP1 DUP2 MSTORE PUSH1 0x20 ADD PUSH0 KECCAK256 PUSH0 CALLER PUSH20 0xFFFFFFFFFFFFFFFFFFFFFFFFFFFFFFFFFFFFFFFF AND PUSH20 0xFFFFFFFFFFFFFFFFFFFFFFFFFFFFFFFFFFFFFFFF AND DUP2 MSTORE PUSH1 0x20 ADD SWAP1 DUP2 MSTORE PUSH1 0x20 ADD PUSH0 KECCAK256 PUSH0 PUSH2 0x100 EXP DUP2 SLOAD DUP2 PUSH1 0xFF MUL NOT AND SWAP1 DUP4 ISZERO ISZERO MUL OR SWAP1 SSTORE POP DUP3 CALLER PUSH20 0xFFFFFFFFFFFFFFFFFFFFFFFFFFFFFFFFFFFFFFFF AND PUSH32 0xEC9AB91322523C899EDE7830EC9BFC992B5981CDCC27B91162FB23DE5791117B PUSH1 0x40 MLOAD PUSH1 0x40 MLOAD DUP1 SWAP2 SUB SWAP1 LOG3 POP POP POP JUMP JUMPDEST PUSH1 0x1 PUSH1 0x20 MSTORE DUP1 PUSH0 MSTORE PUSH1 0x40 PUSH0 KECCAK256 PUSH0 SWAP2 POP SLOAD SWAP1 PUSH2 0x100 EXP SWAP1 DIV PUSH1 0xFF AND DUP2 JUMP JUMPDEST PUSH1 0x3 DUP2 DUP2 SLOAD DUP2 LT PUSH2 0x82F JUMPI PUSH0 DUP1 REVERT JUMPDEST SWAP1 PUSH0 MSTORE PUSH1 0x20 PUSH0 KECCAK256 SWAP1 PUSH1 0x4 MUL ADD PUSH0 SWAP2 POP SWAP1 POP DUP1 PUSH0 ADD PUSH0 SWAP1 SLOAD SWAP1 PUSH2 0x100 EXP SWAP1 DIV PUSH20 0xFFFFFFFFFFFFFFFFFFFFFFFFFFFFFFFFFFFFFFFF AND SWAP1 DUP1 PUSH1 0x1 ADD SLOAD SWAP1 DUP1 PUSH1 0x2 ADD DUP1 SLOAD PUSH2 0x879 SWAP1 PUSH2 0x140D JUMP JUMPDEST DUP1 PUSH1 0x1F ADD PUSH1 0x20 DUP1 SWAP2 DIV MUL PUSH1 0x20 ADD PUSH1 0x40 MLOAD SWAP1 DUP2 ADD PUSH1 0x40 MSTORE DUP1 SWAP3 SWAP2 SWAP1 DUP2 DUP2 MSTORE PUSH1 0x20 ADD DUP3 DUP1 SLOAD PUSH2 0x8A5 SWAP1 PUSH2 0x140D JUMP JUMPDEST DUP1 ISZERO PUSH2 0x8F0 JUMPI DUP1 PUSH1 0x1F LT PUSH2 0x8C7 JUMPI PUSH2 0x100 DUP1 DUP4 SLOAD DIV MUL DUP4 MSTORE SWAP2 PUSH1 0x20 ADD SWAP2 PUSH2 0x8F0 JUMP JUMPDEST DUP3 ADD SWAP2 SWAP1 PUSH0 MSTORE PUSH1 0x20 PUSH0 KECCAK256 SWAP1 JUMPDEST DUP2 SLOAD DUP2 MSTORE SWAP1 PUSH1 0x1 ADD SWAP1 PUSH1 0x20 ADD DUP1 DUP4 GT PUSH2 0x8D3 JUMPI DUP3 SWAP1 SUB PUSH1 0x1F AND DUP3 ADD SWAP2 JUMPDEST POP POP POP POP POP SWAP1 DUP1 PUSH1 0x3 ADD PUSH0 SWAP1 SLOAD SWAP1 PUSH2 0x100 EXP SWAP1 DIV PUSH1 0xFF AND SWAP1 POP DUP5 JUMP JUMPDEST PUSH1 0x4 PUSH1 0x20 MSTORE DUP2 PUSH0 MSTORE PUSH1 0x40 PUSH0 KECCAK256 PUSH1 0x20 MSTORE DUP1 PUSH0 MSTORE PUSH1 0x40 PUSH0 KECCAK256 PUSH0 SWAP2 POP SWAP2 POP SWAP1 SLOAD SWAP1 PUSH2 0x100 EXP SWAP1 DIV PUSH1 0xFF AND DUP2 JUMP JUMPDEST PUSH1 0x1 PUSH0 CALLER PUSH20 0xFFFFFFFFFFFFFFFFFFFFFFFFFFFFFFFFFFFFFFFF AND PUSH20 0xFFFFFFFFFFFFFFFFFFFFFFFFFFFFFFFFFFFFFFFF AND DUP2 MSTORE PUSH1 0x20 ADD SWAP1 DUP2 MSTORE PUSH1 0x20 ADD PUSH0 KECCAK256 PUSH0 SWAP1 SLOAD SWAP1 PUSH2 0x100 EXP SWAP1 DIV PUSH1 0xFF AND PUSH2 0x9BF JUMPI PUSH1 0x40 MLOAD PUSH32 0x8C379A000000000000000000000000000000000000000000000000000000000 DUP2 MSTORE PUSH1 0x4 ADD PUSH2 0x9B6 SWAP1 PUSH2 0x1395 JUMP JUMPDEST PUSH1 0x40 MLOAD DUP1 SWAP2 SUB SWAP1 REVERT JUMPDEST DUP1 PUSH1 0x3 DUP1 SLOAD SWAP1 POP DUP2 LT PUSH2 0xA07 JUMPI PUSH1 0x40 MLOAD PUSH32 0x8C379A000000000000000000000000000000000000000000000000000000000 DUP2 MSTORE PUSH1 0x4 ADD PUSH2 0x9FE SWAP1 PUSH2 0x1753 JUMP JUMPDEST PUSH1 0x40 MLOAD DUP1 SWAP2 SUB SWAP1 REVERT JUMPDEST DUP2 PUSH1 0x4 PUSH0 DUP3 DUP2 MSTORE PUSH1 0x20 ADD SWAP1 DUP2 MSTORE PUSH1 0x20 ADD PUSH0 KECCAK256 PUSH0 CALLER PUSH20 0xFFFFFFFFFFFFFFFFFFFFFFFFFFFFFFFFFFFFFFFF AND PUSH20 0xFFFFFFFFFFFFFFFFFFFFFFFFFFFFFFFFFFFFFFFF AND DUP2 MSTORE PUSH1 0x20 ADD SWAP1 DUP2 MSTORE PUSH1 0x20 ADD PUSH0 KECCAK256 PUSH0 SWAP1 SLOAD SWAP1 PUSH2 0x100 EXP SWAP1 DIV PUSH1 0xFF AND ISZERO PUSH2 0xAA1 JUMPI PUSH1 0x40 MLOAD PUSH32 0x8C379A000000000000000000000000000000000000000000000000000000000 DUP2 MSTORE PUSH1 0x4 ADD PUSH2 0xA98 SWAP1 PUSH2 0x18B8 JUMP JUMPDEST PUSH1 0x40 MLOAD DUP1 SWAP2 SUB SWAP1 REVERT JUMPDEST DUP3 PUSH1 0x3 DUP2 DUP2 SLOAD DUP2 LT PUSH2 0xAB6 JUMPI PUSH2 0xAB5 PUSH2 0x1771 JUMP JUMPDEST JUMPDEST SWAP1 PUSH0 MSTORE PUSH1 0x20 PUSH0 KECCAK256 SWAP1 PUSH1 0x4 MUL ADD PUSH1 0x3 ADD PUSH0 SWAP1 SLOAD SWAP1 PUSH2 0x100 EXP SWAP1 DIV PUSH1 0xFF AND ISZERO PUSH2 0xB12 JUMPI PUSH1 0x40 MLOAD PUSH32 0x8C379A000000000000000000000000000000000000000000000000000000000 DUP2 MSTORE PUSH1 0x4 ADD PUSH2 0xB09 SWAP1 PUSH2 0x17E8 JUMP JUMPDEST PUSH1 0x40 MLOAD DUP1 SWAP2 SUB SWAP1 REVERT JUMPDEST PUSH1 0x1 PUSH1 0x4 PUSH0 DUP7 DUP2 MSTORE PUSH1 0x20 ADD SWAP1 DUP2 MSTORE PUSH1 0x20 ADD PUSH0 KECCAK256 PUSH0 CALLER PUSH20 0xFFFFFFFFFFFFFFFFFFFFFFFFFFFFFFFFFFFFFFFF AND PUSH20 0xFFFFFFFFFFFFFFFFFFFFFFFFFFFFFFFFFFFFFFFF AND DUP2 MSTORE PUSH1 0x20 ADD SWAP1 DUP2 MSTORE PUSH1 0x20 ADD PUSH0 KECCAK256 PUSH0 PUSH2 0x100 EXP DUP2 SLOAD DUP2 PUSH1 0xFF MUL NOT AND SWAP1 DUP4 ISZERO ISZERO MUL OR SWAP1 SSTORE POP DUP4 CALLER PUSH20 0xFFFFFFFFFFFFFFFFFFFFFFFFFFFFFFFFFFFFFFFF AND PUSH32 0x90EC57F18FA7B15C6B8D5E4D1DEB90796C74B2FF23D4D0CECAD0CB42A96B3128 PUSH1 0x40 MLOAD PUSH1 0x40 MLOAD DUP1 SWAP2 SUB SWAP1 LOG3 POP POP POP POP JUMP JUMPDEST PUSH0 DUP1 PUSH0 SWAP1 POP JUMPDEST PUSH0 DUP1 SLOAD SWAP1 POP DUP2 LT ISZERO PUSH2 0xC87 JUMPI PUSH1 0x4 PUSH0 DUP5 DUP2 MSTORE PUSH1 0x20 ADD SWAP1 DUP2 MSTORE PUSH1 0x20 ADD PUSH0 KECCAK256 PUSH0 DUP1 DUP4 DUP2 SLOAD DUP2 LT PUSH2 0xBF7 JUMPI PUSH2 0xBF6 PUSH2 0x1771 JUMP JUMPDEST JUMPDEST SWAP1 PUSH0 MSTORE PUSH1 0x20 PUSH0 KECCAK256 ADD PUSH0 SWAP1 SLOAD SWAP1 PUSH2 0x100 EXP SWAP1 DIV PUSH20 0xFFFFFFFFFFFFFFFFFFFFFFFFFFFFFFFFFFFFFFFF AND PUSH20 0xFFFFFFFFFFFFFFFFFFFFFFFFFFFFFFFFFFFFFFFF AND PUSH20 0xFFFFFFFFFFFFFFFFFFFFFFFFFFFFFFFFFFFFFFFF AND DUP2 MSTORE PUSH1 0x20 ADD SWAP1 DUP2 MSTORE PUSH1 0x20 ADD PUSH0 KECCAK256 PUSH0 SWAP1 SLOAD SWAP1 PUSH2 0x100 EXP SWAP1 DIV PUSH1 0xFF AND ISZERO PUSH2 0xC7A JUMPI PUSH1 0x1 DUP3 PUSH2 0xC77 SWAP2 SWAP1 PUSH2 0x18D6 JUMP JUMPDEST SWAP2 POP JUMPDEST DUP1 DUP1 PUSH1 0x1 ADD SWAP2 POP POP PUSH2 0xBC6 JUMP JUMPDEST POP SWAP2 SWAP1 POP JUMP JUMPDEST PUSH1 0x2 SLOAD DUP2 JUMP JUMPDEST PUSH1 0x1 PUSH0 CALLER PUSH20 0xFFFFFFFFFFFFFFFFFFFFFFFFFFFFFFFFFFFFFFFF AND PUSH20 0xFFFFFFFFFFFFFFFFFFFFFFFFFFFFFFFFFFFFFFFF AND DUP2 MSTORE PUSH1 0x20 ADD SWAP1 DUP2 MSTORE PUSH1 0x20 ADD PUSH0 KECCAK256 PUSH0 SWAP1 SLOAD SWAP1 PUSH2 0x100 EXP SWAP1 DIV PUSH1 0xFF AND PUSH2 0xD1C JUMPI PUSH1 0x40 MLOAD PUSH32 0x8C379A000000000000000000000000000000000000000000000000000000000 DUP2 MSTORE PUSH1 0x4 ADD PUSH2 0xD13 SWAP1 PUSH2 0x1395 JUMP JUMPDEST PUSH1 0x40 MLOAD DUP1 SWAP2 SUB SWAP1 REVERT JUMPDEST DUP1 PUSH1 0x3 DUP1 SLOAD SWAP1 POP DUP2 LT PUSH2 0xD64 JUMPI PUSH1 0x40 MLOAD PUSH32 0x8C379A000000000000000000000000000000000000000000000000000000000 DUP2 MSTORE PUSH1 0x4 ADD PUSH2 0xD5B SWAP1 PUSH2 0x1753 JUMP JUMPDEST PUSH1 0x40 MLOAD DUP1 SWAP2 SUB SWAP1 REVERT JUMPDEST DUP2 PUSH1 0x4 PUSH0 DUP3 DUP2 MSTORE PUSH1 0x20 ADD SWAP1 DUP2 MSTORE PUSH1 0x20 ADD PUSH0 KECCAK256 PUSH0 CALLER PUSH20 0xFFFFFFFFFFFFFFFFFFFFFFFFFFFFFFFFFFFFFFFF AND PUSH20 0xFFFFFFFFFFFFFFFFFFFFFFFFFFFFFFFFFFFFFFFF AND DUP2 MSTORE PUSH1 0x20 ADD SWAP1 DUP2 MSTORE PUSH1 0x20 ADD PUSH0 KECCAK256 PUSH0 SWAP1 SLOAD SWAP1 PUSH2 0x100 EXP SWAP1 DIV PUSH1 0xFF AND ISZERO PUSH2 0xDFE JUMPI PUSH1 0x40 MLOAD PUSH32 0x8C379A000000000000000000000000000000000000000000000000000000000 DUP2 MSTORE PUSH1 0x4 ADD PUSH2 0xDF5 SWAP1 PUSH2 0x18B8 JUMP JUMPDEST PUSH1 0x40 MLOAD DUP1 SWAP2 SUB SWAP1 REVERT JUMPDEST DUP3 PUSH1 0x3 DUP2 DUP2 SLOAD DUP2 LT PUSH2 0xE13 JUMPI PUSH2 0xE12 PUSH2 0x1771 JUMP JUMPDEST JUMPDEST SWAP1 PUSH0 MSTORE PUSH1 0x20 PUSH0 KECCAK256 SWAP1 PUSH1 0x4 MUL ADD PUSH1 0x3 ADD PUSH0 SWAP1 SLOAD SWAP1 PUSH2 0x100 EXP SWAP1 DIV PUSH1 0xFF AND ISZERO PUSH2 0xE6F JUMPI PUSH1 0x40 MLOAD PUSH32 0x8C379A000000000000000000000000000000000000000000000000000000000 DUP2 MSTORE PUSH1 0x4 ADD PUSH2 0xE66 SWAP1 PUSH2 0x17E8 JUMP JUMPDEST PUSH1 0x40 MLOAD DUP1 SWAP2 SUB SWAP1 REVERT JUMPDEST PUSH1 0x2 SLOAD PUSH2 0xE7B DUP6 PUSH2 0xBC0 JUMP JUMPDEST LT ISZERO PUSH2 0xEBC JUMPI PUSH1 0x40 MLOAD PUSH32 0x8C379A000000000000000000000000000000000000000000000000000000000 DUP2 MSTORE PUSH1 0x4 ADD PUSH2 0xEB3 SWAP1 PUSH2 0x1953 JUMP JUMPDEST PUSH1 0x40 MLOAD DUP1 SWAP2 SUB SWAP1 REVERT JUMPDEST PUSH0 PUSH1 0x3 DUP6 DUP2 SLOAD DUP2 LT PUSH2 0xED1 JUMPI PUSH2 0xED0 PUSH2 0x1771 JUMP JUMPDEST JUMPDEST SWAP1 PUSH0 MSTORE PUSH1 0x20 PUSH0 KECCAK256 SWAP1 PUSH1 0x4 MUL ADD SWAP1 POP PUSH1 0x1 DUP2 PUSH1 0x3 ADD PUSH0 PUSH2 0x100 EXP DUP2 SLOAD DUP2 PUSH1 0xFF MUL NOT AND SWAP1 DUP4 ISZERO ISZERO MUL OR SWAP1 SSTORE POP PUSH0 DUP2 PUSH0 ADD PUSH0 SWAP1 SLOAD SWAP1 PUSH2 0x100 EXP SWAP1 DIV PUSH20 0xFFFFFFFFFFFFFFFFFFFFFFFFFFFFFFFFFFFFFFFF AND PUSH20 0xFFFFFFFFFFFFFFFFFFFFFFFFFFFFFFFFFFFFFFFF AND DUP3 PUSH1 0x1 ADD SLOAD DUP4 PUSH1 0x2 ADD PUSH1 0x40 MLOAD PUSH2 0xF4B SWAP2 SWAP1 PUSH2 0x19FB JUMP JUMPDEST PUSH0 PUSH1 0x40 MLOAD DUP1 DUP4 SUB DUP2 DUP6 DUP8 GAS CALL SWAP3 POP POP POP RETURNDATASIZE DUP1 PUSH0 DUP2 EQ PUSH2 0xF85 JUMPI PUSH1 0x40 MLOAD SWAP2 POP PUSH1 0x1F NOT PUSH1 0x3F RETURNDATASIZE ADD AND DUP3 ADD PUSH1 0x40 MSTORE RETURNDATASIZE DUP3 MSTORE RETURNDATASIZE PUSH0 PUSH1 0x20 DUP5 ADD RETURNDATACOPY PUSH2 0xF8A JUMP JUMPDEST PUSH1 0x60 SWAP2 POP JUMPDEST POP POP SWAP1 POP DUP1 PUSH2 0xFCE JUMPI PUSH1 0x40 MLOAD PUSH32 0x8C379A000000000000000000000000000000000000000000000000000000000 DUP2 MSTORE PUSH1 0x4 ADD PUSH2 0xFC5 SWAP1 PUSH2 0x1A5B JUMP JUMPDEST PUSH1 0x40 MLOAD DUP1 SWAP2 SUB SWAP1 REVERT JUMPDEST DUP6 PUSH32 0xDDB556F1D2C1EC821E910B019D3685B229DB152A0ECD517CA7E24B8BD7139289 PUSH1 0x40 MLOAD PUSH1 0x40 MLOAD DUP1 SWAP2 SUB SWAP1 LOG2 POP POP POP POP POP POP JUMP JUMPDEST PUSH0 DUP2 SWAP1 POP SWAP2 SWAP1 POP JUMP JUMPDEST PUSH2 0x1015 DUP2 PUSH2 0x1003 JUMP JUMPDEST DUP3 MSTORE POP POP JUMP JUMPDEST PUSH0 PUSH1 0x20 DUP3 ADD SWAP1 POP PUSH2 0x102E PUSH0 DUP4 ADD DUP5 PUSH2 0x100C JUMP JUMPDEST SWAP3 SWAP2 POP POP JUMP JUMPDEST PUSH0 DUP1 REVERT JUMPDEST PUSH0 DUP1 REVERT JUMPDEST PUSH2 0x1045 DUP2 PUSH2 0x1003 JUMP JUMPDEST DUP2 EQ PUSH2 0x104F JUMPI PUSH0 DUP1 REVERT JUMPDEST POP JUMP JUMPDEST PUSH0 DUP2 CALLDATALOAD SWAP1 POP PUSH2 0x1060 DUP2 PUSH2 0x103C JUMP JUMPDEST SWAP3 SWAP2 POP POP JUMP JUMPDEST PUSH0 PUSH1 0x20 DUP3 DUP5 SUB SLT ISZERO PUSH2 0x107B JUMPI PUSH2 0x107A PUSH2 0x1034 JUMP JUMPDEST JUMPDEST PUSH0 PUSH2 0x1088 DUP5 DUP3 DUP6 ADD PUSH2 0x1052 JUMP JUMPDEST SWAP2 POP POP SWAP3 SWAP2 POP POP JUMP JUMPDEST PUSH0 PUSH20 0xFFFFFFFFFFFFFFFFFFFFFFFFFFFFFFFFFFFFFFFF DUP3 AND SWAP1 POP SWAP2 SWAP1 POP JUMP JUMPDEST PUSH0 PUSH2 0x10BA DUP3 PUSH2 0x1091 JUMP JUMPDEST SWAP1 POP SWAP2 SWAP1 POP JUMP JUMPDEST PUSH2 0x10CA DUP2 PUSH2 0x10B0 JUMP JUMPDEST DUP3 MSTORE POP POP JUMP JUMPDEST PUSH0 PUSH1 0x20 DUP3 ADD SWAP1 POP PUSH2 0x10E3 PUSH0 DUP4 ADD DUP5 PUSH2 0x10C1 JUMP JUMPDEST SWAP3 SWAP2 POP POP JUMP JUMPDEST PUSH2 0x10F2 DUP2 PUSH2 0x10B0 JUMP JUMPDEST DUP2 EQ PUSH2 0x10FC JUMPI PUSH0 DUP1 REVERT JUMPDEST POP JUMP JUMPDEST PUSH0 DUP2 CALLDATALOAD SWAP1 POP PUSH2 0x110D DUP2 PUSH2 0x10E9 JUMP JUMPDEST SWAP3 SWAP2 POP POP JUMP JUMPDEST PUSH0 DUP1 REVERT JUMPDEST PUSH0 DUP1 REVERT JUMPDEST PUSH0 DUP1 REVERT JUMPDEST PUSH0 DUP1 DUP4 PUSH1 0x1F DUP5 ADD SLT PUSH2 0x1134 JUMPI PUSH2 0x1133 PUSH2 0x1113 JUMP JUMPDEST JUMPDEST DUP3 CALLDATALOAD SWAP1 POP PUSH8 0xFFFFFFFFFFFFFFFF DUP2 GT ISZERO PUSH2 0x1151 JUMPI PUSH2 0x1150 PUSH2 0x1117 JUMP JUMPDEST JUMPDEST PUSH1 0x20 DUP4 ADD SWAP2 POP DUP4 PUSH1 0x1 DUP3 MUL DUP4 ADD GT ISZERO PUSH2 0x116D JUMPI PUSH2 0x116C PUSH2 0x111B JUMP JUMPDEST JUMPDEST SWAP3 POP SWAP3 SWAP1 POP JUMP JUMPDEST PUSH0 DUP1 PUSH0 DUP1 PUSH1 0x60 DUP6 DUP8 SUB SLT ISZERO PUSH2 0x118C JUMPI PUSH2 0x118B PUSH2 0x1034 JUMP JUMPDEST JUMPDEST PUSH0 PUSH2 0x1199 DUP8 DUP3 DUP9 ADD PUSH2 0x10FF JUMP JUMPDEST SWAP5 POP POP PUSH1 0x20 PUSH2 0x11AA DUP8 DUP3 DUP9 ADD PUSH2 0x1052 JUMP JUMPDEST SWAP4 POP POP PUSH1 0x40 DUP6 ADD CALLDATALOAD PUSH8 0xFFFFFFFFFFFFFFFF DUP2 GT ISZERO PUSH2 0x11CB JUMPI PUSH2 0x11CA PUSH2 0x1038 JUMP JUMPDEST JUMPDEST PUSH2 0x11D7 DUP8 DUP3 DUP9 ADD PUSH2 0x111F JUMP JUMPDEST SWAP3 POP SWAP3 POP POP SWAP3 SWAP6 SWAP2 SWAP5 POP SWAP3 POP JUMP JUMPDEST PUSH0 PUSH1 0x20 DUP3 DUP5 SUB SLT ISZERO PUSH2 0x11FA JUMPI PUSH2 0x11F9 PUSH2 0x1034 JUMP JUMPDEST JUMPDEST PUSH0 PUSH2 0x1207 DUP5 DUP3 DUP6 ADD PUSH2 0x10FF JUMP JUMPDEST SWAP2 POP POP SWAP3 SWAP2 POP POP JUMP JUMPDEST PUSH0 DUP2 ISZERO ISZERO SWAP1 POP SWAP2 SWAP1 POP JUMP JUMPDEST PUSH2 0x1224 DUP2 PUSH2 0x1210 JUMP JUMPDEST DUP3 MSTORE POP POP JUMP JUMPDEST PUSH0 PUSH1 0x20 DUP3 ADD SWAP1 POP PUSH2 0x123D PUSH0 DUP4 ADD DUP5 PUSH2 0x121B JUMP JUMPDEST SWAP3 SWAP2 POP POP JUMP JUMPDEST PUSH0 DUP2 MLOAD SWAP1 POP SWAP2 SWAP1 POP JUMP JUMPDEST PUSH0 DUP3 DUP3 MSTORE PUSH1 0x20 DUP3 ADD SWAP1 POP SWAP3 SWAP2 POP POP JUMP JUMPDEST DUP3 DUP2 DUP4 MCOPY PUSH0 DUP4 DUP4 ADD MSTORE POP POP POP JUMP JUMPDEST PUSH0 PUSH1 0x1F NOT PUSH1 0x1F DUP4 ADD AND SWAP1 POP SWAP2 SWAP1 POP JUMP JUMPDEST PUSH0 PUSH2 0x1285 DUP3 PUSH2 0x1243 JUMP JUMPDEST PUSH2 0x128F DUP2 DUP6 PUSH2 0x124D JUMP JUMPDEST SWAP4 POP PUSH2 0x129F DUP2 DUP6 PUSH1 0x20 DUP7 ADD PUSH2 0x125D JUMP JUMPDEST PUSH2 0x12A8 DUP2 PUSH2 0x126B JUMP JUMPDEST DUP5 ADD SWAP2 POP POP SWAP3 SWAP2 POP POP JUMP JUMPDEST PUSH0 PUSH1 0x80 DUP3 ADD SWAP1 POP PUSH2 0x12C6 PUSH0 DUP4 ADD DUP8 PUSH2 0x10C1 JUMP JUMPDEST PUSH2 0x12D3 PUSH1 0x20 DUP4 ADD DUP7 PUSH2 0x100C JUMP JUMPDEST DUP2 DUP2 SUB PUSH1 0x40 DUP4 ADD MSTORE PUSH2 0x12E5 DUP2 DUP6 PUSH2 0x127B JUMP JUMPDEST SWAP1 POP PUSH2 0x12F4 PUSH1 0x60 DUP4 ADD DUP5 PUSH2 0x121B JUMP JUMPDEST SWAP6 SWAP5 POP POP POP POP POP JUMP JUMPDEST PUSH0 DUP1 PUSH1 0x40 DUP4 DUP6 SUB SLT ISZERO PUSH2 0x1313 JUMPI PUSH2 0x1312 PUSH2 0x1034 JUMP JUMPDEST JUMPDEST PUSH0 PUSH2 0x1320 DUP6 DUP3 DUP7 ADD PUSH2 0x1052 JUMP JUMPDEST SWAP3 POP POP PUSH1 0x20 PUSH2 0x1331 DUP6 DUP3 DUP7 ADD PUSH2 0x10FF JUMP JUMPDEST SWAP2 POP POP SWAP3 POP SWAP3 SWAP1 POP JUMP JUMPDEST PUSH0 DUP3 DUP3 MSTORE PUSH1 0x20 DUP3 ADD SWAP1 POP SWAP3 SWAP2 POP POP JUMP JUMPDEST PUSH32 0x6E6F74206F776E65720000000000000000000000000000000000000000000000 PUSH0 DUP3 ADD MSTORE POP JUMP JUMPDEST PUSH0 PUSH2 0x137F PUSH1 0x9 DUP4 PUSH2 0x133B JUMP JUMPDEST SWAP2 POP PUSH2 0x138A DUP3 PUSH2 0x134B JUMP JUMPDEST PUSH1 0x20 DUP3 ADD SWAP1 POP SWAP2 SWAP1 POP JUMP JUMPDEST PUSH0 PUSH1 0x20 DUP3 ADD SWAP1 POP DUP2 DUP2 SUB PUSH0 DUP4 ADD MSTORE PUSH2 0x13AC DUP2 PUSH2 0x1373 JUMP JUMPDEST SWAP1 POP SWAP2 SWAP1 POP JUMP JUMPDEST PUSH32 0x4E487B7100000000000000000000000000000000000000000000000000000000 PUSH0 MSTORE PUSH1 0x41 PUSH1 0x4 MSTORE PUSH1 0x24 PUSH0 REVERT JUMPDEST PUSH32 0x4E487B7100000000000000000000000000000000000000000000000000000000 PUSH0 MSTORE PUSH1 0x22 PUSH1 0x4 MSTORE PUSH1 0x24 PUSH0 REVERT JUMPDEST PUSH0 PUSH1 0x2 DUP3 DIV SWAP1 POP PUSH1 0x1 DUP3 AND DUP1 PUSH2 0x1424 JUMPI PUSH1 0x7F DUP3 AND SWAP2 POP JUMPDEST PUSH1 0x20 DUP3 LT DUP2 SUB PUSH2 0x1437 JUMPI PUSH2 0x1436 PUSH2 0x13E0 JUMP JUMPDEST JUMPDEST POP SWAP2 SWAP1 POP JUMP JUMPDEST PUSH0 DUP2 SWAP1 POP DUP2 PUSH0 MSTORE PUSH1 0x20 PUSH0 KECCAK256 SWAP1 POP SWAP2 SWAP1 POP JUMP JUMPDEST PUSH0 PUSH1 0x20 PUSH1 0x1F DUP4 ADD DIV SWAP1 POP SWAP2 SWAP1 POP JUMP JUMPDEST PUSH0 DUP3 DUP3 SHL SWAP1 POP SWAP3 SWAP2 POP POP JUMP JUMPDEST PUSH0 PUSH1 0x8 DUP4 MUL PUSH2 0x1499 PUSH32 0xFFFFFFFFFFFFFFFFFFFFFFFFFFFFFFFFFFFFFFFFFFFFFFFFFFFFFFFFFFFFFFFF DUP3 PUSH2 0x145E JUMP JUMPDEST PUSH2 0x14A3 DUP7 DUP4 PUSH2 0x145E JUMP JUMPDEST SWAP6 POP DUP1 NOT DUP5 AND SWAP4 POP DUP1 DUP7 AND DUP5 OR SWAP3 POP POP POP SWAP4 SWAP3 POP POP POP JUMP JUMPDEST PUSH0 DUP2 SWAP1 POP SWAP2 SWAP1 POP JUMP JUMPDEST PUSH0 PUSH2 0x14DE PUSH2 0x14D9 PUSH2 0x14D4 DUP5 PUSH2 0x1003 JUMP JUMPDEST PUSH2 0x14BB JUMP JUMPDEST PUSH2 0x1003 JUMP JUMPDEST SWAP1 POP SWAP2 SWAP1 POP JUMP JUMPDEST PUSH0 DUP2 SWAP1 POP SWAP2 SWAP1 POP JUMP JUMPDEST PUSH2 0x14F7 DUP4 PUSH2 0x14C4 JUMP JUMPDEST PUSH2 0x150B PUSH2 0x1503 DUP3 PUSH2 0x14E5 JUMP JUMPDEST DUP5 DUP5 SLOAD PUSH2 0x146A JUMP JUMPDEST DUP3 SSTORE POP POP POP POP JUMP JUMPDEST PUSH0 SWAP1 JUMP JUMPDEST PUSH2 0x151F PUSH2 0x1513 JUMP JUMPDEST PUSH2 0x152A DUP2 DUP5 DUP5 PUSH2 0x14EE JUMP JUMPDEST POP POP POP JUMP JUMPDEST JUMPDEST DUP2 DUP2 LT ISZERO PUSH2 0x154D JUMPI PUSH2 0x1542 PUSH0 DUP3 PUSH2 0x1517 JUMP JUMPDEST PUSH1 0x1 DUP2 ADD SWAP1 POP PUSH2 0x1530 JUMP JUMPDEST POP POP JUMP JUMPDEST PUSH1 0x1F DUP3 GT ISZERO PUSH2 0x1592 JUMPI PUSH2 0x1563 DUP2 PUSH2 0x143D JUMP JUMPDEST PUSH2 0x156C DUP5 PUSH2 0x144F JUMP JUMPDEST DUP2 ADD PUSH1 0x20 DUP6 LT ISZERO PUSH2 0x157B JUMPI DUP2 SWAP1 POP JUMPDEST PUSH2 0x158F PUSH2 0x1587 DUP6 PUSH2 0x144F JUMP JUMPDEST DUP4 ADD DUP3 PUSH2 0x152F JUMP JUMPDEST POP POP JUMPDEST POP POP POP JUMP JUMPDEST PUSH0 DUP3 DUP3 SHR SWAP1 POP SWAP3 SWAP2 POP POP JUMP JUMPDEST PUSH0 PUSH2 0x15B2 PUSH0 NOT DUP5 PUSH1 0x8 MUL PUSH2 0x1597 JUMP JUMPDEST NOT DUP1 DUP4 AND SWAP2 POP POP SWAP3 SWAP2 POP POP JUMP JUMPDEST PUSH0 PUSH2 0x15CA DUP4 DUP4 PUSH2 0x15A3 JUMP JUMPDEST SWAP2 POP DUP3 PUSH1 0x2 MUL DUP3 OR SWAP1 POP SWAP3 SWAP2 POP POP JUMP JUMPDEST PUSH2 0x15E3 DUP3 PUSH2 0x1243 JUMP JUMPDEST PUSH8 0xFFFFFFFFFFFFFFFF DUP2 GT ISZERO PUSH2 0x15FC JUMPI PUSH2 0x15FB PUSH2 0x13B3 JUMP JUMPDEST JUMPDEST PUSH2 0x1606 DUP3 SLOAD PUSH2 0x140D JUMP JUMPDEST PUSH2 0x1611 DUP3 DUP3 DUP6 PUSH2 0x1551 JUMP JUMPDEST PUSH0 PUSH1 0x20 SWAP1 POP PUSH1 0x1F DUP4 GT PUSH1 0x1 DUP2 EQ PUSH2 0x1642 JUMPI PUSH0 DUP5 ISZERO PUSH2 0x1630 JUMPI DUP3 DUP8 ADD MLOAD SWAP1 POP JUMPDEST PUSH2 0x163A DUP6 DUP3 PUSH2 0x15BF JUMP JUMPDEST DUP7 SSTORE POP PUSH2 0x16A1 JUMP JUMPDEST PUSH1 0x1F NOT DUP5 AND PUSH2 0x1650 DUP7 PUSH2 0x143D JUMP JUMPDEST PUSH0 JUMPDEST DUP3 DUP2 LT ISZERO PUSH2 0x1677 JUMPI DUP5 DUP10 ADD MLOAD DUP3 SSTORE PUSH1 0x1 DUP3 ADD SWAP2 POP PUSH1 0x20 DUP6 ADD SWAP5 POP PUSH1 0x20 DUP2 ADD SWAP1 POP PUSH2 0x1652 JUMP JUMPDEST DUP7 DUP4 LT ISZERO PUSH2 0x1694 JUMPI DUP5 DUP10 ADD MLOAD PUSH2 0x1690 PUSH1 0x1F DUP10 AND DUP3 PUSH2 0x15A3 JUMP JUMPDEST DUP4 SSTORE POP JUMPDEST PUSH1 0x1 PUSH1 0x2 DUP9 MUL ADD DUP9 SSTORE POP POP POP JUMPDEST POP POP POP POP POP POP JUMP JUMPDEST PUSH32 0x4E487B7100000000000000000000000000000000000000000000000000000000 PUSH0 MSTORE PUSH1 0x11 PUSH1 0x4 MSTORE PUSH1 0x24 PUSH0 REVERT JUMPDEST PUSH0 PUSH2 0x16E0 DUP3 PUSH2 0x1003 JUMP JUMPDEST SWAP2 POP PUSH2 0x16EB DUP4 PUSH2 0x1003 JUMP JUMPDEST SWAP3 POP DUP3 DUP3 SUB SWAP1 POP DUP2 DUP2 GT ISZERO PUSH2 0x1703 JUMPI PUSH2 0x1702 PUSH2 0x16A9 JUMP JUMPDEST JUMPDEST SWAP3 SWAP2 POP POP JUMP JUMPDEST PUSH32 0x747820646F65736E277420657869737400000000000000000000000000000000 PUSH0 DUP3 ADD MSTORE POP JUMP JUMPDEST PUSH0 PUSH2 0x173D PUSH1 0x10 DUP4 PUSH2 0x133B JUMP JUMPDEST SWAP2 POP PUSH2 0x1748 DUP3 PUSH2 0x1709 JUMP JUMPDEST PUSH1 0x20 DUP3 ADD SWAP1 POP SWAP2 SWAP1 POP JUMP JUMPDEST PUSH0 PUSH1 0x20 DUP3 ADD SWAP1 POP DUP2 DUP2 SUB PUSH0 DUP4 ADD MSTORE PUSH2 0x176A DUP2 PUSH2 0x1731 JUMP JUMPDEST SWAP1 POP SWAP2 SWAP1 POP JUMP JUMPDEST PUSH32 0x4E487B7100000000000000000000000000000000000000000000000000000000 PUSH0 MSTORE PUSH1 0x32 PUSH1 0x4 MSTORE PUSH1 0x24 PUSH0 REVERT JUMPDEST PUSH32 0x7478206973206578656375746564000000000000000000000000000000000000 PUSH0 DUP3 ADD MSTORE POP JUMP JUMPDEST PUSH0 PUSH2 0x17D2 PUSH1 0xE DUP4 PUSH2 0x133B JUMP JUMPDEST SWAP2 POP PUSH2 0x17DD DUP3 PUSH2 0x179E JUMP JUMPDEST PUSH1 0x20 DUP3 ADD SWAP1 POP SWAP2 SWAP1 POP JUMP JUMPDEST PUSH0 PUSH1 0x20 DUP3 ADD SWAP1 POP DUP2 DUP2 SUB PUSH0 DUP4 ADD MSTORE PUSH2 0x17FF DUP2 PUSH2 0x17C6 JUMP JUMPDEST SWAP1 POP SWAP2 SWAP1 POP JUMP JUMPDEST PUSH32 0x7478206E6F7420617070726F7665640000000000000000000000000000000000 PUSH0 DUP3 ADD MSTORE POP JUMP JUMPDEST PUSH0 PUSH2 0x183A PUSH1 0xF DUP4 PUSH2 0x133B JUMP JUMPDEST SWAP2 POP PUSH2 0x1845 DUP3 PUSH2 0x1806 JUMP JUMPDEST PUSH1 0x20 DUP3 ADD SWAP1 POP SWAP2 SWAP1 POP JUMP JUMPDEST PUSH0 PUSH1 0x20 DUP3 ADD SWAP1 POP DUP2 DUP2 SUB PUSH0 DUP4 ADD MSTORE PUSH2 0x1867 DUP2 PUSH2 0x182E JUMP JUMPDEST SWAP1 POP SWAP2 SWAP1 POP JUMP JUMPDEST PUSH32 0x747820616C726561647920617070726F76656400000000000000000000000000 PUSH0 DUP3 ADD MSTORE POP JUMP JUMPDEST PUSH0 PUSH2 0x18A2 PUSH1 0x13 DUP4 PUSH2 0x133B JUMP JUMPDEST SWAP2 POP PUSH2 0x18AD DUP3 PUSH2 0x186E JUMP JUMPDEST PUSH1 0x20 DUP3 ADD SWAP1 POP SWAP2 SWAP1 POP JUMP JUMPDEST PUSH0 PUSH1 0x20 DUP3 ADD SWAP1 POP DUP2 DUP2 SUB PUSH0 DUP4 ADD MSTORE PUSH2 0x18CF DUP2 PUSH2 0x1896 JUMP JUMPDEST SWAP1 POP SWAP2 SWAP1 POP JUMP JUMPDEST PUSH0 PUSH2 0x18E0 DUP3 PUSH2 0x1003 JUMP JUMPDEST SWAP2 POP PUSH2 0x18EB DUP4 PUSH2 0x1003 JUMP JUMPDEST SWAP3 POP DUP3 DUP3 ADD SWAP1 POP DUP1 DUP3 GT ISZERO PUSH2 0x1903 JUMPI PUSH2 0x1902 PUSH2 0x16A9 JUMP JUMPDEST JUMPDEST SWAP3 SWAP2 POP POP JUMP JUMPDEST PUSH32 0x617070726F76616C73203C207265717569726564000000000000000000000000 PUSH0 DUP3 ADD MSTORE POP JUMP JUMPDEST PUSH0 PUSH2 0x193D PUSH1 0x14 DUP4 PUSH2 0x133B JUMP JUMPDEST SWAP2 POP PUSH2 0x1948 DUP3 PUSH2 0x1909 JUMP JUMPDEST PUSH1 0x20 DUP3 ADD SWAP1 POP SWAP2 SWAP1 POP JUMP JUMPDEST PUSH0 PUSH1 0x20 DUP3 ADD SWAP1 POP DUP2 DUP2 SUB PUSH0 DUP4 ADD MSTORE PUSH2 0x196A DUP2 PUSH2 0x1931 JUMP JUMPDEST SWAP1 POP SWAP2 SWAP1 POP JUMP JUMPDEST PUSH0 DUP2 SWAP1 POP SWAP3 SWAP2 POP POP JUMP JUMPDEST PUSH0 DUP2 SLOAD PUSH2 0x1987 DUP2 PUSH2 0x140D JUMP JUMPDEST PUSH2 0x1991 DUP2 DUP7 PUSH2 0x1971 JUMP JUMPDEST SWAP5 POP PUSH1 0x1 DUP3 AND PUSH0 DUP2 EQ PUSH2 0x19AB JUMPI PUSH1 0x1 DUP2 EQ PUSH2 0x19C0 JUMPI PUSH2 0x19F2 JUMP JUMPDEST PUSH1 0xFF NOT DUP4 AND DUP7 MSTORE DUP2 ISZERO ISZERO DUP3 MUL DUP7 ADD SWAP4 POP PUSH2 0x19F2 JUMP JUMPDEST PUSH2 0x19C9 DUP6 PUSH2 0x143D JUMP JUMPDEST PUSH0 JUMPDEST DUP4 DUP2 LT ISZERO PUSH2 0x19EA JUMPI DUP2 SLOAD DUP2 DUP10 ADD MSTORE PUSH1 0x1 DUP3 ADD SWAP2 POP PUSH1 0x20 DUP2 ADD SWAP1 POP PUSH2 0x19CB JUMP JUMPDEST DUP4 DUP9 ADD SWAP6 POP POP POP JUMPDEST POP POP POP SWAP3 SWAP2 POP POP JUMP JUMPDEST PUSH0 PUSH2 0x1A06 DUP3 DUP5 PUSH2 0x197B JUMP JUMPDEST SWAP2 POP DUP2 SWAP1 POP SWAP3 SWAP2 POP POP JUMP JUMPDEST PUSH32 0x7478206661696C65640000000000000000000000000000000000000000000000 PUSH0 DUP3 ADD MSTORE POP JUMP JUMPDEST PUSH0 PUSH2 0x1A45 PUSH1 0x9 DUP4 PUSH2 0x133B JUMP JUMPDEST SWAP2 POP PUSH2 0x1A50 DUP3 PUSH2 0x1A11 JUMP JUMPDEST PUSH1 0x20 DUP3 ADD SWAP1 POP SWAP2 SWAP1 POP JUMP JUMPDEST PUSH0 PUSH1 0x20 DUP3 ADD SWAP1 POP DUP2 DUP2 SUB PUSH0 DUP4 ADD MSTORE PUSH2 0x1A72 DUP2 PUSH2 0x1A39 JUMP JUMPDEST SWAP1 POP SWAP2 SWAP1 POP JUMP INVALID LOG2 PUSH5 0x6970667358 0x22 SLT KECCAK256 RETURNDATACOPY CODESIZE COINBASE PUSH19 0xEE826C56410BDD674E7877E431116850694863 PUSH20 0xB327A2DDFBD2A7CD64736F6C634300081A003300 "
				},
				"gasEstimates": {
					"creation": {
						"codeDepositCost": "1366200",
						"executionCost": "infinite",
						"totalCost": "infinite"
					},
					"external": {
						"approve(uint256)": "37465",
						"approved(uint256,address)": "3093",
						"execute(uint256)": "infinite",
						"getApprovalCount(uint256)": "infinite",
						"getBalance()": "357",
						"isOwner(address)": "2922",
						"owners(uint256)": "4944",
						"requiredNum()": "2513",
						"revoke(uint256)": "37479",
						"submit(address,uint256,bytes)": "infinite",
						"transacations(uint256)": "infinite"
					}
				},
				"methodIdentifiers": {
					"approve(uint256)": "b759f954",
					"approved(uint256,address)": "8253951a",
					"execute(uint256)": "fe0d94c1",
					"getApprovalCount(uint256)": "ba7e7cab",
					"getBalance()": "12065fe0",
					"isOwner(address)": "2f54bf6e",
					"owners(uint256)": "025e7c27",
					"requiredNum()": "d5d0f21e",
					"revoke(uint256)": "20c5429b",
					"submit(address,uint256,bytes)": "14de327f",
					"transacations(uint256)": "6231a8ce"
				}
			},
			"storageLayout": {
				"storage": [
					{
						"astId": 4,
						"contract": "l1-5-homework/mulSigWallet.sol:MultiSigWallet",
						"label": "owners",
						"offset": 0,
						"slot": "0",
						"type": "t_array(t_address)dyn_storage"
					},
					{
						"astId": 8,
						"contract": "l1-5-homework/mulSigWallet.sol:MultiSigWallet",
						"label": "isOwner",
						"offset": 0,
						"slot": "1",
						"type": "t_mapping(t_address,t_bool)"
					},
					{
						"astId": 10,
						"contract": "l1-5-homework/mulSigWallet.sol:MultiSigWallet",
						"label": "requiredNum",
						"offset": 0,
						"slot": "2",
						"type": "t_uint256"
					},
					{
						"astId": 23,
						"contract": "l1-5-homework/mulSigWallet.sol:MultiSigWallet",
						"label": "transacations",
						"offset": 0,
						"slot": "3",
						"type": "t_array(t_struct(Transacation)19_storage)dyn_storage"
					},
					{
						"astId": 29,
						"contract": "l1-5-homework/mulSigWallet.sol:MultiSigWallet",
						"label": "approved",
						"offset": 0,
						"slot": "4",
						"type": "t_mapping(t_uint256,t_mapping(t_address,t_bool))"
					}
				],
				"types": {
					"t_address": {
						"encoding": "inplace",
						"label": "address",
						"numberOfBytes": "20"
					},
					"t_array(t_address)dyn_storage": {
						"base": "t_address",
						"encoding": "dynamic_array",
						"label": "address[]",
						"numberOfBytes": "32"
					},
					"t_array(t_struct(Transacation)19_storage)dyn_storage": {
						"base": "t_struct(Transacation)19_storage",
						"encoding": "dynamic_array",
						"label": "struct MultiSigWallet.Transacation[]",
						"numberOfBytes": "32"
					},
					"t_bool": {
						"encoding": "inplace",
						"label": "bool",
						"numberOfBytes": "1"
					},
					"t_bytes_storage": {
						"encoding": "bytes",
						"label": "bytes",
						"numberOfBytes": "32"
					},
					"t_mapping(t_address,t_bool)": {
						"encoding": "mapping",
						"key": "t_address",
						"label": "mapping(address => bool)",
						"numberOfBytes": "32",
						"value": "t_bool"
					},
					"t_mapping(t_uint256,t_mapping(t_address,t_bool))": {
						"encoding": "mapping",
						"key": "t_uint256",
						"label": "mapping(uint256 => mapping(address => bool))",
						"numberOfBytes": "32",
						"value": "t_mapping(t_address,t_bool)"
					},
					"t_struct(Transacation)19_storage": {
						"encoding": "inplace",
						"label": "struct MultiSigWallet.Transacation",
						"members": [
							{
								"astId": 12,
								"contract": "l1-5-homework/mulSigWallet.sol:MultiSigWallet",
								"label": "to",
								"offset": 0,
								"slot": "0",
								"type": "t_address"
							},
							{
								"astId": 14,
								"contract": "l1-5-homework/mulSigWallet.sol:MultiSigWallet",
								"label": "value",
								"offset": 0,
								"slot": "1",
								"type": "t_uint256"
							},
							{
								"astId": 16,
								"contract": "l1-5-homework/mulSigWallet.sol:MultiSigWallet",
								"label": "data",
								"offset": 0,
								"slot": "2",
								"type": "t_bytes_storage"
							},
							{
								"astId": 18,
								"contract": "l1-5-homework/mulSigWallet.sol:MultiSigWallet",
								"label": "exected",
								"offset": 0,
								"slot": "3",
								"type": "t_bool"
							}
						],
						"numberOfBytes": "128"
					},
					"t_uint256": {
						"encoding": "inplace",
						"label": "uint256",
						"numberOfBytes": "32"
					}
				}
			},
			"userdoc": {
				"kind": "user",
				"methods": {},
				"version": 1
			}
		}
	}
}