{
	"l1-5-homework/bank.sol": {
		"Bank": {
			"abi": [
				{
					"inputs": [],
					"stateMutability": "payable",
					"type": "constructor"
				},
				{
					"anonymous": false,
					"inputs": [
						{
							"indexed": false,
							"internalType": "address",
							"name": "_addr",
							"type": "address"
						},
						{
							"indexed": false,
							"internalType": "uint256",
							"name": "amount",
							"type": "uint256"
						}
					],
					"name": "Deposit",
					"type": "event"
				},
				{
					"anonymous": false,
					"inputs": [
						{
							"indexed": false,
							"internalType": "uint256",
							"name": "amount",
							"type": "uint256"
						}
					],
					"name": "Withdraw",
					"type": "event"
				},
				{
					"inputs": [],
					"name": "getBalance",
					"outputs": [
						{
							"internalType": "uint256",
							"name": "",
							"type": "uint256"
						}
					],
					"stateMutability": "view",
					"type": "function"
				},
				{
					"inputs": [],
					"name": "owner",
					"outputs": [
						{
							"internalType": "address",
							"name": "",
							"type": "address"
						}
					],
					"stateMutability": "view",
					"type": "function"
				},
				{
					"inputs": [],
					"name": "withdraw",
					"outputs": [],
					"stateMutability": "nonpayable",
					"type": "function"
				},
				{
					"stateMutability": "payable",
					"type": "receive"
				}
			],
			"devdoc": {
				"kind": "dev",
				"methods": {},
				"version": 1
			},
			"evm": {
				"assembly": "    /* \"l1-5-homework/bank.sol\":58:633  contract Bank {... */\n  mstore(0x40, 0xa0)\n    /* \"l1-5-homework/bank.sol\":327:337  msg.sender */\n  caller\n    /* \"l1-5-homework/bank.sol\":319:337  owner = msg.sender */\n  0xffffffffffffffffffffffffffffffffffffffff\n  and\n  0x80\n  dup2\n  0xffffffffffffffffffffffffffffffffffffffff\n  and\n  dup2\n  mstore\n  pop\n  pop\n    /* \"l1-5-homework/bank.sol\":58:633  contract Bank {... */\n  mload(0x80)\n  codecopy(0x00, dataOffset(sub_0), dataSize(sub_0))\n  0x00\n  assignImmutable(\"0x2a80e1ef1d7842f27f2e6be0972bb708b9a135c38860dbe73c27c3486c34f4de\")\n  return(0x00, dataSize(sub_0))\nstop\n\nsub_0: assembly {\n        /* \"l1-5-homework/bank.sol\":58:633  contract Bank {... */\n      mstore(0x40, 0x80)\n      jumpi(tag_1, lt(calldatasize, 0x04))\n      shr(0xe0, calldataload(0x00))\n      dup1\n      0x12065fe0\n      eq\n      tag_3\n      jumpi\n      dup1\n      0x3ccfd60b\n      eq\n      tag_4\n      jumpi\n      dup1\n      0x8da5cb5b\n      eq\n      tag_5\n      jumpi\n      jump(tag_2)\n    tag_1:\n      jumpi(tag_2, calldatasize)\n        /* \"l1-5-homework/bank.sol\":244:274  Deposit(msg.sender, msg.value) */\n      0xe1fffcc4923d04b559f4d29a8bfc6cda04eb5b0d3c460751c2402c5c5cc9109c\n        /* \"l1-5-homework/bank.sol\":252:262  msg.sender */\n      caller\n        /* \"l1-5-homework/bank.sol\":264:273  msg.value */\n      callvalue\n        /* \"l1-5-homework/bank.sol\":244:274  Deposit(msg.sender, msg.value) */\n      mload(0x40)\n      tag_8\n      swap3\n      swap2\n      swap1\n      tag_9\n      jump\t// in\n    tag_8:\n      mload(0x40)\n      dup1\n      swap2\n      sub\n      swap1\n      log1\n        /* \"l1-5-homework/bank.sol\":58:633  contract Bank {... */\n      stop\n    tag_2:\n      0x00\n      dup1\n      revert\n        /* \"l1-5-homework/bank.sol\":533:631  function getBalance() external view returns(uint256) {... */\n    tag_3:\n      callvalue\n      dup1\n      iszero\n      tag_10\n      jumpi\n      0x00\n      dup1\n      revert\n    tag_10:\n      pop\n      tag_11\n      tag_12\n      jump\t// in\n    tag_11:\n      mload(0x40)\n      tag_13\n      swap2\n      swap1\n      tag_14\n      jump\t// in\n    tag_13:\n      mload(0x40)\n      dup1\n      swap2\n      sub\n      swap1\n      return\n        /* \"l1-5-homework/bank.sol\":350:527  function withdraw() external {... */\n    tag_4:\n      callvalue\n      dup1\n      iszero\n      tag_15\n      jumpi\n      0x00\n      dup1\n      revert\n    tag_15:\n      pop\n      tag_16\n      tag_17\n      jump\t// in\n    tag_16:\n      stop\n        /* \"l1-5-homework/bank.sol\":78:108  address public immutable owner */\n    tag_5:\n      callvalue\n      dup1\n      iszero\n      tag_18\n      jumpi\n      0x00\n      dup1\n      revert\n    tag_18:\n      pop\n      tag_19\n      tag_20\n      jump\t// in\n    tag_19:\n      mload(0x40)\n      tag_21\n      swap2\n      swap1\n      tag_22\n      jump\t// in\n    tag_21:\n      mload(0x40)\n      dup1\n      swap2\n      sub\n      swap1\n      return\n        /* \"l1-5-homework/bank.sol\":533:631  function getBalance() external view returns(uint256) {... */\n    tag_12:\n        /* \"l1-5-homework/bank.sol\":577:584  uint256 */\n      0x00\n        /* \"l1-5-homework/bank.sol\":603:624  address(this).balance */\n      selfbalance\n        /* \"l1-5-homework/bank.sol\":596:624  return address(this).balance */\n      swap1\n      pop\n        /* \"l1-5-homework/bank.sol\":533:631  function getBalance() external view returns(uint256) {... */\n      swap1\n      jump\t// out\n        /* \"l1-5-homework/bank.sol\":350:527  function withdraw() external {... */\n    tag_17:\n        /* \"l1-5-homework/bank.sol\":411:416  owner */\n      immutable(\"0x2a80e1ef1d7842f27f2e6be0972bb708b9a135c38860dbe73c27c3486c34f4de\")\n        /* \"l1-5-homework/bank.sol\":397:416  msg.sender == owner */\n      0xffffffffffffffffffffffffffffffffffffffff\n      and\n        /* \"l1-5-homework/bank.sol\":397:407  msg.sender */\n      caller\n        /* \"l1-5-homework/bank.sol\":397:416  msg.sender == owner */\n      0xffffffffffffffffffffffffffffffffffffffff\n      and\n      eq\n        /* \"l1-5-homework/bank.sol\":389:431  require(msg.sender == owner, \"Not Woner!\") */\n      tag_25\n      jumpi\n      mload(0x40)\n      0x08c379a000000000000000000000000000000000000000000000000000000000\n      dup2\n      mstore\n      0x04\n      add\n      tag_26\n      swap1\n      tag_27\n      jump\t// in\n    tag_26:\n      mload(0x40)\n      dup1\n      swap2\n      sub\n      swap1\n      revert\n    tag_25:\n        /* \"l1-5-homework/bank.sol\":446:477  Withdraw(address(this).balance) */\n      0x5b6b431d4476a211bb7d41c20d1aab9ae2321deee0d20be3d9fc9b1093fa6e3d\n        /* \"l1-5-homework/bank.sol\":455:476  address(this).balance */\n      selfbalance\n        /* \"l1-5-homework/bank.sol\":446:477  Withdraw(address(this).balance) */\n      mload(0x40)\n      tag_28\n      swap2\n      swap1\n      tag_14\n      jump\t// in\n    tag_28:\n      mload(0x40)\n      dup1\n      swap2\n      sub\n      swap1\n      log1\n        /* \"l1-5-homework/bank.sol\":508:518  msg.sender */\n      caller\n        /* \"l1-5-homework/bank.sol\":487:520  selfdestruct(payable(msg.sender)) */\n      0xffffffffffffffffffffffffffffffffffffffff\n      and\n      selfdestruct\n        /* \"l1-5-homework/bank.sol\":78:108  address public immutable owner */\n    tag_20:\n      immutable(\"0x2a80e1ef1d7842f27f2e6be0972bb708b9a135c38860dbe73c27c3486c34f4de\")\n      dup2\n      jump\t// out\n        /* \"#utility.yul\":7:133   */\n    tag_29:\n        /* \"#utility.yul\":44:51   */\n      0x00\n        /* \"#utility.yul\":84:126   */\n      0xffffffffffffffffffffffffffffffffffffffff\n        /* \"#utility.yul\":77:82   */\n      dup3\n        /* \"#utility.yul\":73:127   */\n      and\n        /* \"#utility.yul\":62:127   */\n      swap1\n      pop\n        /* \"#utility.yul\":7:133   */\n      swap2\n      swap1\n      pop\n      jump\t// out\n        /* \"#utility.yul\":139:235   */\n    tag_30:\n        /* \"#utility.yul\":176:183   */\n      0x00\n        /* \"#utility.yul\":205:229   */\n      tag_40\n        /* \"#utility.yul\":223:228   */\n      dup3\n        /* \"#utility.yul\":205:229   */\n      tag_29\n      jump\t// in\n    tag_40:\n        /* \"#utility.yul\":194:229   */\n      swap1\n      pop\n        /* \"#utility.yul\":139:235   */\n      swap2\n      swap1\n      pop\n      jump\t// out\n        /* \"#utility.yul\":241:359   */\n    tag_31:\n        /* \"#utility.yul\":328:352   */\n      tag_42\n        /* \"#utility.yul\":346:351   */\n      dup2\n        /* \"#utility.yul\":328:352   */\n      tag_30\n      jump\t// in\n    tag_42:\n        /* \"#utility.yul\":323:326   */\n      dup3\n        /* \"#utility.yul\":316:353   */\n      mstore\n        /* \"#utility.yul\":241:359   */\n      pop\n      pop\n      jump\t// out\n        /* \"#utility.yul\":365:442   */\n    tag_32:\n        /* \"#utility.yul\":402:409   */\n      0x00\n        /* \"#utility.yul\":431:436   */\n      dup2\n        /* \"#utility.yul\":420:436   */\n      swap1\n      pop\n        /* \"#utility.yul\":365:442   */\n      swap2\n      swap1\n      pop\n      jump\t// out\n        /* \"#utility.yul\":448:566   */\n    tag_33:\n        /* \"#utility.yul\":535:559   */\n      tag_45\n        /* \"#utility.yul\":553:558   */\n      dup2\n        /* \"#utility.yul\":535:559   */\n      tag_32\n      jump\t// in\n    tag_45:\n        /* \"#utility.yul\":530:533   */\n      dup3\n        /* \"#utility.yul\":523:560   */\n      mstore\n        /* \"#utility.yul\":448:566   */\n      pop\n      pop\n      jump\t// out\n        /* \"#utility.yul\":572:904   */\n    tag_9:\n        /* \"#utility.yul\":693:697   */\n      0x00\n        /* \"#utility.yul\":731:733   */\n      0x40\n        /* \"#utility.yul\":720:729   */\n      dup3\n        /* \"#utility.yul\":716:734   */\n      add\n        /* \"#utility.yul\":708:734   */\n      swap1\n      pop\n        /* \"#utility.yul\":744:815   */\n      tag_47\n        /* \"#utility.yul\":812:813   */\n      0x00\n        /* \"#utility.yul\":801:810   */\n      dup4\n        /* \"#utility.yul\":797:814   */\n      add\n        /* \"#utility.yul\":788:794   */\n      dup6\n        /* \"#utility.yul\":744:815   */\n      tag_31\n      jump\t// in\n    tag_47:\n        /* \"#utility.yul\":825:897   */\n      tag_48\n        /* \"#utility.yul\":893:895   */\n      0x20\n        /* \"#utility.yul\":882:891   */\n      dup4\n        /* \"#utility.yul\":878:896   */\n      add\n        /* \"#utility.yul\":869:875   */\n      dup5\n        /* \"#utility.yul\":825:897   */\n      tag_33\n      jump\t// in\n    tag_48:\n        /* \"#utility.yul\":572:904   */\n      swap4\n      swap3\n      pop\n      pop\n      pop\n      jump\t// out\n        /* \"#utility.yul\":910:1132   */\n    tag_14:\n        /* \"#utility.yul\":1003:1007   */\n      0x00\n        /* \"#utility.yul\":1041:1043   */\n      0x20\n        /* \"#utility.yul\":1030:1039   */\n      dup3\n        /* \"#utility.yul\":1026:1044   */\n      add\n        /* \"#utility.yul\":1018:1044   */\n      swap1\n      pop\n        /* \"#utility.yul\":1054:1125   */\n      tag_50\n        /* \"#utility.yul\":1122:1123   */\n      0x00\n        /* \"#utility.yul\":1111:1120   */\n      dup4\n        /* \"#utility.yul\":1107:1124   */\n      add\n        /* \"#utility.yul\":1098:1104   */\n      dup5\n        /* \"#utility.yul\":1054:1125   */\n      tag_33\n      jump\t// in\n    tag_50:\n        /* \"#utility.yul\":910:1132   */\n      swap3\n      swap2\n      pop\n      pop\n      jump\t// out\n        /* \"#utility.yul\":1138:1360   */\n    tag_22:\n        /* \"#utility.yul\":1231:1235   */\n      0x00\n        /* \"#utility.yul\":1269:1271   */\n      0x20\n        /* \"#utility.yul\":1258:1267   */\n      dup3\n        /* \"#utility.yul\":1254:1272   */\n      add\n        /* \"#utility.yul\":1246:1272   */\n      swap1\n      pop\n        /* \"#utility.yul\":1282:1353   */\n      tag_52\n        /* \"#utility.yul\":1350:1351   */\n      0x00\n        /* \"#utility.yul\":1339:1348   */\n      dup4\n        /* \"#utility.yul\":1335:1352   */\n      add\n        /* \"#utility.yul\":1326:1332   */\n      dup5\n        /* \"#utility.yul\":1282:1353   */\n      tag_31\n      jump\t// in\n    tag_52:\n        /* \"#utility.yul\":1138:1360   */\n      swap3\n      swap2\n      pop\n      pop\n      jump\t// out\n        /* \"#utility.yul\":1366:1535   */\n    tag_34:\n        /* \"#utility.yul\":1450:1461   */\n      0x00\n        /* \"#utility.yul\":1484:1490   */\n      dup3\n        /* \"#utility.yul\":1479:1482   */\n      dup3\n        /* \"#utility.yul\":1472:1491   */\n      mstore\n        /* \"#utility.yul\":1524:1528   */\n      0x20\n        /* \"#utility.yul\":1519:1522   */\n      dup3\n        /* \"#utility.yul\":1515:1529   */\n      add\n        /* \"#utility.yul\":1500:1529   */\n      swap1\n      pop\n        /* \"#utility.yul\":1366:1535   */\n      swap3\n      swap2\n      pop\n      pop\n      jump\t// out\n        /* \"#utility.yul\":1541:1701   */\n    tag_35:\n        /* \"#utility.yul\":1681:1693   */\n      0x4e6f7420576f6e65722100000000000000000000000000000000000000000000\n        /* \"#utility.yul\":1677:1678   */\n      0x00\n        /* \"#utility.yul\":1669:1675   */\n      dup3\n        /* \"#utility.yul\":1665:1679   */\n      add\n        /* \"#utility.yul\":1658:1694   */\n      mstore\n        /* \"#utility.yul\":1541:1701   */\n      pop\n      jump\t// out\n        /* \"#utility.yul\":1707:2073   */\n    tag_36:\n        /* \"#utility.yul\":1849:1852   */\n      0x00\n        /* \"#utility.yul\":1870:1937   */\n      tag_56\n        /* \"#utility.yul\":1934:1936   */\n      0x0a\n        /* \"#utility.yul\":1929:1932   */\n      dup4\n        /* \"#utility.yul\":1870:1937   */\n      tag_34\n      jump\t// in\n    tag_56:\n        /* \"#utility.yul\":1863:1937   */\n      swap2\n      pop\n        /* \"#utility.yul\":1946:2039   */\n      tag_57\n        /* \"#utility.yul\":2035:2038   */\n      dup3\n        /* \"#utility.yul\":1946:2039   */\n      tag_35\n      jump\t// in\n    tag_57:\n        /* \"#utility.yul\":2064:2066   */\n      0x20\n        /* \"#utility.yul\":2059:2062   */\n      dup3\n        /* \"#utility.yul\":2055:2067   */\n      add\n        /* \"#utility.yul\":2048:2067   */\n      swap1\n      pop\n        /* \"#utility.yul\":1707:2073   */\n      swap2\n      swap1\n      pop\n      jump\t// out\n        /* \"#utility.yul\":2079:2498   */\n    tag_27:\n        /* \"#utility.yul\":2245:2249   */\n      0x00\n        /* \"#utility.yul\":2283:2285   */\n      0x20\n        /* \"#utility.yul\":2272:2281   */\n      dup3\n        /* \"#utility.yul\":2268:2286   */\n      add\n        /* \"#utility.yul\":2260:2286   */\n      swap1\n      pop\n        /* \"#utility.yul\":2332:2341   */\n      dup2\n        /* \"#utility.yul\":2326:2330   */\n      dup2\n        /* \"#utility.yul\":2322:2342   */\n      sub\n        /* \"#utility.yul\":2318:2319   */\n      0x00\n        /* \"#utility.yul\":2307:2316   */\n      dup4\n        /* \"#utility.yul\":2303:2320   */\n      add\n        /* \"#utility.yul\":2296:2343   */\n      mstore\n        /* \"#utility.yul\":2360:2491   */\n      tag_59\n        /* \"#utility.yul\":2486:2490   */\n      dup2\n        /* \"#utility.yul\":2360:2491   */\n      tag_36\n      jump\t// in\n    tag_59:\n        /* \"#utility.yul\":2352:2491   */\n      swap1\n      pop\n        /* \"#utility.yul\":2079:2498   */\n      swap2\n      swap1\n      pop\n      jump\t// out\n\n    auxdata: 0xa2646970667358221220758e4030c3116130082addb35e81cb34a1e6cbca965ba6b7215ab8ff2fb781a564736f6c634300081a0033\n}\n",
				"bytecode": {
					"linkReferences": {},
					"object": "60a06040523373ffffffffffffffffffffffffffffffffffffffff1660808173ffffffffffffffffffffffffffffffffffffffff168152505060805161034c6100565f395f818160ee01526101cc015261034c5ff3fe608060405260043610610037575f3560e01c806312065fe01461007b5780633ccfd60b146100a55780638da5cb5b146100bb57610077565b36610077577fe1fffcc4923d04b559f4d29a8bfc6cda04eb5b0d3c460751c2402c5c5cc9109c333460405161006d929190610245565b60405180910390a1005b5f80fd5b348015610086575f80fd5b5061008f6100e5565b60405161009c919061026c565b60405180910390f35b3480156100b0575f80fd5b506100b96100ec565b005b3480156100c6575f80fd5b506100cf6101ca565b6040516100dc9190610285565b60405180910390f35b5f47905090565b7f000000000000000000000000000000000000000000000000000000000000000073ffffffffffffffffffffffffffffffffffffffff163373ffffffffffffffffffffffffffffffffffffffff161461017a576040517f08c379a0000000000000000000000000000000000000000000000000000000008152600401610171906102f8565b60405180910390fd5b7f5b6b431d4476a211bb7d41c20d1aab9ae2321deee0d20be3d9fc9b1093fa6e3d476040516101a9919061026c565b60405180910390a13373ffffffffffffffffffffffffffffffffffffffff16ff5b7f000000000000000000000000000000000000000000000000000000000000000081565b5f73ffffffffffffffffffffffffffffffffffffffff82169050919050565b5f610217826101ee565b9050919050565b6102278161020d565b82525050565b5f819050919050565b61023f8161022d565b82525050565b5f6040820190506102585f83018561021e565b6102656020830184610236565b9392505050565b5f60208201905061027f5f830184610236565b92915050565b5f6020820190506102985f83018461021e565b92915050565b5f82825260208201905092915050565b7f4e6f7420576f6e657221000000000000000000000000000000000000000000005f82015250565b5f6102e2600a8361029e565b91506102ed826102ae565b602082019050919050565b5f6020820190508181035f83015261030f816102d6565b905091905056fea2646970667358221220758e4030c3116130082addb35e81cb34a1e6cbca965ba6b7215ab8ff2fb781a564736f6c634300081a0033",
					"opcodes": "PUSH1 0xA0 PUSH1 0x40 MSTORE CALLER PUSH20 0xFFFFFFFFFFFFFFFFFFFFFFFFFFFFFFFFFFFFFFFF AND PUSH1 0x80 DUP2 PUSH20 0xFFFFFFFFFFFFFFFFFFFFFFFFFFFFFFFFFFFFFFFF AND DUP2 MSTORE POP POP PUSH1 0x80 MLOAD PUSH2 0x34C PUSH2 0x56 PUSH0 CODECOPY PUSH0 DUP2 DUP2 PUSH1 0xEE ADD MSTORE PUSH2 0x1CC ADD MSTORE PUSH2 0x34C PUSH0 RETURN INVALID PUSH1 0x80 PUSH1 0x40 MSTORE PUSH1 0x4 CALLDATASIZE LT PUSH2 0x37 JUMPI PUSH0 CALLDATALOAD PUSH1 0xE0 SHR DUP1 PUSH4 0x12065FE0 EQ PUSH2 0x7B JUMPI DUP1 PUSH4 0x3CCFD60B EQ PUSH2 0xA5 JUMPI DUP1 PUSH4 0x8DA5CB5B EQ PUSH2 0xBB JUMPI PUSH2 0x77 JUMP JUMPDEST CALLDATASIZE PUSH2 0x77 JUMPI PUSH32 0xE1FFFCC4923D04B559F4D29A8BFC6CDA04EB5B0D3C460751C2402C5C5CC9109C CALLER CALLVALUE PUSH1 0x40 MLOAD PUSH2 0x6D SWAP3 SWAP2 SWAP1 PUSH2 0x245 JUMP JUMPDEST PUSH1 0x40 MLOAD DUP1 SWAP2 SUB SWAP1 LOG1 STOP JUMPDEST PUSH0 DUP1 REVERT JUMPDEST CALLVALUE DUP1 ISZERO PUSH2 0x86 JUMPI PUSH0 DUP1 REVERT JUMPDEST POP PUSH2 0x8F PUSH2 0xE5 JUMP JUMPDEST PUSH1 0x40 MLOAD PUSH2 0x9C SWAP2 SWAP1 PUSH2 0x26C JUMP JUMPDEST PUSH1 0x40 MLOAD DUP1 SWAP2 SUB SWAP1 RETURN JUMPDEST CALLVALUE DUP1 ISZERO PUSH2 0xB0 JUMPI PUSH0 DUP1 REVERT JUMPDEST POP PUSH2 0xB9 PUSH2 0xEC JUMP JUMPDEST STOP JUMPDEST CALLVALUE DUP1 ISZERO PUSH2 0xC6 JUMPI PUSH0 DUP1 REVERT JUMPDEST POP PUSH2 0xCF PUSH2 0x1CA JUMP JUMPDEST PUSH1 0x40 MLOAD PUSH2 0xDC SWAP2 SWAP1 PUSH2 0x285 JUMP JUMPDEST PUSH1 0x40 MLOAD DUP1 SWAP2 SUB SWAP1 RETURN JUMPDEST PUSH0 SELFBALANCE SWAP1 POP SWAP1 JUMP JUMPDEST PUSH32 0x0 PUSH20 0xFFFFFFFFFFFFFFFFFFFFFFFFFFFFFFFFFFFFFFFF AND CALLER PUSH20 0xFFFFFFFFFFFFFFFFFFFFFFFFFFFFFFFFFFFFFFFF AND EQ PUSH2 0x17A JUMPI PUSH1 0x40 MLOAD PUSH32 0x8C379A000000000000000000000000000000000000000000000000000000000 DUP2 MSTORE PUSH1 0x4 ADD PUSH2 0x171 SWAP1 PUSH2 0x2F8 JUMP JUMPDEST PUSH1 0x40 MLOAD DUP1 SWAP2 SUB SWAP1 REVERT JUMPDEST PUSH32 0x5B6B431D4476A211BB7D41C20D1AAB9AE2321DEEE0D20BE3D9FC9B1093FA6E3D SELFBALANCE PUSH1 0x40 MLOAD PUSH2 0x1A9 SWAP2 SWAP1 PUSH2 0x26C JUMP JUMPDEST PUSH1 0x40 MLOAD DUP1 SWAP2 SUB SWAP1 LOG1 CALLER PUSH20 0xFFFFFFFFFFFFFFFFFFFFFFFFFFFFFFFFFFFFFFFF AND SELFDESTRUCT JUMPDEST PUSH32 0x0 DUP2 JUMP JUMPDEST PUSH0 PUSH20 0xFFFFFFFFFFFFFFFFFFFFFFFFFFFFFFFFFFFFFFFF DUP3 AND SWAP1 POP SWAP2 SWAP1 POP JUMP JUMPDEST PUSH0 PUSH2 0x217 DUP3 PUSH2 0x1EE JUMP JUMPDEST SWAP1 POP SWAP2 SWAP1 POP JUMP JUMPDEST PUSH2 0x227 DUP2 PUSH2 0x20D JUMP JUMPDEST DUP3 MSTORE POP POP JUMP JUMPDEST PUSH0 DUP2 SWAP1 POP SWAP2 SWAP1 POP JUMP JUMPDEST PUSH2 0x23F DUP2 PUSH2 0x22D JUMP JUMPDEST DUP3 MSTORE POP POP JUMP JUMPDEST PUSH0 PUSH1 0x40 DUP3 ADD SWAP1 POP PUSH2 0x258 PUSH0 DUP4 ADD DUP6 PUSH2 0x21E JUMP JUMPDEST PUSH2 0x265 PUSH1 0x20 DUP4 ADD DUP5 PUSH2 0x236 JUMP JUMPDEST SWAP4 SWAP3 POP POP POP JUMP JUMPDEST PUSH0 PUSH1 0x20 DUP3 ADD SWAP1 POP PUSH2 0x27F PUSH0 DUP4 ADD DUP5 PUSH2 0x236 JUMP JUMPDEST SWAP3 SWAP2 POP POP JUMP JUMPDEST PUSH0 PUSH1 0x20 DUP3 ADD SWAP1 POP PUSH2 0x298 PUSH0 DUP4 ADD DUP5 PUSH2 0x21E JUMP JUMPDEST SWAP3 SWAP2 POP POP JUMP JUMPDEST PUSH0 DUP3 DUP3 MSTORE PUSH1 0x20 DUP3 ADD SWAP1 POP SWAP3 SWAP2 POP POP JUMP JUMPDEST PUSH32 0x4E6F7420576F6E65722100000000000000000000000000000000000000000000 PUSH0 DUP3 ADD MSTORE POP JUMP JUMPDEST PUSH0 PUSH2 0x2E2 PUSH1 0xA DUP4 PUSH2 0x29E JUMP JUMPDEST SWAP2 POP PUSH2 0x2ED DUP3 PUSH2 0x2AE JUMP JUMPDEST PUSH1 0x20 DUP3 ADD SWAP1 POP SWAP2 SWAP1 POP JUMP JUMPDEST PUSH0 PUSH1 0x20 DUP3 ADD SWAP1 POP DUP2 DUP2 SUB PUSH0 DUP4 ADD MSTORE PUSH2 0x30F DUP2 PUSH2 0x2D6 JUMP JUMPDEST SWAP1 POP SWAP2 SWAP1 POP JUMP INVALID LOG2 PUSH5 0x6970667358 0x22 SLT KECCAK256 PUSH22 0x8E4030C3116130082ADDB35E81CB34A1E6CBCA965BA6 0xB7 0x21 GAS 0xB8 SELFDESTRUCT 0x2F 0xB7 DUP2 0xA5 PUSH5 0x736F6C6343 STOP ADDMOD BYTE STOP CALLER "
				},
				"gasEstimates": {
					"creation": {
						"codeDepositCost": "168800",
						"executionCost": "infinite",
						"totalCost": "infinite"
					},
					"external": {
						"getBalance()": "312",
						"owner()": "infinite",
						"withdraw()": "infinite"
					}
				},
				"methodIdentifiers": {
					"getBalance()": "12065fe0",
					"owner()": "8da5cb5b",
					"withdraw()": "3ccfd60b"
				}
			},
			"storageLayout": {
				"storage": [],
				"types": null
			},
			"userdoc": {
				"kind": "user",
				"methods": {},
				"version": 1
			}
		}
	}
}