{
	"l2-homework/MultisigWallet.sol": {
		"MultisigWallet": {
			"abi": [
				{
					"inputs": [
						{
							"internalType": "address[]",
							"name": "_owners",
							"type": "address[]"
						},
						{
							"internalType": "uint256",
							"name": "_threshould",
							"type": "uint256"
						}
					],
					"stateMutability": "nonpayable",
					"type": "constructor"
				},
				{
					"anonymous": false,
					"inputs": [
						{
							"indexed": false,
							"internalType": "bytes32",
							"name": "txHash",
							"type": "bytes32"
						}
					],
					"name": "ExecutionFailure",
					"type": "event"
				},
				{
					"anonymous": false,
					"inputs": [
						{
							"indexed": false,
							"internalType": "bytes32",
							"name": "txHash",
							"type": "bytes32"
						}
					],
					"name": "ExecutionSuccess",
					"type": "event"
				},
				{
					"inputs": [
						{
							"internalType": "bytes32",
							"name": "dataHash",
							"type": "bytes32"
						},
						{
							"internalType": "bytes",
							"name": "signatures",
							"type": "bytes"
						}
					],
					"name": "checkSignatures",
					"outputs": [],
					"stateMutability": "view",
					"type": "function"
				},
				{
					"inputs": [
						{
							"internalType": "address",
							"name": "to",
							"type": "address"
						},
						{
							"internalType": "uint256",
							"name": "value",
							"type": "uint256"
						},
						{
							"internalType": "bytes",
							"name": "data",
							"type": "bytes"
						},
						{
							"internalType": "uint256",
							"name": "_nonce",
							"type": "uint256"
						},
						{
							"internalType": "uint256",
							"name": "chainid",
							"type": "uint256"
						}
					],
					"name": "encodeTransactionData",
					"outputs": [
						{
							"internalType": "bytes32",
							"name": "safeTxHash",
							"type": "bytes32"
						}
					],
					"stateMutability": "pure",
					"type": "function"
				},
				{
					"inputs": [
						{
							"internalType": "address",
							"name": "to",
							"type": "address"
						},
						{
							"internalType": "uint256",
							"name": "value",
							"type": "uint256"
						},
						{
							"internalType": "bytes",
							"name": "data",
							"type": "bytes"
						},
						{
							"internalType": "bytes",
							"name": "signatures",
							"type": "bytes"
						}
					],
					"name": "execTrasaction",
					"outputs": [
						{
							"internalType": "bool",
							"name": "success",
							"type": "bool"
						}
					],
					"stateMutability": "payable",
					"type": "function"
				},
				{
					"inputs": [
						{
							"internalType": "address",
							"name": "",
							"type": "address"
						}
					],
					"name": "isOwner",
					"outputs": [
						{
							"internalType": "bool",
							"name": "",
							"type": "bool"
						}
					],
					"stateMutability": "view",
					"type": "function"
				},
				{
					"inputs": [],
					"name": "nonce",
					"outputs": [
						{
							"internalType": "uint256",
							"name": "",
							"type": "uint256"
						}
					],
					"stateMutability": "view",
					"type": "function"
				},
				{
					"inputs": [],
					"name": "ownerCount",
					"outputs": [
						{
							"internalType": "uint256",
							"name": "",
							"type": "uint256"
						}
					],
					"stateMutability": "view",
					"type": "function"
				},
				{
					"inputs": [
						{
							"internalType": "uint256",
							"name": "",
							"type": "uint256"
						}
					],
					"name": "owners",
					"outputs": [
						{
							"internalType": "address",
							"name": "",
							"type": "address"
						}
					],
					"stateMutability": "view",
					"type": "function"
				},
				{
					"inputs": [],
					"name": "threshould",
					"outputs": [
						{
							"internalType": "uint256",
							"name": "",
							"type": "uint256"
						}
					],
					"stateMutability": "view",
					"type": "function"
				}
			],
			"devdoc": {
				"kind": "dev",
				"methods": {},
				"version": 1
			},
			"evm": {
				"assembly": "    /* \"l2-homework/MultisigWallet.sol\":64:3080  contract MultisigWallet {... */\n  mstore(0x40, 0x80)\n    /* \"l2-homework/MultisigWallet.sol\":337:444  constructor(address[] memory _owners, uint _threshould) {... */\n  callvalue\n  dup1\n  iszero\n  tag_1\n  jumpi\n  0x00\n  dup1\n  revert\ntag_1:\n  pop\n  mload(0x40)\n  sub(codesize, bytecodeSize)\n  dup1\n  bytecodeSize\n  dup4\n  codecopy\n  dup2\n  dup2\n  add\n  0x40\n  mstore\n  dup2\n  add\n  swap1\n  tag_2\n  swap2\n  swap1\n  tag_3\n  jump\t// in\ntag_2:\n    /* \"l2-homework/MultisigWallet.sol\":403:437  _setupOwners(_owners, _threshould) */\n  tag_6\n    /* \"l2-homework/MultisigWallet.sol\":416:423  _owners */\n  dup3\n    /* \"l2-homework/MultisigWallet.sol\":425:436  _threshould */\n  dup3\n    /* \"l2-homework/MultisigWallet.sol\":403:415  _setupOwners */\n  shl(0x20, tag_7)\n    /* \"l2-homework/MultisigWallet.sol\":403:437  _setupOwners(_owners, _threshould) */\n  0x20\n  shr\n  jump\t// in\ntag_6:\n    /* \"l2-homework/MultisigWallet.sol\":337:444  constructor(address[] memory _owners, uint _threshould) {... */\n  pop\n  pop\n    /* \"l2-homework/MultisigWallet.sol\":64:3080  contract MultisigWallet {... */\n  jump(tag_8)\n    /* \"l2-homework/MultisigWallet.sol\":450:1017  function _setupOwners(address[] memory _owners, uint _threshould) internal {... */\ntag_7:\n    /* \"l2-homework/MultisigWallet.sol\":557:558  0 */\n  0x00\n    /* \"l2-homework/MultisigWallet.sol\":543:553  threshould */\n  sload(0x03)\n    /* \"l2-homework/MultisigWallet.sol\":543:558  threshould == 0 */\n  eq\n    /* \"l2-homework/MultisigWallet.sol\":535:569  require(threshould == 0, \"DQ5000\") */\n  tag_10\n  jumpi\n  mload(0x40)\n  0x08c379a000000000000000000000000000000000000000000000000000000000\n  dup2\n  mstore\n  0x04\n  add\n  tag_11\n  swap1\n  tag_12\n  jump\t// in\ntag_11:\n  mload(0x40)\n  dup1\n  swap2\n  sub\n  swap1\n  revert\ntag_10:\n    /* \"l2-homework/MultisigWallet.sol\":602:609  _owners */\n  dup2\n    /* \"l2-homework/MultisigWallet.sol\":602:616  _owners.length */\n  mload\n    /* \"l2-homework/MultisigWallet.sol\":587:598  _threshould */\n  dup2\n    /* \"l2-homework/MultisigWallet.sol\":587:616  _threshould <= _owners.length */\n  gt\n  iszero\n    /* \"l2-homework/MultisigWallet.sol\":579:627  require(_threshould <= _owners.length, \"DQ5001\") */\n  tag_13\n  jumpi\n  mload(0x40)\n  0x08c379a000000000000000000000000000000000000000000000000000000000\n  dup2\n  mstore\n  0x04\n  add\n  tag_14\n  swap1\n  tag_15\n  jump\t// in\ntag_14:\n  mload(0x40)\n  dup1\n  swap2\n  sub\n  swap1\n  revert\ntag_13:\n    /* \"l2-homework/MultisigWallet.sol\":660:661  1 */\n  0x01\n    /* \"l2-homework/MultisigWallet.sol\":645:656  _threshould */\n  dup2\n    /* \"l2-homework/MultisigWallet.sol\":645:661  _threshould >= 1 */\n  lt\n  iszero\n    /* \"l2-homework/MultisigWallet.sol\":637:672  require(_threshould >= 1, \"DQ5002\") */\n  tag_16\n  jumpi\n  mload(0x40)\n  0x08c379a000000000000000000000000000000000000000000000000000000000\n  dup2\n  mstore\n  0x04\n  add\n  tag_17\n  swap1\n  tag_18\n  jump\t// in\ntag_17:\n  mload(0x40)\n  dup1\n  swap2\n  sub\n  swap1\n  revert\ntag_16:\n    /* \"l2-homework/MultisigWallet.sol\":688:694  uint i */\n  0x00\n    /* \"l2-homework/MultisigWallet.sol\":683:940  for (uint i = 0; i < _owners.length; i++) {... */\ntag_19:\n    /* \"l2-homework/MultisigWallet.sol\":704:711  _owners */\n  dup3\n    /* \"l2-homework/MultisigWallet.sol\":704:718  _owners.length */\n  mload\n    /* \"l2-homework/MultisigWallet.sol\":700:701  i */\n  dup2\n    /* \"l2-homework/MultisigWallet.sol\":700:718  i < _owners.length */\n  lt\n    /* \"l2-homework/MultisigWallet.sol\":683:940  for (uint i = 0; i < _owners.length; i++) {... */\n  iszero\n  tag_20\n  jumpi\n    /* \"l2-homework/MultisigWallet.sol\":739:752  address owner */\n  0x00\n    /* \"l2-homework/MultisigWallet.sol\":755:762  _owners */\n  dup4\n    /* \"l2-homework/MultisigWallet.sol\":763:764  i */\n  dup3\n    /* \"l2-homework/MultisigWallet.sol\":755:765  _owners[i] */\n  dup2\n  mload\n  dup2\n  lt\n  tag_22\n  jumpi\n  tag_23\n  tag_24\n  jump\t// in\ntag_23:\ntag_22:\n  0x20\n  mul\n  0x20\n  add\n  add\n  mload\n    /* \"l2-homework/MultisigWallet.sol\":739:765  address owner = _owners[i] */\n  swap1\n  pop\n    /* \"l2-homework/MultisigWallet.sol\":804:805  0 */\n  0x00\n    /* \"l2-homework/MultisigWallet.sol\":787:806  owner != address(0) */\n  0xffffffffffffffffffffffffffffffffffffffff\n  and\n    /* \"l2-homework/MultisigWallet.sol\":787:792  owner */\n  dup2\n    /* \"l2-homework/MultisigWallet.sol\":787:806  owner != address(0) */\n  0xffffffffffffffffffffffffffffffffffffffff\n  and\n  eq\n  iszero\n    /* \"l2-homework/MultisigWallet.sol\":787:832  owner != address(0) && owner != address(this) */\n  dup1\n  iszero\n  tag_25\n  jumpi\n  pop\n    /* \"l2-homework/MultisigWallet.sol\":827:831  this */\n  address\n    /* \"l2-homework/MultisigWallet.sol\":810:832  owner != address(this) */\n  0xffffffffffffffffffffffffffffffffffffffff\n  and\n    /* \"l2-homework/MultisigWallet.sol\":810:815  owner */\n  dup2\n    /* \"l2-homework/MultisigWallet.sol\":810:832  owner != address(this) */\n  0xffffffffffffffffffffffffffffffffffffffff\n  and\n  eq\n  iszero\n    /* \"l2-homework/MultisigWallet.sol\":787:832  owner != address(0) && owner != address(this) */\ntag_25:\n    /* \"l2-homework/MultisigWallet.sol\":787:851  owner != address(0) && owner != address(this) && !isOwner[owner] */\n  dup1\n  iszero\n  tag_26\n  jumpi\n  pop\n    /* \"l2-homework/MultisigWallet.sol\":837:844  isOwner */\n  0x01\n    /* \"l2-homework/MultisigWallet.sol\":837:851  isOwner[owner] */\n  0x00\n    /* \"l2-homework/MultisigWallet.sol\":845:850  owner */\n  dup3\n    /* \"l2-homework/MultisigWallet.sol\":837:851  isOwner[owner] */\n  0xffffffffffffffffffffffffffffffffffffffff\n  and\n  0xffffffffffffffffffffffffffffffffffffffff\n  and\n  dup2\n  mstore\n  0x20\n  add\n  swap1\n  dup2\n  mstore\n  0x20\n  add\n  0x00\n  keccak256\n  0x00\n  swap1\n  sload\n  swap1\n  0x0100\n  exp\n  swap1\n  div\n  0xff\n  and\n    /* \"l2-homework/MultisigWallet.sol\":836:851  !isOwner[owner] */\n  iszero\n    /* \"l2-homework/MultisigWallet.sol\":787:851  owner != address(0) && owner != address(this) && !isOwner[owner] */\ntag_26:\n    /* \"l2-homework/MultisigWallet.sol\":779:862  require(owner != address(0) && owner != address(this) && !isOwner[owner], \"DQ5003\") */\n  tag_27\n  jumpi\n  mload(0x40)\n  0x08c379a000000000000000000000000000000000000000000000000000000000\n  dup2\n  mstore\n  0x04\n  add\n  tag_28\n  swap1\n  tag_29\n  jump\t// in\ntag_28:\n  mload(0x40)\n  dup1\n  swap2\n  sub\n  swap1\n  revert\ntag_27:\n    /* \"l2-homework/MultisigWallet.sol\":876:882  owners */\n  0x00\n    /* \"l2-homework/MultisigWallet.sol\":888:893  owner */\n  dup2\n    /* \"l2-homework/MultisigWallet.sol\":876:894  owners.push(owner) */\n  swap1\n  dup1\n  0x01\n  dup2\n  sload\n  add\n  dup1\n  dup3\n  sstore\n  dup1\n  swap2\n  pop\n  pop\n  0x01\n  swap1\n  sub\n  swap1\n  0x00\n  mstore\n  keccak256(0x00, 0x20)\n  add\n  0x00\n  swap1\n  swap2\n  swap1\n  swap2\n  swap1\n  swap2\n  0x0100\n  exp\n  dup2\n  sload\n  dup2\n  0xffffffffffffffffffffffffffffffffffffffff\n  mul\n  not\n  and\n  swap1\n  dup4\n  0xffffffffffffffffffffffffffffffffffffffff\n  and\n  mul\n  or\n  swap1\n  sstore\n  pop\n    /* \"l2-homework/MultisigWallet.sol\":925:929  true */\n  0x01\n    /* \"l2-homework/MultisigWallet.sol\":908:915  isOwner */\n  dup1\n    /* \"l2-homework/MultisigWallet.sol\":908:922  isOwner[owner] */\n  0x00\n    /* \"l2-homework/MultisigWallet.sol\":916:921  owner */\n  dup4\n    /* \"l2-homework/MultisigWallet.sol\":908:922  isOwner[owner] */\n  0xffffffffffffffffffffffffffffffffffffffff\n  and\n  0xffffffffffffffffffffffffffffffffffffffff\n  and\n  dup2\n  mstore\n  0x20\n  add\n  swap1\n  dup2\n  mstore\n  0x20\n  add\n  0x00\n  keccak256\n  0x00\n    /* \"l2-homework/MultisigWallet.sol\":908:929  isOwner[owner] = true */\n  0x0100\n  exp\n  dup2\n  sload\n  dup2\n  0xff\n  mul\n  not\n  and\n  swap1\n  dup4\n  iszero\n  iszero\n  mul\n  or\n  swap1\n  sstore\n  pop\n    /* \"l2-homework/MultisigWallet.sol\":725:940  {... */\n  pop\n    /* \"l2-homework/MultisigWallet.sol\":720:723  i++ */\n  dup1\n  dup1\n  0x01\n  add\n  swap2\n  pop\n  pop\n    /* \"l2-homework/MultisigWallet.sol\":683:940  for (uint i = 0; i < _owners.length; i++) {... */\n  jump(tag_19)\ntag_20:\n  pop\n    /* \"l2-homework/MultisigWallet.sol\":962:969  _owners */\n  dup2\n    /* \"l2-homework/MultisigWallet.sol\":962:976  _owners.length */\n  mload\n    /* \"l2-homework/MultisigWallet.sol\":949:959  ownerCount */\n  0x02\n    /* \"l2-homework/MultisigWallet.sol\":949:976  ownerCount = _owners.length */\n  dup2\n  swap1\n  sstore\n  pop\n    /* \"l2-homework/MultisigWallet.sol\":999:1010  _threshould */\n  dup1\n    /* \"l2-homework/MultisigWallet.sol\":986:996  threshould */\n  0x03\n    /* \"l2-homework/MultisigWallet.sol\":986:1010  threshould = _threshould */\n  dup2\n  swap1\n  sstore\n  pop\n    /* \"l2-homework/MultisigWallet.sol\":450:1017  function _setupOwners(address[] memory _owners, uint _threshould) internal {... */\n  pop\n  pop\n  jump\t// out\n    /* \"#utility.yul\":7:82   */\ntag_31:\n    /* \"#utility.yul\":40:46   */\n  0x00\n    /* \"#utility.yul\":73:75   */\n  0x40\n    /* \"#utility.yul\":67:76   */\n  mload\n    /* \"#utility.yul\":57:76   */\n  swap1\n  pop\n    /* \"#utility.yul\":7:82   */\n  swap1\n  jump\t// out\n    /* \"#utility.yul\":88:205   */\ntag_32:\n    /* \"#utility.yul\":197:198   */\n  0x00\n    /* \"#utility.yul\":194:195   */\n  dup1\n    /* \"#utility.yul\":187:199   */\n  revert\n    /* \"#utility.yul\":211:328   */\ntag_33:\n    /* \"#utility.yul\":320:321   */\n  0x00\n    /* \"#utility.yul\":317:318   */\n  dup1\n    /* \"#utility.yul\":310:322   */\n  revert\n    /* \"#utility.yul\":334:451   */\ntag_34:\n    /* \"#utility.yul\":443:444   */\n  0x00\n    /* \"#utility.yul\":440:441   */\n  dup1\n    /* \"#utility.yul\":433:445   */\n  revert\n    /* \"#utility.yul\":457:559   */\ntag_35:\n    /* \"#utility.yul\":498:504   */\n  0x00\n    /* \"#utility.yul\":549:551   */\n  0x1f\n    /* \"#utility.yul\":545:552   */\n  not\n    /* \"#utility.yul\":540:542   */\n  0x1f\n    /* \"#utility.yul\":533:538   */\n  dup4\n    /* \"#utility.yul\":529:543   */\n  add\n    /* \"#utility.yul\":525:553   */\n  and\n    /* \"#utility.yul\":515:553   */\n  swap1\n  pop\n    /* \"#utility.yul\":457:559   */\n  swap2\n  swap1\n  pop\n  jump\t// out\n    /* \"#utility.yul\":565:745   */\ntag_36:\n    /* \"#utility.yul\":613:690   */\n  0x4e487b7100000000000000000000000000000000000000000000000000000000\n    /* \"#utility.yul\":610:611   */\n  0x00\n    /* \"#utility.yul\":603:691   */\n  mstore\n    /* \"#utility.yul\":710:714   */\n  0x41\n    /* \"#utility.yul\":707:708   */\n  0x04\n    /* \"#utility.yul\":700:715   */\n  mstore\n    /* \"#utility.yul\":734:738   */\n  0x24\n    /* \"#utility.yul\":731:732   */\n  0x00\n    /* \"#utility.yul\":724:739   */\n  revert\n    /* \"#utility.yul\":751:1032   */\ntag_37:\n    /* \"#utility.yul\":834:861   */\n  tag_67\n    /* \"#utility.yul\":856:860   */\n  dup3\n    /* \"#utility.yul\":834:861   */\n  tag_35\n  jump\t// in\ntag_67:\n    /* \"#utility.yul\":826:832   */\n  dup2\n    /* \"#utility.yul\":822:862   */\n  add\n    /* \"#utility.yul\":964:970   */\n  dup2\n    /* \"#utility.yul\":952:962   */\n  dup2\n    /* \"#utility.yul\":949:971   */\n  lt\n    /* \"#utility.yul\":928:946   */\n  0xffffffffffffffff\n    /* \"#utility.yul\":916:926   */\n  dup3\n    /* \"#utility.yul\":913:947   */\n  gt\n    /* \"#utility.yul\":910:972   */\n  or\n    /* \"#utility.yul\":907:995   */\n  iszero\n  tag_68\n  jumpi\n    /* \"#utility.yul\":975:993   */\n  tag_69\n  tag_36\n  jump\t// in\ntag_69:\n    /* \"#utility.yul\":907:995   */\ntag_68:\n    /* \"#utility.yul\":1015:1025   */\n  dup1\n    /* \"#utility.yul\":1011:1013   */\n  0x40\n    /* \"#utility.yul\":1004:1026   */\n  mstore\n    /* \"#utility.yul\":794:1032   */\n  pop\n    /* \"#utility.yul\":751:1032   */\n  pop\n  pop\n  jump\t// out\n    /* \"#utility.yul\":1038:1167   */\ntag_38:\n    /* \"#utility.yul\":1072:1078   */\n  0x00\n    /* \"#utility.yul\":1099:1119   */\n  tag_71\n  tag_31\n  jump\t// in\ntag_71:\n    /* \"#utility.yul\":1089:1119   */\n  swap1\n  pop\n    /* \"#utility.yul\":1128:1161   */\n  tag_72\n    /* \"#utility.yul\":1156:1160   */\n  dup3\n    /* \"#utility.yul\":1148:1154   */\n  dup3\n    /* \"#utility.yul\":1128:1161   */\n  tag_37\n  jump\t// in\ntag_72:\n    /* \"#utility.yul\":1038:1167   */\n  swap2\n  swap1\n  pop\n  jump\t// out\n    /* \"#utility.yul\":1173:1484   */\ntag_39:\n    /* \"#utility.yul\":1250:1254   */\n  0x00\n    /* \"#utility.yul\":1340:1358   */\n  0xffffffffffffffff\n    /* \"#utility.yul\":1332:1338   */\n  dup3\n    /* \"#utility.yul\":1329:1359   */\n  gt\n    /* \"#utility.yul\":1326:1382   */\n  iszero\n  tag_74\n  jumpi\n    /* \"#utility.yul\":1362:1380   */\n  tag_75\n  tag_36\n  jump\t// in\ntag_75:\n    /* \"#utility.yul\":1326:1382   */\ntag_74:\n    /* \"#utility.yul\":1412:1416   */\n  0x20\n    /* \"#utility.yul\":1404:1410   */\n  dup3\n    /* \"#utility.yul\":1400:1417   */\n  mul\n    /* \"#utility.yul\":1392:1417   */\n  swap1\n  pop\n    /* \"#utility.yul\":1472:1476   */\n  0x20\n    /* \"#utility.yul\":1466:1470   */\n  dup2\n    /* \"#utility.yul\":1462:1477   */\n  add\n    /* \"#utility.yul\":1454:1477   */\n  swap1\n  pop\n    /* \"#utility.yul\":1173:1484   */\n  swap2\n  swap1\n  pop\n  jump\t// out\n    /* \"#utility.yul\":1490:1607   */\ntag_40:\n    /* \"#utility.yul\":1599:1600   */\n  0x00\n    /* \"#utility.yul\":1596:1597   */\n  dup1\n    /* \"#utility.yul\":1589:1601   */\n  revert\n    /* \"#utility.yul\":1613:1739   */\ntag_41:\n    /* \"#utility.yul\":1650:1657   */\n  0x00\n    /* \"#utility.yul\":1690:1732   */\n  0xffffffffffffffffffffffffffffffffffffffff\n    /* \"#utility.yul\":1683:1688   */\n  dup3\n    /* \"#utility.yul\":1679:1733   */\n  and\n    /* \"#utility.yul\":1668:1733   */\n  swap1\n  pop\n    /* \"#utility.yul\":1613:1739   */\n  swap2\n  swap1\n  pop\n  jump\t// out\n    /* \"#utility.yul\":1745:1841   */\ntag_42:\n    /* \"#utility.yul\":1782:1789   */\n  0x00\n    /* \"#utility.yul\":1811:1835   */\n  tag_79\n    /* \"#utility.yul\":1829:1834   */\n  dup3\n    /* \"#utility.yul\":1811:1835   */\n  tag_41\n  jump\t// in\ntag_79:\n    /* \"#utility.yul\":1800:1835   */\n  swap1\n  pop\n    /* \"#utility.yul\":1745:1841   */\n  swap2\n  swap1\n  pop\n  jump\t// out\n    /* \"#utility.yul\":1847:1969   */\ntag_43:\n    /* \"#utility.yul\":1920:1944   */\n  tag_81\n    /* \"#utility.yul\":1938:1943   */\n  dup2\n    /* \"#utility.yul\":1920:1944   */\n  tag_42\n  jump\t// in\ntag_81:\n    /* \"#utility.yul\":1913:1918   */\n  dup2\n    /* \"#utility.yul\":1910:1945   */\n  eq\n    /* \"#utility.yul\":1900:1963   */\n  tag_82\n  jumpi\n    /* \"#utility.yul\":1959:1960   */\n  0x00\n    /* \"#utility.yul\":1956:1957   */\n  dup1\n    /* \"#utility.yul\":1949:1961   */\n  revert\n    /* \"#utility.yul\":1900:1963   */\ntag_82:\n    /* \"#utility.yul\":1847:1969   */\n  pop\n  jump\t// out\n    /* \"#utility.yul\":1975:2118   */\ntag_44:\n    /* \"#utility.yul\":2032:2037   */\n  0x00\n    /* \"#utility.yul\":2063:2069   */\n  dup2\n    /* \"#utility.yul\":2057:2070   */\n  mload\n    /* \"#utility.yul\":2048:2070   */\n  swap1\n  pop\n    /* \"#utility.yul\":2079:2112   */\n  tag_84\n    /* \"#utility.yul\":2106:2111   */\n  dup2\n    /* \"#utility.yul\":2079:2112   */\n  tag_43\n  jump\t// in\ntag_84:\n    /* \"#utility.yul\":1975:2118   */\n  swap3\n  swap2\n  pop\n  pop\n  jump\t// out\n    /* \"#utility.yul\":2141:2873   */\ntag_45:\n    /* \"#utility.yul\":2248:2253   */\n  0x00\n    /* \"#utility.yul\":2273:2354   */\n  tag_86\n    /* \"#utility.yul\":2289:2353   */\n  tag_87\n    /* \"#utility.yul\":2346:2352   */\n  dup5\n    /* \"#utility.yul\":2289:2353   */\n  tag_39\n  jump\t// in\ntag_87:\n    /* \"#utility.yul\":2273:2354   */\n  tag_38\n  jump\t// in\ntag_86:\n    /* \"#utility.yul\":2264:2354   */\n  swap1\n  pop\n    /* \"#utility.yul\":2374:2379   */\n  dup1\n    /* \"#utility.yul\":2403:2409   */\n  dup4\n    /* \"#utility.yul\":2396:2401   */\n  dup3\n    /* \"#utility.yul\":2389:2410   */\n  mstore\n    /* \"#utility.yul\":2437:2441   */\n  0x20\n    /* \"#utility.yul\":2430:2435   */\n  dup3\n    /* \"#utility.yul\":2426:2442   */\n  add\n    /* \"#utility.yul\":2419:2442   */\n  swap1\n  pop\n    /* \"#utility.yul\":2490:2494   */\n  0x20\n    /* \"#utility.yul\":2482:2488   */\n  dup5\n    /* \"#utility.yul\":2478:2495   */\n  mul\n    /* \"#utility.yul\":2470:2476   */\n  dup4\n    /* \"#utility.yul\":2466:2496   */\n  add\n    /* \"#utility.yul\":2519:2522   */\n  dup6\n    /* \"#utility.yul\":2511:2517   */\n  dup2\n    /* \"#utility.yul\":2508:2523   */\n  gt\n    /* \"#utility.yul\":2505:2627   */\n  iszero\n  tag_88\n  jumpi\n    /* \"#utility.yul\":2538:2617   */\n  tag_89\n  tag_40\n  jump\t// in\ntag_89:\n    /* \"#utility.yul\":2505:2627   */\ntag_88:\n    /* \"#utility.yul\":2653:2659   */\n  dup4\n    /* \"#utility.yul\":2636:2867   */\ntag_90:\n    /* \"#utility.yul\":2670:2676   */\n  dup2\n    /* \"#utility.yul\":2665:2668   */\n  dup2\n    /* \"#utility.yul\":2662:2677   */\n  lt\n    /* \"#utility.yul\":2636:2867   */\n  iszero\n  tag_92\n  jumpi\n    /* \"#utility.yul\":2745:2748   */\n  dup1\n    /* \"#utility.yul\":2774:2822   */\n  tag_93\n    /* \"#utility.yul\":2818:2821   */\n  dup9\n    /* \"#utility.yul\":2806:2816   */\n  dup3\n    /* \"#utility.yul\":2774:2822   */\n  tag_44\n  jump\t// in\ntag_93:\n    /* \"#utility.yul\":2769:2772   */\n  dup5\n    /* \"#utility.yul\":2762:2823   */\n  mstore\n    /* \"#utility.yul\":2852:2856   */\n  0x20\n    /* \"#utility.yul\":2847:2850   */\n  dup5\n    /* \"#utility.yul\":2843:2857   */\n  add\n    /* \"#utility.yul\":2836:2857   */\n  swap4\n  pop\n    /* \"#utility.yul\":2712:2867   */\n  pop\n    /* \"#utility.yul\":2696:2700   */\n  0x20\n    /* \"#utility.yul\":2691:2694   */\n  dup2\n    /* \"#utility.yul\":2687:2701   */\n  add\n    /* \"#utility.yul\":2680:2701   */\n  swap1\n  pop\n    /* \"#utility.yul\":2636:2867   */\n  jump(tag_90)\ntag_92:\n    /* \"#utility.yul\":2640:2661   */\n  pop\n    /* \"#utility.yul\":2254:2873   */\n  pop\n  pop\n    /* \"#utility.yul\":2141:2873   */\n  swap4\n  swap3\n  pop\n  pop\n  pop\n  jump\t// out\n    /* \"#utility.yul\":2896:3281   */\ntag_46:\n    /* \"#utility.yul\":2978:2983   */\n  0x00\n    /* \"#utility.yul\":3027:3030   */\n  dup3\n    /* \"#utility.yul\":3020:3024   */\n  0x1f\n    /* \"#utility.yul\":3012:3018   */\n  dup4\n    /* \"#utility.yul\":3008:3025   */\n  add\n    /* \"#utility.yul\":3004:3031   */\n  slt\n    /* \"#utility.yul\":2994:3116   */\n  tag_95\n  jumpi\n    /* \"#utility.yul\":3035:3114   */\n  tag_96\n  tag_34\n  jump\t// in\ntag_96:\n    /* \"#utility.yul\":2994:3116   */\ntag_95:\n    /* \"#utility.yul\":3145:3151   */\n  dup2\n    /* \"#utility.yul\":3139:3152   */\n  mload\n    /* \"#utility.yul\":3170:3275   */\n  tag_97\n    /* \"#utility.yul\":3271:3274   */\n  dup5\n    /* \"#utility.yul\":3263:3269   */\n  dup3\n    /* \"#utility.yul\":3256:3260   */\n  0x20\n    /* \"#utility.yul\":3248:3254   */\n  dup7\n    /* \"#utility.yul\":3244:3261   */\n  add\n    /* \"#utility.yul\":3170:3275   */\n  tag_45\n  jump\t// in\ntag_97:\n    /* \"#utility.yul\":3161:3275   */\n  swap2\n  pop\n    /* \"#utility.yul\":2984:3281   */\n  pop\n    /* \"#utility.yul\":2896:3281   */\n  swap3\n  swap2\n  pop\n  pop\n  jump\t// out\n    /* \"#utility.yul\":3287:3364   */\ntag_47:\n    /* \"#utility.yul\":3324:3331   */\n  0x00\n    /* \"#utility.yul\":3353:3358   */\n  dup2\n    /* \"#utility.yul\":3342:3358   */\n  swap1\n  pop\n    /* \"#utility.yul\":3287:3364   */\n  swap2\n  swap1\n  pop\n  jump\t// out\n    /* \"#utility.yul\":3370:3492   */\ntag_48:\n    /* \"#utility.yul\":3443:3467   */\n  tag_100\n    /* \"#utility.yul\":3461:3466   */\n  dup2\n    /* \"#utility.yul\":3443:3467   */\n  tag_47\n  jump\t// in\ntag_100:\n    /* \"#utility.yul\":3436:3441   */\n  dup2\n    /* \"#utility.yul\":3433:3468   */\n  eq\n    /* \"#utility.yul\":3423:3486   */\n  tag_101\n  jumpi\n    /* \"#utility.yul\":3482:3483   */\n  0x00\n    /* \"#utility.yul\":3479:3480   */\n  dup1\n    /* \"#utility.yul\":3472:3484   */\n  revert\n    /* \"#utility.yul\":3423:3486   */\ntag_101:\n    /* \"#utility.yul\":3370:3492   */\n  pop\n  jump\t// out\n    /* \"#utility.yul\":3498:3641   */\ntag_49:\n    /* \"#utility.yul\":3555:3560   */\n  0x00\n    /* \"#utility.yul\":3586:3592   */\n  dup2\n    /* \"#utility.yul\":3580:3593   */\n  mload\n    /* \"#utility.yul\":3571:3593   */\n  swap1\n  pop\n    /* \"#utility.yul\":3602:3635   */\n  tag_103\n    /* \"#utility.yul\":3629:3634   */\n  dup2\n    /* \"#utility.yul\":3602:3635   */\n  tag_48\n  jump\t// in\ntag_103:\n    /* \"#utility.yul\":3498:3641   */\n  swap3\n  swap2\n  pop\n  pop\n  jump\t// out\n    /* \"#utility.yul\":3647:4357   */\ntag_3:\n    /* \"#utility.yul\":3751:3757   */\n  0x00\n    /* \"#utility.yul\":3759:3765   */\n  dup1\n    /* \"#utility.yul\":3808:3810   */\n  0x40\n    /* \"#utility.yul\":3796:3805   */\n  dup4\n    /* \"#utility.yul\":3787:3794   */\n  dup6\n    /* \"#utility.yul\":3783:3806   */\n  sub\n    /* \"#utility.yul\":3779:3811   */\n  slt\n    /* \"#utility.yul\":3776:3895   */\n  iszero\n  tag_105\n  jumpi\n    /* \"#utility.yul\":3814:3893   */\n  tag_106\n  tag_32\n  jump\t// in\ntag_106:\n    /* \"#utility.yul\":3776:3895   */\ntag_105:\n    /* \"#utility.yul\":3955:3956   */\n  0x00\n    /* \"#utility.yul\":3944:3953   */\n  dup4\n    /* \"#utility.yul\":3940:3957   */\n  add\n    /* \"#utility.yul\":3934:3958   */\n  mload\n    /* \"#utility.yul\":3985:4003   */\n  0xffffffffffffffff\n    /* \"#utility.yul\":3977:3983   */\n  dup2\n    /* \"#utility.yul\":3974:4004   */\n  gt\n    /* \"#utility.yul\":3971:4088   */\n  iszero\n  tag_107\n  jumpi\n    /* \"#utility.yul\":4007:4086   */\n  tag_108\n  tag_33\n  jump\t// in\ntag_108:\n    /* \"#utility.yul\":3971:4088   */\ntag_107:\n    /* \"#utility.yul\":4112:4201   */\n  tag_109\n    /* \"#utility.yul\":4193:4200   */\n  dup6\n    /* \"#utility.yul\":4184:4190   */\n  dup3\n    /* \"#utility.yul\":4173:4182   */\n  dup7\n    /* \"#utility.yul\":4169:4191   */\n  add\n    /* \"#utility.yul\":4112:4201   */\n  tag_46\n  jump\t// in\ntag_109:\n    /* \"#utility.yul\":4102:4201   */\n  swap3\n  pop\n    /* \"#utility.yul\":3905:4211   */\n  pop\n    /* \"#utility.yul\":4250:4252   */\n  0x20\n    /* \"#utility.yul\":4276:4340   */\n  tag_110\n    /* \"#utility.yul\":4332:4339   */\n  dup6\n    /* \"#utility.yul\":4323:4329   */\n  dup3\n    /* \"#utility.yul\":4312:4321   */\n  dup7\n    /* \"#utility.yul\":4308:4330   */\n  add\n    /* \"#utility.yul\":4276:4340   */\n  tag_49\n  jump\t// in\ntag_110:\n    /* \"#utility.yul\":4266:4340   */\n  swap2\n  pop\n    /* \"#utility.yul\":4221:4350   */\n  pop\n    /* \"#utility.yul\":3647:4357   */\n  swap3\n  pop\n  swap3\n  swap1\n  pop\n  jump\t// out\n    /* \"#utility.yul\":4363:4532   */\ntag_50:\n    /* \"#utility.yul\":4447:4458   */\n  0x00\n    /* \"#utility.yul\":4481:4487   */\n  dup3\n    /* \"#utility.yul\":4476:4479   */\n  dup3\n    /* \"#utility.yul\":4469:4488   */\n  mstore\n    /* \"#utility.yul\":4521:4525   */\n  0x20\n    /* \"#utility.yul\":4516:4519   */\n  dup3\n    /* \"#utility.yul\":4512:4526   */\n  add\n    /* \"#utility.yul\":4497:4526   */\n  swap1\n  pop\n    /* \"#utility.yul\":4363:4532   */\n  swap3\n  swap2\n  pop\n  pop\n  jump\t// out\n    /* \"#utility.yul\":4538:4694   */\ntag_51:\n    /* \"#utility.yul\":4678:4686   */\n  0x4451353030300000000000000000000000000000000000000000000000000000\n    /* \"#utility.yul\":4674:4675   */\n  0x00\n    /* \"#utility.yul\":4666:4672   */\n  dup3\n    /* \"#utility.yul\":4662:4676   */\n  add\n    /* \"#utility.yul\":4655:4687   */\n  mstore\n    /* \"#utility.yul\":4538:4694   */\n  pop\n  jump\t// out\n    /* \"#utility.yul\":4700:5065   */\ntag_52:\n    /* \"#utility.yul\":4842:4845   */\n  0x00\n    /* \"#utility.yul\":4863:4929   */\n  tag_114\n    /* \"#utility.yul\":4927:4928   */\n  0x06\n    /* \"#utility.yul\":4922:4925   */\n  dup4\n    /* \"#utility.yul\":4863:4929   */\n  tag_50\n  jump\t// in\ntag_114:\n    /* \"#utility.yul\":4856:4929   */\n  swap2\n  pop\n    /* \"#utility.yul\":4938:5031   */\n  tag_115\n    /* \"#utility.yul\":5027:5030   */\n  dup3\n    /* \"#utility.yul\":4938:5031   */\n  tag_51\n  jump\t// in\ntag_115:\n    /* \"#utility.yul\":5056:5058   */\n  0x20\n    /* \"#utility.yul\":5051:5054   */\n  dup3\n    /* \"#utility.yul\":5047:5059   */\n  add\n    /* \"#utility.yul\":5040:5059   */\n  swap1\n  pop\n    /* \"#utility.yul\":4700:5065   */\n  swap2\n  swap1\n  pop\n  jump\t// out\n    /* \"#utility.yul\":5071:5490   */\ntag_12:\n    /* \"#utility.yul\":5237:5241   */\n  0x00\n    /* \"#utility.yul\":5275:5277   */\n  0x20\n    /* \"#utility.yul\":5264:5273   */\n  dup3\n    /* \"#utility.yul\":5260:5278   */\n  add\n    /* \"#utility.yul\":5252:5278   */\n  swap1\n  pop\n    /* \"#utility.yul\":5324:5333   */\n  dup2\n    /* \"#utility.yul\":5318:5322   */\n  dup2\n    /* \"#utility.yul\":5314:5334   */\n  sub\n    /* \"#utility.yul\":5310:5311   */\n  0x00\n    /* \"#utility.yul\":5299:5308   */\n  dup4\n    /* \"#utility.yul\":5295:5312   */\n  add\n    /* \"#utility.yul\":5288:5335   */\n  mstore\n    /* \"#utility.yul\":5352:5483   */\n  tag_117\n    /* \"#utility.yul\":5478:5482   */\n  dup2\n    /* \"#utility.yul\":5352:5483   */\n  tag_52\n  jump\t// in\ntag_117:\n    /* \"#utility.yul\":5344:5483   */\n  swap1\n  pop\n    /* \"#utility.yul\":5071:5490   */\n  swap2\n  swap1\n  pop\n  jump\t// out\n    /* \"#utility.yul\":5496:5652   */\ntag_53:\n    /* \"#utility.yul\":5636:5644   */\n  0x4451353030310000000000000000000000000000000000000000000000000000\n    /* \"#utility.yul\":5632:5633   */\n  0x00\n    /* \"#utility.yul\":5624:5630   */\n  dup3\n    /* \"#utility.yul\":5620:5634   */\n  add\n    /* \"#utility.yul\":5613:5645   */\n  mstore\n    /* \"#utility.yul\":5496:5652   */\n  pop\n  jump\t// out\n    /* \"#utility.yul\":5658:6023   */\ntag_54:\n    /* \"#utility.yul\":5800:5803   */\n  0x00\n    /* \"#utility.yul\":5821:5887   */\n  tag_120\n    /* \"#utility.yul\":5885:5886   */\n  0x06\n    /* \"#utility.yul\":5880:5883   */\n  dup4\n    /* \"#utility.yul\":5821:5887   */\n  tag_50\n  jump\t// in\ntag_120:\n    /* \"#utility.yul\":5814:5887   */\n  swap2\n  pop\n    /* \"#utility.yul\":5896:5989   */\n  tag_121\n    /* \"#utility.yul\":5985:5988   */\n  dup3\n    /* \"#utility.yul\":5896:5989   */\n  tag_53\n  jump\t// in\ntag_121:\n    /* \"#utility.yul\":6014:6016   */\n  0x20\n    /* \"#utility.yul\":6009:6012   */\n  dup3\n    /* \"#utility.yul\":6005:6017   */\n  add\n    /* \"#utility.yul\":5998:6017   */\n  swap1\n  pop\n    /* \"#utility.yul\":5658:6023   */\n  swap2\n  swap1\n  pop\n  jump\t// out\n    /* \"#utility.yul\":6029:6448   */\ntag_15:\n    /* \"#utility.yul\":6195:6199   */\n  0x00\n    /* \"#utility.yul\":6233:6235   */\n  0x20\n    /* \"#utility.yul\":6222:6231   */\n  dup3\n    /* \"#utility.yul\":6218:6236   */\n  add\n    /* \"#utility.yul\":6210:6236   */\n  swap1\n  pop\n    /* \"#utility.yul\":6282:6291   */\n  dup2\n    /* \"#utility.yul\":6276:6280   */\n  dup2\n    /* \"#utility.yul\":6272:6292   */\n  sub\n    /* \"#utility.yul\":6268:6269   */\n  0x00\n    /* \"#utility.yul\":6257:6266   */\n  dup4\n    /* \"#utility.yul\":6253:6270   */\n  add\n    /* \"#utility.yul\":6246:6293   */\n  mstore\n    /* \"#utility.yul\":6310:6441   */\n  tag_123\n    /* \"#utility.yul\":6436:6440   */\n  dup2\n    /* \"#utility.yul\":6310:6441   */\n  tag_54\n  jump\t// in\ntag_123:\n    /* \"#utility.yul\":6302:6441   */\n  swap1\n  pop\n    /* \"#utility.yul\":6029:6448   */\n  swap2\n  swap1\n  pop\n  jump\t// out\n    /* \"#utility.yul\":6454:6610   */\ntag_55:\n    /* \"#utility.yul\":6594:6602   */\n  0x4451353030320000000000000000000000000000000000000000000000000000\n    /* \"#utility.yul\":6590:6591   */\n  0x00\n    /* \"#utility.yul\":6582:6588   */\n  dup3\n    /* \"#utility.yul\":6578:6592   */\n  add\n    /* \"#utility.yul\":6571:6603   */\n  mstore\n    /* \"#utility.yul\":6454:6610   */\n  pop\n  jump\t// out\n    /* \"#utility.yul\":6616:6981   */\ntag_56:\n    /* \"#utility.yul\":6758:6761   */\n  0x00\n    /* \"#utility.yul\":6779:6845   */\n  tag_126\n    /* \"#utility.yul\":6843:6844   */\n  0x06\n    /* \"#utility.yul\":6838:6841   */\n  dup4\n    /* \"#utility.yul\":6779:6845   */\n  tag_50\n  jump\t// in\ntag_126:\n    /* \"#utility.yul\":6772:6845   */\n  swap2\n  pop\n    /* \"#utility.yul\":6854:6947   */\n  tag_127\n    /* \"#utility.yul\":6943:6946   */\n  dup3\n    /* \"#utility.yul\":6854:6947   */\n  tag_55\n  jump\t// in\ntag_127:\n    /* \"#utility.yul\":6972:6974   */\n  0x20\n    /* \"#utility.yul\":6967:6970   */\n  dup3\n    /* \"#utility.yul\":6963:6975   */\n  add\n    /* \"#utility.yul\":6956:6975   */\n  swap1\n  pop\n    /* \"#utility.yul\":6616:6981   */\n  swap2\n  swap1\n  pop\n  jump\t// out\n    /* \"#utility.yul\":6987:7406   */\ntag_18:\n    /* \"#utility.yul\":7153:7157   */\n  0x00\n    /* \"#utility.yul\":7191:7193   */\n  0x20\n    /* \"#utility.yul\":7180:7189   */\n  dup3\n    /* \"#utility.yul\":7176:7194   */\n  add\n    /* \"#utility.yul\":7168:7194   */\n  swap1\n  pop\n    /* \"#utility.yul\":7240:7249   */\n  dup2\n    /* \"#utility.yul\":7234:7238   */\n  dup2\n    /* \"#utility.yul\":7230:7250   */\n  sub\n    /* \"#utility.yul\":7226:7227   */\n  0x00\n    /* \"#utility.yul\":7215:7224   */\n  dup4\n    /* \"#utility.yul\":7211:7228   */\n  add\n    /* \"#utility.yul\":7204:7251   */\n  mstore\n    /* \"#utility.yul\":7268:7399   */\n  tag_129\n    /* \"#utility.yul\":7394:7398   */\n  dup2\n    /* \"#utility.yul\":7268:7399   */\n  tag_56\n  jump\t// in\ntag_129:\n    /* \"#utility.yul\":7260:7399   */\n  swap1\n  pop\n    /* \"#utility.yul\":6987:7406   */\n  swap2\n  swap1\n  pop\n  jump\t// out\n    /* \"#utility.yul\":7412:7592   */\ntag_24:\n    /* \"#utility.yul\":7460:7537   */\n  0x4e487b7100000000000000000000000000000000000000000000000000000000\n    /* \"#utility.yul\":7457:7458   */\n  0x00\n    /* \"#utility.yul\":7450:7538   */\n  mstore\n    /* \"#utility.yul\":7557:7561   */\n  0x32\n    /* \"#utility.yul\":7554:7555   */\n  0x04\n    /* \"#utility.yul\":7547:7562   */\n  mstore\n    /* \"#utility.yul\":7581:7585   */\n  0x24\n    /* \"#utility.yul\":7578:7579   */\n  0x00\n    /* \"#utility.yul\":7571:7586   */\n  revert\n    /* \"#utility.yul\":7598:7754   */\ntag_57:\n    /* \"#utility.yul\":7738:7746   */\n  0x4451353030330000000000000000000000000000000000000000000000000000\n    /* \"#utility.yul\":7734:7735   */\n  0x00\n    /* \"#utility.yul\":7726:7732   */\n  dup3\n    /* \"#utility.yul\":7722:7736   */\n  add\n    /* \"#utility.yul\":7715:7747   */\n  mstore\n    /* \"#utility.yul\":7598:7754   */\n  pop\n  jump\t// out\n    /* \"#utility.yul\":7760:8125   */\ntag_58:\n    /* \"#utility.yul\":7902:7905   */\n  0x00\n    /* \"#utility.yul\":7923:7989   */\n  tag_133\n    /* \"#utility.yul\":7987:7988   */\n  0x06\n    /* \"#utility.yul\":7982:7985   */\n  dup4\n    /* \"#utility.yul\":7923:7989   */\n  tag_50\n  jump\t// in\ntag_133:\n    /* \"#utility.yul\":7916:7989   */\n  swap2\n  pop\n    /* \"#utility.yul\":7998:8091   */\n  tag_134\n    /* \"#utility.yul\":8087:8090   */\n  dup3\n    /* \"#utility.yul\":7998:8091   */\n  tag_57\n  jump\t// in\ntag_134:\n    /* \"#utility.yul\":8116:8118   */\n  0x20\n    /* \"#utility.yul\":8111:8114   */\n  dup3\n    /* \"#utility.yul\":8107:8119   */\n  add\n    /* \"#utility.yul\":8100:8119   */\n  swap1\n  pop\n    /* \"#utility.yul\":7760:8125   */\n  swap2\n  swap1\n  pop\n  jump\t// out\n    /* \"#utility.yul\":8131:8550   */\ntag_29:\n    /* \"#utility.yul\":8297:8301   */\n  0x00\n    /* \"#utility.yul\":8335:8337   */\n  0x20\n    /* \"#utility.yul\":8324:8333   */\n  dup3\n    /* \"#utility.yul\":8320:8338   */\n  add\n    /* \"#utility.yul\":8312:8338   */\n  swap1\n  pop\n    /* \"#utility.yul\":8384:8393   */\n  dup2\n    /* \"#utility.yul\":8378:8382   */\n  dup2\n    /* \"#utility.yul\":8374:8394   */\n  sub\n    /* \"#utility.yul\":8370:8371   */\n  0x00\n    /* \"#utility.yul\":8359:8368   */\n  dup4\n    /* \"#utility.yul\":8355:8372   */\n  add\n    /* \"#utility.yul\":8348:8395   */\n  mstore\n    /* \"#utility.yul\":8412:8543   */\n  tag_136\n    /* \"#utility.yul\":8538:8542   */\n  dup2\n    /* \"#utility.yul\":8412:8543   */\n  tag_58\n  jump\t// in\ntag_136:\n    /* \"#utility.yul\":8404:8543   */\n  swap1\n  pop\n    /* \"#utility.yul\":8131:8550   */\n  swap2\n  swap1\n  pop\n  jump\t// out\n    /* \"l2-homework/MultisigWallet.sol\":64:3080  contract MultisigWallet {... */\ntag_8:\n  dataSize(sub_0)\n  dup1\n  dataOffset(sub_0)\n  0x00\n  codecopy\n  0x00\n  return\nstop\n\nsub_0: assembly {\n        /* \"l2-homework/MultisigWallet.sol\":64:3080  contract MultisigWallet {... */\n      mstore(0x40, 0x80)\n      jumpi(tag_1, lt(calldatasize, 0x04))\n      shr(0xe0, calldataload(0x00))\n      dup1\n      0xa67dd509\n      gt\n      tag_10\n      jumpi\n      dup1\n      0xa67dd509\n      eq\n      tag_6\n      jumpi\n      dup1\n      0xaffed0e0\n      eq\n      tag_7\n      jumpi\n      dup1\n      0xdbdcd9f6\n      eq\n      tag_8\n      jumpi\n      dup1\n      0xed516d51\n      eq\n      tag_9\n      jumpi\n      jump(tag_1)\n    tag_10:\n      dup1\n      0x025e7c27\n      eq\n      tag_2\n      jumpi\n      dup1\n      0x05d8f4b5\n      eq\n      tag_3\n      jumpi\n      dup1\n      0x0db02622\n      eq\n      tag_4\n      jumpi\n      dup1\n      0x2f54bf6e\n      eq\n      tag_5\n      jumpi\n    tag_1:\n      0x00\n      dup1\n      revert\n        /* \"l2-homework/MultisigWallet.sol\":94:117  address[] public owners */\n    tag_2:\n      callvalue\n      dup1\n      iszero\n      tag_11\n      jumpi\n      0x00\n      dup1\n      revert\n    tag_11:\n      pop\n      tag_12\n      0x04\n      dup1\n      calldatasize\n      sub\n      dup2\n      add\n      swap1\n      tag_13\n      swap2\n      swap1\n      tag_14\n      jump\t// in\n    tag_13:\n      tag_15\n      jump\t// in\n    tag_12:\n      mload(0x40)\n      tag_16\n      swap2\n      swap1\n      tag_17\n      jump\t// in\n    tag_16:\n      mload(0x40)\n      dup1\n      swap2\n      sub\n      swap1\n      return\n        /* \"l2-homework/MultisigWallet.sol\":196:218  uint public threshould */\n    tag_3:\n      callvalue\n      dup1\n      iszero\n      tag_18\n      jumpi\n      0x00\n      dup1\n      revert\n    tag_18:\n      pop\n      tag_19\n      tag_20\n      jump\t// in\n    tag_19:\n      mload(0x40)\n      tag_21\n      swap2\n      swap1\n      tag_22\n      jump\t// in\n    tag_21:\n      mload(0x40)\n      dup1\n      swap2\n      sub\n      swap1\n      return\n        /* \"l2-homework/MultisigWallet.sol\":168:190  uint public ownerCount */\n    tag_4:\n      callvalue\n      dup1\n      iszero\n      tag_23\n      jumpi\n      0x00\n      dup1\n      revert\n    tag_23:\n      pop\n      tag_24\n      tag_25\n      jump\t// in\n    tag_24:\n      mload(0x40)\n      tag_26\n      swap2\n      swap1\n      tag_22\n      jump\t// in\n    tag_26:\n      mload(0x40)\n      dup1\n      swap2\n      sub\n      swap1\n      return\n        /* \"l2-homework/MultisigWallet.sol\":123:162  mapping(address => bool) public isOwner */\n    tag_5:\n      callvalue\n      dup1\n      iszero\n      tag_27\n      jumpi\n      0x00\n      dup1\n      revert\n    tag_27:\n      pop\n      tag_28\n      0x04\n      dup1\n      calldatasize\n      sub\n      dup2\n      add\n      swap1\n      tag_29\n      swap2\n      swap1\n      tag_30\n      jump\t// in\n    tag_29:\n      tag_31\n      jump\t// in\n    tag_28:\n      mload(0x40)\n      tag_32\n      swap2\n      swap1\n      tag_33\n      jump\t// in\n    tag_32:\n      mload(0x40)\n      dup1\n      swap2\n      sub\n      swap1\n      return\n        /* \"l2-homework/MultisigWallet.sol\":1546:1882  function encodeTransactionData(... */\n    tag_6:\n      callvalue\n      dup1\n      iszero\n      tag_34\n      jumpi\n      0x00\n      dup1\n      revert\n    tag_34:\n      pop\n      tag_35\n      0x04\n      dup1\n      calldatasize\n      sub\n      dup2\n      add\n      swap1\n      tag_36\n      swap2\n      swap1\n      tag_37\n      jump\t// in\n    tag_36:\n      tag_38\n      jump\t// in\n    tag_35:\n      mload(0x40)\n      tag_39\n      swap2\n      swap1\n      tag_40\n      jump\t// in\n    tag_39:\n      mload(0x40)\n      dup1\n      swap2\n      sub\n      swap1\n      return\n        /* \"l2-homework/MultisigWallet.sol\":224:241  uint public nonce */\n    tag_7:\n      callvalue\n      dup1\n      iszero\n      tag_41\n      jumpi\n      0x00\n      dup1\n      revert\n    tag_41:\n      pop\n      tag_42\n      tag_43\n      jump\t// in\n    tag_42:\n      mload(0x40)\n      tag_44\n      swap2\n      swap1\n      tag_22\n      jump\t// in\n    tag_44:\n      mload(0x40)\n      dup1\n      swap2\n      sub\n      swap1\n      return\n        /* \"l2-homework/MultisigWallet.sol\":1023:1540  function execTrasaction(... */\n    tag_8:\n      tag_45\n      0x04\n      dup1\n      calldatasize\n      sub\n      dup2\n      add\n      swap1\n      tag_46\n      swap2\n      swap1\n      tag_47\n      jump\t// in\n    tag_46:\n      tag_48\n      jump\t// in\n    tag_45:\n      mload(0x40)\n      tag_49\n      swap2\n      swap1\n      tag_33\n      jump\t// in\n    tag_49:\n      mload(0x40)\n      dup1\n      swap2\n      sub\n      swap1\n      return\n        /* \"l2-homework/MultisigWallet.sol\":1888:2617  function checkSignatures(bytes32 dataHash, bytes memory signatures) public view {... */\n    tag_9:\n      callvalue\n      dup1\n      iszero\n      tag_50\n      jumpi\n      0x00\n      dup1\n      revert\n    tag_50:\n      pop\n      tag_51\n      0x04\n      dup1\n      calldatasize\n      sub\n      dup2\n      add\n      swap1\n      tag_52\n      swap2\n      swap1\n      tag_53\n      jump\t// in\n    tag_52:\n      tag_54\n      jump\t// in\n    tag_51:\n      stop\n        /* \"l2-homework/MultisigWallet.sol\":94:117  address[] public owners */\n    tag_15:\n      0x00\n      dup2\n      dup2\n      sload\n      dup2\n      lt\n      tag_55\n      jumpi\n      0x00\n      dup1\n      revert\n    tag_55:\n      swap1\n      0x00\n      mstore\n      keccak256(0x00, 0x20)\n      add\n      0x00\n      swap2\n      pop\n      sload\n      swap1\n      0x0100\n      exp\n      swap1\n      div\n      0xffffffffffffffffffffffffffffffffffffffff\n      and\n      dup2\n      jump\t// out\n        /* \"l2-homework/MultisigWallet.sol\":196:218  uint public threshould */\n    tag_20:\n      sload(0x03)\n      dup2\n      jump\t// out\n        /* \"l2-homework/MultisigWallet.sol\":168:190  uint public ownerCount */\n    tag_25:\n      sload(0x02)\n      dup2\n      jump\t// out\n        /* \"l2-homework/MultisigWallet.sol\":123:162  mapping(address => bool) public isOwner */\n    tag_31:\n      mstore(0x20, 0x01)\n      dup1\n      0x00\n      mstore\n      keccak256(0x00, 0x40)\n      0x00\n      swap2\n      pop\n      sload\n      swap1\n      0x0100\n      exp\n      swap1\n      div\n      0xff\n      and\n      dup2\n      jump\t// out\n        /* \"l2-homework/MultisigWallet.sol\":1546:1882  function encodeTransactionData(... */\n    tag_38:\n        /* \"l2-homework/MultisigWallet.sol\":1714:1732  bytes32 safeTxHash */\n      0x00\n        /* \"l2-homework/MultisigWallet.sol\":1808:1810  to */\n      dup6\n        /* \"l2-homework/MultisigWallet.sol\":1812:1817  value */\n      dup6\n        /* \"l2-homework/MultisigWallet.sol\":1829:1833  data */\n      dup6\n        /* \"l2-homework/MultisigWallet.sol\":1819:1834  keccak256(data) */\n      dup1\n      mload\n      swap1\n      0x20\n      add\n      keccak256\n        /* \"l2-homework/MultisigWallet.sol\":1836:1842  _nonce */\n      dup6\n        /* \"l2-homework/MultisigWallet.sol\":1844:1851  chainid */\n      dup6\n        /* \"l2-homework/MultisigWallet.sol\":1780:1865  abi.encode(... */\n      add(0x20, mload(0x40))\n      tag_58\n      swap6\n      swap5\n      swap4\n      swap3\n      swap2\n      swap1\n      tag_59\n      jump\t// in\n    tag_58:\n      mload(0x40)\n      0x20\n      dup2\n      dup4\n      sub\n      sub\n      dup2\n      mstore\n      swap1\n      0x40\n      mstore\n        /* \"l2-homework/MultisigWallet.sol\":1757:1875  keccak256(... */\n      dup1\n      mload\n      swap1\n      0x20\n      add\n      keccak256\n        /* \"l2-homework/MultisigWallet.sol\":1744:1875  safeTxHash = keccak256(... */\n      swap1\n      pop\n        /* \"l2-homework/MultisigWallet.sol\":1546:1882  function encodeTransactionData(... */\n      swap6\n      swap5\n      pop\n      pop\n      pop\n      pop\n      pop\n      jump\t// out\n        /* \"l2-homework/MultisigWallet.sol\":224:241  uint public nonce */\n    tag_43:\n      sload(0x04)\n      dup2\n      jump\t// out\n        /* \"l2-homework/MultisigWallet.sol\":1023:1540  function execTrasaction(... */\n    tag_48:\n        /* \"l2-homework/MultisigWallet.sol\":1185:1197  bool success */\n      0x00\n        /* \"l2-homework/MultisigWallet.sol\":1209:1223  bytes32 txHash */\n      dup1\n        /* \"l2-homework/MultisigWallet.sol\":1226:1286  encodeTransactionData(to, value, data, nonce, block.chainid) */\n      tag_61\n        /* \"l2-homework/MultisigWallet.sol\":1248:1250  to */\n      dup7\n        /* \"l2-homework/MultisigWallet.sol\":1252:1257  value */\n      dup7\n        /* \"l2-homework/MultisigWallet.sol\":1259:1263  data */\n      dup7\n        /* \"l2-homework/MultisigWallet.sol\":1265:1270  nonce */\n      sload(0x04)\n        /* \"l2-homework/MultisigWallet.sol\":1272:1285  block.chainid */\n      chainid\n        /* \"l2-homework/MultisigWallet.sol\":1226:1247  encodeTransactionData */\n      tag_38\n        /* \"l2-homework/MultisigWallet.sol\":1226:1286  encodeTransactionData(to, value, data, nonce, block.chainid) */\n      jump\t// in\n    tag_61:\n        /* \"l2-homework/MultisigWallet.sol\":1209:1286  bytes32 txHash = encodeTransactionData(to, value, data, nonce, block.chainid) */\n      swap1\n      pop\n        /* \"l2-homework/MultisigWallet.sol\":1296:1301  nonce */\n      0x04\n      0x00\n        /* \"l2-homework/MultisigWallet.sol\":1296:1303  nonce++ */\n      dup2\n      sload\n      dup1\n      swap3\n      swap2\n      swap1\n      tag_62\n      swap1\n      tag_63\n      jump\t// in\n    tag_62:\n      swap2\n      swap1\n      pop\n      sstore\n      pop\n        /* \"l2-homework/MultisigWallet.sol\":1313:1348  checkSignatures(txHash, signatures) */\n      tag_64\n        /* \"l2-homework/MultisigWallet.sol\":1329:1335  txHash */\n      dup2\n        /* \"l2-homework/MultisigWallet.sol\":1337:1347  signatures */\n      dup5\n        /* \"l2-homework/MultisigWallet.sol\":1313:1328  checkSignatures */\n      tag_54\n        /* \"l2-homework/MultisigWallet.sol\":1313:1348  checkSignatures(txHash, signatures) */\n      jump\t// in\n    tag_64:\n        /* \"l2-homework/MultisigWallet.sol\":1373:1375  to */\n      dup6\n        /* \"l2-homework/MultisigWallet.sol\":1373:1380  to.call */\n      0xffffffffffffffffffffffffffffffffffffffff\n      and\n        /* \"l2-homework/MultisigWallet.sol\":1388:1393  value */\n      dup6\n        /* \"l2-homework/MultisigWallet.sol\":1395:1399  data */\n      dup6\n        /* \"l2-homework/MultisigWallet.sol\":1373:1400  to.call{value: value}(data) */\n      mload(0x40)\n      tag_65\n      swap2\n      swap1\n      tag_66\n      jump\t// in\n    tag_65:\n      0x00\n      mload(0x40)\n      dup1\n      dup4\n      sub\n      dup2\n      dup6\n      dup8\n      gas\n      call\n      swap3\n      pop\n      pop\n      pop\n      returndatasize\n      dup1\n      0x00\n      dup2\n      eq\n      tag_69\n      jumpi\n      mload(0x40)\n      swap2\n      pop\n      and(add(returndatasize, 0x3f), not(0x1f))\n      dup3\n      add\n      0x40\n      mstore\n      returndatasize\n      dup3\n      mstore\n      returndatasize\n      0x00\n      0x20\n      dup5\n      add\n      returndatacopy\n      jump(tag_68)\n    tag_69:\n      0x60\n      swap2\n      pop\n    tag_68:\n      pop\n        /* \"l2-homework/MultisigWallet.sol\":1359:1400  (success, ) = to.call{value: value}(data) */\n      pop\n      dup1\n      swap3\n      pop\n      pop\n        /* \"l2-homework/MultisigWallet.sol\":1418:1425  success */\n      dup2\n        /* \"l2-homework/MultisigWallet.sol\":1410:1436  require(success, \"DQ5004\") */\n      tag_70\n      jumpi\n      mload(0x40)\n      0x08c379a000000000000000000000000000000000000000000000000000000000\n      dup2\n      mstore\n      0x04\n      add\n      tag_71\n      swap1\n      tag_72\n      jump\t// in\n    tag_71:\n      mload(0x40)\n      dup1\n      swap2\n      sub\n      swap1\n      revert\n    tag_70:\n        /* \"l2-homework/MultisigWallet.sol\":1451:1458  success */\n      dup2\n        /* \"l2-homework/MultisigWallet.sol\":1447:1533  if (success) emit ExecutionSuccess(txHash);... */\n      iszero\n      tag_73\n      jumpi\n        /* \"l2-homework/MultisigWallet.sol\":1465:1489  ExecutionSuccess(txHash) */\n      0xdc29884a71d2bb98d3c53dc09718be05c7bfd142b7773a5c5cf2517629290ac0\n        /* \"l2-homework/MultisigWallet.sol\":1482:1488  txHash */\n      dup2\n        /* \"l2-homework/MultisigWallet.sol\":1465:1489  ExecutionSuccess(txHash) */\n      mload(0x40)\n      tag_74\n      swap2\n      swap1\n      tag_40\n      jump\t// in\n    tag_74:\n      mload(0x40)\n      dup1\n      swap2\n      sub\n      swap1\n      log1\n        /* \"l2-homework/MultisigWallet.sol\":1447:1533  if (success) emit ExecutionSuccess(txHash);... */\n      jump(tag_75)\n    tag_73:\n        /* \"l2-homework/MultisigWallet.sol\":1509:1533  ExecutionFailure(txHash) */\n      0xdbe42d02a4e07d7eeff2874efe172540c93b297d206f6d691c9782a257323e32\n        /* \"l2-homework/MultisigWallet.sol\":1526:1532  txHash */\n      dup2\n        /* \"l2-homework/MultisigWallet.sol\":1509:1533  ExecutionFailure(txHash) */\n      mload(0x40)\n      tag_76\n      swap2\n      swap1\n      tag_40\n      jump\t// in\n    tag_76:\n      mload(0x40)\n      dup1\n      swap2\n      sub\n      swap1\n      log1\n        /* \"l2-homework/MultisigWallet.sol\":1447:1533  if (success) emit ExecutionSuccess(txHash);... */\n    tag_75:\n        /* \"l2-homework/MultisigWallet.sol\":1199:1540  {... */\n      pop\n        /* \"l2-homework/MultisigWallet.sol\":1023:1540  function execTrasaction(... */\n      swap5\n      swap4\n      pop\n      pop\n      pop\n      pop\n      jump\t// out\n        /* \"l2-homework/MultisigWallet.sol\":1888:2617  function checkSignatures(bytes32 dataHash, bytes memory signatures) public view {... */\n    tag_54:\n        /* \"l2-homework/MultisigWallet.sol\":1978:1994  uint _threshould */\n      0x00\n        /* \"l2-homework/MultisigWallet.sol\":1997:2007  threshould */\n      sload(0x03)\n        /* \"l2-homework/MultisigWallet.sol\":1978:2007  uint _threshould = threshould */\n      swap1\n      pop\n        /* \"l2-homework/MultisigWallet.sol\":2039:2040  0 */\n      0x00\n        /* \"l2-homework/MultisigWallet.sol\":2026:2036  threshould */\n      sload(0x03)\n        /* \"l2-homework/MultisigWallet.sol\":2026:2040  threshould > 0 */\n      gt\n        /* \"l2-homework/MultisigWallet.sol\":2018:2051  require(threshould > 0, \"DQ5005\") */\n      tag_78\n      jumpi\n      mload(0x40)\n      0x08c379a000000000000000000000000000000000000000000000000000000000\n      dup2\n      mstore\n      0x04\n      add\n      tag_79\n      swap1\n      tag_80\n      jump\t// in\n    tag_79:\n      mload(0x40)\n      dup1\n      swap2\n      sub\n      swap1\n      revert\n    tag_78:\n        /* \"l2-homework/MultisigWallet.sol\":2104:2106  65 */\n      0x41\n        /* \"l2-homework/MultisigWallet.sol\":2090:2101  _threshould */\n      dup2\n        /* \"l2-homework/MultisigWallet.sol\":2090:2106  _threshould * 65 */\n      tag_81\n      swap2\n      swap1\n      tag_82\n      jump\t// in\n    tag_81:\n        /* \"l2-homework/MultisigWallet.sol\":2069:2079  signatures */\n      dup3\n        /* \"l2-homework/MultisigWallet.sol\":2069:2086  signatures.length */\n      mload\n        /* \"l2-homework/MultisigWallet.sol\":2069:2106  signatures.length >= _threshould * 65 */\n      lt\n      iszero\n        /* \"l2-homework/MultisigWallet.sol\":2061:2117  require(signatures.length >= _threshould * 65, \"DQ5006\") */\n      tag_83\n      jumpi\n      mload(0x40)\n      0x08c379a000000000000000000000000000000000000000000000000000000000\n      dup2\n      mstore\n      0x04\n      add\n      tag_84\n      swap1\n      tag_85\n      jump\t// in\n    tag_84:\n      mload(0x40)\n      dup1\n      swap2\n      sub\n      swap1\n      revert\n    tag_83:\n        /* \"l2-homework/MultisigWallet.sol\":2128:2145  address lastOwner */\n      0x00\n        /* \"l2-homework/MultisigWallet.sol\":2168:2188  address currentOwner */\n      dup1\n        /* \"l2-homework/MultisigWallet.sol\":2198:2205  uint8 v */\n      dup1\n        /* \"l2-homework/MultisigWallet.sol\":2215:2224  bytes32 r */\n      0x00\n        /* \"l2-homework/MultisigWallet.sol\":2234:2243  bytes32 s */\n      dup1\n        /* \"l2-homework/MultisigWallet.sol\":2253:2259  uint i */\n      0x00\n        /* \"l2-homework/MultisigWallet.sol\":2269:2611  for (i = 0; i < _threshould; i++) {... */\n    tag_86:\n        /* \"l2-homework/MultisigWallet.sol\":2285:2296  _threshould */\n      dup7\n        /* \"l2-homework/MultisigWallet.sol\":2281:2282  i */\n      dup2\n        /* \"l2-homework/MultisigWallet.sol\":2281:2296  i < _threshould */\n      lt\n        /* \"l2-homework/MultisigWallet.sol\":2269:2611  for (i = 0; i < _threshould; i++) {... */\n      iszero\n      tag_87\n      jumpi\n        /* \"l2-homework/MultisigWallet.sol\":2329:2358  signatureSplit(signatures, i) */\n      tag_89\n        /* \"l2-homework/MultisigWallet.sol\":2344:2354  signatures */\n      dup9\n        /* \"l2-homework/MultisigWallet.sol\":2356:2357  i */\n      dup3\n        /* \"l2-homework/MultisigWallet.sol\":2329:2343  signatureSplit */\n      tag_90\n        /* \"l2-homework/MultisigWallet.sol\":2329:2358  signatureSplit(signatures, i) */\n      jump\t// in\n    tag_89:\n        /* \"l2-homework/MultisigWallet.sol\":2317:2358  (v, r, s) = signatureSplit(signatures, i) */\n      dup1\n      swap5\n      pop\n      dup2\n      swap6\n      pop\n      dup3\n      swap7\n      pop\n      pop\n      pop\n      pop\n        /* \"l2-homework/MultisigWallet.sol\":2387:2480  ecrecover(keccak256(abi.encodePacked(\"\\x19Ethereum Signed Message:\\n32\", dataHash)), v, r, s) */\n      0x01\n        /* \"l2-homework/MultisigWallet.sol\":2460:2468  dataHash */\n      dup10\n        /* \"l2-homework/MultisigWallet.sol\":2407:2469  abi.encodePacked(\"\\x19Ethereum Signed Message:\\n32\", dataHash) */\n      add(0x20, mload(0x40))\n      tag_91\n      swap2\n      swap1\n      tag_92\n      jump\t// in\n    tag_91:\n      mload(0x40)\n      0x20\n      dup2\n      dup4\n      sub\n      sub\n      dup2\n      mstore\n      swap1\n      0x40\n      mstore\n        /* \"l2-homework/MultisigWallet.sol\":2397:2470  keccak256(abi.encodePacked(\"\\x19Ethereum Signed Message:\\n32\", dataHash)) */\n      dup1\n      mload\n      swap1\n      0x20\n      add\n      keccak256\n        /* \"l2-homework/MultisigWallet.sol\":2472:2473  v */\n      dup6\n        /* \"l2-homework/MultisigWallet.sol\":2475:2476  r */\n      dup6\n        /* \"l2-homework/MultisigWallet.sol\":2478:2479  s */\n      dup6\n        /* \"l2-homework/MultisigWallet.sol\":2387:2480  ecrecover(keccak256(abi.encodePacked(\"\\x19Ethereum Signed Message:\\n32\", dataHash)), v, r, s) */\n      mload(0x40)\n      0x00\n      dup2\n      mstore\n      0x20\n      add\n      0x40\n      mstore\n      mload(0x40)\n      tag_93\n      swap5\n      swap4\n      swap3\n      swap2\n      swap1\n      tag_94\n      jump\t// in\n    tag_93:\n      0x20\n      mload(0x40)\n      0x20\n      dup2\n      sub\n      swap1\n      dup1\n      dup5\n      sub\n      swap1\n      dup6\n      gas\n      staticcall\n      iszero\n      dup1\n      iszero\n      tag_96\n      jumpi\n      returndatasize\n      0x00\n      dup1\n      returndatacopy\n      revert(0x00, returndatasize)\n    tag_96:\n      pop\n      pop\n      pop\n      mload(sub(mload(0x40), 0x20))\n        /* \"l2-homework/MultisigWallet.sol\":2372:2480  currentOwner = ecrecover(keccak256(abi.encodePacked(\"\\x19Ethereum Signed Message:\\n32\", dataHash)), v, r, s) */\n      swap5\n      pop\n        /* \"l2-homework/MultisigWallet.sol\":2517:2526  lastOwner */\n      dup6\n        /* \"l2-homework/MultisigWallet.sol\":2502:2526  currentOwner > lastOwner */\n      0xffffffffffffffffffffffffffffffffffffffff\n      and\n        /* \"l2-homework/MultisigWallet.sol\":2502:2514  currentOwner */\n      dup6\n        /* \"l2-homework/MultisigWallet.sol\":2502:2526  currentOwner > lastOwner */\n      0xffffffffffffffffffffffffffffffffffffffff\n      and\n      gt\n        /* \"l2-homework/MultisigWallet.sol\":2502:2551  currentOwner > lastOwner && isOwner[currentOwner] */\n      dup1\n      iszero\n      tag_97\n      jumpi\n      pop\n        /* \"l2-homework/MultisigWallet.sol\":2530:2537  isOwner */\n      0x01\n        /* \"l2-homework/MultisigWallet.sol\":2530:2551  isOwner[currentOwner] */\n      0x00\n        /* \"l2-homework/MultisigWallet.sol\":2538:2550  currentOwner */\n      dup7\n        /* \"l2-homework/MultisigWallet.sol\":2530:2551  isOwner[currentOwner] */\n      0xffffffffffffffffffffffffffffffffffffffff\n      and\n      0xffffffffffffffffffffffffffffffffffffffff\n      and\n      dup2\n      mstore\n      0x20\n      add\n      swap1\n      dup2\n      mstore\n      0x20\n      add\n      0x00\n      keccak256\n      0x00\n      swap1\n      sload\n      swap1\n      0x0100\n      exp\n      swap1\n      div\n      0xff\n      and\n        /* \"l2-homework/MultisigWallet.sol\":2502:2551  currentOwner > lastOwner && isOwner[currentOwner] */\n    tag_97:\n        /* \"l2-homework/MultisigWallet.sol\":2494:2562  require(currentOwner > lastOwner && isOwner[currentOwner], \"DQ5007\") */\n      tag_98\n      jumpi\n      mload(0x40)\n      0x08c379a000000000000000000000000000000000000000000000000000000000\n      dup2\n      mstore\n      0x04\n      add\n      tag_99\n      swap1\n      tag_100\n      jump\t// in\n    tag_99:\n      mload(0x40)\n      dup1\n      swap2\n      sub\n      swap1\n      revert\n    tag_98:\n        /* \"l2-homework/MultisigWallet.sol\":2588:2600  currentOwner */\n      dup5\n        /* \"l2-homework/MultisigWallet.sol\":2576:2600  lastOwner = currentOwner */\n      swap6\n      pop\n        /* \"l2-homework/MultisigWallet.sol\":2298:2301  i++ */\n      dup1\n      dup1\n      0x01\n      add\n      swap2\n      pop\n      pop\n        /* \"l2-homework/MultisigWallet.sol\":2269:2611  for (i = 0; i < _threshould; i++) {... */\n      jump(tag_86)\n    tag_87:\n        /* \"l2-homework/MultisigWallet.sol\":1968:2617  {... */\n      pop\n      pop\n      pop\n      pop\n      pop\n      pop\n      pop\n        /* \"l2-homework/MultisigWallet.sol\":1888:2617  function checkSignatures(bytes32 dataHash, bytes memory signatures) public view {... */\n      pop\n      pop\n      jump\t// out\n        /* \"l2-homework/MultisigWallet.sol\":2623:3078  function signatureSplit(bytes memory signatures, uint256 pos)... */\n    tag_90:\n        /* \"l2-homework/MultisigWallet.sol\":2734:2741  uint8 v */\n      0x00\n        /* \"l2-homework/MultisigWallet.sol\":2743:2752  bytes32 r */\n      dup1\n        /* \"l2-homework/MultisigWallet.sol\":2754:2763  bytes32 s */\n      0x00\n        /* \"l2-homework/MultisigWallet.sol\":2836:2839  pos */\n      dup4\n        /* \"l2-homework/MultisigWallet.sol\":2830:2834  0x41 */\n      0x41\n        /* \"l2-homework/MultisigWallet.sol\":2826:2840  mul(0x41, pos) */\n      mul\n        /* \"l2-homework/MultisigWallet.sol\":2902:2906  0x20 */\n      0x20\n        /* \"l2-homework/MultisigWallet.sol\":2888:2900  signaturePos */\n      dup2\n        /* \"l2-homework/MultisigWallet.sol\":2884:2907  add(signaturePos, 0x20) */\n      add\n        /* \"l2-homework/MultisigWallet.sol\":2872:2882  signatures */\n      dup7\n        /* \"l2-homework/MultisigWallet.sol\":2868:2908  add(signatures, add(signaturePos, 0x20)) */\n      add\n        /* \"l2-homework/MultisigWallet.sol\":2862:2909  mload(add(signatures, add(signaturePos, 0x20))) */\n      mload\n        /* \"l2-homework/MultisigWallet.sol\":2857:2909  r := mload(add(signatures, add(signaturePos, 0x20))) */\n      swap3\n      pop\n        /* \"l2-homework/MultisigWallet.sol\":2971:2975  0x40 */\n      0x40\n        /* \"l2-homework/MultisigWallet.sol\":2957:2969  signaturePos */\n      dup2\n        /* \"l2-homework/MultisigWallet.sol\":2953:2976  add(signaturePos, 0x40) */\n      add\n        /* \"l2-homework/MultisigWallet.sol\":2941:2951  signatures */\n      dup7\n        /* \"l2-homework/MultisigWallet.sol\":2937:2977  add(signatures, add(signaturePos, 0x40)) */\n      add\n        /* \"l2-homework/MultisigWallet.sol\":2931:2978  mload(add(signatures, add(signaturePos, 0x40))) */\n      mload\n        /* \"l2-homework/MultisigWallet.sol\":2926:2978  s := mload(add(signatures, add(signaturePos, 0x40))) */\n      swap2\n      pop\n        /* \"l2-homework/MultisigWallet.sol\":3053:3057  0xff */\n      0xff\n        /* \"l2-homework/MultisigWallet.sol\":3044:3048  0x41 */\n      0x41\n        /* \"l2-homework/MultisigWallet.sol\":3030:3042  signaturePos */\n      dup3\n        /* \"l2-homework/MultisigWallet.sol\":3026:3049  add(signaturePos, 0x41) */\n      add\n        /* \"l2-homework/MultisigWallet.sol\":3014:3024  signatures */\n      dup8\n        /* \"l2-homework/MultisigWallet.sol\":3010:3050  add(signatures, add(signaturePos, 0x41)) */\n      add\n        /* \"l2-homework/MultisigWallet.sol\":3004:3051  mload(add(signatures, add(signaturePos, 0x41))) */\n      mload\n        /* \"l2-homework/MultisigWallet.sol\":3000:3058  and(mload(add(signatures, add(signaturePos, 0x41))), 0xff) */\n      and\n        /* \"l2-homework/MultisigWallet.sol\":2995:3058  v := and(mload(add(signatures, add(signaturePos, 0x41))), 0xff) */\n      swap4\n      pop\n        /* \"l2-homework/MultisigWallet.sol\":2788:3072  {... */\n      pop\n        /* \"l2-homework/MultisigWallet.sol\":2623:3078  function signatureSplit(bytes memory signatures, uint256 pos)... */\n      swap3\n      pop\n      swap3\n      pop\n      swap3\n      jump\t// out\n        /* \"#utility.yul\":7:82   */\n    tag_102:\n        /* \"#utility.yul\":40:46   */\n      0x00\n        /* \"#utility.yul\":73:75   */\n      0x40\n        /* \"#utility.yul\":67:76   */\n      mload\n        /* \"#utility.yul\":57:76   */\n      swap1\n      pop\n        /* \"#utility.yul\":7:82   */\n      swap1\n      jump\t// out\n        /* \"#utility.yul\":88:205   */\n    tag_103:\n        /* \"#utility.yul\":197:198   */\n      0x00\n        /* \"#utility.yul\":194:195   */\n      dup1\n        /* \"#utility.yul\":187:199   */\n      revert\n        /* \"#utility.yul\":211:328   */\n    tag_104:\n        /* \"#utility.yul\":320:321   */\n      0x00\n        /* \"#utility.yul\":317:318   */\n      dup1\n        /* \"#utility.yul\":310:322   */\n      revert\n        /* \"#utility.yul\":334:411   */\n    tag_105:\n        /* \"#utility.yul\":371:378   */\n      0x00\n        /* \"#utility.yul\":400:405   */\n      dup2\n        /* \"#utility.yul\":389:405   */\n      swap1\n      pop\n        /* \"#utility.yul\":334:411   */\n      swap2\n      swap1\n      pop\n      jump\t// out\n        /* \"#utility.yul\":417:539   */\n    tag_106:\n        /* \"#utility.yul\":490:514   */\n      tag_157\n        /* \"#utility.yul\":508:513   */\n      dup2\n        /* \"#utility.yul\":490:514   */\n      tag_105\n      jump\t// in\n    tag_157:\n        /* \"#utility.yul\":483:488   */\n      dup2\n        /* \"#utility.yul\":480:515   */\n      eq\n        /* \"#utility.yul\":470:533   */\n      tag_158\n      jumpi\n        /* \"#utility.yul\":529:530   */\n      0x00\n        /* \"#utility.yul\":526:527   */\n      dup1\n        /* \"#utility.yul\":519:531   */\n      revert\n        /* \"#utility.yul\":470:533   */\n    tag_158:\n        /* \"#utility.yul\":417:539   */\n      pop\n      jump\t// out\n        /* \"#utility.yul\":545:684   */\n    tag_107:\n        /* \"#utility.yul\":591:596   */\n      0x00\n        /* \"#utility.yul\":629:635   */\n      dup2\n        /* \"#utility.yul\":616:636   */\n      calldataload\n        /* \"#utility.yul\":607:636   */\n      swap1\n      pop\n        /* \"#utility.yul\":645:678   */\n      tag_160\n        /* \"#utility.yul\":672:677   */\n      dup2\n        /* \"#utility.yul\":645:678   */\n      tag_106\n      jump\t// in\n    tag_160:\n        /* \"#utility.yul\":545:684   */\n      swap3\n      swap2\n      pop\n      pop\n      jump\t// out\n        /* \"#utility.yul\":690:1019   */\n    tag_14:\n        /* \"#utility.yul\":749:755   */\n      0x00\n        /* \"#utility.yul\":798:800   */\n      0x20\n        /* \"#utility.yul\":786:795   */\n      dup3\n        /* \"#utility.yul\":777:784   */\n      dup5\n        /* \"#utility.yul\":773:796   */\n      sub\n        /* \"#utility.yul\":769:801   */\n      slt\n        /* \"#utility.yul\":766:885   */\n      iszero\n      tag_162\n      jumpi\n        /* \"#utility.yul\":804:883   */\n      tag_163\n      tag_103\n      jump\t// in\n    tag_163:\n        /* \"#utility.yul\":766:885   */\n    tag_162:\n        /* \"#utility.yul\":924:925   */\n      0x00\n        /* \"#utility.yul\":949:1002   */\n      tag_164\n        /* \"#utility.yul\":994:1001   */\n      dup5\n        /* \"#utility.yul\":985:991   */\n      dup3\n        /* \"#utility.yul\":974:983   */\n      dup6\n        /* \"#utility.yul\":970:992   */\n      add\n        /* \"#utility.yul\":949:1002   */\n      tag_107\n      jump\t// in\n    tag_164:\n        /* \"#utility.yul\":939:1002   */\n      swap2\n      pop\n        /* \"#utility.yul\":895:1012   */\n      pop\n        /* \"#utility.yul\":690:1019   */\n      swap3\n      swap2\n      pop\n      pop\n      jump\t// out\n        /* \"#utility.yul\":1025:1151   */\n    tag_108:\n        /* \"#utility.yul\":1062:1069   */\n      0x00\n        /* \"#utility.yul\":1102:1144   */\n      0xffffffffffffffffffffffffffffffffffffffff\n        /* \"#utility.yul\":1095:1100   */\n      dup3\n        /* \"#utility.yul\":1091:1145   */\n      and\n        /* \"#utility.yul\":1080:1145   */\n      swap1\n      pop\n        /* \"#utility.yul\":1025:1151   */\n      swap2\n      swap1\n      pop\n      jump\t// out\n        /* \"#utility.yul\":1157:1253   */\n    tag_109:\n        /* \"#utility.yul\":1194:1201   */\n      0x00\n        /* \"#utility.yul\":1223:1247   */\n      tag_167\n        /* \"#utility.yul\":1241:1246   */\n      dup3\n        /* \"#utility.yul\":1223:1247   */\n      tag_108\n      jump\t// in\n    tag_167:\n        /* \"#utility.yul\":1212:1247   */\n      swap1\n      pop\n        /* \"#utility.yul\":1157:1253   */\n      swap2\n      swap1\n      pop\n      jump\t// out\n        /* \"#utility.yul\":1259:1377   */\n    tag_110:\n        /* \"#utility.yul\":1346:1370   */\n      tag_169\n        /* \"#utility.yul\":1364:1369   */\n      dup2\n        /* \"#utility.yul\":1346:1370   */\n      tag_109\n      jump\t// in\n    tag_169:\n        /* \"#utility.yul\":1341:1344   */\n      dup3\n        /* \"#utility.yul\":1334:1371   */\n      mstore\n        /* \"#utility.yul\":1259:1377   */\n      pop\n      pop\n      jump\t// out\n        /* \"#utility.yul\":1383:1605   */\n    tag_17:\n        /* \"#utility.yul\":1476:1480   */\n      0x00\n        /* \"#utility.yul\":1514:1516   */\n      0x20\n        /* \"#utility.yul\":1503:1512   */\n      dup3\n        /* \"#utility.yul\":1499:1517   */\n      add\n        /* \"#utility.yul\":1491:1517   */\n      swap1\n      pop\n        /* \"#utility.yul\":1527:1598   */\n      tag_171\n        /* \"#utility.yul\":1595:1596   */\n      0x00\n        /* \"#utility.yul\":1584:1593   */\n      dup4\n        /* \"#utility.yul\":1580:1597   */\n      add\n        /* \"#utility.yul\":1571:1577   */\n      dup5\n        /* \"#utility.yul\":1527:1598   */\n      tag_110\n      jump\t// in\n    tag_171:\n        /* \"#utility.yul\":1383:1605   */\n      swap3\n      swap2\n      pop\n      pop\n      jump\t// out\n        /* \"#utility.yul\":1611:1729   */\n    tag_111:\n        /* \"#utility.yul\":1698:1722   */\n      tag_173\n        /* \"#utility.yul\":1716:1721   */\n      dup2\n        /* \"#utility.yul\":1698:1722   */\n      tag_105\n      jump\t// in\n    tag_173:\n        /* \"#utility.yul\":1693:1696   */\n      dup3\n        /* \"#utility.yul\":1686:1723   */\n      mstore\n        /* \"#utility.yul\":1611:1729   */\n      pop\n      pop\n      jump\t// out\n        /* \"#utility.yul\":1735:1957   */\n    tag_22:\n        /* \"#utility.yul\":1828:1832   */\n      0x00\n        /* \"#utility.yul\":1866:1868   */\n      0x20\n        /* \"#utility.yul\":1855:1864   */\n      dup3\n        /* \"#utility.yul\":1851:1869   */\n      add\n        /* \"#utility.yul\":1843:1869   */\n      swap1\n      pop\n        /* \"#utility.yul\":1879:1950   */\n      tag_175\n        /* \"#utility.yul\":1947:1948   */\n      0x00\n        /* \"#utility.yul\":1936:1945   */\n      dup4\n        /* \"#utility.yul\":1932:1949   */\n      add\n        /* \"#utility.yul\":1923:1929   */\n      dup5\n        /* \"#utility.yul\":1879:1950   */\n      tag_111\n      jump\t// in\n    tag_175:\n        /* \"#utility.yul\":1735:1957   */\n      swap3\n      swap2\n      pop\n      pop\n      jump\t// out\n        /* \"#utility.yul\":1963:2085   */\n    tag_112:\n        /* \"#utility.yul\":2036:2060   */\n      tag_177\n        /* \"#utility.yul\":2054:2059   */\n      dup2\n        /* \"#utility.yul\":2036:2060   */\n      tag_109\n      jump\t// in\n    tag_177:\n        /* \"#utility.yul\":2029:2034   */\n      dup2\n        /* \"#utility.yul\":2026:2061   */\n      eq\n        /* \"#utility.yul\":2016:2079   */\n      tag_178\n      jumpi\n        /* \"#utility.yul\":2075:2076   */\n      0x00\n        /* \"#utility.yul\":2072:2073   */\n      dup1\n        /* \"#utility.yul\":2065:2077   */\n      revert\n        /* \"#utility.yul\":2016:2079   */\n    tag_178:\n        /* \"#utility.yul\":1963:2085   */\n      pop\n      jump\t// out\n        /* \"#utility.yul\":2091:2230   */\n    tag_113:\n        /* \"#utility.yul\":2137:2142   */\n      0x00\n        /* \"#utility.yul\":2175:2181   */\n      dup2\n        /* \"#utility.yul\":2162:2182   */\n      calldataload\n        /* \"#utility.yul\":2153:2182   */\n      swap1\n      pop\n        /* \"#utility.yul\":2191:2224   */\n      tag_180\n        /* \"#utility.yul\":2218:2223   */\n      dup2\n        /* \"#utility.yul\":2191:2224   */\n      tag_112\n      jump\t// in\n    tag_180:\n        /* \"#utility.yul\":2091:2230   */\n      swap3\n      swap2\n      pop\n      pop\n      jump\t// out\n        /* \"#utility.yul\":2236:2565   */\n    tag_30:\n        /* \"#utility.yul\":2295:2301   */\n      0x00\n        /* \"#utility.yul\":2344:2346   */\n      0x20\n        /* \"#utility.yul\":2332:2341   */\n      dup3\n        /* \"#utility.yul\":2323:2330   */\n      dup5\n        /* \"#utility.yul\":2319:2342   */\n      sub\n        /* \"#utility.yul\":2315:2347   */\n      slt\n        /* \"#utility.yul\":2312:2431   */\n      iszero\n      tag_182\n      jumpi\n        /* \"#utility.yul\":2350:2429   */\n      tag_183\n      tag_103\n      jump\t// in\n    tag_183:\n        /* \"#utility.yul\":2312:2431   */\n    tag_182:\n        /* \"#utility.yul\":2470:2471   */\n      0x00\n        /* \"#utility.yul\":2495:2548   */\n      tag_184\n        /* \"#utility.yul\":2540:2547   */\n      dup5\n        /* \"#utility.yul\":2531:2537   */\n      dup3\n        /* \"#utility.yul\":2520:2529   */\n      dup6\n        /* \"#utility.yul\":2516:2538   */\n      add\n        /* \"#utility.yul\":2495:2548   */\n      tag_113\n      jump\t// in\n    tag_184:\n        /* \"#utility.yul\":2485:2548   */\n      swap2\n      pop\n        /* \"#utility.yul\":2441:2558   */\n      pop\n        /* \"#utility.yul\":2236:2565   */\n      swap3\n      swap2\n      pop\n      pop\n      jump\t// out\n        /* \"#utility.yul\":2571:2661   */\n    tag_114:\n        /* \"#utility.yul\":2605:2612   */\n      0x00\n        /* \"#utility.yul\":2648:2653   */\n      dup2\n        /* \"#utility.yul\":2641:2654   */\n      iszero\n        /* \"#utility.yul\":2634:2655   */\n      iszero\n        /* \"#utility.yul\":2623:2655   */\n      swap1\n      pop\n        /* \"#utility.yul\":2571:2661   */\n      swap2\n      swap1\n      pop\n      jump\t// out\n        /* \"#utility.yul\":2667:2776   */\n    tag_115:\n        /* \"#utility.yul\":2748:2769   */\n      tag_187\n        /* \"#utility.yul\":2763:2768   */\n      dup2\n        /* \"#utility.yul\":2748:2769   */\n      tag_114\n      jump\t// in\n    tag_187:\n        /* \"#utility.yul\":2743:2746   */\n      dup3\n        /* \"#utility.yul\":2736:2770   */\n      mstore\n        /* \"#utility.yul\":2667:2776   */\n      pop\n      pop\n      jump\t// out\n        /* \"#utility.yul\":2782:2992   */\n    tag_33:\n        /* \"#utility.yul\":2869:2873   */\n      0x00\n        /* \"#utility.yul\":2907:2909   */\n      0x20\n        /* \"#utility.yul\":2896:2905   */\n      dup3\n        /* \"#utility.yul\":2892:2910   */\n      add\n        /* \"#utility.yul\":2884:2910   */\n      swap1\n      pop\n        /* \"#utility.yul\":2920:2985   */\n      tag_189\n        /* \"#utility.yul\":2982:2983   */\n      0x00\n        /* \"#utility.yul\":2971:2980   */\n      dup4\n        /* \"#utility.yul\":2967:2984   */\n      add\n        /* \"#utility.yul\":2958:2964   */\n      dup5\n        /* \"#utility.yul\":2920:2985   */\n      tag_115\n      jump\t// in\n    tag_189:\n        /* \"#utility.yul\":2782:2992   */\n      swap3\n      swap2\n      pop\n      pop\n      jump\t// out\n        /* \"#utility.yul\":2998:3115   */\n    tag_116:\n        /* \"#utility.yul\":3107:3108   */\n      0x00\n        /* \"#utility.yul\":3104:3105   */\n      dup1\n        /* \"#utility.yul\":3097:3109   */\n      revert\n        /* \"#utility.yul\":3121:3238   */\n    tag_117:\n        /* \"#utility.yul\":3230:3231   */\n      0x00\n        /* \"#utility.yul\":3227:3228   */\n      dup1\n        /* \"#utility.yul\":3220:3232   */\n      revert\n        /* \"#utility.yul\":3244:3346   */\n    tag_118:\n        /* \"#utility.yul\":3285:3291   */\n      0x00\n        /* \"#utility.yul\":3336:3338   */\n      0x1f\n        /* \"#utility.yul\":3332:3339   */\n      not\n        /* \"#utility.yul\":3327:3329   */\n      0x1f\n        /* \"#utility.yul\":3320:3325   */\n      dup4\n        /* \"#utility.yul\":3316:3330   */\n      add\n        /* \"#utility.yul\":3312:3340   */\n      and\n        /* \"#utility.yul\":3302:3340   */\n      swap1\n      pop\n        /* \"#utility.yul\":3244:3346   */\n      swap2\n      swap1\n      pop\n      jump\t// out\n        /* \"#utility.yul\":3352:3532   */\n    tag_119:\n        /* \"#utility.yul\":3400:3477   */\n      0x4e487b7100000000000000000000000000000000000000000000000000000000\n        /* \"#utility.yul\":3397:3398   */\n      0x00\n        /* \"#utility.yul\":3390:3478   */\n      mstore\n        /* \"#utility.yul\":3497:3501   */\n      0x41\n        /* \"#utility.yul\":3494:3495   */\n      0x04\n        /* \"#utility.yul\":3487:3502   */\n      mstore\n        /* \"#utility.yul\":3521:3525   */\n      0x24\n        /* \"#utility.yul\":3518:3519   */\n      0x00\n        /* \"#utility.yul\":3511:3526   */\n      revert\n        /* \"#utility.yul\":3538:3819   */\n    tag_120:\n        /* \"#utility.yul\":3621:3648   */\n      tag_195\n        /* \"#utility.yul\":3643:3647   */\n      dup3\n        /* \"#utility.yul\":3621:3648   */\n      tag_118\n      jump\t// in\n    tag_195:\n        /* \"#utility.yul\":3613:3619   */\n      dup2\n        /* \"#utility.yul\":3609:3649   */\n      add\n        /* \"#utility.yul\":3751:3757   */\n      dup2\n        /* \"#utility.yul\":3739:3749   */\n      dup2\n        /* \"#utility.yul\":3736:3758   */\n      lt\n        /* \"#utility.yul\":3715:3733   */\n      0xffffffffffffffff\n        /* \"#utility.yul\":3703:3713   */\n      dup3\n        /* \"#utility.yul\":3700:3734   */\n      gt\n        /* \"#utility.yul\":3697:3759   */\n      or\n        /* \"#utility.yul\":3694:3782   */\n      iszero\n      tag_196\n      jumpi\n        /* \"#utility.yul\":3762:3780   */\n      tag_197\n      tag_119\n      jump\t// in\n    tag_197:\n        /* \"#utility.yul\":3694:3782   */\n    tag_196:\n        /* \"#utility.yul\":3802:3812   */\n      dup1\n        /* \"#utility.yul\":3798:3800   */\n      0x40\n        /* \"#utility.yul\":3791:3813   */\n      mstore\n        /* \"#utility.yul\":3581:3819   */\n      pop\n        /* \"#utility.yul\":3538:3819   */\n      pop\n      pop\n      jump\t// out\n        /* \"#utility.yul\":3825:3954   */\n    tag_121:\n        /* \"#utility.yul\":3859:3865   */\n      0x00\n        /* \"#utility.yul\":3886:3906   */\n      tag_199\n      tag_102\n      jump\t// in\n    tag_199:\n        /* \"#utility.yul\":3876:3906   */\n      swap1\n      pop\n        /* \"#utility.yul\":3915:3948   */\n      tag_200\n        /* \"#utility.yul\":3943:3947   */\n      dup3\n        /* \"#utility.yul\":3935:3941   */\n      dup3\n        /* \"#utility.yul\":3915:3948   */\n      tag_120\n      jump\t// in\n    tag_200:\n        /* \"#utility.yul\":3825:3954   */\n      swap2\n      swap1\n      pop\n      jump\t// out\n        /* \"#utility.yul\":3960:4267   */\n    tag_122:\n        /* \"#utility.yul\":4021:4025   */\n      0x00\n        /* \"#utility.yul\":4111:4129   */\n      0xffffffffffffffff\n        /* \"#utility.yul\":4103:4109   */\n      dup3\n        /* \"#utility.yul\":4100:4130   */\n      gt\n        /* \"#utility.yul\":4097:4153   */\n      iszero\n      tag_202\n      jumpi\n        /* \"#utility.yul\":4133:4151   */\n      tag_203\n      tag_119\n      jump\t// in\n    tag_203:\n        /* \"#utility.yul\":4097:4153   */\n    tag_202:\n        /* \"#utility.yul\":4171:4200   */\n      tag_204\n        /* \"#utility.yul\":4193:4199   */\n      dup3\n        /* \"#utility.yul\":4171:4200   */\n      tag_118\n      jump\t// in\n    tag_204:\n        /* \"#utility.yul\":4163:4200   */\n      swap1\n      pop\n        /* \"#utility.yul\":4255:4259   */\n      0x20\n        /* \"#utility.yul\":4249:4253   */\n      dup2\n        /* \"#utility.yul\":4245:4260   */\n      add\n        /* \"#utility.yul\":4237:4260   */\n      swap1\n      pop\n        /* \"#utility.yul\":3960:4267   */\n      swap2\n      swap1\n      pop\n      jump\t// out\n        /* \"#utility.yul\":4273:4421   */\n    tag_123:\n        /* \"#utility.yul\":4371:4377   */\n      dup3\n        /* \"#utility.yul\":4366:4369   */\n      dup2\n        /* \"#utility.yul\":4361:4364   */\n      dup4\n        /* \"#utility.yul\":4348:4378   */\n      calldatacopy\n        /* \"#utility.yul\":4412:4413   */\n      0x00\n        /* \"#utility.yul\":4403:4409   */\n      dup4\n        /* \"#utility.yul\":4398:4401   */\n      dup4\n        /* \"#utility.yul\":4394:4410   */\n      add\n        /* \"#utility.yul\":4387:4414   */\n      mstore\n        /* \"#utility.yul\":4273:4421   */\n      pop\n      pop\n      pop\n      jump\t// out\n        /* \"#utility.yul\":4427:4850   */\n    tag_124:\n        /* \"#utility.yul\":4504:4509   */\n      0x00\n        /* \"#utility.yul\":4529:4594   */\n      tag_207\n        /* \"#utility.yul\":4545:4593   */\n      tag_208\n        /* \"#utility.yul\":4586:4592   */\n      dup5\n        /* \"#utility.yul\":4545:4593   */\n      tag_122\n      jump\t// in\n    tag_208:\n        /* \"#utility.yul\":4529:4594   */\n      tag_121\n      jump\t// in\n    tag_207:\n        /* \"#utility.yul\":4520:4594   */\n      swap1\n      pop\n        /* \"#utility.yul\":4617:4623   */\n      dup3\n        /* \"#utility.yul\":4610:4615   */\n      dup2\n        /* \"#utility.yul\":4603:4624   */\n      mstore\n        /* \"#utility.yul\":4655:4659   */\n      0x20\n        /* \"#utility.yul\":4648:4653   */\n      dup2\n        /* \"#utility.yul\":4644:4660   */\n      add\n        /* \"#utility.yul\":4693:4696   */\n      dup5\n        /* \"#utility.yul\":4684:4690   */\n      dup5\n        /* \"#utility.yul\":4679:4682   */\n      dup5\n        /* \"#utility.yul\":4675:4691   */\n      add\n        /* \"#utility.yul\":4672:4697   */\n      gt\n        /* \"#utility.yul\":4669:4781   */\n      iszero\n      tag_209\n      jumpi\n        /* \"#utility.yul\":4700:4779   */\n      tag_210\n      tag_117\n      jump\t// in\n    tag_210:\n        /* \"#utility.yul\":4669:4781   */\n    tag_209:\n        /* \"#utility.yul\":4790:4844   */\n      tag_211\n        /* \"#utility.yul\":4837:4843   */\n      dup5\n        /* \"#utility.yul\":4832:4835   */\n      dup3\n        /* \"#utility.yul\":4827:4830   */\n      dup6\n        /* \"#utility.yul\":4790:4844   */\n      tag_123\n      jump\t// in\n    tag_211:\n        /* \"#utility.yul\":4510:4850   */\n      pop\n        /* \"#utility.yul\":4427:4850   */\n      swap4\n      swap3\n      pop\n      pop\n      pop\n      jump\t// out\n        /* \"#utility.yul\":4869:5207   */\n    tag_125:\n        /* \"#utility.yul\":4924:4929   */\n      0x00\n        /* \"#utility.yul\":4973:4976   */\n      dup3\n        /* \"#utility.yul\":4966:4970   */\n      0x1f\n        /* \"#utility.yul\":4958:4964   */\n      dup4\n        /* \"#utility.yul\":4954:4971   */\n      add\n        /* \"#utility.yul\":4950:4977   */\n      slt\n        /* \"#utility.yul\":4940:5062   */\n      tag_213\n      jumpi\n        /* \"#utility.yul\":4981:5060   */\n      tag_214\n      tag_116\n      jump\t// in\n    tag_214:\n        /* \"#utility.yul\":4940:5062   */\n    tag_213:\n        /* \"#utility.yul\":5098:5104   */\n      dup2\n        /* \"#utility.yul\":5085:5105   */\n      calldataload\n        /* \"#utility.yul\":5123:5201   */\n      tag_215\n        /* \"#utility.yul\":5197:5200   */\n      dup5\n        /* \"#utility.yul\":5189:5195   */\n      dup3\n        /* \"#utility.yul\":5182:5186   */\n      0x20\n        /* \"#utility.yul\":5174:5180   */\n      dup7\n        /* \"#utility.yul\":5170:5187   */\n      add\n        /* \"#utility.yul\":5123:5201   */\n      tag_124\n      jump\t// in\n    tag_215:\n        /* \"#utility.yul\":5114:5201   */\n      swap2\n      pop\n        /* \"#utility.yul\":4930:5207   */\n      pop\n        /* \"#utility.yul\":4869:5207   */\n      swap3\n      swap2\n      pop\n      pop\n      jump\t// out\n        /* \"#utility.yul\":5213:6302   */\n    tag_37:\n        /* \"#utility.yul\":5317:5323   */\n      0x00\n        /* \"#utility.yul\":5325:5331   */\n      dup1\n        /* \"#utility.yul\":5333:5339   */\n      0x00\n        /* \"#utility.yul\":5341:5347   */\n      dup1\n        /* \"#utility.yul\":5349:5355   */\n      0x00\n        /* \"#utility.yul\":5398:5401   */\n      0xa0\n        /* \"#utility.yul\":5386:5395   */\n      dup7\n        /* \"#utility.yul\":5377:5384   */\n      dup9\n        /* \"#utility.yul\":5373:5396   */\n      sub\n        /* \"#utility.yul\":5369:5402   */\n      slt\n        /* \"#utility.yul\":5366:5486   */\n      iszero\n      tag_217\n      jumpi\n        /* \"#utility.yul\":5405:5484   */\n      tag_218\n      tag_103\n      jump\t// in\n    tag_218:\n        /* \"#utility.yul\":5366:5486   */\n    tag_217:\n        /* \"#utility.yul\":5525:5526   */\n      0x00\n        /* \"#utility.yul\":5550:5603   */\n      tag_219\n        /* \"#utility.yul\":5595:5602   */\n      dup9\n        /* \"#utility.yul\":5586:5592   */\n      dup3\n        /* \"#utility.yul\":5575:5584   */\n      dup10\n        /* \"#utility.yul\":5571:5593   */\n      add\n        /* \"#utility.yul\":5550:5603   */\n      tag_113\n      jump\t// in\n    tag_219:\n        /* \"#utility.yul\":5540:5603   */\n      swap6\n      pop\n        /* \"#utility.yul\":5496:5613   */\n      pop\n        /* \"#utility.yul\":5652:5654   */\n      0x20\n        /* \"#utility.yul\":5678:5731   */\n      tag_220\n        /* \"#utility.yul\":5723:5730   */\n      dup9\n        /* \"#utility.yul\":5714:5720   */\n      dup3\n        /* \"#utility.yul\":5703:5712   */\n      dup10\n        /* \"#utility.yul\":5699:5721   */\n      add\n        /* \"#utility.yul\":5678:5731   */\n      tag_107\n      jump\t// in\n    tag_220:\n        /* \"#utility.yul\":5668:5731   */\n      swap5\n      pop\n        /* \"#utility.yul\":5623:5741   */\n      pop\n        /* \"#utility.yul\":5808:5810   */\n      0x40\n        /* \"#utility.yul\":5797:5806   */\n      dup7\n        /* \"#utility.yul\":5793:5811   */\n      add\n        /* \"#utility.yul\":5780:5812   */\n      calldataload\n        /* \"#utility.yul\":5839:5857   */\n      0xffffffffffffffff\n        /* \"#utility.yul\":5831:5837   */\n      dup2\n        /* \"#utility.yul\":5828:5858   */\n      gt\n        /* \"#utility.yul\":5825:5942   */\n      iszero\n      tag_221\n      jumpi\n        /* \"#utility.yul\":5861:5940   */\n      tag_222\n      tag_104\n      jump\t// in\n    tag_222:\n        /* \"#utility.yul\":5825:5942   */\n    tag_221:\n        /* \"#utility.yul\":5966:6028   */\n      tag_223\n        /* \"#utility.yul\":6020:6027   */\n      dup9\n        /* \"#utility.yul\":6011:6017   */\n      dup3\n        /* \"#utility.yul\":6000:6009   */\n      dup10\n        /* \"#utility.yul\":5996:6018   */\n      add\n        /* \"#utility.yul\":5966:6028   */\n      tag_125\n      jump\t// in\n    tag_223:\n        /* \"#utility.yul\":5956:6028   */\n      swap4\n      pop\n        /* \"#utility.yul\":5751:6038   */\n      pop\n        /* \"#utility.yul\":6077:6079   */\n      0x60\n        /* \"#utility.yul\":6103:6156   */\n      tag_224\n        /* \"#utility.yul\":6148:6155   */\n      dup9\n        /* \"#utility.yul\":6139:6145   */\n      dup3\n        /* \"#utility.yul\":6128:6137   */\n      dup10\n        /* \"#utility.yul\":6124:6146   */\n      add\n        /* \"#utility.yul\":6103:6156   */\n      tag_107\n      jump\t// in\n    tag_224:\n        /* \"#utility.yul\":6093:6156   */\n      swap3\n      pop\n        /* \"#utility.yul\":6048:6166   */\n      pop\n        /* \"#utility.yul\":6205:6208   */\n      0x80\n        /* \"#utility.yul\":6232:6285   */\n      tag_225\n        /* \"#utility.yul\":6277:6284   */\n      dup9\n        /* \"#utility.yul\":6268:6274   */\n      dup3\n        /* \"#utility.yul\":6257:6266   */\n      dup10\n        /* \"#utility.yul\":6253:6275   */\n      add\n        /* \"#utility.yul\":6232:6285   */\n      tag_107\n      jump\t// in\n    tag_225:\n        /* \"#utility.yul\":6222:6285   */\n      swap2\n      pop\n        /* \"#utility.yul\":6176:6295   */\n      pop\n        /* \"#utility.yul\":5213:6302   */\n      swap3\n      swap6\n      pop\n      swap3\n      swap6\n      swap1\n      swap4\n      pop\n      jump\t// out\n        /* \"#utility.yul\":6308:6385   */\n    tag_126:\n        /* \"#utility.yul\":6345:6352   */\n      0x00\n        /* \"#utility.yul\":6374:6379   */\n      dup2\n        /* \"#utility.yul\":6363:6379   */\n      swap1\n      pop\n        /* \"#utility.yul\":6308:6385   */\n      swap2\n      swap1\n      pop\n      jump\t// out\n        /* \"#utility.yul\":6391:6509   */\n    tag_127:\n        /* \"#utility.yul\":6478:6502   */\n      tag_228\n        /* \"#utility.yul\":6496:6501   */\n      dup2\n        /* \"#utility.yul\":6478:6502   */\n      tag_126\n      jump\t// in\n    tag_228:\n        /* \"#utility.yul\":6473:6476   */\n      dup3\n        /* \"#utility.yul\":6466:6503   */\n      mstore\n        /* \"#utility.yul\":6391:6509   */\n      pop\n      pop\n      jump\t// out\n        /* \"#utility.yul\":6515:6737   */\n    tag_40:\n        /* \"#utility.yul\":6608:6612   */\n      0x00\n        /* \"#utility.yul\":6646:6648   */\n      0x20\n        /* \"#utility.yul\":6635:6644   */\n      dup3\n        /* \"#utility.yul\":6631:6649   */\n      add\n        /* \"#utility.yul\":6623:6649   */\n      swap1\n      pop\n        /* \"#utility.yul\":6659:6730   */\n      tag_230\n        /* \"#utility.yul\":6727:6728   */\n      0x00\n        /* \"#utility.yul\":6716:6725   */\n      dup4\n        /* \"#utility.yul\":6712:6729   */\n      add\n        /* \"#utility.yul\":6703:6709   */\n      dup5\n        /* \"#utility.yul\":6659:6730   */\n      tag_127\n      jump\t// in\n    tag_230:\n        /* \"#utility.yul\":6515:6737   */\n      swap3\n      swap2\n      pop\n      pop\n      jump\t// out\n        /* \"#utility.yul\":6743:7864   */\n    tag_47:\n        /* \"#utility.yul\":6847:6853   */\n      0x00\n        /* \"#utility.yul\":6855:6861   */\n      dup1\n        /* \"#utility.yul\":6863:6869   */\n      0x00\n        /* \"#utility.yul\":6871:6877   */\n      dup1\n        /* \"#utility.yul\":6920:6923   */\n      0x80\n        /* \"#utility.yul\":6908:6917   */\n      dup6\n        /* \"#utility.yul\":6899:6906   */\n      dup8\n        /* \"#utility.yul\":6895:6918   */\n      sub\n        /* \"#utility.yul\":6891:6924   */\n      slt\n        /* \"#utility.yul\":6888:7008   */\n      iszero\n      tag_232\n      jumpi\n        /* \"#utility.yul\":6927:7006   */\n      tag_233\n      tag_103\n      jump\t// in\n    tag_233:\n        /* \"#utility.yul\":6888:7008   */\n    tag_232:\n        /* \"#utility.yul\":7047:7048   */\n      0x00\n        /* \"#utility.yul\":7072:7125   */\n      tag_234\n        /* \"#utility.yul\":7117:7124   */\n      dup8\n        /* \"#utility.yul\":7108:7114   */\n      dup3\n        /* \"#utility.yul\":7097:7106   */\n      dup9\n        /* \"#utility.yul\":7093:7115   */\n      add\n        /* \"#utility.yul\":7072:7125   */\n      tag_113\n      jump\t// in\n    tag_234:\n        /* \"#utility.yul\":7062:7125   */\n      swap5\n      pop\n        /* \"#utility.yul\":7018:7135   */\n      pop\n        /* \"#utility.yul\":7174:7176   */\n      0x20\n        /* \"#utility.yul\":7200:7253   */\n      tag_235\n        /* \"#utility.yul\":7245:7252   */\n      dup8\n        /* \"#utility.yul\":7236:7242   */\n      dup3\n        /* \"#utility.yul\":7225:7234   */\n      dup9\n        /* \"#utility.yul\":7221:7243   */\n      add\n        /* \"#utility.yul\":7200:7253   */\n      tag_107\n      jump\t// in\n    tag_235:\n        /* \"#utility.yul\":7190:7253   */\n      swap4\n      pop\n        /* \"#utility.yul\":7145:7263   */\n      pop\n        /* \"#utility.yul\":7330:7332   */\n      0x40\n        /* \"#utility.yul\":7319:7328   */\n      dup6\n        /* \"#utility.yul\":7315:7333   */\n      add\n        /* \"#utility.yul\":7302:7334   */\n      calldataload\n        /* \"#utility.yul\":7361:7379   */\n      0xffffffffffffffff\n        /* \"#utility.yul\":7353:7359   */\n      dup2\n        /* \"#utility.yul\":7350:7380   */\n      gt\n        /* \"#utility.yul\":7347:7464   */\n      iszero\n      tag_236\n      jumpi\n        /* \"#utility.yul\":7383:7462   */\n      tag_237\n      tag_104\n      jump\t// in\n    tag_237:\n        /* \"#utility.yul\":7347:7464   */\n    tag_236:\n        /* \"#utility.yul\":7488:7550   */\n      tag_238\n        /* \"#utility.yul\":7542:7549   */\n      dup8\n        /* \"#utility.yul\":7533:7539   */\n      dup3\n        /* \"#utility.yul\":7522:7531   */\n      dup9\n        /* \"#utility.yul\":7518:7540   */\n      add\n        /* \"#utility.yul\":7488:7550   */\n      tag_125\n      jump\t// in\n    tag_238:\n        /* \"#utility.yul\":7478:7550   */\n      swap3\n      pop\n        /* \"#utility.yul\":7273:7560   */\n      pop\n        /* \"#utility.yul\":7627:7629   */\n      0x60\n        /* \"#utility.yul\":7616:7625   */\n      dup6\n        /* \"#utility.yul\":7612:7630   */\n      add\n        /* \"#utility.yul\":7599:7631   */\n      calldataload\n        /* \"#utility.yul\":7658:7676   */\n      0xffffffffffffffff\n        /* \"#utility.yul\":7650:7656   */\n      dup2\n        /* \"#utility.yul\":7647:7677   */\n      gt\n        /* \"#utility.yul\":7644:7761   */\n      iszero\n      tag_239\n      jumpi\n        /* \"#utility.yul\":7680:7759   */\n      tag_240\n      tag_104\n      jump\t// in\n    tag_240:\n        /* \"#utility.yul\":7644:7761   */\n    tag_239:\n        /* \"#utility.yul\":7785:7847   */\n      tag_241\n        /* \"#utility.yul\":7839:7846   */\n      dup8\n        /* \"#utility.yul\":7830:7836   */\n      dup3\n        /* \"#utility.yul\":7819:7828   */\n      dup9\n        /* \"#utility.yul\":7815:7837   */\n      add\n        /* \"#utility.yul\":7785:7847   */\n      tag_125\n      jump\t// in\n    tag_241:\n        /* \"#utility.yul\":7775:7847   */\n      swap2\n      pop\n        /* \"#utility.yul\":7570:7857   */\n      pop\n        /* \"#utility.yul\":6743:7864   */\n      swap3\n      swap6\n      swap2\n      swap5\n      pop\n      swap3\n      pop\n      jump\t// out\n        /* \"#utility.yul\":7870:7992   */\n    tag_128:\n        /* \"#utility.yul\":7943:7967   */\n      tag_243\n        /* \"#utility.yul\":7961:7966   */\n      dup2\n        /* \"#utility.yul\":7943:7967   */\n      tag_126\n      jump\t// in\n    tag_243:\n        /* \"#utility.yul\":7936:7941   */\n      dup2\n        /* \"#utility.yul\":7933:7968   */\n      eq\n        /* \"#utility.yul\":7923:7986   */\n      tag_244\n      jumpi\n        /* \"#utility.yul\":7982:7983   */\n      0x00\n        /* \"#utility.yul\":7979:7980   */\n      dup1\n        /* \"#utility.yul\":7972:7984   */\n      revert\n        /* \"#utility.yul\":7923:7986   */\n    tag_244:\n        /* \"#utility.yul\":7870:7992   */\n      pop\n      jump\t// out\n        /* \"#utility.yul\":7998:8137   */\n    tag_129:\n        /* \"#utility.yul\":8044:8049   */\n      0x00\n        /* \"#utility.yul\":8082:8088   */\n      dup2\n        /* \"#utility.yul\":8069:8089   */\n      calldataload\n        /* \"#utility.yul\":8060:8089   */\n      swap1\n      pop\n        /* \"#utility.yul\":8098:8131   */\n      tag_246\n        /* \"#utility.yul\":8125:8130   */\n      dup2\n        /* \"#utility.yul\":8098:8131   */\n      tag_128\n      jump\t// in\n    tag_246:\n        /* \"#utility.yul\":7998:8137   */\n      swap3\n      swap2\n      pop\n      pop\n      jump\t// out\n        /* \"#utility.yul\":8143:8795   */\n    tag_53:\n        /* \"#utility.yul\":8220:8226   */\n      0x00\n        /* \"#utility.yul\":8228:8234   */\n      dup1\n        /* \"#utility.yul\":8277:8279   */\n      0x40\n        /* \"#utility.yul\":8265:8274   */\n      dup4\n        /* \"#utility.yul\":8256:8263   */\n      dup6\n        /* \"#utility.yul\":8252:8275   */\n      sub\n        /* \"#utility.yul\":8248:8280   */\n      slt\n        /* \"#utility.yul\":8245:8364   */\n      iszero\n      tag_248\n      jumpi\n        /* \"#utility.yul\":8283:8362   */\n      tag_249\n      tag_103\n      jump\t// in\n    tag_249:\n        /* \"#utility.yul\":8245:8364   */\n    tag_248:\n        /* \"#utility.yul\":8403:8404   */\n      0x00\n        /* \"#utility.yul\":8428:8481   */\n      tag_250\n        /* \"#utility.yul\":8473:8480   */\n      dup6\n        /* \"#utility.yul\":8464:8470   */\n      dup3\n        /* \"#utility.yul\":8453:8462   */\n      dup7\n        /* \"#utility.yul\":8449:8471   */\n      add\n        /* \"#utility.yul\":8428:8481   */\n      tag_129\n      jump\t// in\n    tag_250:\n        /* \"#utility.yul\":8418:8481   */\n      swap3\n      pop\n        /* \"#utility.yul\":8374:8491   */\n      pop\n        /* \"#utility.yul\":8558:8560   */\n      0x20\n        /* \"#utility.yul\":8547:8556   */\n      dup4\n        /* \"#utility.yul\":8543:8561   */\n      add\n        /* \"#utility.yul\":8530:8562   */\n      calldataload\n        /* \"#utility.yul\":8589:8607   */\n      0xffffffffffffffff\n        /* \"#utility.yul\":8581:8587   */\n      dup2\n        /* \"#utility.yul\":8578:8608   */\n      gt\n        /* \"#utility.yul\":8575:8692   */\n      iszero\n      tag_251\n      jumpi\n        /* \"#utility.yul\":8611:8690   */\n      tag_252\n      tag_104\n      jump\t// in\n    tag_252:\n        /* \"#utility.yul\":8575:8692   */\n    tag_251:\n        /* \"#utility.yul\":8716:8778   */\n      tag_253\n        /* \"#utility.yul\":8770:8777   */\n      dup6\n        /* \"#utility.yul\":8761:8767   */\n      dup3\n        /* \"#utility.yul\":8750:8759   */\n      dup7\n        /* \"#utility.yul\":8746:8768   */\n      add\n        /* \"#utility.yul\":8716:8778   */\n      tag_125\n      jump\t// in\n    tag_253:\n        /* \"#utility.yul\":8706:8778   */\n      swap2\n      pop\n        /* \"#utility.yul\":8501:8788   */\n      pop\n        /* \"#utility.yul\":8143:8795   */\n      swap3\n      pop\n      swap3\n      swap1\n      pop\n      jump\t// out\n        /* \"#utility.yul\":8801:9465   */\n    tag_59:\n        /* \"#utility.yul\":9006:9010   */\n      0x00\n        /* \"#utility.yul\":9044:9047   */\n      0xa0\n        /* \"#utility.yul\":9033:9042   */\n      dup3\n        /* \"#utility.yul\":9029:9048   */\n      add\n        /* \"#utility.yul\":9021:9048   */\n      swap1\n      pop\n        /* \"#utility.yul\":9058:9129   */\n      tag_255\n        /* \"#utility.yul\":9126:9127   */\n      0x00\n        /* \"#utility.yul\":9115:9124   */\n      dup4\n        /* \"#utility.yul\":9111:9128   */\n      add\n        /* \"#utility.yul\":9102:9108   */\n      dup9\n        /* \"#utility.yul\":9058:9129   */\n      tag_110\n      jump\t// in\n    tag_255:\n        /* \"#utility.yul\":9139:9211   */\n      tag_256\n        /* \"#utility.yul\":9207:9209   */\n      0x20\n        /* \"#utility.yul\":9196:9205   */\n      dup4\n        /* \"#utility.yul\":9192:9210   */\n      add\n        /* \"#utility.yul\":9183:9189   */\n      dup8\n        /* \"#utility.yul\":9139:9211   */\n      tag_111\n      jump\t// in\n    tag_256:\n        /* \"#utility.yul\":9221:9293   */\n      tag_257\n        /* \"#utility.yul\":9289:9291   */\n      0x40\n        /* \"#utility.yul\":9278:9287   */\n      dup4\n        /* \"#utility.yul\":9274:9292   */\n      add\n        /* \"#utility.yul\":9265:9271   */\n      dup7\n        /* \"#utility.yul\":9221:9293   */\n      tag_127\n      jump\t// in\n    tag_257:\n        /* \"#utility.yul\":9303:9375   */\n      tag_258\n        /* \"#utility.yul\":9371:9373   */\n      0x60\n        /* \"#utility.yul\":9360:9369   */\n      dup4\n        /* \"#utility.yul\":9356:9374   */\n      add\n        /* \"#utility.yul\":9347:9353   */\n      dup6\n        /* \"#utility.yul\":9303:9375   */\n      tag_111\n      jump\t// in\n    tag_258:\n        /* \"#utility.yul\":9385:9458   */\n      tag_259\n        /* \"#utility.yul\":9453:9456   */\n      0x80\n        /* \"#utility.yul\":9442:9451   */\n      dup4\n        /* \"#utility.yul\":9438:9457   */\n      add\n        /* \"#utility.yul\":9429:9435   */\n      dup5\n        /* \"#utility.yul\":9385:9458   */\n      tag_111\n      jump\t// in\n    tag_259:\n        /* \"#utility.yul\":8801:9465   */\n      swap7\n      swap6\n      pop\n      pop\n      pop\n      pop\n      pop\n      pop\n      jump\t// out\n        /* \"#utility.yul\":9471:9651   */\n    tag_130:\n        /* \"#utility.yul\":9519:9596   */\n      0x4e487b7100000000000000000000000000000000000000000000000000000000\n        /* \"#utility.yul\":9516:9517   */\n      0x00\n        /* \"#utility.yul\":9509:9597   */\n      mstore\n        /* \"#utility.yul\":9616:9620   */\n      0x11\n        /* \"#utility.yul\":9613:9614   */\n      0x04\n        /* \"#utility.yul\":9606:9621   */\n      mstore\n        /* \"#utility.yul\":9640:9644   */\n      0x24\n        /* \"#utility.yul\":9637:9638   */\n      0x00\n        /* \"#utility.yul\":9630:9645   */\n      revert\n        /* \"#utility.yul\":9657:9890   */\n    tag_63:\n        /* \"#utility.yul\":9696:9699   */\n      0x00\n        /* \"#utility.yul\":9719:9743   */\n      tag_262\n        /* \"#utility.yul\":9737:9742   */\n      dup3\n        /* \"#utility.yul\":9719:9743   */\n      tag_105\n      jump\t// in\n    tag_262:\n        /* \"#utility.yul\":9710:9743   */\n      swap2\n      pop\n        /* \"#utility.yul\":9765:9831   */\n      0xffffffffffffffffffffffffffffffffffffffffffffffffffffffffffffffff\n        /* \"#utility.yul\":9758:9763   */\n      dup3\n        /* \"#utility.yul\":9755:9832   */\n      sub\n        /* \"#utility.yul\":9752:9855   */\n      tag_263\n      jumpi\n        /* \"#utility.yul\":9835:9853   */\n      tag_264\n      tag_130\n      jump\t// in\n    tag_264:\n        /* \"#utility.yul\":9752:9855   */\n    tag_263:\n        /* \"#utility.yul\":9882:9883   */\n      0x01\n        /* \"#utility.yul\":9875:9880   */\n      dup3\n        /* \"#utility.yul\":9871:9884   */\n      add\n        /* \"#utility.yul\":9864:9884   */\n      swap1\n      pop\n        /* \"#utility.yul\":9657:9890   */\n      swap2\n      swap1\n      pop\n      jump\t// out\n        /* \"#utility.yul\":9896:9994   */\n    tag_131:\n        /* \"#utility.yul\":9947:9953   */\n      0x00\n        /* \"#utility.yul\":9981:9986   */\n      dup2\n        /* \"#utility.yul\":9975:9987   */\n      mload\n        /* \"#utility.yul\":9965:9987   */\n      swap1\n      pop\n        /* \"#utility.yul\":9896:9994   */\n      swap2\n      swap1\n      pop\n      jump\t// out\n        /* \"#utility.yul\":10000:10147   */\n    tag_132:\n        /* \"#utility.yul\":10101:10112   */\n      0x00\n        /* \"#utility.yul\":10138:10141   */\n      dup2\n        /* \"#utility.yul\":10123:10141   */\n      swap1\n      pop\n        /* \"#utility.yul\":10000:10147   */\n      swap3\n      swap2\n      pop\n      pop\n      jump\t// out\n        /* \"#utility.yul\":10153:10292   */\n    tag_133:\n        /* \"#utility.yul\":10242:10248   */\n      dup3\n        /* \"#utility.yul\":10237:10240   */\n      dup2\n        /* \"#utility.yul\":10232:10235   */\n      dup4\n        /* \"#utility.yul\":10226:10249   */\n      mcopy\n        /* \"#utility.yul\":10283:10284   */\n      0x00\n        /* \"#utility.yul\":10274:10280   */\n      dup4\n        /* \"#utility.yul\":10269:10272   */\n      dup4\n        /* \"#utility.yul\":10265:10281   */\n      add\n        /* \"#utility.yul\":10258:10285   */\n      mstore\n        /* \"#utility.yul\":10153:10292   */\n      pop\n      pop\n      pop\n      jump\t// out\n        /* \"#utility.yul\":10298:10684   */\n    tag_134:\n        /* \"#utility.yul\":10402:10405   */\n      0x00\n        /* \"#utility.yul\":10430:10468   */\n      tag_269\n        /* \"#utility.yul\":10462:10467   */\n      dup3\n        /* \"#utility.yul\":10430:10468   */\n      tag_131\n      jump\t// in\n    tag_269:\n        /* \"#utility.yul\":10484:10572   */\n      tag_270\n        /* \"#utility.yul\":10565:10571   */\n      dup2\n        /* \"#utility.yul\":10560:10563   */\n      dup6\n        /* \"#utility.yul\":10484:10572   */\n      tag_132\n      jump\t// in\n    tag_270:\n        /* \"#utility.yul\":10477:10572   */\n      swap4\n      pop\n        /* \"#utility.yul\":10581:10646   */\n      tag_271\n        /* \"#utility.yul\":10639:10645   */\n      dup2\n        /* \"#utility.yul\":10634:10637   */\n      dup6\n        /* \"#utility.yul\":10627:10631   */\n      0x20\n        /* \"#utility.yul\":10620:10625   */\n      dup7\n        /* \"#utility.yul\":10616:10632   */\n      add\n        /* \"#utility.yul\":10581:10646   */\n      tag_133\n      jump\t// in\n    tag_271:\n        /* \"#utility.yul\":10671:10677   */\n      dup1\n        /* \"#utility.yul\":10666:10669   */\n      dup5\n        /* \"#utility.yul\":10662:10678   */\n      add\n        /* \"#utility.yul\":10655:10678   */\n      swap2\n      pop\n        /* \"#utility.yul\":10406:10684   */\n      pop\n        /* \"#utility.yul\":10298:10684   */\n      swap3\n      swap2\n      pop\n      pop\n      jump\t// out\n        /* \"#utility.yul\":10690:10961   */\n    tag_66:\n        /* \"#utility.yul\":10820:10823   */\n      0x00\n        /* \"#utility.yul\":10842:10935   */\n      tag_273\n        /* \"#utility.yul\":10931:10934   */\n      dup3\n        /* \"#utility.yul\":10922:10928   */\n      dup5\n        /* \"#utility.yul\":10842:10935   */\n      tag_134\n      jump\t// in\n    tag_273:\n        /* \"#utility.yul\":10835:10935   */\n      swap2\n      pop\n        /* \"#utility.yul\":10952:10955   */\n      dup2\n        /* \"#utility.yul\":10945:10955   */\n      swap1\n      pop\n        /* \"#utility.yul\":10690:10961   */\n      swap3\n      swap2\n      pop\n      pop\n      jump\t// out\n        /* \"#utility.yul\":10967:11136   */\n    tag_135:\n        /* \"#utility.yul\":11051:11062   */\n      0x00\n        /* \"#utility.yul\":11085:11091   */\n      dup3\n        /* \"#utility.yul\":11080:11083   */\n      dup3\n        /* \"#utility.yul\":11073:11092   */\n      mstore\n        /* \"#utility.yul\":11125:11129   */\n      0x20\n        /* \"#utility.yul\":11120:11123   */\n      dup3\n        /* \"#utility.yul\":11116:11130   */\n      add\n        /* \"#utility.yul\":11101:11130   */\n      swap1\n      pop\n        /* \"#utility.yul\":10967:11136   */\n      swap3\n      swap2\n      pop\n      pop\n      jump\t// out\n        /* \"#utility.yul\":11142:11298   */\n    tag_136:\n        /* \"#utility.yul\":11282:11290   */\n      0x4451353030340000000000000000000000000000000000000000000000000000\n        /* \"#utility.yul\":11278:11279   */\n      0x00\n        /* \"#utility.yul\":11270:11276   */\n      dup3\n        /* \"#utility.yul\":11266:11280   */\n      add\n        /* \"#utility.yul\":11259:11291   */\n      mstore\n        /* \"#utility.yul\":11142:11298   */\n      pop\n      jump\t// out\n        /* \"#utility.yul\":11304:11669   */\n    tag_137:\n        /* \"#utility.yul\":11446:11449   */\n      0x00\n        /* \"#utility.yul\":11467:11533   */\n      tag_277\n        /* \"#utility.yul\":11531:11532   */\n      0x06\n        /* \"#utility.yul\":11526:11529   */\n      dup4\n        /* \"#utility.yul\":11467:11533   */\n      tag_135\n      jump\t// in\n    tag_277:\n        /* \"#utility.yul\":11460:11533   */\n      swap2\n      pop\n        /* \"#utility.yul\":11542:11635   */\n      tag_278\n        /* \"#utility.yul\":11631:11634   */\n      dup3\n        /* \"#utility.yul\":11542:11635   */\n      tag_136\n      jump\t// in\n    tag_278:\n        /* \"#utility.yul\":11660:11662   */\n      0x20\n        /* \"#utility.yul\":11655:11658   */\n      dup3\n        /* \"#utility.yul\":11651:11663   */\n      add\n        /* \"#utility.yul\":11644:11663   */\n      swap1\n      pop\n        /* \"#utility.yul\":11304:11669   */\n      swap2\n      swap1\n      pop\n      jump\t// out\n        /* \"#utility.yul\":11675:12094   */\n    tag_72:\n        /* \"#utility.yul\":11841:11845   */\n      0x00\n        /* \"#utility.yul\":11879:11881   */\n      0x20\n        /* \"#utility.yul\":11868:11877   */\n      dup3\n        /* \"#utility.yul\":11864:11882   */\n      add\n        /* \"#utility.yul\":11856:11882   */\n      swap1\n      pop\n        /* \"#utility.yul\":11928:11937   */\n      dup2\n        /* \"#utility.yul\":11922:11926   */\n      dup2\n        /* \"#utility.yul\":11918:11938   */\n      sub\n        /* \"#utility.yul\":11914:11915   */\n      0x00\n        /* \"#utility.yul\":11903:11912   */\n      dup4\n        /* \"#utility.yul\":11899:11916   */\n      add\n        /* \"#utility.yul\":11892:11939   */\n      mstore\n        /* \"#utility.yul\":11956:12087   */\n      tag_280\n        /* \"#utility.yul\":12082:12086   */\n      dup2\n        /* \"#utility.yul\":11956:12087   */\n      tag_137\n      jump\t// in\n    tag_280:\n        /* \"#utility.yul\":11948:12087   */\n      swap1\n      pop\n        /* \"#utility.yul\":11675:12094   */\n      swap2\n      swap1\n      pop\n      jump\t// out\n        /* \"#utility.yul\":12100:12256   */\n    tag_138:\n        /* \"#utility.yul\":12240:12248   */\n      0x4451353030350000000000000000000000000000000000000000000000000000\n        /* \"#utility.yul\":12236:12237   */\n      0x00\n        /* \"#utility.yul\":12228:12234   */\n      dup3\n        /* \"#utility.yul\":12224:12238   */\n      add\n        /* \"#utility.yul\":12217:12249   */\n      mstore\n        /* \"#utility.yul\":12100:12256   */\n      pop\n      jump\t// out\n        /* \"#utility.yul\":12262:12627   */\n    tag_139:\n        /* \"#utility.yul\":12404:12407   */\n      0x00\n        /* \"#utility.yul\":12425:12491   */\n      tag_283\n        /* \"#utility.yul\":12489:12490   */\n      0x06\n        /* \"#utility.yul\":12484:12487   */\n      dup4\n        /* \"#utility.yul\":12425:12491   */\n      tag_135\n      jump\t// in\n    tag_283:\n        /* \"#utility.yul\":12418:12491   */\n      swap2\n      pop\n        /* \"#utility.yul\":12500:12593   */\n      tag_284\n        /* \"#utility.yul\":12589:12592   */\n      dup3\n        /* \"#utility.yul\":12500:12593   */\n      tag_138\n      jump\t// in\n    tag_284:\n        /* \"#utility.yul\":12618:12620   */\n      0x20\n        /* \"#utility.yul\":12613:12616   */\n      dup3\n        /* \"#utility.yul\":12609:12621   */\n      add\n        /* \"#utility.yul\":12602:12621   */\n      swap1\n      pop\n        /* \"#utility.yul\":12262:12627   */\n      swap2\n      swap1\n      pop\n      jump\t// out\n        /* \"#utility.yul\":12633:13052   */\n    tag_80:\n        /* \"#utility.yul\":12799:12803   */\n      0x00\n        /* \"#utility.yul\":12837:12839   */\n      0x20\n        /* \"#utility.yul\":12826:12835   */\n      dup3\n        /* \"#utility.yul\":12822:12840   */\n      add\n        /* \"#utility.yul\":12814:12840   */\n      swap1\n      pop\n        /* \"#utility.yul\":12886:12895   */\n      dup2\n        /* \"#utility.yul\":12880:12884   */\n      dup2\n        /* \"#utility.yul\":12876:12896   */\n      sub\n        /* \"#utility.yul\":12872:12873   */\n      0x00\n        /* \"#utility.yul\":12861:12870   */\n      dup4\n        /* \"#utility.yul\":12857:12874   */\n      add\n        /* \"#utility.yul\":12850:12897   */\n      mstore\n        /* \"#utility.yul\":12914:13045   */\n      tag_286\n        /* \"#utility.yul\":13040:13044   */\n      dup2\n        /* \"#utility.yul\":12914:13045   */\n      tag_139\n      jump\t// in\n    tag_286:\n        /* \"#utility.yul\":12906:13045   */\n      swap1\n      pop\n        /* \"#utility.yul\":12633:13052   */\n      swap2\n      swap1\n      pop\n      jump\t// out\n        /* \"#utility.yul\":13058:13468   */\n    tag_82:\n        /* \"#utility.yul\":13098:13105   */\n      0x00\n        /* \"#utility.yul\":13121:13141   */\n      tag_288\n        /* \"#utility.yul\":13139:13140   */\n      dup3\n        /* \"#utility.yul\":13121:13141   */\n      tag_105\n      jump\t// in\n    tag_288:\n        /* \"#utility.yul\":13116:13141   */\n      swap2\n      pop\n        /* \"#utility.yul\":13155:13175   */\n      tag_289\n        /* \"#utility.yul\":13173:13174   */\n      dup4\n        /* \"#utility.yul\":13155:13175   */\n      tag_105\n      jump\t// in\n    tag_289:\n        /* \"#utility.yul\":13150:13175   */\n      swap3\n      pop\n        /* \"#utility.yul\":13210:13211   */\n      dup3\n        /* \"#utility.yul\":13207:13208   */\n      dup3\n        /* \"#utility.yul\":13203:13212   */\n      mul\n        /* \"#utility.yul\":13232:13262   */\n      tag_290\n        /* \"#utility.yul\":13250:13261   */\n      dup2\n        /* \"#utility.yul\":13232:13262   */\n      tag_105\n      jump\t// in\n    tag_290:\n        /* \"#utility.yul\":13221:13262   */\n      swap2\n      pop\n        /* \"#utility.yul\":13411:13412   */\n      dup3\n        /* \"#utility.yul\":13402:13409   */\n      dup3\n        /* \"#utility.yul\":13398:13413   */\n      div\n        /* \"#utility.yul\":13395:13396   */\n      dup5\n        /* \"#utility.yul\":13392:13414   */\n      eq\n        /* \"#utility.yul\":13372:13373   */\n      dup4\n        /* \"#utility.yul\":13365:13374   */\n      iszero\n        /* \"#utility.yul\":13345:13428   */\n      or\n        /* \"#utility.yul\":13322:13461   */\n      tag_291\n      jumpi\n        /* \"#utility.yul\":13441:13459   */\n      tag_292\n      tag_130\n      jump\t// in\n    tag_292:\n        /* \"#utility.yul\":13322:13461   */\n    tag_291:\n        /* \"#utility.yul\":13106:13468   */\n      pop\n        /* \"#utility.yul\":13058:13468   */\n      swap3\n      swap2\n      pop\n      pop\n      jump\t// out\n        /* \"#utility.yul\":13474:13630   */\n    tag_140:\n        /* \"#utility.yul\":13614:13622   */\n      0x4451353030360000000000000000000000000000000000000000000000000000\n        /* \"#utility.yul\":13610:13611   */\n      0x00\n        /* \"#utility.yul\":13602:13608   */\n      dup3\n        /* \"#utility.yul\":13598:13612   */\n      add\n        /* \"#utility.yul\":13591:13623   */\n      mstore\n        /* \"#utility.yul\":13474:13630   */\n      pop\n      jump\t// out\n        /* \"#utility.yul\":13636:14001   */\n    tag_141:\n        /* \"#utility.yul\":13778:13781   */\n      0x00\n        /* \"#utility.yul\":13799:13865   */\n      tag_295\n        /* \"#utility.yul\":13863:13864   */\n      0x06\n        /* \"#utility.yul\":13858:13861   */\n      dup4\n        /* \"#utility.yul\":13799:13865   */\n      tag_135\n      jump\t// in\n    tag_295:\n        /* \"#utility.yul\":13792:13865   */\n      swap2\n      pop\n        /* \"#utility.yul\":13874:13967   */\n      tag_296\n        /* \"#utility.yul\":13963:13966   */\n      dup3\n        /* \"#utility.yul\":13874:13967   */\n      tag_140\n      jump\t// in\n    tag_296:\n        /* \"#utility.yul\":13992:13994   */\n      0x20\n        /* \"#utility.yul\":13987:13990   */\n      dup3\n        /* \"#utility.yul\":13983:13995   */\n      add\n        /* \"#utility.yul\":13976:13995   */\n      swap1\n      pop\n        /* \"#utility.yul\":13636:14001   */\n      swap2\n      swap1\n      pop\n      jump\t// out\n        /* \"#utility.yul\":14007:14426   */\n    tag_85:\n        /* \"#utility.yul\":14173:14177   */\n      0x00\n        /* \"#utility.yul\":14211:14213   */\n      0x20\n        /* \"#utility.yul\":14200:14209   */\n      dup3\n        /* \"#utility.yul\":14196:14214   */\n      add\n        /* \"#utility.yul\":14188:14214   */\n      swap1\n      pop\n        /* \"#utility.yul\":14260:14269   */\n      dup2\n        /* \"#utility.yul\":14254:14258   */\n      dup2\n        /* \"#utility.yul\":14250:14270   */\n      sub\n        /* \"#utility.yul\":14246:14247   */\n      0x00\n        /* \"#utility.yul\":14235:14244   */\n      dup4\n        /* \"#utility.yul\":14231:14248   */\n      add\n        /* \"#utility.yul\":14224:14271   */\n      mstore\n        /* \"#utility.yul\":14288:14419   */\n      tag_298\n        /* \"#utility.yul\":14414:14418   */\n      dup2\n        /* \"#utility.yul\":14288:14419   */\n      tag_141\n      jump\t// in\n    tag_298:\n        /* \"#utility.yul\":14280:14419   */\n      swap1\n      pop\n        /* \"#utility.yul\":14007:14426   */\n      swap2\n      swap1\n      pop\n      jump\t// out\n        /* \"#utility.yul\":14432:14580   */\n    tag_142:\n        /* \"#utility.yul\":14534:14545   */\n      0x00\n        /* \"#utility.yul\":14571:14574   */\n      dup2\n        /* \"#utility.yul\":14556:14574   */\n      swap1\n      pop\n        /* \"#utility.yul\":14432:14580   */\n      swap3\n      swap2\n      pop\n      pop\n      jump\t// out\n        /* \"#utility.yul\":14586:14800   */\n    tag_143:\n        /* \"#utility.yul\":14726:14792   */\n      0x19457468657265756d205369676e6564204d6573736167653a0a333200000000\n        /* \"#utility.yul\":14722:14723   */\n      0x00\n        /* \"#utility.yul\":14714:14720   */\n      dup3\n        /* \"#utility.yul\":14710:14724   */\n      add\n        /* \"#utility.yul\":14703:14793   */\n      mstore\n        /* \"#utility.yul\":14586:14800   */\n      pop\n      jump\t// out\n        /* \"#utility.yul\":14806:15208   */\n    tag_144:\n        /* \"#utility.yul\":14966:14969   */\n      0x00\n        /* \"#utility.yul\":14987:15072   */\n      tag_302\n        /* \"#utility.yul\":15069:15071   */\n      0x1c\n        /* \"#utility.yul\":15064:15067   */\n      dup4\n        /* \"#utility.yul\":14987:15072   */\n      tag_142\n      jump\t// in\n    tag_302:\n        /* \"#utility.yul\":14980:15072   */\n      swap2\n      pop\n        /* \"#utility.yul\":15081:15174   */\n      tag_303\n        /* \"#utility.yul\":15170:15173   */\n      dup3\n        /* \"#utility.yul\":15081:15174   */\n      tag_143\n      jump\t// in\n    tag_303:\n        /* \"#utility.yul\":15199:15201   */\n      0x1c\n        /* \"#utility.yul\":15194:15197   */\n      dup3\n        /* \"#utility.yul\":15190:15202   */\n      add\n        /* \"#utility.yul\":15183:15202   */\n      swap1\n      pop\n        /* \"#utility.yul\":14806:15208   */\n      swap2\n      swap1\n      pop\n      jump\t// out\n        /* \"#utility.yul\":15214:15293   */\n    tag_145:\n        /* \"#utility.yul\":15253:15260   */\n      0x00\n        /* \"#utility.yul\":15282:15287   */\n      dup2\n        /* \"#utility.yul\":15271:15287   */\n      swap1\n      pop\n        /* \"#utility.yul\":15214:15293   */\n      swap2\n      swap1\n      pop\n      jump\t// out\n        /* \"#utility.yul\":15299:15456   */\n    tag_146:\n        /* \"#utility.yul\":15404:15449   */\n      tag_306\n        /* \"#utility.yul\":15424:15448   */\n      tag_307\n        /* \"#utility.yul\":15442:15447   */\n      dup3\n        /* \"#utility.yul\":15424:15448   */\n      tag_126\n      jump\t// in\n    tag_307:\n        /* \"#utility.yul\":15404:15449   */\n      tag_145\n      jump\t// in\n    tag_306:\n        /* \"#utility.yul\":15399:15402   */\n      dup3\n        /* \"#utility.yul\":15392:15450   */\n      mstore\n        /* \"#utility.yul\":15299:15456   */\n      pop\n      pop\n      jump\t// out\n        /* \"#utility.yul\":15462:15984   */\n    tag_92:\n        /* \"#utility.yul\":15675:15678   */\n      0x00\n        /* \"#utility.yul\":15697:15845   */\n      tag_309\n        /* \"#utility.yul\":15841:15844   */\n      dup3\n        /* \"#utility.yul\":15697:15845   */\n      tag_144\n      jump\t// in\n    tag_309:\n        /* \"#utility.yul\":15690:15845   */\n      swap2\n      pop\n        /* \"#utility.yul\":15855:15930   */\n      tag_310\n        /* \"#utility.yul\":15926:15929   */\n      dup3\n        /* \"#utility.yul\":15917:15923   */\n      dup5\n        /* \"#utility.yul\":15855:15930   */\n      tag_146\n      jump\t// in\n    tag_310:\n        /* \"#utility.yul\":15955:15957   */\n      0x20\n        /* \"#utility.yul\":15950:15953   */\n      dup3\n        /* \"#utility.yul\":15946:15958   */\n      add\n        /* \"#utility.yul\":15939:15958   */\n      swap2\n      pop\n        /* \"#utility.yul\":15975:15978   */\n      dup2\n        /* \"#utility.yul\":15968:15978   */\n      swap1\n      pop\n        /* \"#utility.yul\":15462:15984   */\n      swap3\n      swap2\n      pop\n      pop\n      jump\t// out\n        /* \"#utility.yul\":15990:16076   */\n    tag_147:\n        /* \"#utility.yul\":16025:16032   */\n      0x00\n        /* \"#utility.yul\":16065:16069   */\n      0xff\n        /* \"#utility.yul\":16058:16063   */\n      dup3\n        /* \"#utility.yul\":16054:16070   */\n      and\n        /* \"#utility.yul\":16043:16070   */\n      swap1\n      pop\n        /* \"#utility.yul\":15990:16076   */\n      swap2\n      swap1\n      pop\n      jump\t// out\n        /* \"#utility.yul\":16082:16194   */\n    tag_148:\n        /* \"#utility.yul\":16165:16187   */\n      tag_313\n        /* \"#utility.yul\":16181:16186   */\n      dup2\n        /* \"#utility.yul\":16165:16187   */\n      tag_147\n      jump\t// in\n    tag_313:\n        /* \"#utility.yul\":16160:16163   */\n      dup3\n        /* \"#utility.yul\":16153:16188   */\n      mstore\n        /* \"#utility.yul\":16082:16194   */\n      pop\n      pop\n      jump\t// out\n        /* \"#utility.yul\":16200:16745   */\n    tag_94:\n        /* \"#utility.yul\":16373:16377   */\n      0x00\n        /* \"#utility.yul\":16411:16414   */\n      0x80\n        /* \"#utility.yul\":16400:16409   */\n      dup3\n        /* \"#utility.yul\":16396:16415   */\n      add\n        /* \"#utility.yul\":16388:16415   */\n      swap1\n      pop\n        /* \"#utility.yul\":16425:16496   */\n      tag_315\n        /* \"#utility.yul\":16493:16494   */\n      0x00\n        /* \"#utility.yul\":16482:16491   */\n      dup4\n        /* \"#utility.yul\":16478:16495   */\n      add\n        /* \"#utility.yul\":16469:16475   */\n      dup8\n        /* \"#utility.yul\":16425:16496   */\n      tag_127\n      jump\t// in\n    tag_315:\n        /* \"#utility.yul\":16506:16574   */\n      tag_316\n        /* \"#utility.yul\":16570:16572   */\n      0x20\n        /* \"#utility.yul\":16559:16568   */\n      dup4\n        /* \"#utility.yul\":16555:16573   */\n      add\n        /* \"#utility.yul\":16546:16552   */\n      dup7\n        /* \"#utility.yul\":16506:16574   */\n      tag_148\n      jump\t// in\n    tag_316:\n        /* \"#utility.yul\":16584:16656   */\n      tag_317\n        /* \"#utility.yul\":16652:16654   */\n      0x40\n        /* \"#utility.yul\":16641:16650   */\n      dup4\n        /* \"#utility.yul\":16637:16655   */\n      add\n        /* \"#utility.yul\":16628:16634   */\n      dup6\n        /* \"#utility.yul\":16584:16656   */\n      tag_127\n      jump\t// in\n    tag_317:\n        /* \"#utility.yul\":16666:16738   */\n      tag_318\n        /* \"#utility.yul\":16734:16736   */\n      0x60\n        /* \"#utility.yul\":16723:16732   */\n      dup4\n        /* \"#utility.yul\":16719:16737   */\n      add\n        /* \"#utility.yul\":16710:16716   */\n      dup5\n        /* \"#utility.yul\":16666:16738   */\n      tag_127\n      jump\t// in\n    tag_318:\n        /* \"#utility.yul\":16200:16745   */\n      swap6\n      swap5\n      pop\n      pop\n      pop\n      pop\n      pop\n      jump\t// out\n        /* \"#utility.yul\":16751:16907   */\n    tag_149:\n        /* \"#utility.yul\":16891:16899   */\n      0x4451353030370000000000000000000000000000000000000000000000000000\n        /* \"#utility.yul\":16887:16888   */\n      0x00\n        /* \"#utility.yul\":16879:16885   */\n      dup3\n        /* \"#utility.yul\":16875:16889   */\n      add\n        /* \"#utility.yul\":16868:16900   */\n      mstore\n        /* \"#utility.yul\":16751:16907   */\n      pop\n      jump\t// out\n        /* \"#utility.yul\":16913:17278   */\n    tag_150:\n        /* \"#utility.yul\":17055:17058   */\n      0x00\n        /* \"#utility.yul\":17076:17142   */\n      tag_321\n        /* \"#utility.yul\":17140:17141   */\n      0x06\n        /* \"#utility.yul\":17135:17138   */\n      dup4\n        /* \"#utility.yul\":17076:17142   */\n      tag_135\n      jump\t// in\n    tag_321:\n        /* \"#utility.yul\":17069:17142   */\n      swap2\n      pop\n        /* \"#utility.yul\":17151:17244   */\n      tag_322\n        /* \"#utility.yul\":17240:17243   */\n      dup3\n        /* \"#utility.yul\":17151:17244   */\n      tag_149\n      jump\t// in\n    tag_322:\n        /* \"#utility.yul\":17269:17271   */\n      0x20\n        /* \"#utility.yul\":17264:17267   */\n      dup3\n        /* \"#utility.yul\":17260:17272   */\n      add\n        /* \"#utility.yul\":17253:17272   */\n      swap1\n      pop\n        /* \"#utility.yul\":16913:17278   */\n      swap2\n      swap1\n      pop\n      jump\t// out\n        /* \"#utility.yul\":17284:17703   */\n    tag_100:\n        /* \"#utility.yul\":17450:17454   */\n      0x00\n        /* \"#utility.yul\":17488:17490   */\n      0x20\n        /* \"#utility.yul\":17477:17486   */\n      dup3\n        /* \"#utility.yul\":17473:17491   */\n      add\n        /* \"#utility.yul\":17465:17491   */\n      swap1\n      pop\n        /* \"#utility.yul\":17537:17546   */\n      dup2\n        /* \"#utility.yul\":17531:17535   */\n      dup2\n        /* \"#utility.yul\":17527:17547   */\n      sub\n        /* \"#utility.yul\":17523:17524   */\n      0x00\n        /* \"#utility.yul\":17512:17521   */\n      dup4\n        /* \"#utility.yul\":17508:17525   */\n      add\n        /* \"#utility.yul\":17501:17548   */\n      mstore\n        /* \"#utility.yul\":17565:17696   */\n      tag_324\n        /* \"#utility.yul\":17691:17695   */\n      dup2\n        /* \"#utility.yul\":17565:17696   */\n      tag_150\n      jump\t// in\n    tag_324:\n        /* \"#utility.yul\":17557:17696   */\n      swap1\n      pop\n        /* \"#utility.yul\":17284:17703   */\n      swap2\n      swap1\n      pop\n      jump\t// out\n\n    auxdata: 0xa26469706673582212209218a65677264d1287eedba6361df01fdf2835477961772697bc682dbfb9ff9764736f6c634300081a0033\n}\n",
				"bytecode": {
					"linkReferences": {},
					"object": "608060405234801561000f575f80fd5b50604051611670380380611670833981810160405281019061003191906104fa565b610041828261004860201b60201c565b5050610731565b5f6003541461008c576040517f08c379a0000000000000000000000000000000000000000000000000000000008152600401610083906105ae565b60405180910390fd5b81518111156100d0576040517f08c379a00000000000000000000000000000000000000000000000000000000081526004016100c790610616565b60405180910390fd5b6001811015610114576040517f08c379a000000000000000000000000000000000000000000000000000000000815260040161010b9061067e565b60405180910390fd5b5f5b82518110156102f8575f8382815181106101335761013261069c565b5b602002602001015190505f73ffffffffffffffffffffffffffffffffffffffff168173ffffffffffffffffffffffffffffffffffffffff16141580156101a557503073ffffffffffffffffffffffffffffffffffffffff168173ffffffffffffffffffffffffffffffffffffffff1614155b80156101f8575060015f8273ffffffffffffffffffffffffffffffffffffffff1673ffffffffffffffffffffffffffffffffffffffff1681526020019081526020015f205f9054906101000a900460ff16155b610237576040517f08c379a000000000000000000000000000000000000000000000000000000000815260040161022e90610713565b60405180910390fd5b5f81908060018154018082558091505060019003905f5260205f20015f9091909190916101000a81548173ffffffffffffffffffffffffffffffffffffffff021916908373ffffffffffffffffffffffffffffffffffffffff1602179055506001805f8373ffffffffffffffffffffffffffffffffffffffff1673ffffffffffffffffffffffffffffffffffffffff1681526020019081526020015f205f6101000a81548160ff021916908315150217905550508080600101915050610116565b508151600281905550806003819055505050565b5f604051905090565b5f80fd5b5f80fd5b5f80fd5b5f601f19601f8301169050919050565b7f4e487b71000000000000000000000000000000000000000000000000000000005f52604160045260245ffd5b61036782610321565b810181811067ffffffffffffffff8211171561038657610385610331565b5b80604052505050565b5f61039861030c565b90506103a4828261035e565b919050565b5f67ffffffffffffffff8211156103c3576103c2610331565b5b602082029050602081019050919050565b5f80fd5b5f73ffffffffffffffffffffffffffffffffffffffff82169050919050565b5f610401826103d8565b9050919050565b610411816103f7565b811461041b575f80fd5b50565b5f8151905061042c81610408565b92915050565b5f61044461043f846103a9565b61038f565b90508083825260208201905060208402830185811115610467576104666103d4565b5b835b81811015610490578061047c888261041e565b845260208401935050602081019050610469565b5050509392505050565b5f82601f8301126104ae576104ad61031d565b5b81516104be848260208601610432565b91505092915050565b5f819050919050565b6104d9816104c7565b81146104e3575f80fd5b50565b5f815190506104f4816104d0565b92915050565b5f80604083850312156105105761050f610315565b5b5f83015167ffffffffffffffff81111561052d5761052c610319565b5b6105398582860161049a565b925050602061054a858286016104e6565b9150509250929050565b5f82825260208201905092915050565b7f44513530303000000000000000000000000000000000000000000000000000005f82015250565b5f610598600683610554565b91506105a382610564565b602082019050919050565b5f6020820190508181035f8301526105c58161058c565b9050919050565b7f44513530303100000000000000000000000000000000000000000000000000005f82015250565b5f610600600683610554565b915061060b826105cc565b602082019050919050565b5f6020820190508181035f83015261062d816105f4565b9050919050565b7f44513530303200000000000000000000000000000000000000000000000000005f82015250565b5f610668600683610554565b915061067382610634565b602082019050919050565b5f6020820190508181035f8301526106958161065c565b9050919050565b7f4e487b71000000000000000000000000000000000000000000000000000000005f52603260045260245ffd5b7f44513530303300000000000000000000000000000000000000000000000000005f82015250565b5f6106fd600683610554565b9150610708826106c9565b602082019050919050565b5f6020820190508181035f83015261072a816106f1565b9050919050565b610f328061073e5f395ff3fe60806040526004361061007a575f3560e01c8063a67dd5091161004d578063a67dd5091461014a578063affed0e014610186578063dbdcd9f6146101b0578063ed516d51146101e05761007a565b8063025e7c271461007e57806305d8f4b5146100ba5780630db02622146100e45780632f54bf6e1461010e575b5f80fd5b348015610089575f80fd5b506100a4600480360381019061009f9190610694565b610208565b6040516100b191906106fe565b60405180910390f35b3480156100c5575f80fd5b506100ce610242565b6040516100db9190610726565b60405180910390f35b3480156100ef575f80fd5b506100f8610248565b6040516101059190610726565b60405180910390f35b348015610119575f80fd5b50610134600480360381019061012f9190610769565b61024e565b60405161014191906107ae565b60405180910390f35b348015610155575f80fd5b50610170600480360381019061016b9190610903565b61026b565b60405161017d91906109ae565b60405180910390f35b348015610191575f80fd5b5061019a6102ad565b6040516101a79190610726565b60405180910390f35b6101ca60048036038101906101c591906109c7565b6102b3565b6040516101d791906107ae565b60405180910390f35b3480156101eb575f80fd5b5061020660048036038101906102019190610a8d565b610415565b005b5f8181548110610216575f80fd5b905f5260205f20015f915054906101000a900473ffffffffffffffffffffffffffffffffffffffff1681565b60035481565b60025481565b6001602052805f5260405f205f915054906101000a900460ff1681565b5f85858580519060200120858560405160200161028c959493929190610ae7565b60405160208183030381529060405280519060200120905095945050505050565b60045481565b5f806102c48686866004544661026b565b905060045f8154809291906102d890610b65565b91905055506102e78184610415565b8573ffffffffffffffffffffffffffffffffffffffff16858560405161030d9190610bfe565b5f6040518083038185875af1925050503d805f8114610347576040519150601f19603f3d011682016040523d82523d5f602084013e61034c565b606091505b50508092505081610392576040517f08c379a000000000000000000000000000000000000000000000000000000000815260040161038990610c6e565b60405180910390fd5b81156103d4577fdc29884a71d2bb98d3c53dc09718be05c7bfd142b7773a5c5cf2517629290ac0816040516103c791906109ae565b60405180910390a161040c565b7fdbe42d02a4e07d7eeff2874efe172540c93b297d206f6d691c9782a257323e328160405161040391906109ae565b60405180910390a15b50949350505050565b5f60035490505f6003541161045f576040517f08c379a000000000000000000000000000000000000000000000000000000000815260040161045690610cd6565b60405180910390fd5b60418161046c9190610cf4565b825110156104af576040517f08c379a00000000000000000000000000000000000000000000000000000000081526004016104a690610d7f565b60405180910390fd5b5f80805f805f5b86811015610618576104c88882610623565b8094508195508296505050506001896040516020016104e79190610e11565b604051602081830303815290604052805190602001208585856040515f815260200160405260405161051c9493929190610e51565b6020604051602081039080840390855afa15801561053c573d5f803e3d5ffd5b5050506020604051035194508573ffffffffffffffffffffffffffffffffffffffff168573ffffffffffffffffffffffffffffffffffffffff161180156105c9575060015f8673ffffffffffffffffffffffffffffffffffffffff1673ffffffffffffffffffffffffffffffffffffffff1681526020019081526020015f205f9054906101000a900460ff165b610608576040517f08c379a00000000000000000000000000000000000000000000000000000000081526004016105ff90610ede565b60405180910390fd5b84955080806001019150506104b6565b505050505050505050565b5f805f8360410260208101860151925060408101860151915060ff60418201870151169350509250925092565b5f604051905090565b5f80fd5b5f80fd5b5f819050919050565b61067381610661565b811461067d575f80fd5b50565b5f8135905061068e8161066a565b92915050565b5f602082840312156106a9576106a8610659565b5b5f6106b684828501610680565b91505092915050565b5f73ffffffffffffffffffffffffffffffffffffffff82169050919050565b5f6106e8826106bf565b9050919050565b6106f8816106de565b82525050565b5f6020820190506107115f8301846106ef565b92915050565b61072081610661565b82525050565b5f6020820190506107395f830184610717565b92915050565b610748816106de565b8114610752575f80fd5b50565b5f813590506107638161073f565b92915050565b5f6020828403121561077e5761077d610659565b5b5f61078b84828501610755565b91505092915050565b5f8115159050919050565b6107a881610794565b82525050565b5f6020820190506107c15f83018461079f565b92915050565b5f80fd5b5f80fd5b5f601f19601f8301169050919050565b7f4e487b71000000000000000000000000000000000000000000000000000000005f52604160045260245ffd5b610815826107cf565b810181811067ffffffffffffffff82111715610834576108336107df565b5b80604052505050565b5f610846610650565b9050610852828261080c565b919050565b5f67ffffffffffffffff821115610871576108706107df565b5b61087a826107cf565b9050602081019050919050565b828183375f83830152505050565b5f6108a76108a284610857565b61083d565b9050828152602081018484840111156108c3576108c26107cb565b5b6108ce848285610887565b509392505050565b5f82601f8301126108ea576108e96107c7565b5b81356108fa848260208601610895565b91505092915050565b5f805f805f60a0868803121561091c5761091b610659565b5b5f61092988828901610755565b955050602061093a88828901610680565b945050604086013567ffffffffffffffff81111561095b5761095a61065d565b5b610967888289016108d6565b935050606061097888828901610680565b925050608061098988828901610680565b9150509295509295909350565b5f819050919050565b6109a881610996565b82525050565b5f6020820190506109c15f83018461099f565b92915050565b5f805f80608085870312156109df576109de610659565b5b5f6109ec87828801610755565b94505060206109fd87828801610680565b935050604085013567ffffffffffffffff811115610a1e57610a1d61065d565b5b610a2a878288016108d6565b925050606085013567ffffffffffffffff811115610a4b57610a4a61065d565b5b610a57878288016108d6565b91505092959194509250565b610a6c81610996565b8114610a76575f80fd5b50565b5f81359050610a8781610a63565b92915050565b5f8060408385031215610aa357610aa2610659565b5b5f610ab085828601610a79565b925050602083013567ffffffffffffffff811115610ad157610ad061065d565b5b610add858286016108d6565b9150509250929050565b5f60a082019050610afa5f8301886106ef565b610b076020830187610717565b610b14604083018661099f565b610b216060830185610717565b610b2e6080830184610717565b9695505050505050565b7f4e487b71000000000000000000000000000000000000000000000000000000005f52601160045260245ffd5b5f610b6f82610661565b91507fffffffffffffffffffffffffffffffffffffffffffffffffffffffffffffffff8203610ba157610ba0610b38565b5b600182019050919050565b5f81519050919050565b5f81905092915050565b8281835e5f83830152505050565b5f610bd882610bac565b610be28185610bb6565b9350610bf2818560208601610bc0565b80840191505092915050565b5f610c098284610bce565b915081905092915050565b5f82825260208201905092915050565b7f44513530303400000000000000000000000000000000000000000000000000005f82015250565b5f610c58600683610c14565b9150610c6382610c24565b602082019050919050565b5f6020820190508181035f830152610c8581610c4c565b9050919050565b7f44513530303500000000000000000000000000000000000000000000000000005f82015250565b5f610cc0600683610c14565b9150610ccb82610c8c565b602082019050919050565b5f6020820190508181035f830152610ced81610cb4565b9050919050565b5f610cfe82610661565b9150610d0983610661565b9250828202610d1781610661565b91508282048414831517610d2e57610d2d610b38565b5b5092915050565b7f44513530303600000000000000000000000000000000000000000000000000005f82015250565b5f610d69600683610c14565b9150610d7482610d35565b602082019050919050565b5f6020820190508181035f830152610d9681610d5d565b9050919050565b5f81905092915050565b7f19457468657265756d205369676e6564204d6573736167653a0a3332000000005f82015250565b5f610ddb601c83610d9d565b9150610de682610da7565b601c82019050919050565b5f819050919050565b610e0b610e0682610996565b610df1565b82525050565b5f610e1b82610dcf565b9150610e278284610dfa565b60208201915081905092915050565b5f60ff82169050919050565b610e4b81610e36565b82525050565b5f608082019050610e645f83018761099f565b610e716020830186610e42565b610e7e604083018561099f565b610e8b606083018461099f565b95945050505050565b7f44513530303700000000000000000000000000000000000000000000000000005f82015250565b5f610ec8600683610c14565b9150610ed382610e94565b602082019050919050565b5f6020820190508181035f830152610ef581610ebc565b905091905056fea26469706673582212209218a65677264d1287eedba6361df01fdf2835477961772697bc682dbfb9ff9764736f6c634300081a0033",
					"opcodes": "PUSH1 0x80 PUSH1 0x40 MSTORE CALLVALUE DUP1 ISZERO PUSH2 0xF JUMPI PUSH0 DUP1 REVERT JUMPDEST POP PUSH1 0x40 MLOAD PUSH2 0x1670 CODESIZE SUB DUP1 PUSH2 0x1670 DUP4 CODECOPY DUP2 DUP2 ADD PUSH1 0x40 MSTORE DUP2 ADD SWAP1 PUSH2 0x31 SWAP2 SWAP1 PUSH2 0x4FA JUMP JUMPDEST PUSH2 0x41 DUP3 DUP3 PUSH2 0x48 PUSH1 0x20 SHL PUSH1 0x20 SHR JUMP JUMPDEST POP POP PUSH2 0x731 JUMP JUMPDEST PUSH0 PUSH1 0x3 SLOAD EQ PUSH2 0x8C JUMPI PUSH1 0x40 MLOAD PUSH32 0x8C379A000000000000000000000000000000000000000000000000000000000 DUP2 MSTORE PUSH1 0x4 ADD PUSH2 0x83 SWAP1 PUSH2 0x5AE JUMP JUMPDEST PUSH1 0x40 MLOAD DUP1 SWAP2 SUB SWAP1 REVERT JUMPDEST DUP2 MLOAD DUP2 GT ISZERO PUSH2 0xD0 JUMPI PUSH1 0x40 MLOAD PUSH32 0x8C379A000000000000000000000000000000000000000000000000000000000 DUP2 MSTORE PUSH1 0x4 ADD PUSH2 0xC7 SWAP1 PUSH2 0x616 JUMP JUMPDEST PUSH1 0x40 MLOAD DUP1 SWAP2 SUB SWAP1 REVERT JUMPDEST PUSH1 0x1 DUP2 LT ISZERO PUSH2 0x114 JUMPI PUSH1 0x40 MLOAD PUSH32 0x8C379A000000000000000000000000000000000000000000000000000000000 DUP2 MSTORE PUSH1 0x4 ADD PUSH2 0x10B SWAP1 PUSH2 0x67E JUMP JUMPDEST PUSH1 0x40 MLOAD DUP1 SWAP2 SUB SWAP1 REVERT JUMPDEST PUSH0 JUMPDEST DUP3 MLOAD DUP2 LT ISZERO PUSH2 0x2F8 JUMPI PUSH0 DUP4 DUP3 DUP2 MLOAD DUP2 LT PUSH2 0x133 JUMPI PUSH2 0x132 PUSH2 0x69C JUMP JUMPDEST JUMPDEST PUSH1 0x20 MUL PUSH1 0x20 ADD ADD MLOAD SWAP1 POP PUSH0 PUSH20 0xFFFFFFFFFFFFFFFFFFFFFFFFFFFFFFFFFFFFFFFF AND DUP2 PUSH20 0xFFFFFFFFFFFFFFFFFFFFFFFFFFFFFFFFFFFFFFFF AND EQ ISZERO DUP1 ISZERO PUSH2 0x1A5 JUMPI POP ADDRESS PUSH20 0xFFFFFFFFFFFFFFFFFFFFFFFFFFFFFFFFFFFFFFFF AND DUP2 PUSH20 0xFFFFFFFFFFFFFFFFFFFFFFFFFFFFFFFFFFFFFFFF AND EQ ISZERO JUMPDEST DUP1 ISZERO PUSH2 0x1F8 JUMPI POP PUSH1 0x1 PUSH0 DUP3 PUSH20 0xFFFFFFFFFFFFFFFFFFFFFFFFFFFFFFFFFFFFFFFF AND PUSH20 0xFFFFFFFFFFFFFFFFFFFFFFFFFFFFFFFFFFFFFFFF AND DUP2 MSTORE PUSH1 0x20 ADD SWAP1 DUP2 MSTORE PUSH1 0x20 ADD PUSH0 KECCAK256 PUSH0 SWAP1 SLOAD SWAP1 PUSH2 0x100 EXP SWAP1 DIV PUSH1 0xFF AND ISZERO JUMPDEST PUSH2 0x237 JUMPI PUSH1 0x40 MLOAD PUSH32 0x8C379A000000000000000000000000000000000000000000000000000000000 DUP2 MSTORE PUSH1 0x4 ADD PUSH2 0x22E SWAP1 PUSH2 0x713 JUMP JUMPDEST PUSH1 0x40 MLOAD DUP1 SWAP2 SUB SWAP1 REVERT JUMPDEST PUSH0 DUP2 SWAP1 DUP1 PUSH1 0x1 DUP2 SLOAD ADD DUP1 DUP3 SSTORE DUP1 SWAP2 POP POP PUSH1 0x1 SWAP1 SUB SWAP1 PUSH0 MSTORE PUSH1 0x20 PUSH0 KECCAK256 ADD PUSH0 SWAP1 SWAP2 SWAP1 SWAP2 SWAP1 SWAP2 PUSH2 0x100 EXP DUP2 SLOAD DUP2 PUSH20 0xFFFFFFFFFFFFFFFFFFFFFFFFFFFFFFFFFFFFFFFF MUL NOT AND SWAP1 DUP4 PUSH20 0xFFFFFFFFFFFFFFFFFFFFFFFFFFFFFFFFFFFFFFFF AND MUL OR SWAP1 SSTORE POP PUSH1 0x1 DUP1 PUSH0 DUP4 PUSH20 0xFFFFFFFFFFFFFFFFFFFFFFFFFFFFFFFFFFFFFFFF AND PUSH20 0xFFFFFFFFFFFFFFFFFFFFFFFFFFFFFFFFFFFFFFFF AND DUP2 MSTORE PUSH1 0x20 ADD SWAP1 DUP2 MSTORE PUSH1 0x20 ADD PUSH0 KECCAK256 PUSH0 PUSH2 0x100 EXP DUP2 SLOAD DUP2 PUSH1 0xFF MUL NOT AND SWAP1 DUP4 ISZERO ISZERO MUL OR SWAP1 SSTORE POP POP DUP1 DUP1 PUSH1 0x1 ADD SWAP2 POP POP PUSH2 0x116 JUMP JUMPDEST POP DUP2 MLOAD PUSH1 0x2 DUP2 SWAP1 SSTORE POP DUP1 PUSH1 0x3 DUP2 SWAP1 SSTORE POP POP POP JUMP JUMPDEST PUSH0 PUSH1 0x40 MLOAD SWAP1 POP SWAP1 JUMP JUMPDEST PUSH0 DUP1 REVERT JUMPDEST PUSH0 DUP1 REVERT JUMPDEST PUSH0 DUP1 REVERT JUMPDEST PUSH0 PUSH1 0x1F NOT PUSH1 0x1F DUP4 ADD AND SWAP1 POP SWAP2 SWAP1 POP JUMP JUMPDEST PUSH32 0x4E487B7100000000000000000000000000000000000000000000000000000000 PUSH0 MSTORE PUSH1 0x41 PUSH1 0x4 MSTORE PUSH1 0x24 PUSH0 REVERT JUMPDEST PUSH2 0x367 DUP3 PUSH2 0x321 JUMP JUMPDEST DUP2 ADD DUP2 DUP2 LT PUSH8 0xFFFFFFFFFFFFFFFF DUP3 GT OR ISZERO PUSH2 0x386 JUMPI PUSH2 0x385 PUSH2 0x331 JUMP JUMPDEST JUMPDEST DUP1 PUSH1 0x40 MSTORE POP POP POP JUMP JUMPDEST PUSH0 PUSH2 0x398 PUSH2 0x30C JUMP JUMPDEST SWAP1 POP PUSH2 0x3A4 DUP3 DUP3 PUSH2 0x35E JUMP JUMPDEST SWAP2 SWAP1 POP JUMP JUMPDEST PUSH0 PUSH8 0xFFFFFFFFFFFFFFFF DUP3 GT ISZERO PUSH2 0x3C3 JUMPI PUSH2 0x3C2 PUSH2 0x331 JUMP JUMPDEST JUMPDEST PUSH1 0x20 DUP3 MUL SWAP1 POP PUSH1 0x20 DUP2 ADD SWAP1 POP SWAP2 SWAP1 POP JUMP JUMPDEST PUSH0 DUP1 REVERT JUMPDEST PUSH0 PUSH20 0xFFFFFFFFFFFFFFFFFFFFFFFFFFFFFFFFFFFFFFFF DUP3 AND SWAP1 POP SWAP2 SWAP1 POP JUMP JUMPDEST PUSH0 PUSH2 0x401 DUP3 PUSH2 0x3D8 JUMP JUMPDEST SWAP1 POP SWAP2 SWAP1 POP JUMP JUMPDEST PUSH2 0x411 DUP2 PUSH2 0x3F7 JUMP JUMPDEST DUP2 EQ PUSH2 0x41B JUMPI PUSH0 DUP1 REVERT JUMPDEST POP JUMP JUMPDEST PUSH0 DUP2 MLOAD SWAP1 POP PUSH2 0x42C DUP2 PUSH2 0x408 JUMP JUMPDEST SWAP3 SWAP2 POP POP JUMP JUMPDEST PUSH0 PUSH2 0x444 PUSH2 0x43F DUP5 PUSH2 0x3A9 JUMP JUMPDEST PUSH2 0x38F JUMP JUMPDEST SWAP1 POP DUP1 DUP4 DUP3 MSTORE PUSH1 0x20 DUP3 ADD SWAP1 POP PUSH1 0x20 DUP5 MUL DUP4 ADD DUP6 DUP2 GT ISZERO PUSH2 0x467 JUMPI PUSH2 0x466 PUSH2 0x3D4 JUMP JUMPDEST JUMPDEST DUP4 JUMPDEST DUP2 DUP2 LT ISZERO PUSH2 0x490 JUMPI DUP1 PUSH2 0x47C DUP9 DUP3 PUSH2 0x41E JUMP JUMPDEST DUP5 MSTORE PUSH1 0x20 DUP5 ADD SWAP4 POP POP PUSH1 0x20 DUP2 ADD SWAP1 POP PUSH2 0x469 JUMP JUMPDEST POP POP POP SWAP4 SWAP3 POP POP POP JUMP JUMPDEST PUSH0 DUP3 PUSH1 0x1F DUP4 ADD SLT PUSH2 0x4AE JUMPI PUSH2 0x4AD PUSH2 0x31D JUMP JUMPDEST JUMPDEST DUP2 MLOAD PUSH2 0x4BE DUP5 DUP3 PUSH1 0x20 DUP7 ADD PUSH2 0x432 JUMP JUMPDEST SWAP2 POP POP SWAP3 SWAP2 POP POP JUMP JUMPDEST PUSH0 DUP2 SWAP1 POP SWAP2 SWAP1 POP JUMP JUMPDEST PUSH2 0x4D9 DUP2 PUSH2 0x4C7 JUMP JUMPDEST DUP2 EQ PUSH2 0x4E3 JUMPI PUSH0 DUP1 REVERT JUMPDEST POP JUMP JUMPDEST PUSH0 DUP2 MLOAD SWAP1 POP PUSH2 0x4F4 DUP2 PUSH2 0x4D0 JUMP JUMPDEST SWAP3 SWAP2 POP POP JUMP JUMPDEST PUSH0 DUP1 PUSH1 0x40 DUP4 DUP6 SUB SLT ISZERO PUSH2 0x510 JUMPI PUSH2 0x50F PUSH2 0x315 JUMP JUMPDEST JUMPDEST PUSH0 DUP4 ADD MLOAD PUSH8 0xFFFFFFFFFFFFFFFF DUP2 GT ISZERO PUSH2 0x52D JUMPI PUSH2 0x52C PUSH2 0x319 JUMP JUMPDEST JUMPDEST PUSH2 0x539 DUP6 DUP3 DUP7 ADD PUSH2 0x49A JUMP JUMPDEST SWAP3 POP POP PUSH1 0x20 PUSH2 0x54A DUP6 DUP3 DUP7 ADD PUSH2 0x4E6 JUMP JUMPDEST SWAP2 POP POP SWAP3 POP SWAP3 SWAP1 POP JUMP JUMPDEST PUSH0 DUP3 DUP3 MSTORE PUSH1 0x20 DUP3 ADD SWAP1 POP SWAP3 SWAP2 POP POP JUMP JUMPDEST PUSH32 0x4451353030300000000000000000000000000000000000000000000000000000 PUSH0 DUP3 ADD MSTORE POP JUMP JUMPDEST PUSH0 PUSH2 0x598 PUSH1 0x6 DUP4 PUSH2 0x554 JUMP JUMPDEST SWAP2 POP PUSH2 0x5A3 DUP3 PUSH2 0x564 JUMP JUMPDEST PUSH1 0x20 DUP3 ADD SWAP1 POP SWAP2 SWAP1 POP JUMP JUMPDEST PUSH0 PUSH1 0x20 DUP3 ADD SWAP1 POP DUP2 DUP2 SUB PUSH0 DUP4 ADD MSTORE PUSH2 0x5C5 DUP2 PUSH2 0x58C JUMP JUMPDEST SWAP1 POP SWAP2 SWAP1 POP JUMP JUMPDEST PUSH32 0x4451353030310000000000000000000000000000000000000000000000000000 PUSH0 DUP3 ADD MSTORE POP JUMP JUMPDEST PUSH0 PUSH2 0x600 PUSH1 0x6 DUP4 PUSH2 0x554 JUMP JUMPDEST SWAP2 POP PUSH2 0x60B DUP3 PUSH2 0x5CC JUMP JUMPDEST PUSH1 0x20 DUP3 ADD SWAP1 POP SWAP2 SWAP1 POP JUMP JUMPDEST PUSH0 PUSH1 0x20 DUP3 ADD SWAP1 POP DUP2 DUP2 SUB PUSH0 DUP4 ADD MSTORE PUSH2 0x62D DUP2 PUSH2 0x5F4 JUMP JUMPDEST SWAP1 POP SWAP2 SWAP1 POP JUMP JUMPDEST PUSH32 0x4451353030320000000000000000000000000000000000000000000000000000 PUSH0 DUP3 ADD MSTORE POP JUMP JUMPDEST PUSH0 PUSH2 0x668 PUSH1 0x6 DUP4 PUSH2 0x554 JUMP JUMPDEST SWAP2 POP PUSH2 0x673 DUP3 PUSH2 0x634 JUMP JUMPDEST PUSH1 0x20 DUP3 ADD SWAP1 POP SWAP2 SWAP1 POP JUMP JUMPDEST PUSH0 PUSH1 0x20 DUP3 ADD SWAP1 POP DUP2 DUP2 SUB PUSH0 DUP4 ADD MSTORE PUSH2 0x695 DUP2 PUSH2 0x65C JUMP JUMPDEST SWAP1 POP SWAP2 SWAP1 POP JUMP JUMPDEST PUSH32 0x4E487B7100000000000000000000000000000000000000000000000000000000 PUSH0 MSTORE PUSH1 0x32 PUSH1 0x4 MSTORE PUSH1 0x24 PUSH0 REVERT JUMPDEST PUSH32 0x4451353030330000000000000000000000000000000000000000000000000000 PUSH0 DUP3 ADD MSTORE POP JUMP JUMPDEST PUSH0 PUSH2 0x6FD PUSH1 0x6 DUP4 PUSH2 0x554 JUMP JUMPDEST SWAP2 POP PUSH2 0x708 DUP3 PUSH2 0x6C9 JUMP JUMPDEST PUSH1 0x20 DUP3 ADD SWAP1 POP SWAP2 SWAP1 POP JUMP JUMPDEST PUSH0 PUSH1 0x20 DUP3 ADD SWAP1 POP DUP2 DUP2 SUB PUSH0 DUP4 ADD MSTORE PUSH2 0x72A DUP2 PUSH2 0x6F1 JUMP JUMPDEST SWAP1 POP SWAP2 SWAP1 POP JUMP JUMPDEST PUSH2 0xF32 DUP1 PUSH2 0x73E PUSH0 CODECOPY PUSH0 RETURN INVALID PUSH1 0x80 PUSH1 0x40 MSTORE PUSH1 0x4 CALLDATASIZE LT PUSH2 0x7A JUMPI PUSH0 CALLDATALOAD PUSH1 0xE0 SHR DUP1 PUSH4 0xA67DD509 GT PUSH2 0x4D JUMPI DUP1 PUSH4 0xA67DD509 EQ PUSH2 0x14A JUMPI DUP1 PUSH4 0xAFFED0E0 EQ PUSH2 0x186 JUMPI DUP1 PUSH4 0xDBDCD9F6 EQ PUSH2 0x1B0 JUMPI DUP1 PUSH4 0xED516D51 EQ PUSH2 0x1E0 JUMPI PUSH2 0x7A JUMP JUMPDEST DUP1 PUSH4 0x25E7C27 EQ PUSH2 0x7E JUMPI DUP1 PUSH4 0x5D8F4B5 EQ PUSH2 0xBA JUMPI DUP1 PUSH4 0xDB02622 EQ PUSH2 0xE4 JUMPI DUP1 PUSH4 0x2F54BF6E EQ PUSH2 0x10E JUMPI JUMPDEST PUSH0 DUP1 REVERT JUMPDEST CALLVALUE DUP1 ISZERO PUSH2 0x89 JUMPI PUSH0 DUP1 REVERT JUMPDEST POP PUSH2 0xA4 PUSH1 0x4 DUP1 CALLDATASIZE SUB DUP2 ADD SWAP1 PUSH2 0x9F SWAP2 SWAP1 PUSH2 0x694 JUMP JUMPDEST PUSH2 0x208 JUMP JUMPDEST PUSH1 0x40 MLOAD PUSH2 0xB1 SWAP2 SWAP1 PUSH2 0x6FE JUMP JUMPDEST PUSH1 0x40 MLOAD DUP1 SWAP2 SUB SWAP1 RETURN JUMPDEST CALLVALUE DUP1 ISZERO PUSH2 0xC5 JUMPI PUSH0 DUP1 REVERT JUMPDEST POP PUSH2 0xCE PUSH2 0x242 JUMP JUMPDEST PUSH1 0x40 MLOAD PUSH2 0xDB SWAP2 SWAP1 PUSH2 0x726 JUMP JUMPDEST PUSH1 0x40 MLOAD DUP1 SWAP2 SUB SWAP1 RETURN JUMPDEST CALLVALUE DUP1 ISZERO PUSH2 0xEF JUMPI PUSH0 DUP1 REVERT JUMPDEST POP PUSH2 0xF8 PUSH2 0x248 JUMP JUMPDEST PUSH1 0x40 MLOAD PUSH2 0x105 SWAP2 SWAP1 PUSH2 0x726 JUMP JUMPDEST PUSH1 0x40 MLOAD DUP1 SWAP2 SUB SWAP1 RETURN JUMPDEST CALLVALUE DUP1 ISZERO PUSH2 0x119 JUMPI PUSH0 DUP1 REVERT JUMPDEST POP PUSH2 0x134 PUSH1 0x4 DUP1 CALLDATASIZE SUB DUP2 ADD SWAP1 PUSH2 0x12F SWAP2 SWAP1 PUSH2 0x769 JUMP JUMPDEST PUSH2 0x24E JUMP JUMPDEST PUSH1 0x40 MLOAD PUSH2 0x141 SWAP2 SWAP1 PUSH2 0x7AE JUMP JUMPDEST PUSH1 0x40 MLOAD DUP1 SWAP2 SUB SWAP1 RETURN JUMPDEST CALLVALUE DUP1 ISZERO PUSH2 0x155 JUMPI PUSH0 DUP1 REVERT JUMPDEST POP PUSH2 0x170 PUSH1 0x4 DUP1 CALLDATASIZE SUB DUP2 ADD SWAP1 PUSH2 0x16B SWAP2 SWAP1 PUSH2 0x903 JUMP JUMPDEST PUSH2 0x26B JUMP JUMPDEST PUSH1 0x40 MLOAD PUSH2 0x17D SWAP2 SWAP1 PUSH2 0x9AE JUMP JUMPDEST PUSH1 0x40 MLOAD DUP1 SWAP2 SUB SWAP1 RETURN JUMPDEST CALLVALUE DUP1 ISZERO PUSH2 0x191 JUMPI PUSH0 DUP1 REVERT JUMPDEST POP PUSH2 0x19A PUSH2 0x2AD JUMP JUMPDEST PUSH1 0x40 MLOAD PUSH2 0x1A7 SWAP2 SWAP1 PUSH2 0x726 JUMP JUMPDEST PUSH1 0x40 MLOAD DUP1 SWAP2 SUB SWAP1 RETURN JUMPDEST PUSH2 0x1CA PUSH1 0x4 DUP1 CALLDATASIZE SUB DUP2 ADD SWAP1 PUSH2 0x1C5 SWAP2 SWAP1 PUSH2 0x9C7 JUMP JUMPDEST PUSH2 0x2B3 JUMP JUMPDEST PUSH1 0x40 MLOAD PUSH2 0x1D7 SWAP2 SWAP1 PUSH2 0x7AE JUMP JUMPDEST PUSH1 0x40 MLOAD DUP1 SWAP2 SUB SWAP1 RETURN JUMPDEST CALLVALUE DUP1 ISZERO PUSH2 0x1EB JUMPI PUSH0 DUP1 REVERT JUMPDEST POP PUSH2 0x206 PUSH1 0x4 DUP1 CALLDATASIZE SUB DUP2 ADD SWAP1 PUSH2 0x201 SWAP2 SWAP1 PUSH2 0xA8D JUMP JUMPDEST PUSH2 0x415 JUMP JUMPDEST STOP JUMPDEST PUSH0 DUP2 DUP2 SLOAD DUP2 LT PUSH2 0x216 JUMPI PUSH0 DUP1 REVERT JUMPDEST SWAP1 PUSH0 MSTORE PUSH1 0x20 PUSH0 KECCAK256 ADD PUSH0 SWAP2 POP SLOAD SWAP1 PUSH2 0x100 EXP SWAP1 DIV PUSH20 0xFFFFFFFFFFFFFFFFFFFFFFFFFFFFFFFFFFFFFFFF AND DUP2 JUMP JUMPDEST PUSH1 0x3 SLOAD DUP2 JUMP JUMPDEST PUSH1 0x2 SLOAD DUP2 JUMP JUMPDEST PUSH1 0x1 PUSH1 0x20 MSTORE DUP1 PUSH0 MSTORE PUSH1 0x40 PUSH0 KECCAK256 PUSH0 SWAP2 POP SLOAD SWAP1 PUSH2 0x100 EXP SWAP1 DIV PUSH1 0xFF AND DUP2 JUMP JUMPDEST PUSH0 DUP6 DUP6 DUP6 DUP1 MLOAD SWAP1 PUSH1 0x20 ADD KECCAK256 DUP6 DUP6 PUSH1 0x40 MLOAD PUSH1 0x20 ADD PUSH2 0x28C SWAP6 SWAP5 SWAP4 SWAP3 SWAP2 SWAP1 PUSH2 0xAE7 JUMP JUMPDEST PUSH1 0x40 MLOAD PUSH1 0x20 DUP2 DUP4 SUB SUB DUP2 MSTORE SWAP1 PUSH1 0x40 MSTORE DUP1 MLOAD SWAP1 PUSH1 0x20 ADD KECCAK256 SWAP1 POP SWAP6 SWAP5 POP POP POP POP POP JUMP JUMPDEST PUSH1 0x4 SLOAD DUP2 JUMP JUMPDEST PUSH0 DUP1 PUSH2 0x2C4 DUP7 DUP7 DUP7 PUSH1 0x4 SLOAD CHAINID PUSH2 0x26B JUMP JUMPDEST SWAP1 POP PUSH1 0x4 PUSH0 DUP2 SLOAD DUP1 SWAP3 SWAP2 SWAP1 PUSH2 0x2D8 SWAP1 PUSH2 0xB65 JUMP JUMPDEST SWAP2 SWAP1 POP SSTORE POP PUSH2 0x2E7 DUP2 DUP5 PUSH2 0x415 JUMP JUMPDEST DUP6 PUSH20 0xFFFFFFFFFFFFFFFFFFFFFFFFFFFFFFFFFFFFFFFF AND DUP6 DUP6 PUSH1 0x40 MLOAD PUSH2 0x30D SWAP2 SWAP1 PUSH2 0xBFE JUMP JUMPDEST PUSH0 PUSH1 0x40 MLOAD DUP1 DUP4 SUB DUP2 DUP6 DUP8 GAS CALL SWAP3 POP POP POP RETURNDATASIZE DUP1 PUSH0 DUP2 EQ PUSH2 0x347 JUMPI PUSH1 0x40 MLOAD SWAP2 POP PUSH1 0x1F NOT PUSH1 0x3F RETURNDATASIZE ADD AND DUP3 ADD PUSH1 0x40 MSTORE RETURNDATASIZE DUP3 MSTORE RETURNDATASIZE PUSH0 PUSH1 0x20 DUP5 ADD RETURNDATACOPY PUSH2 0x34C JUMP JUMPDEST PUSH1 0x60 SWAP2 POP JUMPDEST POP POP DUP1 SWAP3 POP POP DUP2 PUSH2 0x392 JUMPI PUSH1 0x40 MLOAD PUSH32 0x8C379A000000000000000000000000000000000000000000000000000000000 DUP2 MSTORE PUSH1 0x4 ADD PUSH2 0x389 SWAP1 PUSH2 0xC6E JUMP JUMPDEST PUSH1 0x40 MLOAD DUP1 SWAP2 SUB SWAP1 REVERT JUMPDEST DUP2 ISZERO PUSH2 0x3D4 JUMPI PUSH32 0xDC29884A71D2BB98D3C53DC09718BE05C7BFD142B7773A5C5CF2517629290AC0 DUP2 PUSH1 0x40 MLOAD PUSH2 0x3C7 SWAP2 SWAP1 PUSH2 0x9AE JUMP JUMPDEST PUSH1 0x40 MLOAD DUP1 SWAP2 SUB SWAP1 LOG1 PUSH2 0x40C JUMP JUMPDEST PUSH32 0xDBE42D02A4E07D7EEFF2874EFE172540C93B297D206F6D691C9782A257323E32 DUP2 PUSH1 0x40 MLOAD PUSH2 0x403 SWAP2 SWAP1 PUSH2 0x9AE JUMP JUMPDEST PUSH1 0x40 MLOAD DUP1 SWAP2 SUB SWAP1 LOG1 JUMPDEST POP SWAP5 SWAP4 POP POP POP POP JUMP JUMPDEST PUSH0 PUSH1 0x3 SLOAD SWAP1 POP PUSH0 PUSH1 0x3 SLOAD GT PUSH2 0x45F JUMPI PUSH1 0x40 MLOAD PUSH32 0x8C379A000000000000000000000000000000000000000000000000000000000 DUP2 MSTORE PUSH1 0x4 ADD PUSH2 0x456 SWAP1 PUSH2 0xCD6 JUMP JUMPDEST PUSH1 0x40 MLOAD DUP1 SWAP2 SUB SWAP1 REVERT JUMPDEST PUSH1 0x41 DUP2 PUSH2 0x46C SWAP2 SWAP1 PUSH2 0xCF4 JUMP JUMPDEST DUP3 MLOAD LT ISZERO PUSH2 0x4AF JUMPI PUSH1 0x40 MLOAD PUSH32 0x8C379A000000000000000000000000000000000000000000000000000000000 DUP2 MSTORE PUSH1 0x4 ADD PUSH2 0x4A6 SWAP1 PUSH2 0xD7F JUMP JUMPDEST PUSH1 0x40 MLOAD DUP1 SWAP2 SUB SWAP1 REVERT JUMPDEST PUSH0 DUP1 DUP1 PUSH0 DUP1 PUSH0 JUMPDEST DUP7 DUP2 LT ISZERO PUSH2 0x618 JUMPI PUSH2 0x4C8 DUP9 DUP3 PUSH2 0x623 JUMP JUMPDEST DUP1 SWAP5 POP DUP2 SWAP6 POP DUP3 SWAP7 POP POP POP POP PUSH1 0x1 DUP10 PUSH1 0x40 MLOAD PUSH1 0x20 ADD PUSH2 0x4E7 SWAP2 SWAP1 PUSH2 0xE11 JUMP JUMPDEST PUSH1 0x40 MLOAD PUSH1 0x20 DUP2 DUP4 SUB SUB DUP2 MSTORE SWAP1 PUSH1 0x40 MSTORE DUP1 MLOAD SWAP1 PUSH1 0x20 ADD KECCAK256 DUP6 DUP6 DUP6 PUSH1 0x40 MLOAD PUSH0 DUP2 MSTORE PUSH1 0x20 ADD PUSH1 0x40 MSTORE PUSH1 0x40 MLOAD PUSH2 0x51C SWAP5 SWAP4 SWAP3 SWAP2 SWAP1 PUSH2 0xE51 JUMP JUMPDEST PUSH1 0x20 PUSH1 0x40 MLOAD PUSH1 0x20 DUP2 SUB SWAP1 DUP1 DUP5 SUB SWAP1 DUP6 GAS STATICCALL ISZERO DUP1 ISZERO PUSH2 0x53C JUMPI RETURNDATASIZE PUSH0 DUP1 RETURNDATACOPY RETURNDATASIZE PUSH0 REVERT JUMPDEST POP POP POP PUSH1 0x20 PUSH1 0x40 MLOAD SUB MLOAD SWAP5 POP DUP6 PUSH20 0xFFFFFFFFFFFFFFFFFFFFFFFFFFFFFFFFFFFFFFFF AND DUP6 PUSH20 0xFFFFFFFFFFFFFFFFFFFFFFFFFFFFFFFFFFFFFFFF AND GT DUP1 ISZERO PUSH2 0x5C9 JUMPI POP PUSH1 0x1 PUSH0 DUP7 PUSH20 0xFFFFFFFFFFFFFFFFFFFFFFFFFFFFFFFFFFFFFFFF AND PUSH20 0xFFFFFFFFFFFFFFFFFFFFFFFFFFFFFFFFFFFFFFFF AND DUP2 MSTORE PUSH1 0x20 ADD SWAP1 DUP2 MSTORE PUSH1 0x20 ADD PUSH0 KECCAK256 PUSH0 SWAP1 SLOAD SWAP1 PUSH2 0x100 EXP SWAP1 DIV PUSH1 0xFF AND JUMPDEST PUSH2 0x608 JUMPI PUSH1 0x40 MLOAD PUSH32 0x8C379A000000000000000000000000000000000000000000000000000000000 DUP2 MSTORE PUSH1 0x4 ADD PUSH2 0x5FF SWAP1 PUSH2 0xEDE JUMP JUMPDEST PUSH1 0x40 MLOAD DUP1 SWAP2 SUB SWAP1 REVERT JUMPDEST DUP5 SWAP6 POP DUP1 DUP1 PUSH1 0x1 ADD SWAP2 POP POP PUSH2 0x4B6 JUMP JUMPDEST POP POP POP POP POP POP POP POP POP JUMP JUMPDEST PUSH0 DUP1 PUSH0 DUP4 PUSH1 0x41 MUL PUSH1 0x20 DUP2 ADD DUP7 ADD MLOAD SWAP3 POP PUSH1 0x40 DUP2 ADD DUP7 ADD MLOAD SWAP2 POP PUSH1 0xFF PUSH1 0x41 DUP3 ADD DUP8 ADD MLOAD AND SWAP4 POP POP SWAP3 POP SWAP3 POP SWAP3 JUMP JUMPDEST PUSH0 PUSH1 0x40 MLOAD SWAP1 POP SWAP1 JUMP JUMPDEST PUSH0 DUP1 REVERT JUMPDEST PUSH0 DUP1 REVERT JUMPDEST PUSH0 DUP2 SWAP1 POP SWAP2 SWAP1 POP JUMP JUMPDEST PUSH2 0x673 DUP2 PUSH2 0x661 JUMP JUMPDEST DUP2 EQ PUSH2 0x67D JUMPI PUSH0 DUP1 REVERT JUMPDEST POP JUMP JUMPDEST PUSH0 DUP2 CALLDATALOAD SWAP1 POP PUSH2 0x68E DUP2 PUSH2 0x66A JUMP JUMPDEST SWAP3 SWAP2 POP POP JUMP JUMPDEST PUSH0 PUSH1 0x20 DUP3 DUP5 SUB SLT ISZERO PUSH2 0x6A9 JUMPI PUSH2 0x6A8 PUSH2 0x659 JUMP JUMPDEST JUMPDEST PUSH0 PUSH2 0x6B6 DUP5 DUP3 DUP6 ADD PUSH2 0x680 JUMP JUMPDEST SWAP2 POP POP SWAP3 SWAP2 POP POP JUMP JUMPDEST PUSH0 PUSH20 0xFFFFFFFFFFFFFFFFFFFFFFFFFFFFFFFFFFFFFFFF DUP3 AND SWAP1 POP SWAP2 SWAP1 POP JUMP JUMPDEST PUSH0 PUSH2 0x6E8 DUP3 PUSH2 0x6BF JUMP JUMPDEST SWAP1 POP SWAP2 SWAP1 POP JUMP JUMPDEST PUSH2 0x6F8 DUP2 PUSH2 0x6DE JUMP JUMPDEST DUP3 MSTORE POP POP JUMP JUMPDEST PUSH0 PUSH1 0x20 DUP3 ADD SWAP1 POP PUSH2 0x711 PUSH0 DUP4 ADD DUP5 PUSH2 0x6EF JUMP JUMPDEST SWAP3 SWAP2 POP POP JUMP JUMPDEST PUSH2 0x720 DUP2 PUSH2 0x661 JUMP JUMPDEST DUP3 MSTORE POP POP JUMP JUMPDEST PUSH0 PUSH1 0x20 DUP3 ADD SWAP1 POP PUSH2 0x739 PUSH0 DUP4 ADD DUP5 PUSH2 0x717 JUMP JUMPDEST SWAP3 SWAP2 POP POP JUMP JUMPDEST PUSH2 0x748 DUP2 PUSH2 0x6DE JUMP JUMPDEST DUP2 EQ PUSH2 0x752 JUMPI PUSH0 DUP1 REVERT JUMPDEST POP JUMP JUMPDEST PUSH0 DUP2 CALLDATALOAD SWAP1 POP PUSH2 0x763 DUP2 PUSH2 0x73F JUMP JUMPDEST SWAP3 SWAP2 POP POP JUMP JUMPDEST PUSH0 PUSH1 0x20 DUP3 DUP5 SUB SLT ISZERO PUSH2 0x77E JUMPI PUSH2 0x77D PUSH2 0x659 JUMP JUMPDEST JUMPDEST PUSH0 PUSH2 0x78B DUP5 DUP3 DUP6 ADD PUSH2 0x755 JUMP JUMPDEST SWAP2 POP POP SWAP3 SWAP2 POP POP JUMP JUMPDEST PUSH0 DUP2 ISZERO ISZERO SWAP1 POP SWAP2 SWAP1 POP JUMP JUMPDEST PUSH2 0x7A8 DUP2 PUSH2 0x794 JUMP JUMPDEST DUP3 MSTORE POP POP JUMP JUMPDEST PUSH0 PUSH1 0x20 DUP3 ADD SWAP1 POP PUSH2 0x7C1 PUSH0 DUP4 ADD DUP5 PUSH2 0x79F JUMP JUMPDEST SWAP3 SWAP2 POP POP JUMP JUMPDEST PUSH0 DUP1 REVERT JUMPDEST PUSH0 DUP1 REVERT JUMPDEST PUSH0 PUSH1 0x1F NOT PUSH1 0x1F DUP4 ADD AND SWAP1 POP SWAP2 SWAP1 POP JUMP JUMPDEST PUSH32 0x4E487B7100000000000000000000000000000000000000000000000000000000 PUSH0 MSTORE PUSH1 0x41 PUSH1 0x4 MSTORE PUSH1 0x24 PUSH0 REVERT JUMPDEST PUSH2 0x815 DUP3 PUSH2 0x7CF JUMP JUMPDEST DUP2 ADD DUP2 DUP2 LT PUSH8 0xFFFFFFFFFFFFFFFF DUP3 GT OR ISZERO PUSH2 0x834 JUMPI PUSH2 0x833 PUSH2 0x7DF JUMP JUMPDEST JUMPDEST DUP1 PUSH1 0x40 MSTORE POP POP POP JUMP JUMPDEST PUSH0 PUSH2 0x846 PUSH2 0x650 JUMP JUMPDEST SWAP1 POP PUSH2 0x852 DUP3 DUP3 PUSH2 0x80C JUMP JUMPDEST SWAP2 SWAP1 POP JUMP JUMPDEST PUSH0 PUSH8 0xFFFFFFFFFFFFFFFF DUP3 GT ISZERO PUSH2 0x871 JUMPI PUSH2 0x870 PUSH2 0x7DF JUMP JUMPDEST JUMPDEST PUSH2 0x87A DUP3 PUSH2 0x7CF JUMP JUMPDEST SWAP1 POP PUSH1 0x20 DUP2 ADD SWAP1 POP SWAP2 SWAP1 POP JUMP JUMPDEST DUP3 DUP2 DUP4 CALLDATACOPY PUSH0 DUP4 DUP4 ADD MSTORE POP POP POP JUMP JUMPDEST PUSH0 PUSH2 0x8A7 PUSH2 0x8A2 DUP5 PUSH2 0x857 JUMP JUMPDEST PUSH2 0x83D JUMP JUMPDEST SWAP1 POP DUP3 DUP2 MSTORE PUSH1 0x20 DUP2 ADD DUP5 DUP5 DUP5 ADD GT ISZERO PUSH2 0x8C3 JUMPI PUSH2 0x8C2 PUSH2 0x7CB JUMP JUMPDEST JUMPDEST PUSH2 0x8CE DUP5 DUP3 DUP6 PUSH2 0x887 JUMP JUMPDEST POP SWAP4 SWAP3 POP POP POP JUMP JUMPDEST PUSH0 DUP3 PUSH1 0x1F DUP4 ADD SLT PUSH2 0x8EA JUMPI PUSH2 0x8E9 PUSH2 0x7C7 JUMP JUMPDEST JUMPDEST DUP2 CALLDATALOAD PUSH2 0x8FA DUP5 DUP3 PUSH1 0x20 DUP7 ADD PUSH2 0x895 JUMP JUMPDEST SWAP2 POP POP SWAP3 SWAP2 POP POP JUMP JUMPDEST PUSH0 DUP1 PUSH0 DUP1 PUSH0 PUSH1 0xA0 DUP7 DUP9 SUB SLT ISZERO PUSH2 0x91C JUMPI PUSH2 0x91B PUSH2 0x659 JUMP JUMPDEST JUMPDEST PUSH0 PUSH2 0x929 DUP9 DUP3 DUP10 ADD PUSH2 0x755 JUMP JUMPDEST SWAP6 POP POP PUSH1 0x20 PUSH2 0x93A DUP9 DUP3 DUP10 ADD PUSH2 0x680 JUMP JUMPDEST SWAP5 POP POP PUSH1 0x40 DUP7 ADD CALLDATALOAD PUSH8 0xFFFFFFFFFFFFFFFF DUP2 GT ISZERO PUSH2 0x95B JUMPI PUSH2 0x95A PUSH2 0x65D JUMP JUMPDEST JUMPDEST PUSH2 0x967 DUP9 DUP3 DUP10 ADD PUSH2 0x8D6 JUMP JUMPDEST SWAP4 POP POP PUSH1 0x60 PUSH2 0x978 DUP9 DUP3 DUP10 ADD PUSH2 0x680 JUMP JUMPDEST SWAP3 POP POP PUSH1 0x80 PUSH2 0x989 DUP9 DUP3 DUP10 ADD PUSH2 0x680 JUMP JUMPDEST SWAP2 POP POP SWAP3 SWAP6 POP SWAP3 SWAP6 SWAP1 SWAP4 POP JUMP JUMPDEST PUSH0 DUP2 SWAP1 POP SWAP2 SWAP1 POP JUMP JUMPDEST PUSH2 0x9A8 DUP2 PUSH2 0x996 JUMP JUMPDEST DUP3 MSTORE POP POP JUMP JUMPDEST PUSH0 PUSH1 0x20 DUP3 ADD SWAP1 POP PUSH2 0x9C1 PUSH0 DUP4 ADD DUP5 PUSH2 0x99F JUMP JUMPDEST SWAP3 SWAP2 POP POP JUMP JUMPDEST PUSH0 DUP1 PUSH0 DUP1 PUSH1 0x80 DUP6 DUP8 SUB SLT ISZERO PUSH2 0x9DF JUMPI PUSH2 0x9DE PUSH2 0x659 JUMP JUMPDEST JUMPDEST PUSH0 PUSH2 0x9EC DUP8 DUP3 DUP9 ADD PUSH2 0x755 JUMP JUMPDEST SWAP5 POP POP PUSH1 0x20 PUSH2 0x9FD DUP8 DUP3 DUP9 ADD PUSH2 0x680 JUMP JUMPDEST SWAP4 POP POP PUSH1 0x40 DUP6 ADD CALLDATALOAD PUSH8 0xFFFFFFFFFFFFFFFF DUP2 GT ISZERO PUSH2 0xA1E JUMPI PUSH2 0xA1D PUSH2 0x65D JUMP JUMPDEST JUMPDEST PUSH2 0xA2A DUP8 DUP3 DUP9 ADD PUSH2 0x8D6 JUMP JUMPDEST SWAP3 POP POP PUSH1 0x60 DUP6 ADD CALLDATALOAD PUSH8 0xFFFFFFFFFFFFFFFF DUP2 GT ISZERO PUSH2 0xA4B JUMPI PUSH2 0xA4A PUSH2 0x65D JUMP JUMPDEST JUMPDEST PUSH2 0xA57 DUP8 DUP3 DUP9 ADD PUSH2 0x8D6 JUMP JUMPDEST SWAP2 POP POP SWAP3 SWAP6 SWAP2 SWAP5 POP SWAP3 POP JUMP JUMPDEST PUSH2 0xA6C DUP2 PUSH2 0x996 JUMP JUMPDEST DUP2 EQ PUSH2 0xA76 JUMPI PUSH0 DUP1 REVERT JUMPDEST POP JUMP JUMPDEST PUSH0 DUP2 CALLDATALOAD SWAP1 POP PUSH2 0xA87 DUP2 PUSH2 0xA63 JUMP JUMPDEST SWAP3 SWAP2 POP POP JUMP JUMPDEST PUSH0 DUP1 PUSH1 0x40 DUP4 DUP6 SUB SLT ISZERO PUSH2 0xAA3 JUMPI PUSH2 0xAA2 PUSH2 0x659 JUMP JUMPDEST JUMPDEST PUSH0 PUSH2 0xAB0 DUP6 DUP3 DUP7 ADD PUSH2 0xA79 JUMP JUMPDEST SWAP3 POP POP PUSH1 0x20 DUP4 ADD CALLDATALOAD PUSH8 0xFFFFFFFFFFFFFFFF DUP2 GT ISZERO PUSH2 0xAD1 JUMPI PUSH2 0xAD0 PUSH2 0x65D JUMP JUMPDEST JUMPDEST PUSH2 0xADD DUP6 DUP3 DUP7 ADD PUSH2 0x8D6 JUMP JUMPDEST SWAP2 POP POP SWAP3 POP SWAP3 SWAP1 POP JUMP JUMPDEST PUSH0 PUSH1 0xA0 DUP3 ADD SWAP1 POP PUSH2 0xAFA PUSH0 DUP4 ADD DUP9 PUSH2 0x6EF JUMP JUMPDEST PUSH2 0xB07 PUSH1 0x20 DUP4 ADD DUP8 PUSH2 0x717 JUMP JUMPDEST PUSH2 0xB14 PUSH1 0x40 DUP4 ADD DUP7 PUSH2 0x99F JUMP JUMPDEST PUSH2 0xB21 PUSH1 0x60 DUP4 ADD DUP6 PUSH2 0x717 JUMP JUMPDEST PUSH2 0xB2E PUSH1 0x80 DUP4 ADD DUP5 PUSH2 0x717 JUMP JUMPDEST SWAP7 SWAP6 POP POP POP POP POP POP JUMP JUMPDEST PUSH32 0x4E487B7100000000000000000000000000000000000000000000000000000000 PUSH0 MSTORE PUSH1 0x11 PUSH1 0x4 MSTORE PUSH1 0x24 PUSH0 REVERT JUMPDEST PUSH0 PUSH2 0xB6F DUP3 PUSH2 0x661 JUMP JUMPDEST SWAP2 POP PUSH32 0xFFFFFFFFFFFFFFFFFFFFFFFFFFFFFFFFFFFFFFFFFFFFFFFFFFFFFFFFFFFFFFFF DUP3 SUB PUSH2 0xBA1 JUMPI PUSH2 0xBA0 PUSH2 0xB38 JUMP JUMPDEST JUMPDEST PUSH1 0x1 DUP3 ADD SWAP1 POP SWAP2 SWAP1 POP JUMP JUMPDEST PUSH0 DUP2 MLOAD SWAP1 POP SWAP2 SWAP1 POP JUMP JUMPDEST PUSH0 DUP2 SWAP1 POP SWAP3 SWAP2 POP POP JUMP JUMPDEST DUP3 DUP2 DUP4 MCOPY PUSH0 DUP4 DUP4 ADD MSTORE POP POP POP JUMP JUMPDEST PUSH0 PUSH2 0xBD8 DUP3 PUSH2 0xBAC JUMP JUMPDEST PUSH2 0xBE2 DUP2 DUP6 PUSH2 0xBB6 JUMP JUMPDEST SWAP4 POP PUSH2 0xBF2 DUP2 DUP6 PUSH1 0x20 DUP7 ADD PUSH2 0xBC0 JUMP JUMPDEST DUP1 DUP5 ADD SWAP2 POP POP SWAP3 SWAP2 POP POP JUMP JUMPDEST PUSH0 PUSH2 0xC09 DUP3 DUP5 PUSH2 0xBCE JUMP JUMPDEST SWAP2 POP DUP2 SWAP1 POP SWAP3 SWAP2 POP POP JUMP JUMPDEST PUSH0 DUP3 DUP3 MSTORE PUSH1 0x20 DUP3 ADD SWAP1 POP SWAP3 SWAP2 POP POP JUMP JUMPDEST PUSH32 0x4451353030340000000000000000000000000000000000000000000000000000 PUSH0 DUP3 ADD MSTORE POP JUMP JUMPDEST PUSH0 PUSH2 0xC58 PUSH1 0x6 DUP4 PUSH2 0xC14 JUMP JUMPDEST SWAP2 POP PUSH2 0xC63 DUP3 PUSH2 0xC24 JUMP JUMPDEST PUSH1 0x20 DUP3 ADD SWAP1 POP SWAP2 SWAP1 POP JUMP JUMPDEST PUSH0 PUSH1 0x20 DUP3 ADD SWAP1 POP DUP2 DUP2 SUB PUSH0 DUP4 ADD MSTORE PUSH2 0xC85 DUP2 PUSH2 0xC4C JUMP JUMPDEST SWAP1 POP SWAP2 SWAP1 POP JUMP JUMPDEST PUSH32 0x4451353030350000000000000000000000000000000000000000000000000000 PUSH0 DUP3 ADD MSTORE POP JUMP JUMPDEST PUSH0 PUSH2 0xCC0 PUSH1 0x6 DUP4 PUSH2 0xC14 JUMP JUMPDEST SWAP2 POP PUSH2 0xCCB DUP3 PUSH2 0xC8C JUMP JUMPDEST PUSH1 0x20 DUP3 ADD SWAP1 POP SWAP2 SWAP1 POP JUMP JUMPDEST PUSH0 PUSH1 0x20 DUP3 ADD SWAP1 POP DUP2 DUP2 SUB PUSH0 DUP4 ADD MSTORE PUSH2 0xCED DUP2 PUSH2 0xCB4 JUMP JUMPDEST SWAP1 POP SWAP2 SWAP1 POP JUMP JUMPDEST PUSH0 PUSH2 0xCFE DUP3 PUSH2 0x661 JUMP JUMPDEST SWAP2 POP PUSH2 0xD09 DUP4 PUSH2 0x661 JUMP JUMPDEST SWAP3 POP DUP3 DUP3 MUL PUSH2 0xD17 DUP2 PUSH2 0x661 JUMP JUMPDEST SWAP2 POP DUP3 DUP3 DIV DUP5 EQ DUP4 ISZERO OR PUSH2 0xD2E JUMPI PUSH2 0xD2D PUSH2 0xB38 JUMP JUMPDEST JUMPDEST POP SWAP3 SWAP2 POP POP JUMP JUMPDEST PUSH32 0x4451353030360000000000000000000000000000000000000000000000000000 PUSH0 DUP3 ADD MSTORE POP JUMP JUMPDEST PUSH0 PUSH2 0xD69 PUSH1 0x6 DUP4 PUSH2 0xC14 JUMP JUMPDEST SWAP2 POP PUSH2 0xD74 DUP3 PUSH2 0xD35 JUMP JUMPDEST PUSH1 0x20 DUP3 ADD SWAP1 POP SWAP2 SWAP1 POP JUMP JUMPDEST PUSH0 PUSH1 0x20 DUP3 ADD SWAP1 POP DUP2 DUP2 SUB PUSH0 DUP4 ADD MSTORE PUSH2 0xD96 DUP2 PUSH2 0xD5D JUMP JUMPDEST SWAP1 POP SWAP2 SWAP1 POP JUMP JUMPDEST PUSH0 DUP2 SWAP1 POP SWAP3 SWAP2 POP POP JUMP JUMPDEST PUSH32 0x19457468657265756D205369676E6564204D6573736167653A0A333200000000 PUSH0 DUP3 ADD MSTORE POP JUMP JUMPDEST PUSH0 PUSH2 0xDDB PUSH1 0x1C DUP4 PUSH2 0xD9D JUMP JUMPDEST SWAP2 POP PUSH2 0xDE6 DUP3 PUSH2 0xDA7 JUMP JUMPDEST PUSH1 0x1C DUP3 ADD SWAP1 POP SWAP2 SWAP1 POP JUMP JUMPDEST PUSH0 DUP2 SWAP1 POP SWAP2 SWAP1 POP JUMP JUMPDEST PUSH2 0xE0B PUSH2 0xE06 DUP3 PUSH2 0x996 JUMP JUMPDEST PUSH2 0xDF1 JUMP JUMPDEST DUP3 MSTORE POP POP JUMP JUMPDEST PUSH0 PUSH2 0xE1B DUP3 PUSH2 0xDCF JUMP JUMPDEST SWAP2 POP PUSH2 0xE27 DUP3 DUP5 PUSH2 0xDFA JUMP JUMPDEST PUSH1 0x20 DUP3 ADD SWAP2 POP DUP2 SWAP1 POP SWAP3 SWAP2 POP POP JUMP JUMPDEST PUSH0 PUSH1 0xFF DUP3 AND SWAP1 POP SWAP2 SWAP1 POP JUMP JUMPDEST PUSH2 0xE4B DUP2 PUSH2 0xE36 JUMP JUMPDEST DUP3 MSTORE POP POP JUMP JUMPDEST PUSH0 PUSH1 0x80 DUP3 ADD SWAP1 POP PUSH2 0xE64 PUSH0 DUP4 ADD DUP8 PUSH2 0x99F JUMP JUMPDEST PUSH2 0xE71 PUSH1 0x20 DUP4 ADD DUP7 PUSH2 0xE42 JUMP JUMPDEST PUSH2 0xE7E PUSH1 0x40 DUP4 ADD DUP6 PUSH2 0x99F JUMP JUMPDEST PUSH2 0xE8B PUSH1 0x60 DUP4 ADD DUP5 PUSH2 0x99F JUMP JUMPDEST SWAP6 SWAP5 POP POP POP POP POP JUMP JUMPDEST PUSH32 0x4451353030370000000000000000000000000000000000000000000000000000 PUSH0 DUP3 ADD MSTORE POP JUMP JUMPDEST PUSH0 PUSH2 0xEC8 PUSH1 0x6 DUP4 PUSH2 0xC14 JUMP JUMPDEST SWAP2 POP PUSH2 0xED3 DUP3 PUSH2 0xE94 JUMP JUMPDEST PUSH1 0x20 DUP3 ADD SWAP1 POP SWAP2 SWAP1 POP JUMP JUMPDEST PUSH0 PUSH1 0x20 DUP3 ADD SWAP1 POP DUP2 DUP2 SUB PUSH0 DUP4 ADD MSTORE PUSH2 0xEF5 DUP2 PUSH2 0xEBC JUMP JUMPDEST SWAP1 POP SWAP2 SWAP1 POP JUMP INVALID LOG2 PUSH5 0x6970667358 0x22 SLT KECCAK256 SWAP3 XOR 0xA6 JUMP PUSH24 0x264D1287EEDBA6361DF01FDF2835477961772697BC682DBF 0xB9 SELFDESTRUCT SWAP8 PUSH5 0x736F6C6343 STOP ADDMOD BYTE STOP CALLER "
				},
				"gasEstimates": {
					"creation": {
						"codeDepositCost": "778000",
						"executionCost": "infinite",
						"totalCost": "infinite"
					},
					"external": {
						"checkSignatures(bytes32,bytes)": "infinite",
						"encodeTransactionData(address,uint256,bytes,uint256,uint256)": "infinite",
						"execTrasaction(address,uint256,bytes,bytes)": "infinite",
						"isOwner(address)": "2900",
						"nonce()": "2447",
						"ownerCount()": "2470",
						"owners(uint256)": "4944",
						"threshould()": "2448"
					},
					"internal": {
						"_setupOwners(address[] memory,uint256)": "infinite",
						"signatureSplit(bytes memory,uint256)": "infinite"
					}
				},
				"methodIdentifiers": {
					"checkSignatures(bytes32,bytes)": "ed516d51",
					"encodeTransactionData(address,uint256,bytes,uint256,uint256)": "a67dd509",
					"execTrasaction(address,uint256,bytes,bytes)": "dbdcd9f6",
					"isOwner(address)": "2f54bf6e",
					"nonce()": "affed0e0",
					"ownerCount()": "0db02622",
					"owners(uint256)": "025e7c27",
					"threshould()": "05d8f4b5"
				}
			},
			"storageLayout": {
				"storage": [
					{
						"astId": 4,
						"contract": "l2-homework/MultisigWallet.sol:MultisigWallet",
						"label": "owners",
						"offset": 0,
						"slot": "0",
						"type": "t_array(t_address)dyn_storage"
					},
					{
						"astId": 8,
						"contract": "l2-homework/MultisigWallet.sol:MultisigWallet",
						"label": "isOwner",
						"offset": 0,
						"slot": "1",
						"type": "t_mapping(t_address,t_bool)"
					},
					{
						"astId": 10,
						"contract": "l2-homework/MultisigWallet.sol:MultisigWallet",
						"label": "ownerCount",
						"offset": 0,
						"slot": "2",
						"type": "t_uint256"
					},
					{
						"astId": 12,
						"contract": "l2-homework/MultisigWallet.sol:MultisigWallet",
						"label": "threshould",
						"offset": 0,
						"slot": "3",
						"type": "t_uint256"
					},
					{
						"astId": 14,
						"contract": "l2-homework/MultisigWallet.sol:MultisigWallet",
						"label": "nonce",
						"offset": 0,
						"slot": "4",
						"type": "t_uint256"
					}
				],
				"types": {
					"t_address": {
						"encoding": "inplace",
						"label": "address",
						"numberOfBytes": "20"
					},
					"t_array(t_address)dyn_storage": {
						"base": "t_address",
						"encoding": "dynamic_array",
						"label": "address[]",
						"numberOfBytes": "32"
					},
					"t_bool": {
						"encoding": "inplace",
						"label": "bool",
						"numberOfBytes": "1"
					},
					"t_mapping(t_address,t_bool)": {
						"encoding": "mapping",
						"key": "t_address",
						"label": "mapping(address => bool)",
						"numberOfBytes": "32",
						"value": "t_bool"
					},
					"t_uint256": {
						"encoding": "inplace",
						"label": "uint256",
						"numberOfBytes": "32"
					}
				}
			},
			"userdoc": {
				"kind": "user",
				"methods": {},
				"version": 1
			}
		}
	}
}