{
	"l1-7-attack/etherGameFixed.sol": {
		"EtherGame": {
			"abi": [
				{
					"inputs": [],
					"name": "claimReward",
					"outputs": [],
					"stateMutability": "nonpayable",
					"type": "function"
				},
				{
					"inputs": [],
					"name": "depositedWei",
					"outputs": [
						{
							"internalType": "uint256",
							"name": "",
							"type": "uint256"
						}
					],
					"stateMutability": "view",
					"type": "function"
				},
				{
					"inputs": [],
					"name": "finalMileStone",
					"outputs": [
						{
							"internalType": "uint256",
							"name": "",
							"type": "uint256"
						}
					],
					"stateMutability": "view",
					"type": "function"
				},
				{
					"inputs": [],
					"name": "finalReward",
					"outputs": [
						{
							"internalType": "uint256",
							"name": "",
							"type": "uint256"
						}
					],
					"stateMutability": "view",
					"type": "function"
				},
				{
					"inputs": [],
					"name": "mileStone1Reward",
					"outputs": [
						{
							"internalType": "uint256",
							"name": "",
							"type": "uint256"
						}
					],
					"stateMutability": "view",
					"type": "function"
				},
				{
					"inputs": [],
					"name": "mileStone2Reward",
					"outputs": [
						{
							"internalType": "uint256",
							"name": "",
							"type": "uint256"
						}
					],
					"stateMutability": "view",
					"type": "function"
				},
				{
					"inputs": [],
					"name": "payoutMileStone1",
					"outputs": [
						{
							"internalType": "uint256",
							"name": "",
							"type": "uint256"
						}
					],
					"stateMutability": "view",
					"type": "function"
				},
				{
					"inputs": [],
					"name": "payoutMileStone2",
					"outputs": [
						{
							"internalType": "uint256",
							"name": "",
							"type": "uint256"
						}
					],
					"stateMutability": "view",
					"type": "function"
				},
				{
					"inputs": [],
					"name": "play",
					"outputs": [],
					"stateMutability": "payable",
					"type": "function"
				}
			],
			"devdoc": {
				"kind": "dev",
				"methods": {},
				"version": 1
			},
			"evm": {
				"assembly": "    /* \"l1-7-attack/etherGameFixed.sol\":0:1378  contract EtherGame {... */\n  mstore(0x40, 0x80)\n    /* \"l1-7-attack/etherGameFixed.sol\":61:68  3 ether */\n  0x29a2241af62c0000\n    /* \"l1-7-attack/etherGameFixed.sol\":30:68  uint public payoutMileStone1 = 3 ether */\n  0x00\n  sstore\n    /* \"l1-7-attack/etherGameFixed.sol\":105:112  2 ether */\n  0x1bc16d674ec80000\n    /* \"l1-7-attack/etherGameFixed.sol\":74:112  uint public mileStone1Reward = 2 ether */\n  0x01\n  sstore\n    /* \"l1-7-attack/etherGameFixed.sol\":149:156  5 ether */\n  0x4563918244f40000\n    /* \"l1-7-attack/etherGameFixed.sol\":118:156  uint public payoutMileStone2 = 5 ether */\n  0x02\n  sstore\n    /* \"l1-7-attack/etherGameFixed.sol\":193:200  3 ether */\n  0x29a2241af62c0000\n    /* \"l1-7-attack/etherGameFixed.sol\":162:200  uint public mileStone2Reward = 3 ether */\n  0x03\n  sstore\n    /* \"l1-7-attack/etherGameFixed.sol\":236:244  10 ether */\n  0x8ac7230489e80000\n    /* \"l1-7-attack/etherGameFixed.sol\":207:244  uint public finalMileStone = 10 ether */\n  0x04\n  sstore\n    /* \"l1-7-attack/etherGameFixed.sol\":277:284  5 ether */\n  0x4563918244f40000\n    /* \"l1-7-attack/etherGameFixed.sol\":251:284  uint public finalReward = 5 ether */\n  0x05\n  sstore\n    /* \"l1-7-attack/etherGameFixed.sol\":0:1378  contract EtherGame {... */\n  callvalue\n  dup1\n  iszero\n  tag_1\n  jumpi\n  0x00\n  dup1\n  revert\ntag_1:\n  pop\n  dataSize(sub_0)\n  dup1\n  dataOffset(sub_0)\n  0x00\n  codecopy\n  0x00\n  return\nstop\n\nsub_0: assembly {\n        /* \"l1-7-attack/etherGameFixed.sol\":0:1378  contract EtherGame {... */\n      mstore(0x40, 0x80)\n      jumpi(tag_1, lt(calldatasize, 0x04))\n      shr(0xe0, calldataload(0x00))\n      dup1\n      0x82d4a75c\n      gt\n      tag_11\n      jumpi\n      dup1\n      0x82d4a75c\n      eq\n      tag_6\n      jumpi\n      dup1\n      0x8c6f3759\n      eq\n      tag_7\n      jumpi\n      dup1\n      0x93e84cd9\n      eq\n      tag_8\n      jumpi\n      dup1\n      0xb88a802f\n      eq\n      tag_9\n      jumpi\n      dup1\n      0xd9d142f3\n      eq\n      tag_10\n      jumpi\n      jump(tag_1)\n    tag_11:\n      dup1\n      0x16a1883a\n      eq\n      tag_2\n      jumpi\n      dup1\n      0x1c95cfc1\n      eq\n      tag_3\n      jumpi\n      dup1\n      0x33c2a9f8\n      eq\n      tag_4\n      jumpi\n      dup1\n      0x6e1d5537\n      eq\n      tag_5\n      jumpi\n    tag_1:\n      0x00\n      dup1\n      revert\n        /* \"l1-7-attack/etherGameFixed.sol\":207:244  uint public finalMileStone = 10 ether */\n    tag_2:\n      callvalue\n      dup1\n      iszero\n      tag_12\n      jumpi\n      0x00\n      dup1\n      revert\n    tag_12:\n      pop\n      tag_13\n      tag_14\n      jump\t// in\n    tag_13:\n      mload(0x40)\n      tag_15\n      swap2\n      swap1\n      tag_16\n      jump\t// in\n    tag_15:\n      mload(0x40)\n      dup1\n      swap2\n      sub\n      swap1\n      return\n        /* \"l1-7-attack/etherGameFixed.sol\":118:156  uint public payoutMileStone2 = 5 ether */\n    tag_3:\n      callvalue\n      dup1\n      iszero\n      tag_17\n      jumpi\n      0x00\n      dup1\n      revert\n    tag_17:\n      pop\n      tag_18\n      tag_19\n      jump\t// in\n    tag_18:\n      mload(0x40)\n      tag_20\n      swap2\n      swap1\n      tag_16\n      jump\t// in\n    tag_20:\n      mload(0x40)\n      dup1\n      swap2\n      sub\n      swap1\n      return\n        /* \"l1-7-attack/etherGameFixed.sol\":30:68  uint public payoutMileStone1 = 3 ether */\n    tag_4:\n      callvalue\n      dup1\n      iszero\n      tag_21\n      jumpi\n      0x00\n      dup1\n      revert\n    tag_21:\n      pop\n      tag_22\n      tag_23\n      jump\t// in\n    tag_22:\n      mload(0x40)\n      tag_24\n      swap2\n      swap1\n      tag_16\n      jump\t// in\n    tag_24:\n      mload(0x40)\n      dup1\n      swap2\n      sub\n      swap1\n      return\n        /* \"l1-7-attack/etherGameFixed.sol\":251:284  uint public finalReward = 5 ether */\n    tag_5:\n      callvalue\n      dup1\n      iszero\n      tag_25\n      jumpi\n      0x00\n      dup1\n      revert\n    tag_25:\n      pop\n      tag_26\n      tag_27\n      jump\t// in\n    tag_26:\n      mload(0x40)\n      tag_28\n      swap2\n      swap1\n      tag_16\n      jump\t// in\n    tag_28:\n      mload(0x40)\n      dup1\n      swap2\n      sub\n      swap1\n      return\n        /* \"l1-7-attack/etherGameFixed.sol\":74:112  uint public mileStone1Reward = 2 ether */\n    tag_6:\n      callvalue\n      dup1\n      iszero\n      tag_29\n      jumpi\n      0x00\n      dup1\n      revert\n    tag_29:\n      pop\n      tag_30\n      tag_31\n      jump\t// in\n    tag_30:\n      mload(0x40)\n      tag_32\n      swap2\n      swap1\n      tag_16\n      jump\t// in\n    tag_32:\n      mload(0x40)\n      dup1\n      swap2\n      sub\n      swap1\n      return\n        /* \"l1-7-attack/etherGameFixed.sol\":162:200  uint public mileStone2Reward = 3 ether */\n    tag_7:\n      callvalue\n      dup1\n      iszero\n      tag_33\n      jumpi\n      0x00\n      dup1\n      revert\n    tag_33:\n      pop\n      tag_34\n      tag_35\n      jump\t// in\n    tag_34:\n      mload(0x40)\n      tag_36\n      swap2\n      swap1\n      tag_16\n      jump\t// in\n    tag_36:\n      mload(0x40)\n      dup1\n      swap2\n      sub\n      swap1\n      return\n        /* \"l1-7-attack/etherGameFixed.sol\":378:1038  function play() public payable {... */\n    tag_8:\n      tag_37\n      tag_38\n      jump\t// in\n    tag_37:\n      stop\n        /* \"l1-7-attack/etherGameFixed.sol\":1048:1375  function claimReward() public {... */\n    tag_9:\n      callvalue\n      dup1\n      iszero\n      tag_39\n      jumpi\n      0x00\n      dup1\n      revert\n    tag_39:\n      pop\n      tag_40\n      tag_41\n      jump\t// in\n    tag_40:\n      stop\n        /* \"l1-7-attack/etherGameFixed.sol\":291:315  uint public depositedWei */\n    tag_10:\n      callvalue\n      dup1\n      iszero\n      tag_42\n      jumpi\n      0x00\n      dup1\n      revert\n    tag_42:\n      pop\n      tag_43\n      tag_44\n      jump\t// in\n    tag_43:\n      mload(0x40)\n      tag_45\n      swap2\n      swap1\n      tag_16\n      jump\t// in\n    tag_45:\n      mload(0x40)\n      dup1\n      swap2\n      sub\n      swap1\n      return\n        /* \"l1-7-attack/etherGameFixed.sol\":207:244  uint public finalMileStone = 10 ether */\n    tag_14:\n      sload(0x04)\n      dup2\n      jump\t// out\n        /* \"l1-7-attack/etherGameFixed.sol\":118:156  uint public payoutMileStone2 = 5 ether */\n    tag_19:\n      sload(0x02)\n      dup2\n      jump\t// out\n        /* \"l1-7-attack/etherGameFixed.sol\":30:68  uint public payoutMileStone1 = 3 ether */\n    tag_23:\n      sload(0x00)\n      dup2\n      jump\t// out\n        /* \"l1-7-attack/etherGameFixed.sol\":251:284  uint public finalReward = 5 ether */\n    tag_27:\n      sload(0x05)\n      dup2\n      jump\t// out\n        /* \"l1-7-attack/etherGameFixed.sol\":74:112  uint public mileStone1Reward = 2 ether */\n    tag_31:\n      sload(0x01)\n      dup2\n      jump\t// out\n        /* \"l1-7-attack/etherGameFixed.sol\":162:200  uint public mileStone2Reward = 3 ether */\n    tag_35:\n      sload(0x03)\n      dup2\n      jump\t// out\n        /* \"l1-7-attack/etherGameFixed.sol\":378:1038  function play() public payable {... */\n    tag_38:\n        /* \"l1-7-attack/etherGameFixed.sol\":440:449  0.5 ether */\n      0x06f05b59d3b20000\n        /* \"l1-7-attack/etherGameFixed.sol\":427:436  msg.value */\n      callvalue\n        /* \"l1-7-attack/etherGameFixed.sol\":427:449  msg.value == 0.5 ether */\n      eq\n        /* \"l1-7-attack/etherGameFixed.sol\":419:450  require(msg.value == 0.5 ether) */\n      tag_47\n      jumpi\n      0x00\n      dup1\n      revert\n    tag_47:\n        /* \"l1-7-attack/etherGameFixed.sol\":460:479  uint currentBalance */\n      0x00\n        /* \"l1-7-attack/etherGameFixed.sol\":497:506  msg.value */\n      callvalue\n        /* \"l1-7-attack/etherGameFixed.sol\":482:494  depositedWei */\n      sload(0x06)\n        /* \"l1-7-attack/etherGameFixed.sol\":482:506  depositedWei + msg.value */\n      tag_48\n      swap2\n      swap1\n      tag_49\n      jump\t// in\n    tag_48:\n        /* \"l1-7-attack/etherGameFixed.sol\":460:506  uint currentBalance = depositedWei + msg.value */\n      swap1\n      pop\n        /* \"l1-7-attack/etherGameFixed.sol\":598:612  finalMileStone */\n      sload(0x04)\n        /* \"l1-7-attack/etherGameFixed.sol\":580:594  currentBalance */\n      dup2\n        /* \"l1-7-attack/etherGameFixed.sol\":580:612  currentBalance <= finalMileStone */\n      gt\n      iszero\n        /* \"l1-7-attack/etherGameFixed.sol\":572:613  require(currentBalance <= finalMileStone) */\n      tag_50\n      jumpi\n      0x00\n      dup1\n      revert\n    tag_50:\n        /* \"l1-7-attack/etherGameFixed.sol\":645:661  payoutMileStone1 */\n      sload(0x00)\n        /* \"l1-7-attack/etherGameFixed.sol\":627:641  currentBalance */\n      dup2\n        /* \"l1-7-attack/etherGameFixed.sol\":627:661  currentBalance == payoutMileStone1 */\n      sub\n        /* \"l1-7-attack/etherGameFixed.sol\":623:981  if (currentBalance == payoutMileStone1) {... */\n      tag_51\n      jumpi\n        /* \"l1-7-attack/etherGameFixed.sol\":708:724  mileStone1Reward */\n      sload(0x01)\n        /* \"l1-7-attack/etherGameFixed.sol\":677:692  redeemableEther */\n      0x07\n        /* \"l1-7-attack/etherGameFixed.sol\":677:704  redeemableEther[msg.sender] */\n      0x00\n        /* \"l1-7-attack/etherGameFixed.sol\":693:703  msg.sender */\n      caller\n        /* \"l1-7-attack/etherGameFixed.sol\":677:704  redeemableEther[msg.sender] */\n      0xffffffffffffffffffffffffffffffffffffffff\n      and\n      0xffffffffffffffffffffffffffffffffffffffff\n      and\n      dup2\n      mstore\n      0x20\n      add\n      swap1\n      dup2\n      mstore\n      0x20\n      add\n      0x00\n      keccak256\n      0x00\n        /* \"l1-7-attack/etherGameFixed.sol\":677:724  redeemableEther[msg.sender] += mileStone1Reward */\n      dup3\n      dup3\n      sload\n      tag_52\n      swap2\n      swap1\n      tag_49\n      jump\t// in\n    tag_52:\n      swap3\n      pop\n      pop\n      dup2\n      swap1\n      sstore\n      pop\n        /* \"l1-7-attack/etherGameFixed.sol\":623:981  if (currentBalance == payoutMileStone1) {... */\n      jump(tag_53)\n    tag_51:\n        /* \"l1-7-attack/etherGameFixed.sol\":771:787  payoutMileStone2 */\n      sload(0x02)\n        /* \"l1-7-attack/etherGameFixed.sol\":753:767  currentBalance */\n      dup2\n        /* \"l1-7-attack/etherGameFixed.sol\":753:787  currentBalance == payoutMileStone2 */\n      sub\n        /* \"l1-7-attack/etherGameFixed.sol\":749:981  if (currentBalance == payoutMileStone2) {... */\n      tag_54\n      jumpi\n        /* \"l1-7-attack/etherGameFixed.sol\":834:850  mileStone2Reward */\n      sload(0x03)\n        /* \"l1-7-attack/etherGameFixed.sol\":803:818  redeemableEther */\n      0x07\n        /* \"l1-7-attack/etherGameFixed.sol\":803:830  redeemableEther[msg.sender] */\n      0x00\n        /* \"l1-7-attack/etherGameFixed.sol\":819:829  msg.sender */\n      caller\n        /* \"l1-7-attack/etherGameFixed.sol\":803:830  redeemableEther[msg.sender] */\n      0xffffffffffffffffffffffffffffffffffffffff\n      and\n      0xffffffffffffffffffffffffffffffffffffffff\n      and\n      dup2\n      mstore\n      0x20\n      add\n      swap1\n      dup2\n      mstore\n      0x20\n      add\n      0x00\n      keccak256\n      0x00\n        /* \"l1-7-attack/etherGameFixed.sol\":803:850  redeemableEther[msg.sender] += mileStone2Reward */\n      dup3\n      dup3\n      sload\n      tag_55\n      swap2\n      swap1\n      tag_49\n      jump\t// in\n    tag_55:\n      swap3\n      pop\n      pop\n      dup2\n      swap1\n      sstore\n      pop\n        /* \"l1-7-attack/etherGameFixed.sol\":749:981  if (currentBalance == payoutMileStone2) {... */\n      jump(tag_56)\n    tag_54:\n        /* \"l1-7-attack/etherGameFixed.sol\":897:911  finalMileStone */\n      sload(0x04)\n        /* \"l1-7-attack/etherGameFixed.sol\":879:893  currentBalance */\n      dup2\n        /* \"l1-7-attack/etherGameFixed.sol\":879:911  currentBalance == finalMileStone */\n      sub\n        /* \"l1-7-attack/etherGameFixed.sol\":875:981  if (currentBalance == finalMileStone ) {... */\n      tag_57\n      jumpi\n        /* \"l1-7-attack/etherGameFixed.sol\":959:970  finalReward */\n      sload(0x05)\n        /* \"l1-7-attack/etherGameFixed.sol\":928:943  redeemableEther */\n      0x07\n        /* \"l1-7-attack/etherGameFixed.sol\":928:955  redeemableEther[msg.sender] */\n      0x00\n        /* \"l1-7-attack/etherGameFixed.sol\":944:954  msg.sender */\n      caller\n        /* \"l1-7-attack/etherGameFixed.sol\":928:955  redeemableEther[msg.sender] */\n      0xffffffffffffffffffffffffffffffffffffffff\n      and\n      0xffffffffffffffffffffffffffffffffffffffff\n      and\n      dup2\n      mstore\n      0x20\n      add\n      swap1\n      dup2\n      mstore\n      0x20\n      add\n      0x00\n      keccak256\n      0x00\n        /* \"l1-7-attack/etherGameFixed.sol\":928:970  redeemableEther[msg.sender] += finalReward */\n      dup3\n      dup3\n      sload\n      tag_58\n      swap2\n      swap1\n      tag_49\n      jump\t// in\n    tag_58:\n      swap3\n      pop\n      pop\n      dup2\n      swap1\n      sstore\n      pop\n        /* \"l1-7-attack/etherGameFixed.sol\":875:981  if (currentBalance == finalMileStone ) {... */\n    tag_57:\n        /* \"l1-7-attack/etherGameFixed.sol\":749:981  if (currentBalance == payoutMileStone2) {... */\n    tag_56:\n        /* \"l1-7-attack/etherGameFixed.sol\":623:981  if (currentBalance == payoutMileStone1) {... */\n    tag_53:\n        /* \"l1-7-attack/etherGameFixed.sol\":1006:1015  msg.value */\n      callvalue\n        /* \"l1-7-attack/etherGameFixed.sol\":990:1002  depositedWei */\n      0x06\n      0x00\n        /* \"l1-7-attack/etherGameFixed.sol\":990:1015  depositedWei += msg.value */\n      dup3\n      dup3\n      sload\n      tag_59\n      swap2\n      swap1\n      tag_49\n      jump\t// in\n    tag_59:\n      swap3\n      pop\n      pop\n      dup2\n      swap1\n      sstore\n      pop\n        /* \"l1-7-attack/etherGameFixed.sol\":1025:1032  return; */\n      pop\n        /* \"l1-7-attack/etherGameFixed.sol\":378:1038  function play() public payable {... */\n      jump\t// out\n        /* \"l1-7-attack/etherGameFixed.sol\":1048:1375  function claimReward() public {... */\n    tag_41:\n        /* \"l1-7-attack/etherGameFixed.sol\":1151:1165  finalMileStone */\n      sload(0x04)\n        /* \"l1-7-attack/etherGameFixed.sol\":1135:1147  depositedWei */\n      sload(0x06)\n        /* \"l1-7-attack/etherGameFixed.sol\":1135:1165  depositedWei == finalMileStone */\n      eq\n        /* \"l1-7-attack/etherGameFixed.sol\":1127:1166  require(depositedWei == finalMileStone) */\n      tag_61\n      jumpi\n      0x00\n      dup1\n      revert\n    tag_61:\n        /* \"l1-7-attack/etherGameFixed.sol\":1258:1259  0 */\n      0x00\n        /* \"l1-7-attack/etherGameFixed.sol\":1228:1243  redeemableEther */\n      0x07\n        /* \"l1-7-attack/etherGameFixed.sol\":1228:1255  redeemableEther[msg.sender] */\n      0x00\n        /* \"l1-7-attack/etherGameFixed.sol\":1244:1254  msg.sender */\n      caller\n        /* \"l1-7-attack/etherGameFixed.sol\":1228:1255  redeemableEther[msg.sender] */\n      0xffffffffffffffffffffffffffffffffffffffff\n      and\n      0xffffffffffffffffffffffffffffffffffffffff\n      and\n      dup2\n      mstore\n      0x20\n      add\n      swap1\n      dup2\n      mstore\n      0x20\n      add\n      0x00\n      keccak256\n      sload\n        /* \"l1-7-attack/etherGameFixed.sol\":1228:1259  redeemableEther[msg.sender] > 0 */\n      gt\n        /* \"l1-7-attack/etherGameFixed.sol\":1220:1260  require(redeemableEther[msg.sender] > 0) */\n      tag_62\n      jumpi\n      0x00\n      dup1\n      revert\n    tag_62:\n        /* \"l1-7-attack/etherGameFixed.sol\":1301:1302  0 */\n      0x00\n        /* \"l1-7-attack/etherGameFixed.sol\":1271:1286  redeemableEther */\n      0x07\n        /* \"l1-7-attack/etherGameFixed.sol\":1271:1298  redeemableEther[msg.sender] */\n      0x00\n        /* \"l1-7-attack/etherGameFixed.sol\":1287:1297  msg.sender */\n      caller\n        /* \"l1-7-attack/etherGameFixed.sol\":1271:1298  redeemableEther[msg.sender] */\n      0xffffffffffffffffffffffffffffffffffffffff\n      and\n      0xffffffffffffffffffffffffffffffffffffffff\n      and\n      dup2\n      mstore\n      0x20\n      add\n      swap1\n      dup2\n      mstore\n      0x20\n      add\n      0x00\n      keccak256\n        /* \"l1-7-attack/etherGameFixed.sol\":1271:1302  redeemableEther[msg.sender] = 0 */\n      dup2\n      swap1\n      sstore\n      pop\n        /* \"l1-7-attack/etherGameFixed.sol\":1319:1329  msg.sender */\n      caller\n        /* \"l1-7-attack/etherGameFixed.sol\":1311:1339  payable(msg.sender).transfer */\n      0xffffffffffffffffffffffffffffffffffffffff\n      and\n        /* \"l1-7-attack/etherGameFixed.sol\":1311:1368  payable(msg.sender).transfer(redeemableEther[msg.sender]) */\n      0x08fc\n        /* \"l1-7-attack/etherGameFixed.sol\":1340:1355  redeemableEther */\n      0x07\n        /* \"l1-7-attack/etherGameFixed.sol\":1340:1367  redeemableEther[msg.sender] */\n      0x00\n        /* \"l1-7-attack/etherGameFixed.sol\":1356:1366  msg.sender */\n      caller\n        /* \"l1-7-attack/etherGameFixed.sol\":1340:1367  redeemableEther[msg.sender] */\n      0xffffffffffffffffffffffffffffffffffffffff\n      and\n      0xffffffffffffffffffffffffffffffffffffffff\n      and\n      dup2\n      mstore\n      0x20\n      add\n      swap1\n      dup2\n      mstore\n      0x20\n      add\n      0x00\n      keccak256\n      sload\n        /* \"l1-7-attack/etherGameFixed.sol\":1311:1368  payable(msg.sender).transfer(redeemableEther[msg.sender]) */\n      swap1\n      dup2\n      iszero\n      mul\n      swap1\n      mload(0x40)\n      0x00\n      mload(0x40)\n      dup1\n      dup4\n      sub\n      dup2\n      dup6\n      dup9\n      dup9\n      call\n      swap4\n      pop\n      pop\n      pop\n      pop\n      iszero\n      dup1\n      iszero\n      tag_64\n      jumpi\n      returndatasize\n      0x00\n      dup1\n      returndatacopy\n      revert(0x00, returndatasize)\n    tag_64:\n      pop\n        /* \"l1-7-attack/etherGameFixed.sol\":1048:1375  function claimReward() public {... */\n      jump\t// out\n        /* \"l1-7-attack/etherGameFixed.sol\":291:315  uint public depositedWei */\n    tag_44:\n      sload(0x06)\n      dup2\n      jump\t// out\n        /* \"#utility.yul\":7:84   */\n    tag_65:\n        /* \"#utility.yul\":44:51   */\n      0x00\n        /* \"#utility.yul\":73:78   */\n      dup2\n        /* \"#utility.yul\":62:78   */\n      swap1\n      pop\n        /* \"#utility.yul\":7:84   */\n      swap2\n      swap1\n      pop\n      jump\t// out\n        /* \"#utility.yul\":90:208   */\n    tag_66:\n        /* \"#utility.yul\":177:201   */\n      tag_71\n        /* \"#utility.yul\":195:200   */\n      dup2\n        /* \"#utility.yul\":177:201   */\n      tag_65\n      jump\t// in\n    tag_71:\n        /* \"#utility.yul\":172:175   */\n      dup3\n        /* \"#utility.yul\":165:202   */\n      mstore\n        /* \"#utility.yul\":90:208   */\n      pop\n      pop\n      jump\t// out\n        /* \"#utility.yul\":214:436   */\n    tag_16:\n        /* \"#utility.yul\":307:311   */\n      0x00\n        /* \"#utility.yul\":345:347   */\n      0x20\n        /* \"#utility.yul\":334:343   */\n      dup3\n        /* \"#utility.yul\":330:348   */\n      add\n        /* \"#utility.yul\":322:348   */\n      swap1\n      pop\n        /* \"#utility.yul\":358:429   */\n      tag_73\n        /* \"#utility.yul\":426:427   */\n      0x00\n        /* \"#utility.yul\":415:424   */\n      dup4\n        /* \"#utility.yul\":411:428   */\n      add\n        /* \"#utility.yul\":402:408   */\n      dup5\n        /* \"#utility.yul\":358:429   */\n      tag_66\n      jump\t// in\n    tag_73:\n        /* \"#utility.yul\":214:436   */\n      swap3\n      swap2\n      pop\n      pop\n      jump\t// out\n        /* \"#utility.yul\":442:622   */\n    tag_67:\n        /* \"#utility.yul\":490:567   */\n      0x4e487b7100000000000000000000000000000000000000000000000000000000\n        /* \"#utility.yul\":487:488   */\n      0x00\n        /* \"#utility.yul\":480:568   */\n      mstore\n        /* \"#utility.yul\":587:591   */\n      0x11\n        /* \"#utility.yul\":584:585   */\n      0x04\n        /* \"#utility.yul\":577:592   */\n      mstore\n        /* \"#utility.yul\":611:615   */\n      0x24\n        /* \"#utility.yul\":608:609   */\n      0x00\n        /* \"#utility.yul\":601:616   */\n      revert\n        /* \"#utility.yul\":628:819   */\n    tag_49:\n        /* \"#utility.yul\":668:671   */\n      0x00\n        /* \"#utility.yul\":687:707   */\n      tag_76\n        /* \"#utility.yul\":705:706   */\n      dup3\n        /* \"#utility.yul\":687:707   */\n      tag_65\n      jump\t// in\n    tag_76:\n        /* \"#utility.yul\":682:707   */\n      swap2\n      pop\n        /* \"#utility.yul\":721:741   */\n      tag_77\n        /* \"#utility.yul\":739:740   */\n      dup4\n        /* \"#utility.yul\":721:741   */\n      tag_65\n      jump\t// in\n    tag_77:\n        /* \"#utility.yul\":716:741   */\n      swap3\n      pop\n        /* \"#utility.yul\":764:765   */\n      dup3\n        /* \"#utility.yul\":761:762   */\n      dup3\n        /* \"#utility.yul\":757:766   */\n      add\n        /* \"#utility.yul\":750:766   */\n      swap1\n      pop\n        /* \"#utility.yul\":785:788   */\n      dup1\n        /* \"#utility.yul\":782:783   */\n      dup3\n        /* \"#utility.yul\":779:789   */\n      gt\n        /* \"#utility.yul\":776:812   */\n      iszero\n      tag_78\n      jumpi\n        /* \"#utility.yul\":792:810   */\n      tag_79\n      tag_67\n      jump\t// in\n    tag_79:\n        /* \"#utility.yul\":776:812   */\n    tag_78:\n        /* \"#utility.yul\":628:819   */\n      swap3\n      swap2\n      pop\n      pop\n      jump\t// out\n\n    auxdata: 0xa264697066735822122008614bd51e28fabb186d9138444c72648d30bf3ff7fdb3d88c77f4a5d255356a64736f6c634300081a0033\n}\n",
				"bytecode": {
					"linkReferences": {},
					"object": "60806040526729a2241af62c00005f55671bc16d674ec80000600155674563918244f400006002556729a2241af62c0000600355678ac7230489e80000600455674563918244f400006005553480156055575f80fd5b5061054e806100635f395ff3fe608060405260043610610085575f3560e01c806382d4a75c1161005857806382d4a75c146101315780638c6f37591461015b57806393e84cd914610185578063b88a802f1461018f578063d9d142f3146101a557610085565b806316a1883a146100895780631c95cfc1146100b357806333c2a9f8146100dd5780636e1d553714610107575b5f80fd5b348015610094575f80fd5b5061009d6101cf565b6040516100aa919061049f565b60405180910390f35b3480156100be575f80fd5b506100c76101d5565b6040516100d4919061049f565b60405180910390f35b3480156100e8575f80fd5b506100f16101db565b6040516100fe919061049f565b60405180910390f35b348015610112575f80fd5b5061011b6101e0565b604051610128919061049f565b60405180910390f35b34801561013c575f80fd5b506101456101e6565b604051610152919061049f565b60405180910390f35b348015610166575f80fd5b5061016f6101ec565b60405161017c919061049f565b60405180910390f35b61018d6101f2565b005b34801561019a575f80fd5b506101a3610365565b005b3480156101b0575f80fd5b506101b9610481565b6040516101c6919061049f565b60405180910390f35b60045481565b60025481565b5f5481565b60055481565b60015481565b60035481565b6706f05b59d3b200003414610205575f80fd5b5f3460065461021491906104e5565b9050600454811115610224575f80fd5b5f5481036102865760015460075f3373ffffffffffffffffffffffffffffffffffffffff1673ffffffffffffffffffffffffffffffffffffffff1681526020019081526020015f205f82825461027a91906104e5565b9250508190555061034a565b60025481036102e95760035460075f3373ffffffffffffffffffffffffffffffffffffffff1673ffffffffffffffffffffffffffffffffffffffff1681526020019081526020015f205f8282546102dd91906104e5565b92505081905550610349565b60045481036103485760055460075f3373ffffffffffffffffffffffffffffffffffffffff1673ffffffffffffffffffffffffffffffffffffffff1681526020019081526020015f205f82825461034091906104e5565b925050819055505b5b5b3460065f82825461035b91906104e5565b9250508190555050565b60045460065414610374575f80fd5b5f60075f3373ffffffffffffffffffffffffffffffffffffffff1673ffffffffffffffffffffffffffffffffffffffff1681526020019081526020015f2054116103bc575f80fd5b5f60075f3373ffffffffffffffffffffffffffffffffffffffff1673ffffffffffffffffffffffffffffffffffffffff1681526020019081526020015f20819055503373ffffffffffffffffffffffffffffffffffffffff166108fc60075f3373ffffffffffffffffffffffffffffffffffffffff1673ffffffffffffffffffffffffffffffffffffffff1681526020019081526020015f205490811502906040515f60405180830381858888f1935050505015801561047e573d5f803e3d5ffd5b50565b60065481565b5f819050919050565b61049981610487565b82525050565b5f6020820190506104b25f830184610490565b92915050565b7f4e487b71000000000000000000000000000000000000000000000000000000005f52601160045260245ffd5b5f6104ef82610487565b91506104fa83610487565b9250828201905080821115610512576105116104b8565b5b9291505056fea264697066735822122008614bd51e28fabb186d9138444c72648d30bf3ff7fdb3d88c77f4a5d255356a64736f6c634300081a0033",
					"opcodes": "PUSH1 0x80 PUSH1 0x40 MSTORE PUSH8 0x29A2241AF62C0000 PUSH0 SSTORE PUSH8 0x1BC16D674EC80000 PUSH1 0x1 SSTORE PUSH8 0x4563918244F40000 PUSH1 0x2 SSTORE PUSH8 0x29A2241AF62C0000 PUSH1 0x3 SSTORE PUSH8 0x8AC7230489E80000 PUSH1 0x4 SSTORE PUSH8 0x4563918244F40000 PUSH1 0x5 SSTORE CALLVALUE DUP1 ISZERO PUSH1 0x55 JUMPI PUSH0 DUP1 REVERT JUMPDEST POP PUSH2 0x54E DUP1 PUSH2 0x63 PUSH0 CODECOPY PUSH0 RETURN INVALID PUSH1 0x80 PUSH1 0x40 MSTORE PUSH1 0x4 CALLDATASIZE LT PUSH2 0x85 JUMPI PUSH0 CALLDATALOAD PUSH1 0xE0 SHR DUP1 PUSH4 0x82D4A75C GT PUSH2 0x58 JUMPI DUP1 PUSH4 0x82D4A75C EQ PUSH2 0x131 JUMPI DUP1 PUSH4 0x8C6F3759 EQ PUSH2 0x15B JUMPI DUP1 PUSH4 0x93E84CD9 EQ PUSH2 0x185 JUMPI DUP1 PUSH4 0xB88A802F EQ PUSH2 0x18F JUMPI DUP1 PUSH4 0xD9D142F3 EQ PUSH2 0x1A5 JUMPI PUSH2 0x85 JUMP JUMPDEST DUP1 PUSH4 0x16A1883A EQ PUSH2 0x89 JUMPI DUP1 PUSH4 0x1C95CFC1 EQ PUSH2 0xB3 JUMPI DUP1 PUSH4 0x33C2A9F8 EQ PUSH2 0xDD JUMPI DUP1 PUSH4 0x6E1D5537 EQ PUSH2 0x107 JUMPI JUMPDEST PUSH0 DUP1 REVERT JUMPDEST CALLVALUE DUP1 ISZERO PUSH2 0x94 JUMPI PUSH0 DUP1 REVERT JUMPDEST POP PUSH2 0x9D PUSH2 0x1CF JUMP JUMPDEST PUSH1 0x40 MLOAD PUSH2 0xAA SWAP2 SWAP1 PUSH2 0x49F JUMP JUMPDEST PUSH1 0x40 MLOAD DUP1 SWAP2 SUB SWAP1 RETURN JUMPDEST CALLVALUE DUP1 ISZERO PUSH2 0xBE JUMPI PUSH0 DUP1 REVERT JUMPDEST POP PUSH2 0xC7 PUSH2 0x1D5 JUMP JUMPDEST PUSH1 0x40 MLOAD PUSH2 0xD4 SWAP2 SWAP1 PUSH2 0x49F JUMP JUMPDEST PUSH1 0x40 MLOAD DUP1 SWAP2 SUB SWAP1 RETURN JUMPDEST CALLVALUE DUP1 ISZERO PUSH2 0xE8 JUMPI PUSH0 DUP1 REVERT JUMPDEST POP PUSH2 0xF1 PUSH2 0x1DB JUMP JUMPDEST PUSH1 0x40 MLOAD PUSH2 0xFE SWAP2 SWAP1 PUSH2 0x49F JUMP JUMPDEST PUSH1 0x40 MLOAD DUP1 SWAP2 SUB SWAP1 RETURN JUMPDEST CALLVALUE DUP1 ISZERO PUSH2 0x112 JUMPI PUSH0 DUP1 REVERT JUMPDEST POP PUSH2 0x11B PUSH2 0x1E0 JUMP JUMPDEST PUSH1 0x40 MLOAD PUSH2 0x128 SWAP2 SWAP1 PUSH2 0x49F JUMP JUMPDEST PUSH1 0x40 MLOAD DUP1 SWAP2 SUB SWAP1 RETURN JUMPDEST CALLVALUE DUP1 ISZERO PUSH2 0x13C JUMPI PUSH0 DUP1 REVERT JUMPDEST POP PUSH2 0x145 PUSH2 0x1E6 JUMP JUMPDEST PUSH1 0x40 MLOAD PUSH2 0x152 SWAP2 SWAP1 PUSH2 0x49F JUMP JUMPDEST PUSH1 0x40 MLOAD DUP1 SWAP2 SUB SWAP1 RETURN JUMPDEST CALLVALUE DUP1 ISZERO PUSH2 0x166 JUMPI PUSH0 DUP1 REVERT JUMPDEST POP PUSH2 0x16F PUSH2 0x1EC JUMP JUMPDEST PUSH1 0x40 MLOAD PUSH2 0x17C SWAP2 SWAP1 PUSH2 0x49F JUMP JUMPDEST PUSH1 0x40 MLOAD DUP1 SWAP2 SUB SWAP1 RETURN JUMPDEST PUSH2 0x18D PUSH2 0x1F2 JUMP JUMPDEST STOP JUMPDEST CALLVALUE DUP1 ISZERO PUSH2 0x19A JUMPI PUSH0 DUP1 REVERT JUMPDEST POP PUSH2 0x1A3 PUSH2 0x365 JUMP JUMPDEST STOP JUMPDEST CALLVALUE DUP1 ISZERO PUSH2 0x1B0 JUMPI PUSH0 DUP1 REVERT JUMPDEST POP PUSH2 0x1B9 PUSH2 0x481 JUMP JUMPDEST PUSH1 0x40 MLOAD PUSH2 0x1C6 SWAP2 SWAP1 PUSH2 0x49F JUMP JUMPDEST PUSH1 0x40 MLOAD DUP1 SWAP2 SUB SWAP1 RETURN JUMPDEST PUSH1 0x4 SLOAD DUP2 JUMP JUMPDEST PUSH1 0x2 SLOAD DUP2 JUMP JUMPDEST PUSH0 SLOAD DUP2 JUMP JUMPDEST PUSH1 0x5 SLOAD DUP2 JUMP JUMPDEST PUSH1 0x1 SLOAD DUP2 JUMP JUMPDEST PUSH1 0x3 SLOAD DUP2 JUMP JUMPDEST PUSH8 0x6F05B59D3B20000 CALLVALUE EQ PUSH2 0x205 JUMPI PUSH0 DUP1 REVERT JUMPDEST PUSH0 CALLVALUE PUSH1 0x6 SLOAD PUSH2 0x214 SWAP2 SWAP1 PUSH2 0x4E5 JUMP JUMPDEST SWAP1 POP PUSH1 0x4 SLOAD DUP2 GT ISZERO PUSH2 0x224 JUMPI PUSH0 DUP1 REVERT JUMPDEST PUSH0 SLOAD DUP2 SUB PUSH2 0x286 JUMPI PUSH1 0x1 SLOAD PUSH1 0x7 PUSH0 CALLER PUSH20 0xFFFFFFFFFFFFFFFFFFFFFFFFFFFFFFFFFFFFFFFF AND PUSH20 0xFFFFFFFFFFFFFFFFFFFFFFFFFFFFFFFFFFFFFFFF AND DUP2 MSTORE PUSH1 0x20 ADD SWAP1 DUP2 MSTORE PUSH1 0x20 ADD PUSH0 KECCAK256 PUSH0 DUP3 DUP3 SLOAD PUSH2 0x27A SWAP2 SWAP1 PUSH2 0x4E5 JUMP JUMPDEST SWAP3 POP POP DUP2 SWAP1 SSTORE POP PUSH2 0x34A JUMP JUMPDEST PUSH1 0x2 SLOAD DUP2 SUB PUSH2 0x2E9 JUMPI PUSH1 0x3 SLOAD PUSH1 0x7 PUSH0 CALLER PUSH20 0xFFFFFFFFFFFFFFFFFFFFFFFFFFFFFFFFFFFFFFFF AND PUSH20 0xFFFFFFFFFFFFFFFFFFFFFFFFFFFFFFFFFFFFFFFF AND DUP2 MSTORE PUSH1 0x20 ADD SWAP1 DUP2 MSTORE PUSH1 0x20 ADD PUSH0 KECCAK256 PUSH0 DUP3 DUP3 SLOAD PUSH2 0x2DD SWAP2 SWAP1 PUSH2 0x4E5 JUMP JUMPDEST SWAP3 POP POP DUP2 SWAP1 SSTORE POP PUSH2 0x349 JUMP JUMPDEST PUSH1 0x4 SLOAD DUP2 SUB PUSH2 0x348 JUMPI PUSH1 0x5 SLOAD PUSH1 0x7 PUSH0 CALLER PUSH20 0xFFFFFFFFFFFFFFFFFFFFFFFFFFFFFFFFFFFFFFFF AND PUSH20 0xFFFFFFFFFFFFFFFFFFFFFFFFFFFFFFFFFFFFFFFF AND DUP2 MSTORE PUSH1 0x20 ADD SWAP1 DUP2 MSTORE PUSH1 0x20 ADD PUSH0 KECCAK256 PUSH0 DUP3 DUP3 SLOAD PUSH2 0x340 SWAP2 SWAP1 PUSH2 0x4E5 JUMP JUMPDEST SWAP3 POP POP DUP2 SWAP1 SSTORE POP JUMPDEST JUMPDEST JUMPDEST CALLVALUE PUSH1 0x6 PUSH0 DUP3 DUP3 SLOAD PUSH2 0x35B SWAP2 SWAP1 PUSH2 0x4E5 JUMP JUMPDEST SWAP3 POP POP DUP2 SWAP1 SSTORE POP POP JUMP JUMPDEST PUSH1 0x4 SLOAD PUSH1 0x6 SLOAD EQ PUSH2 0x374 JUMPI PUSH0 DUP1 REVERT JUMPDEST PUSH0 PUSH1 0x7 PUSH0 CALLER PUSH20 0xFFFFFFFFFFFFFFFFFFFFFFFFFFFFFFFFFFFFFFFF AND PUSH20 0xFFFFFFFFFFFFFFFFFFFFFFFFFFFFFFFFFFFFFFFF AND DUP2 MSTORE PUSH1 0x20 ADD SWAP1 DUP2 MSTORE PUSH1 0x20 ADD PUSH0 KECCAK256 SLOAD GT PUSH2 0x3BC JUMPI PUSH0 DUP1 REVERT JUMPDEST PUSH0 PUSH1 0x7 PUSH0 CALLER PUSH20 0xFFFFFFFFFFFFFFFFFFFFFFFFFFFFFFFFFFFFFFFF AND PUSH20 0xFFFFFFFFFFFFFFFFFFFFFFFFFFFFFFFFFFFFFFFF AND DUP2 MSTORE PUSH1 0x20 ADD SWAP1 DUP2 MSTORE PUSH1 0x20 ADD PUSH0 KECCAK256 DUP2 SWAP1 SSTORE POP CALLER PUSH20 0xFFFFFFFFFFFFFFFFFFFFFFFFFFFFFFFFFFFFFFFF AND PUSH2 0x8FC PUSH1 0x7 PUSH0 CALLER PUSH20 0xFFFFFFFFFFFFFFFFFFFFFFFFFFFFFFFFFFFFFFFF AND PUSH20 0xFFFFFFFFFFFFFFFFFFFFFFFFFFFFFFFFFFFFFFFF AND DUP2 MSTORE PUSH1 0x20 ADD SWAP1 DUP2 MSTORE PUSH1 0x20 ADD PUSH0 KECCAK256 SLOAD SWAP1 DUP2 ISZERO MUL SWAP1 PUSH1 0x40 MLOAD PUSH0 PUSH1 0x40 MLOAD DUP1 DUP4 SUB DUP2 DUP6 DUP9 DUP9 CALL SWAP4 POP POP POP POP ISZERO DUP1 ISZERO PUSH2 0x47E JUMPI RETURNDATASIZE PUSH0 DUP1 RETURNDATACOPY RETURNDATASIZE PUSH0 REVERT JUMPDEST POP JUMP JUMPDEST PUSH1 0x6 SLOAD DUP2 JUMP JUMPDEST PUSH0 DUP2 SWAP1 POP SWAP2 SWAP1 POP JUMP JUMPDEST PUSH2 0x499 DUP2 PUSH2 0x487 JUMP JUMPDEST DUP3 MSTORE POP POP JUMP JUMPDEST PUSH0 PUSH1 0x20 DUP3 ADD SWAP1 POP PUSH2 0x4B2 PUSH0 DUP4 ADD DUP5 PUSH2 0x490 JUMP JUMPDEST SWAP3 SWAP2 POP POP JUMP JUMPDEST PUSH32 0x4E487B7100000000000000000000000000000000000000000000000000000000 PUSH0 MSTORE PUSH1 0x11 PUSH1 0x4 MSTORE PUSH1 0x24 PUSH0 REVERT JUMPDEST PUSH0 PUSH2 0x4EF DUP3 PUSH2 0x487 JUMP JUMPDEST SWAP2 POP PUSH2 0x4FA DUP4 PUSH2 0x487 JUMP JUMPDEST SWAP3 POP DUP3 DUP3 ADD SWAP1 POP DUP1 DUP3 GT ISZERO PUSH2 0x512 JUMPI PUSH2 0x511 PUSH2 0x4B8 JUMP JUMPDEST JUMPDEST SWAP3 SWAP2 POP POP JUMP INVALID LOG2 PUSH5 0x6970667358 0x22 SLT KECCAK256 ADDMOD PUSH2 0x4BD5 0x1E 0x28 STATICCALL 0xBB XOR PUSH14 0x9138444C72648D30BF3FF7FDB3D8 DUP13 PUSH24 0xF4A5D255356A64736F6C634300081A003300000000000000 "
				},
				"gasEstimates": {
					"creation": {
						"codeDepositCost": "271600",
						"executionCost": "132945",
						"totalCost": "404545"
					},
					"external": {
						"claimReward()": "infinite",
						"depositedWei()": "2513",
						"finalMileStone()": "2426",
						"finalReward()": "2492",
						"mileStone1Reward()": "2425",
						"mileStone2Reward()": "2447",
						"payoutMileStone1()": "2469",
						"payoutMileStone2()": "2448",
						"play()": "infinite"
					}
				},
				"methodIdentifiers": {
					"claimReward()": "b88a802f",
					"depositedWei()": "d9d142f3",
					"finalMileStone()": "16a1883a",
					"finalReward()": "6e1d5537",
					"mileStone1Reward()": "82d4a75c",
					"mileStone2Reward()": "8c6f3759",
					"payoutMileStone1()": "33c2a9f8",
					"payoutMileStone2()": "1c95cfc1",
					"play()": "93e84cd9"
				}
			},
			"storageLayout": {
				"storage": [
					{
						"astId": 3,
						"contract": "l1-7-attack/etherGameFixed.sol:EtherGame",
						"label": "payoutMileStone1",
						"offset": 0,
						"slot": "0",
						"type": "t_uint256"
					},
					{
						"astId": 6,
						"contract": "l1-7-attack/etherGameFixed.sol:EtherGame",
						"label": "mileStone1Reward",
						"offset": 0,
						"slot": "1",
						"type": "t_uint256"
					},
					{
						"astId": 9,
						"contract": "l1-7-attack/etherGameFixed.sol:EtherGame",
						"label": "payoutMileStone2",
						"offset": 0,
						"slot": "2",
						"type": "t_uint256"
					},
					{
						"astId": 12,
						"contract": "l1-7-attack/etherGameFixed.sol:EtherGame",
						"label": "mileStone2Reward",
						"offset": 0,
						"slot": "3",
						"type": "t_uint256"
					},
					{
						"astId": 15,
						"contract": "l1-7-attack/etherGameFixed.sol:EtherGame",
						"label": "finalMileStone",
						"offset": 0,
						"slot": "4",
						"type": "t_uint256"
					},
					{
						"astId": 18,
						"contract": "l1-7-attack/etherGameFixed.sol:EtherGame",
						"label": "finalReward",
						"offset": 0,
						"slot": "5",
						"type": "t_uint256"
					},
					{
						"astId": 20,
						"contract": "l1-7-attack/etherGameFixed.sol:EtherGame",
						"label": "depositedWei",
						"offset": 0,
						"slot": "6",
						"type": "t_uint256"
					},
					{
						"astId": 24,
						"contract": "l1-7-attack/etherGameFixed.sol:EtherGame",
						"label": "redeemableEther",
						"offset": 0,
						"slot": "7",
						"type": "t_mapping(t_address,t_uint256)"
					}
				],
				"types": {
					"t_address": {
						"encoding": "inplace",
						"label": "address",
						"numberOfBytes": "20"
					},
					"t_mapping(t_address,t_uint256)": {
						"encoding": "mapping",
						"key": "t_address",
						"label": "mapping(address => uint256)",
						"numberOfBytes": "32",
						"value": "t_uint256"
					},
					"t_uint256": {
						"encoding": "inplace",
						"label": "uint256",
						"numberOfBytes": "32"
					}
				}
			},
			"userdoc": {
				"kind": "user",
				"methods": {},
				"version": 1
			}
		}
	}
}